{
	"data": {
		"bytecode": {
			"linkReferences": {},
			"object": "60c060405234801561000f575f5ffd5b50604051612a36380380612a3683398101604081905261002e916107a7565b60015f5560068054821515600160a01b9081026001600160a81b03199092166001600160a01b038c1617919091179182905589910460ff16610143576001600160a01b0387166100e95760405163662837cf60e11b81526001600160a01b0382169063cc506f9e906100a49089906004016108ba565b6020604051808303815f875af11580156100c0573d5f5f3e3d5ffd5b505050506040513d601f19601f820116820180604052508101906100e49190610914565b6100eb565b865b6001600160a01b0316608081905260405163965afa8960e01b815230600482015263965afa89906024015f604051808303815f87803b15801561012c575f5ffd5b505af115801561013e573d5f5f3e3d5ffd5b505050505b8451600580546020880151604089015160608a015160808b015115156701000000000000000260ff60381b1991151566010000000000000260ff60301b1963ffffffff90941662010000029390931666ffffffffff00001960ff9586166101000261ffff19909716959098169490941794909417959095169190911717929092169190911790558751889060019081906101dd90826109b1565b50602082015160018201906101f290826109b1565b505083516003805491151560ff199283161790556020808601516004556040808a01516001600160a01b031660a052335f908152600b909252902080549091166001179055506102418461024f565b505050505050505050610acf565b335f908152600b602052604090205460ff16801561026d5750600854155b806102865750335f908152600c602052604090205460ff165b6102a357604051632c972a5f60e01b815260040160405180910390fd5b5f5b81518163ffffffff1610156103e4575f828263ffffffff16815181106102cd576102cd610a6b565b60200260200101515f015190505f838363ffffffff16815181106102f3576102f3610a6b565b6020908102919091018101518101516001600160a01b0384165f908152600b90925260409091205490915060ff1661035c576001600160a01b0382165f908152600b60205260408120805460ff191660011790556008805490919061035790610a93565b909155505b600654600160a01b900460ff166103cf576080516040516373a1403560e11b81526001600160a01b038481166004830152602482018490529091169063e742806a906044015f604051808303815f87803b1580156103b8575f5ffd5b505af11580156103ca573d5f5f3e3d5ffd5b505050505b505080806103dc90610aab565b9150506102a5565b5050565b80516001600160a01b03811681146103fe575f5ffd5b919050565b634e487b7160e01b5f52604160045260245ffd5b604080519081016001600160401b038111828210171561043957610439610403565b60405290565b604051601f8201601f191681016001600160401b038111828210171561046757610467610403565b604052919050565b5f806001600160401b0384111561048857610488610403565b50601f8301601f191660200161049d8161043f565b9150508281528383830111156104b1575f5ffd5b8282602083015e5f602084830101529392505050565b5f82601f8301126104d6575f5ffd5b6104e58383516020850161046f565b9392505050565b5f604082840312156104fc575f5ffd5b610504610417565b82519091506001600160401b0381111561051c575f5ffd5b610528848285016104c7565b82525060208201516001600160401b03811115610543575f5ffd5b8201601f81018413610553575f5ffd5b6105628482516020840161046f565b60208301525092915050565b5f6060828403121561057e575f5ffd5b604051606081016001600160401b03811182821017156105a0576105a0610403565b604052825190915081906001600160401b038111156105bd575f5ffd5b6105c9858286016104c7565b82525060208301516001600160401b038111156105e4575f5ffd5b6105f0858286016104c7565b602083015250610602604084016103e8565b60408201525092915050565b805160ff811681146103fe575f5ffd5b805180151581146103fe575f5ffd5b5f60a0828403121561063d575f5ffd5b60405160a081016001600160401b038111828210171561065f5761065f610403565b60405290508061066e8361060e565b815261067c6020840161060e565b6020820152604083015163ffffffff81168114610697575f5ffd5b60408201526106a86060840161061e565b60608201526106b96080840161061e565b60808201525092915050565b5f82601f8301126106d4575f5ffd5b81516001600160401b038111156106ed576106ed610403565b6106fc60208260051b0161043f565b8082825260208201915060208360061b86010192508583111561071d575f5ffd5b602085015b838110156107665760408188031215610739575f5ffd5b610741610417565b61074a826103e8565b8152602082810151818301529084529290920191604001610722565b5095945050505050565b5f60408284031215610780575f5ffd5b610788610417565b90506107938261061e565b815260209182015191810191909152919050565b5f5f5f5f5f5f5f5f6101a0898b0312156107bf575f5ffd5b6107c8896103e8565b60208a01519098506001600160401b038111156107e3575f5ffd5b6107ef8b828c016104ec565b9750506107fe60408a016103e8565b60608a01519096506001600160401b03811115610819575f5ffd5b6108258b828c0161056e565b9550506108358a60808b0161062d565b6101208a01519094506001600160401b03811115610851575f5ffd5b61085d8b828c016106c5565b93505061086e8a6101408b01610770565b915061087d6101808a0161061e565b90509295985092959890939650565b5f81518084528060208401602086015e5f602082860101526020601f19601f83011685010191505092915050565b602081525f8251606060208401526108d5608084018261088c565b90506020840151601f198483030160408501526108f2828261088c565b604095909501516001600160a01b031660609490940193909352509192915050565b5f60208284031215610924575f5ffd5b6104e5826103e8565b600181811c9082168061094157607f821691505b60208210810361095f57634e487b7160e01b5f52602260045260245ffd5b50919050565b601f8211156109ac57805f5260205f20601f840160051c8101602085101561098a5750805b601f840160051c820191505b818110156109a9575f8155600101610996565b50505b505050565b81516001600160401b038111156109ca576109ca610403565b6109de816109d8845461092d565b84610965565b6020601f821160018114610a10575f83156109f95750848201515b5f19600385901b1c1916600184901b1784556109a9565b5f84815260208120601f198516915b82811015610a3f5787850151825560209485019460019092019101610a1f565b5084821015610a5c57868401515f19600387901b60f8161c191681555b50505050600190811b01905550565b634e487b7160e01b5f52603260045260245ffd5b634e487b7160e01b5f52601160045260245ffd5b5f60018201610aa457610aa4610a7f565b5060010190565b5f63ffffffff821663ffffffff8103610ac657610ac6610a7f565b60010192915050565b60805160a051611f0e610b285f395f61024a01525f81816105db0152818161097801528181610a6d01528181610ea401528181610f850152818161103401528181611247015281816113fb015261159c0152611f0e5ff3fe608060405260043610610189575f3560e01c806362354e03116100df578063b918351511610083578063dbac26e911610060578063dbac26e91461057d578063e37bcdad146105ab578063f96dae0a146105ca578063fe436c53146105fd57005b8063b918351514610520578063bf3adaec1461053f578063da7904c21461055e57005b8063a3dac6ae116100bc578063a3dac6ae14610475578063aa6c976314610495578063b03fbb21146104b4578063b1e44d8f146104f257005b806362354e03146103be57806365f3657f1461043f5780638215ae571461046157005b806352050003116101465780635957ac66116101235780635957ac66146103215780635c19a95c146103555780635e35359e146103745780635f4f3f231461039357005b80635205000314610284578063539e5082146102c257806354445ae6146102f657005b8063013cf08b1461018b5780631035c1cf146101c3578063132da92d146101e2578063297f9af0146102015780632dfca445146102245780634ab17f3114610239575b005b348015610196575f5ffd5b506101aa6101a53660046117ab565b61061c565b6040516101ba94939291906117f0565b60405180910390f35b3480156101ce575f5ffd5b506101896101dd366004611843565b6106d7565b3480156101ed575f5ffd5b506101896101fc3660046118e8565b61083e565b34801561020c575f5ffd5b5061021660085481565b6040519081526020016101ba565b34801561022f575f5ffd5b5061021660075481565b348015610244575f5ffd5b5061026c7f000000000000000000000000000000000000000000000000000000000000000081565b6040516001600160a01b0390911681526020016101ba565b34801561028f575f5ffd5b506102b261029e366004611922565b600c6020525f908152604090205460ff1681565b60405190151581526020016101ba565b3480156102cd575f5ffd5b5061026c6102dc366004611922565b600e6020525f90815260409020546001600160a01b031681565b348015610301575f5ffd5b50610216610310366004611922565b600d6020525f908152604090205481565b34801561032c575f5ffd5b5060035460045461033e9160ff169082565b6040805192151583526020830191909152016101ba565b348015610360575f5ffd5b5061018961036f366004611922565b61088a565b34801561037f575f5ffd5b5061018961038e366004611944565b610acb565b34801561039e575f5ffd5b506102166103ad366004611922565b60106020525f908152604090205481565b3480156103c9575f5ffd5b506005546104059060ff80821691610100810482169163ffffffff620100008304169166010000000000008104821691600160381b9091041685565b6040805160ff968716815295909416602086015263ffffffff9092169284019290925290151560608301521515608082015260a0016101ba565b34801561044a575f5ffd5b50610453610ce8565b6040516101ba929190611982565b34801561046c575f5ffd5b50610189610e04565b348015610480575f5ffd5b506006546102b290600160a01b900460ff1681565b3480156104a0575f5ffd5b506101896104af366004611a26565b611063565b3480156104bf575f5ffd5b506104d36104ce366004611843565b6110c1565b604080516001600160a01b0390931683526020830191909152016101ba565b3480156104fd575f5ffd5b506102b261050c366004611922565b600b6020525f908152604090205460ff1681565b34801561052b575f5ffd5b5061018961053a366004611ad3565b611103565b34801561054a575f5ffd5b50610189610559366004611ad3565b6112b4565b348015610569575f5ffd5b50610189610578366004611bc2565b611468565b348015610588575f5ffd5b506102b2610597366004611922565b600a6020525f908152604090205460ff1681565b3480156105b6575f5ffd5b506101896105c5366004611c31565b611632565b3480156105d5575f5ffd5b5061026c7f000000000000000000000000000000000000000000000000000000000000000081565b348015610608575f5ffd5b506102b2610617366004611922565b6116ec565b60096020525f90815260409020805460018201546002830180546001600160a01b0393841694929093169261065090611ccd565b80601f016020809104026020016040519081016040528092919081815260200182805461067c90611ccd565b80156106c75780601f1061069e576101008083540402835291602001916106c7565b820191905f5260205f20905b8154815290600101906020018083116106aa57829003601f168201915b5050505050908060030154905084565b6106df611783565b335f818152600c602052604090205460ff1661070e57604051633feae72960e11b815260040160405180910390fd5b5f82116107555760405162461bcd60e51b815260206004820152601060248201526f111053d25b9d985b1a59105b5bdd5b9d60821b60448201526064015b60405180910390fd5b8147101561079e5760405162461bcd60e51b815260206004820152601660248201527544414f496e73756666696369656e7442616c616e636560501b604482015260640161074c565b5f836001600160a01b0316836040515f6040518083038185875af1925050503d805f81146107e7576040519150601f19603f3d011682016040523d82523d5f602084013e6107ec565b606091505b505090508061082f5760405162461bcd60e51b815260206004820152600f60248201526e151c985b9cd9995c8811985a5b1959608a1b604482015260640161074c565b505061083a60015f55565b5050565b335f818152600c602052604090205460ff1661086d57604051633feae72960e11b815260040160405180910390fd5b5080516003805460ff191691151591909117905560200151600455565b335f818152600b602052604090205460ff16806108b55750335f908152600c602052604090205460ff165b6108d257604051632c972a5f60e01b815260040160405180910390fd5b6001600160a01b0381165f908152600a602052604090205460ff161561090b5760405163c8e5275b60e01b815260040160405180910390fd5b6001600160a01b0382166109615760405162461bcd60e51b815260206004820152601760248201527f43616e6e6f742064656c656761746520746f207a65726f000000000000000000604482015260640161074c565b6040516370a0823160e01b81523360048201525f907f00000000000000000000000000000000000000000000000000000000000000006001600160a01b0316906370a0823190602401602060405180830381865afa1580156109c5573d5f5f3e3d5ffd5b505050506040513d601f19601f820116820180604052508101906109e99190611cff565b1015610a2e5760405162461bcd60e51b81526020600482015260146024820152732d32b937902232b632b3b0ba32b2102837bbb2b960611b604482015260640161074c565b6001600160a01b038281165f818152600e60205260409081902080546001600160a01b03191633179055516317066a5760e21b815260048101919091527f000000000000000000000000000000000000000000000000000000000000000090911690635c19a95c906024015b5f604051808303815f87803b158015610ab1575f5ffd5b505af1158015610ac3573d5f5f3e3d5ffd5b505050505050565b610ad3611783565b335f818152600c602052604090205460ff16610b0257604051633feae72960e11b815260040160405180910390fd5b5f8211610b655760405162461bcd60e51b815260206004820152602b60248201527f5769746864726177616c20616d6f756e74206d7573742062652067726561746560448201526a72207468616e207a65726f60a81b606482015260840161074c565b6040516370a0823160e01b8152306004820152849083906001600160a01b038316906370a0823190602401602060405180830381865afa158015610bab573d5f5f3e3d5ffd5b505050506040513d601f19601f82011682018060405250810190610bcf9190611cff565b1015610c1d5760405162461bcd60e51b815260206004820152601d60248201527f496e73756666696369656e742074726561737572792062616c616e6365000000604482015260640161074c565b60405163a9059cbb60e01b81526001600160a01b038581166004830152602482018590525f919083169063a9059cbb906044016020604051808303815f875af1158015610c6c573d5f5f3e3d5ffd5b505050506040513d601f19601f82011682018060405250810190610c909190611d16565b905080610cd75760405162461bcd60e51b8152602060048201526015602482015274151bdad95b881d1c985b9cd9995c8819985a5b1959605a1b604482015260640161074c565b505050610ce360015f55565b505050565b600180548190610cf790611ccd565b80601f0160208091040260200160405190810160405280929190818152602001828054610d2390611ccd565b8015610d6e5780601f10610d4557610100808354040283529160200191610d6e565b820191905f5260205f20905b815481529060010190602001808311610d5157829003601f168201915b505050505090806001018054610d8390611ccd565b80601f0160208091040260200160405190810160405280929190818152602001828054610daf90611ccd565b8015610dfa5780601f10610dd157610100808354040283529160200191610dfa565b820191905f5260205f20905b815481529060010190602001808311610ddd57829003601f168201915b5050505050905082565b335f818152600b602052604090205460ff1680610e2f5750335f908152600c602052604090205460ff165b610e4c57604051632c972a5f60e01b815260040160405180910390fd5b6001600160a01b0381165f908152600a602052604090205460ff1615610e855760405163c8e5275b60e01b815260040160405180910390fd5b604051632c3e6f0f60e11b81523360048201525f906001600160a01b037f0000000000000000000000000000000000000000000000000000000000000000169063587cde1e90602401602060405180830381865afa158015610ee9573d5f5f3e3d5ffd5b505050506040513d601f19601f82011682018060405250810190610f0d9190611d31565b6001600160a01b031603610f6e5760405162461bcd60e51b815260206004820152602260248201527f596f7520646f6e277420686176652064656c6567617465732c20746f20636c61604482015261696d60f01b606482015260840161074c565b604051632c3e6f0f60e11b81523360048201525f907f00000000000000000000000000000000000000000000000000000000000000006001600160a01b03169063587cde1e90602401602060405180830381865afa158015610fd2573d5f5f3e3d5ffd5b505050506040513d601f19601f82011682018060405250810190610ff69190611d31565b6001600160a01b038181165f908152600e60205260409081902080546001600160a01b0319169055516317066a5760e21b81523360048201529192507f00000000000000000000000000000000000000000000000000000000000000001690635c19a95c90602401610a9a565b335f818152600c602052604090205460ff1661109257604051633feae72960e11b815260040160405180910390fd5b8151829060019081906110a59082611d90565b50602082015160018201906110ba9082611d90565b5050505050565b600f602052815f5260405f2081815481106110da575f80fd5b5f918252602090912060029091020180546001909101546001600160a01b039091169250905082565b335f908152600b602052604090205460ff1680156111215750600854155b8061113a5750335f908152600c602052604090205460ff165b61115757604051632c972a5f60e01b815260040160405180910390fd5b5f5b81518163ffffffff16101561083a575f828263ffffffff168151811061118157611181611e4b565b60200260200101515f015190505f838363ffffffff16815181106111a7576111a7611e4b565b6020908102919091018101518101516001600160a01b0384165f908152600b90925260409091205490915060ff16611210576001600160a01b0382165f908152600b60205260408120805460ff191660011790556008805490919061120b90611e73565b909155505b600654600160a01b900460ff1661129f576040516373a1403560e11b81526001600160a01b038381166004830152602482018390527f0000000000000000000000000000000000000000000000000000000000000000169063e742806a906044015f604051808303815f87803b158015611288575f5ffd5b505af115801561129a573d5f5f3e3d5ffd5b505050505b505080806112ac90611e8b565b915050611159565b600654600160a01b900460ff166112de57604051633feae72960e11b815260040160405180910390fd5b335f908152600c602052604090205460ff1661130d57604051633feae72960e11b815260040160405180910390fd5b5f5b81518163ffffffff16101561083a575f828263ffffffff168151811061133757611337611e4b565b60200260200101515f015190505f838363ffffffff168151811061135d5761135d611e4b565b6020908102919091018101518101516001600160a01b0384165f908152600b90925260409091205490915060ff16156113c4576001600160a01b0382165f908152600b60205260408120805460ff19169055600880549091906113bf90611eaf565b909155505b600654600160a01b900460ff166114535760405163aecf8a6d60e01b81526001600160a01b038381166004830152602482018390527f0000000000000000000000000000000000000000000000000000000000000000169063aecf8a6d906044015f604051808303815f87803b15801561143c575f5ffd5b505af115801561144e573d5f5f3e3d5ffd5b505050505b5050808061146090611e8b565b91505061130f565b336001600160a01b0385161461149157604051633feae72960e11b815260040160405180910390fd5b604080516080810182526001600160a01b0380871682528581166020808401918252838501878152600754606086018190525f9081526009909252949020835181549084166001600160a01b03199182161782559151600182018054919094169216919091179091559151909190600282019061150e9082611d90565b5060609190910151600390910155600460ff8216116115f6575f8160ff16600581111561153d5761153d611ec4565b90505f81600581111561155257611552611ec4565b148061156f5750600581600581111561156d5761156d611ec4565b145b156115f4576040516328afeb5360e21b81526001600160a01b03868116600483015260ff841660248301527f0000000000000000000000000000000000000000000000000000000000000000169063a2bfad4c906044015f604051808303815f87803b1580156115dd575f5ffd5b505af11580156115ef573d5f5f3e3d5ffd5b505050505b505b60078054905f61160583611e73565b9091555050506001600160a01b039092165f908152600c60205260409020805460ff191660011790555050565b335f818152600c602052604090205460ff1661166157604051633feae72960e11b815260040160405180910390fd5b508051600580546020840151604085015160608601516080909601511515600160381b0267ff000000000000001996151566010000000000000266ff0000000000001963ffffffff90931662010000029290921666ffffffffff00001960ff9485166101000261ffff1990961694909716939093179390931794909416179290921792909216179055565b6001600160a01b0381165f908152600b6020526040812054829060ff16806117225750335f908152600c602052604090205460ff165b61173f57604051632c972a5f60e01b815260040160405180910390fd5b6001600160a01b0381165f908152600a602052604090205460ff16156117785760405163c8e5275b60e01b815260040160405180910390fd5b600191505b50919050565b60025f54036117a557604051633ee5aeb560e01b815260040160405180910390fd5b60025f55565b5f602082840312156117bb575f5ffd5b5035919050565b5f81518084528060208401602086015e5f602082860101526020601f19601f83011685010191505092915050565b6001600160a01b038581168252841660208201526080604082018190525f9061181b908301856117c2565b905082606083015295945050505050565b6001600160a01b0381168114611840575f5ffd5b50565b5f5f60408385031215611854575f5ffd5b823561185f8161182c565b946020939093013593505050565b634e487b7160e01b5f52604160045260245ffd5b6040805190810167ffffffffffffffff811182821017156118a4576118a461186d565b60405290565b604051601f8201601f1916810167ffffffffffffffff811182821017156118d3576118d361186d565b604052919050565b8015158114611840575f5ffd5b5f60408284031280156118f9575f5ffd5b50611902611881565b823561190d816118db565b81526020928301359281019290925250919050565b5f60208284031215611932575f5ffd5b813561193d8161182c565b9392505050565b5f5f5f60608486031215611956575f5ffd5b83356119618161182c565b925060208401356119718161182c565b929592945050506040919091013590565b604081525f61199460408301856117c2565b82810360208401526119a681856117c2565b95945050505050565b5f5f67ffffffffffffffff8411156119c9576119c961186d565b50601f8301601f19166020016119de816118aa565b9150508281528383830111156119f2575f5ffd5b828260208301375f602084830101529392505050565b5f82601f830112611a17575f5ffd5b61193d838335602085016119af565b5f60208284031215611a36575f5ffd5b813567ffffffffffffffff811115611a4c575f5ffd5b820160408185031215611a5d575f5ffd5b611a65611881565b813567ffffffffffffffff811115611a7b575f5ffd5b611a8786828501611a08565b825250602082013567ffffffffffffffff811115611aa3575f5ffd5b80830192505084601f830112611ab7575f5ffd5b611ac6858335602085016119af565b6020820152949350505050565b5f60208284031215611ae3575f5ffd5b813567ffffffffffffffff811115611af9575f5ffd5b8201601f81018413611b09575f5ffd5b803567ffffffffffffffff811115611b2357611b2361186d565b611b3260208260051b016118aa565b8082825260208201915060208360061b850101925086831115611b53575f5ffd5b6020840193505b82841015611ba35760408488031215611b71575f5ffd5b611b79611881565b8435611b848161182c565b8152602085810135818301529083526040909401939190910190611b5a565b9695505050505050565b803560ff81168114611bbd575f5ffd5b919050565b5f5f5f5f60808587031215611bd5575f5ffd5b8435611be08161182c565b93506020850135611bf08161182c565b9250604085013567ffffffffffffffff811115611c0b575f5ffd5b611c1787828801611a08565b925050611c2660608601611bad565b905092959194509250565b5f60a0828403128015611c42575f5ffd5b5060405160a0810167ffffffffffffffff81118282101715611c6657611c6661186d565b604052611c7283611bad565b8152611c8060208401611bad565b6020820152604083013563ffffffff81168114611c9b575f5ffd5b60408201526060830135611cae816118db565b60608201526080830135611cc1816118db565b60808201529392505050565b600181811c90821680611ce157607f821691505b60208210810361177d57634e487b7160e01b5f52602260045260245ffd5b5f60208284031215611d0f575f5ffd5b5051919050565b5f60208284031215611d26575f5ffd5b815161193d816118db565b5f60208284031215611d41575f5ffd5b815161193d8161182c565b601f821115610ce357805f5260205f20601f840160051c81016020851015611d715750805b601f840160051c820191505b818110156110ba575f8155600101611d7d565b815167ffffffffffffffff811115611daa57611daa61186d565b611dbe81611db88454611ccd565b84611d4c565b6020601f821160018114611df0575f8315611dd95750848201515b5f19600385901b1c1916600184901b1784556110ba565b5f84815260208120601f198516915b82811015611e1f5787850151825560209485019460019092019101611dff565b5084821015611e3c57868401515f19600387901b60f8161c191681555b50505050600190811b01905550565b634e487b7160e01b5f52603260045260245ffd5b634e487b7160e01b5f52601160045260245ffd5b5f60018201611e8457611e84611e5f565b5060010190565b5f63ffffffff821663ffffffff8103611ea657611ea6611e5f565b60010192915050565b5f81611ebd57611ebd611e5f565b505f190190565b634e487b7160e01b5f52602160045260245ffdfea264697066735822122004c6d70ee2fbdf661f5a9108d1e3fff0954a6fcd9531fa64abf56c154a9cf85464736f6c634300081d0033",
			"opcodes": "PUSH1 0xC0 PUSH1 0x40 MSTORE CALLVALUE DUP1 ISZERO PUSH2 0xF JUMPI PUSH0 PUSH0 REVERT JUMPDEST POP PUSH1 0x40 MLOAD PUSH2 0x2A36 CODESIZE SUB DUP1 PUSH2 0x2A36 DUP4 CODECOPY DUP2 ADD PUSH1 0x40 DUP2 SWAP1 MSTORE PUSH2 0x2E SWAP2 PUSH2 0x7A7 JUMP JUMPDEST PUSH1 0x1 PUSH0 SSTORE PUSH1 0x6 DUP1 SLOAD DUP3 ISZERO ISZERO PUSH1 0x1 PUSH1 0xA0 SHL SWAP1 DUP2 MUL PUSH1 0x1 PUSH1 0x1 PUSH1 0xA8 SHL SUB NOT SWAP1 SWAP3 AND PUSH1 0x1 PUSH1 0x1 PUSH1 0xA0 SHL SUB DUP13 AND OR SWAP2 SWAP1 SWAP2 OR SWAP2 DUP3 SWAP1 SSTORE DUP10 SWAP2 DIV PUSH1 0xFF AND PUSH2 0x143 JUMPI PUSH1 0x1 PUSH1 0x1 PUSH1 0xA0 SHL SUB DUP8 AND PUSH2 0xE9 JUMPI PUSH1 0x40 MLOAD PUSH4 0x662837CF PUSH1 0xE1 SHL DUP2 MSTORE PUSH1 0x1 PUSH1 0x1 PUSH1 0xA0 SHL SUB DUP3 AND SWAP1 PUSH4 0xCC506F9E SWAP1 PUSH2 0xA4 SWAP1 DUP10 SWAP1 PUSH1 0x4 ADD PUSH2 0x8BA JUMP JUMPDEST PUSH1 0x20 PUSH1 0x40 MLOAD DUP1 DUP4 SUB DUP2 PUSH0 DUP8 GAS CALL ISZERO DUP1 ISZERO PUSH2 0xC0 JUMPI RETURNDATASIZE PUSH0 PUSH0 RETURNDATACOPY RETURNDATASIZE PUSH0 REVERT JUMPDEST POP POP POP POP PUSH1 0x40 MLOAD RETURNDATASIZE PUSH1 0x1F NOT PUSH1 0x1F DUP3 ADD AND DUP3 ADD DUP1 PUSH1 0x40 MSTORE POP DUP2 ADD SWAP1 PUSH2 0xE4 SWAP2 SWAP1 PUSH2 0x914 JUMP JUMPDEST PUSH2 0xEB JUMP JUMPDEST DUP7 JUMPDEST PUSH1 0x1 PUSH1 0x1 PUSH1 0xA0 SHL SUB AND PUSH1 0x80 DUP2 SWAP1 MSTORE PUSH1 0x40 MLOAD PUSH4 0x965AFA89 PUSH1 0xE0 SHL DUP2 MSTORE ADDRESS PUSH1 0x4 DUP3 ADD MSTORE PUSH4 0x965AFA89 SWAP1 PUSH1 0x24 ADD PUSH0 PUSH1 0x40 MLOAD DUP1 DUP4 SUB DUP2 PUSH0 DUP8 DUP1 EXTCODESIZE ISZERO DUP1 ISZERO PUSH2 0x12C JUMPI PUSH0 PUSH0 REVERT JUMPDEST POP GAS CALL ISZERO DUP1 ISZERO PUSH2 0x13E JUMPI RETURNDATASIZE PUSH0 PUSH0 RETURNDATACOPY RETURNDATASIZE PUSH0 REVERT JUMPDEST POP POP POP POP JUMPDEST DUP5 MLOAD PUSH1 0x5 DUP1 SLOAD PUSH1 0x20 DUP9 ADD MLOAD PUSH1 0x40 DUP10 ADD MLOAD PUSH1 0x60 DUP11 ADD MLOAD PUSH1 0x80 DUP12 ADD MLOAD ISZERO ISZERO PUSH8 0x100000000000000 MUL PUSH1 0xFF PUSH1 0x38 SHL NOT SWAP2 ISZERO ISZERO PUSH7 0x1000000000000 MUL PUSH1 0xFF PUSH1 0x30 SHL NOT PUSH4 0xFFFFFFFF SWAP1 SWAP5 AND PUSH3 0x10000 MUL SWAP4 SWAP1 SWAP4 AND PUSH7 0xFFFFFFFFFF0000 NOT PUSH1 0xFF SWAP6 DUP7 AND PUSH2 0x100 MUL PUSH2 0xFFFF NOT SWAP1 SWAP8 AND SWAP6 SWAP1 SWAP9 AND SWAP5 SWAP1 SWAP5 OR SWAP5 SWAP1 SWAP5 OR SWAP6 SWAP1 SWAP6 AND SWAP2 SWAP1 SWAP2 OR OR SWAP3 SWAP1 SWAP3 AND SWAP2 SWAP1 SWAP2 OR SWAP1 SSTORE DUP8 MLOAD DUP9 SWAP1 PUSH1 0x1 SWAP1 DUP2 SWAP1 PUSH2 0x1DD SWAP1 DUP3 PUSH2 0x9B1 JUMP JUMPDEST POP PUSH1 0x20 DUP3 ADD MLOAD PUSH1 0x1 DUP3 ADD SWAP1 PUSH2 0x1F2 SWAP1 DUP3 PUSH2 0x9B1 JUMP JUMPDEST POP POP DUP4 MLOAD PUSH1 0x3 DUP1 SLOAD SWAP2 ISZERO ISZERO PUSH1 0xFF NOT SWAP3 DUP4 AND OR SWAP1 SSTORE PUSH1 0x20 DUP1 DUP7 ADD MLOAD PUSH1 0x4 SSTORE PUSH1 0x40 DUP1 DUP11 ADD MLOAD PUSH1 0x1 PUSH1 0x1 PUSH1 0xA0 SHL SUB AND PUSH1 0xA0 MSTORE CALLER PUSH0 SWAP1 DUP2 MSTORE PUSH1 0xB SWAP1 SWAP3 MSTORE SWAP1 KECCAK256 DUP1 SLOAD SWAP1 SWAP2 AND PUSH1 0x1 OR SWAP1 SSTORE POP PUSH2 0x241 DUP5 PUSH2 0x24F JUMP JUMPDEST POP POP POP POP POP POP POP POP POP PUSH2 0xACF JUMP JUMPDEST CALLER PUSH0 SWAP1 DUP2 MSTORE PUSH1 0xB PUSH1 0x20 MSTORE PUSH1 0x40 SWAP1 KECCAK256 SLOAD PUSH1 0xFF AND DUP1 ISZERO PUSH2 0x26D JUMPI POP PUSH1 0x8 SLOAD ISZERO JUMPDEST DUP1 PUSH2 0x286 JUMPI POP CALLER PUSH0 SWAP1 DUP2 MSTORE PUSH1 0xC PUSH1 0x20 MSTORE PUSH1 0x40 SWAP1 KECCAK256 SLOAD PUSH1 0xFF AND JUMPDEST PUSH2 0x2A3 JUMPI PUSH1 0x40 MLOAD PUSH4 0x2C972A5F PUSH1 0xE0 SHL DUP2 MSTORE PUSH1 0x4 ADD PUSH1 0x40 MLOAD DUP1 SWAP2 SUB SWAP1 REVERT JUMPDEST PUSH0 JUMPDEST DUP2 MLOAD DUP2 PUSH4 0xFFFFFFFF AND LT ISZERO PUSH2 0x3E4 JUMPI PUSH0 DUP3 DUP3 PUSH4 0xFFFFFFFF AND DUP2 MLOAD DUP2 LT PUSH2 0x2CD JUMPI PUSH2 0x2CD PUSH2 0xA6B JUMP JUMPDEST PUSH1 0x20 MUL PUSH1 0x20 ADD ADD MLOAD PUSH0 ADD MLOAD SWAP1 POP PUSH0 DUP4 DUP4 PUSH4 0xFFFFFFFF AND DUP2 MLOAD DUP2 LT PUSH2 0x2F3 JUMPI PUSH2 0x2F3 PUSH2 0xA6B JUMP JUMPDEST PUSH1 0x20 SWAP1 DUP2 MUL SWAP2 SWAP1 SWAP2 ADD DUP2 ADD MLOAD DUP2 ADD MLOAD PUSH1 0x1 PUSH1 0x1 PUSH1 0xA0 SHL SUB DUP5 AND PUSH0 SWAP1 DUP2 MSTORE PUSH1 0xB SWAP1 SWAP3 MSTORE PUSH1 0x40 SWAP1 SWAP2 KECCAK256 SLOAD SWAP1 SWAP2 POP PUSH1 0xFF AND PUSH2 0x35C JUMPI PUSH1 0x1 PUSH1 0x1 PUSH1 0xA0 SHL SUB DUP3 AND PUSH0 SWAP1 DUP2 MSTORE PUSH1 0xB PUSH1 0x20 MSTORE PUSH1 0x40 DUP2 KECCAK256 DUP1 SLOAD PUSH1 0xFF NOT AND PUSH1 0x1 OR SWAP1 SSTORE PUSH1 0x8 DUP1 SLOAD SWAP1 SWAP2 SWAP1 PUSH2 0x357 SWAP1 PUSH2 0xA93 JUMP JUMPDEST SWAP1 SWAP2 SSTORE POP JUMPDEST PUSH1 0x6 SLOAD PUSH1 0x1 PUSH1 0xA0 SHL SWAP1 DIV PUSH1 0xFF AND PUSH2 0x3CF JUMPI PUSH1 0x80 MLOAD PUSH1 0x40 MLOAD PUSH4 0x73A14035 PUSH1 0xE1 SHL DUP2 MSTORE PUSH1 0x1 PUSH1 0x1 PUSH1 0xA0 SHL SUB DUP5 DUP2 AND PUSH1 0x4 DUP4 ADD MSTORE PUSH1 0x24 DUP3 ADD DUP5 SWAP1 MSTORE SWAP1 SWAP2 AND SWAP1 PUSH4 0xE742806A SWAP1 PUSH1 0x44 ADD PUSH0 PUSH1 0x40 MLOAD DUP1 DUP4 SUB DUP2 PUSH0 DUP8 DUP1 EXTCODESIZE ISZERO DUP1 ISZERO PUSH2 0x3B8 JUMPI PUSH0 PUSH0 REVERT JUMPDEST POP GAS CALL ISZERO DUP1 ISZERO PUSH2 0x3CA JUMPI RETURNDATASIZE PUSH0 PUSH0 RETURNDATACOPY RETURNDATASIZE PUSH0 REVERT JUMPDEST POP POP POP POP JUMPDEST POP POP DUP1 DUP1 PUSH2 0x3DC SWAP1 PUSH2 0xAAB JUMP JUMPDEST SWAP2 POP POP PUSH2 0x2A5 JUMP JUMPDEST POP POP JUMP JUMPDEST DUP1 MLOAD PUSH1 0x1 PUSH1 0x1 PUSH1 0xA0 SHL SUB DUP2 AND DUP2 EQ PUSH2 0x3FE JUMPI PUSH0 PUSH0 REVERT JUMPDEST SWAP2 SWAP1 POP JUMP JUMPDEST PUSH4 0x4E487B71 PUSH1 0xE0 SHL PUSH0 MSTORE PUSH1 0x41 PUSH1 0x4 MSTORE PUSH1 0x24 PUSH0 REVERT JUMPDEST PUSH1 0x40 DUP1 MLOAD SWAP1 DUP2 ADD PUSH1 0x1 PUSH1 0x1 PUSH1 0x40 SHL SUB DUP2 GT DUP3 DUP3 LT OR ISZERO PUSH2 0x439 JUMPI PUSH2 0x439 PUSH2 0x403 JUMP JUMPDEST PUSH1 0x40 MSTORE SWAP1 JUMP JUMPDEST PUSH1 0x40 MLOAD PUSH1 0x1F DUP3 ADD PUSH1 0x1F NOT AND DUP2 ADD PUSH1 0x1 PUSH1 0x1 PUSH1 0x40 SHL SUB DUP2 GT DUP3 DUP3 LT OR ISZERO PUSH2 0x467 JUMPI PUSH2 0x467 PUSH2 0x403 JUMP JUMPDEST PUSH1 0x40 MSTORE SWAP2 SWAP1 POP JUMP JUMPDEST PUSH0 DUP1 PUSH1 0x1 PUSH1 0x1 PUSH1 0x40 SHL SUB DUP5 GT ISZERO PUSH2 0x488 JUMPI PUSH2 0x488 PUSH2 0x403 JUMP JUMPDEST POP PUSH1 0x1F DUP4 ADD PUSH1 0x1F NOT AND PUSH1 0x20 ADD PUSH2 0x49D DUP2 PUSH2 0x43F JUMP JUMPDEST SWAP2 POP POP DUP3 DUP2 MSTORE DUP4 DUP4 DUP4 ADD GT ISZERO PUSH2 0x4B1 JUMPI PUSH0 PUSH0 REVERT JUMPDEST DUP3 DUP3 PUSH1 0x20 DUP4 ADD MCOPY PUSH0 PUSH1 0x20 DUP5 DUP4 ADD ADD MSTORE SWAP4 SWAP3 POP POP POP JUMP JUMPDEST PUSH0 DUP3 PUSH1 0x1F DUP4 ADD SLT PUSH2 0x4D6 JUMPI PUSH0 PUSH0 REVERT JUMPDEST PUSH2 0x4E5 DUP4 DUP4 MLOAD PUSH1 0x20 DUP6 ADD PUSH2 0x46F JUMP JUMPDEST SWAP4 SWAP3 POP POP POP JUMP JUMPDEST PUSH0 PUSH1 0x40 DUP3 DUP5 SUB SLT ISZERO PUSH2 0x4FC JUMPI PUSH0 PUSH0 REVERT JUMPDEST PUSH2 0x504 PUSH2 0x417 JUMP JUMPDEST DUP3 MLOAD SWAP1 SWAP2 POP PUSH1 0x1 PUSH1 0x1 PUSH1 0x40 SHL SUB DUP2 GT ISZERO PUSH2 0x51C JUMPI PUSH0 PUSH0 REVERT JUMPDEST PUSH2 0x528 DUP5 DUP3 DUP6 ADD PUSH2 0x4C7 JUMP JUMPDEST DUP3 MSTORE POP PUSH1 0x20 DUP3 ADD MLOAD PUSH1 0x1 PUSH1 0x1 PUSH1 0x40 SHL SUB DUP2 GT ISZERO PUSH2 0x543 JUMPI PUSH0 PUSH0 REVERT JUMPDEST DUP3 ADD PUSH1 0x1F DUP2 ADD DUP5 SGT PUSH2 0x553 JUMPI PUSH0 PUSH0 REVERT JUMPDEST PUSH2 0x562 DUP5 DUP3 MLOAD PUSH1 0x20 DUP5 ADD PUSH2 0x46F JUMP JUMPDEST PUSH1 0x20 DUP4 ADD MSTORE POP SWAP3 SWAP2 POP POP JUMP JUMPDEST PUSH0 PUSH1 0x60 DUP3 DUP5 SUB SLT ISZERO PUSH2 0x57E JUMPI PUSH0 PUSH0 REVERT JUMPDEST PUSH1 0x40 MLOAD PUSH1 0x60 DUP2 ADD PUSH1 0x1 PUSH1 0x1 PUSH1 0x40 SHL SUB DUP2 GT DUP3 DUP3 LT OR ISZERO PUSH2 0x5A0 JUMPI PUSH2 0x5A0 PUSH2 0x403 JUMP JUMPDEST PUSH1 0x40 MSTORE DUP3 MLOAD SWAP1 SWAP2 POP DUP2 SWAP1 PUSH1 0x1 PUSH1 0x1 PUSH1 0x40 SHL SUB DUP2 GT ISZERO PUSH2 0x5BD JUMPI PUSH0 PUSH0 REVERT JUMPDEST PUSH2 0x5C9 DUP6 DUP3 DUP7 ADD PUSH2 0x4C7 JUMP JUMPDEST DUP3 MSTORE POP PUSH1 0x20 DUP4 ADD MLOAD PUSH1 0x1 PUSH1 0x1 PUSH1 0x40 SHL SUB DUP2 GT ISZERO PUSH2 0x5E4 JUMPI PUSH0 PUSH0 REVERT JUMPDEST PUSH2 0x5F0 DUP6 DUP3 DUP7 ADD PUSH2 0x4C7 JUMP JUMPDEST PUSH1 0x20 DUP4 ADD MSTORE POP PUSH2 0x602 PUSH1 0x40 DUP5 ADD PUSH2 0x3E8 JUMP JUMPDEST PUSH1 0x40 DUP3 ADD MSTORE POP SWAP3 SWAP2 POP POP JUMP JUMPDEST DUP1 MLOAD PUSH1 0xFF DUP2 AND DUP2 EQ PUSH2 0x3FE JUMPI PUSH0 PUSH0 REVERT JUMPDEST DUP1 MLOAD DUP1 ISZERO ISZERO DUP2 EQ PUSH2 0x3FE JUMPI PUSH0 PUSH0 REVERT JUMPDEST PUSH0 PUSH1 0xA0 DUP3 DUP5 SUB SLT ISZERO PUSH2 0x63D JUMPI PUSH0 PUSH0 REVERT JUMPDEST PUSH1 0x40 MLOAD PUSH1 0xA0 DUP2 ADD PUSH1 0x1 PUSH1 0x1 PUSH1 0x40 SHL SUB DUP2 GT DUP3 DUP3 LT OR ISZERO PUSH2 0x65F JUMPI PUSH2 0x65F PUSH2 0x403 JUMP JUMPDEST PUSH1 0x40 MSTORE SWAP1 POP DUP1 PUSH2 0x66E DUP4 PUSH2 0x60E JUMP JUMPDEST DUP2 MSTORE PUSH2 0x67C PUSH1 0x20 DUP5 ADD PUSH2 0x60E JUMP JUMPDEST PUSH1 0x20 DUP3 ADD MSTORE PUSH1 0x40 DUP4 ADD MLOAD PUSH4 0xFFFFFFFF DUP2 AND DUP2 EQ PUSH2 0x697 JUMPI PUSH0 PUSH0 REVERT JUMPDEST PUSH1 0x40 DUP3 ADD MSTORE PUSH2 0x6A8 PUSH1 0x60 DUP5 ADD PUSH2 0x61E JUMP JUMPDEST PUSH1 0x60 DUP3 ADD MSTORE PUSH2 0x6B9 PUSH1 0x80 DUP5 ADD PUSH2 0x61E JUMP JUMPDEST PUSH1 0x80 DUP3 ADD MSTORE POP SWAP3 SWAP2 POP POP JUMP JUMPDEST PUSH0 DUP3 PUSH1 0x1F DUP4 ADD SLT PUSH2 0x6D4 JUMPI PUSH0 PUSH0 REVERT JUMPDEST DUP2 MLOAD PUSH1 0x1 PUSH1 0x1 PUSH1 0x40 SHL SUB DUP2 GT ISZERO PUSH2 0x6ED JUMPI PUSH2 0x6ED PUSH2 0x403 JUMP JUMPDEST PUSH2 0x6FC PUSH1 0x20 DUP3 PUSH1 0x5 SHL ADD PUSH2 0x43F JUMP JUMPDEST DUP1 DUP3 DUP3 MSTORE PUSH1 0x20 DUP3 ADD SWAP2 POP PUSH1 0x20 DUP4 PUSH1 0x6 SHL DUP7 ADD ADD SWAP3 POP DUP6 DUP4 GT ISZERO PUSH2 0x71D JUMPI PUSH0 PUSH0 REVERT JUMPDEST PUSH1 0x20 DUP6 ADD JUMPDEST DUP4 DUP2 LT ISZERO PUSH2 0x766 JUMPI PUSH1 0x40 DUP2 DUP9 SUB SLT ISZERO PUSH2 0x739 JUMPI PUSH0 PUSH0 REVERT JUMPDEST PUSH2 0x741 PUSH2 0x417 JUMP JUMPDEST PUSH2 0x74A DUP3 PUSH2 0x3E8 JUMP JUMPDEST DUP2 MSTORE PUSH1 0x20 DUP3 DUP2 ADD MLOAD DUP2 DUP4 ADD MSTORE SWAP1 DUP5 MSTORE SWAP3 SWAP1 SWAP3 ADD SWAP2 PUSH1 0x40 ADD PUSH2 0x722 JUMP JUMPDEST POP SWAP6 SWAP5 POP POP POP POP POP JUMP JUMPDEST PUSH0 PUSH1 0x40 DUP3 DUP5 SUB SLT ISZERO PUSH2 0x780 JUMPI PUSH0 PUSH0 REVERT JUMPDEST PUSH2 0x788 PUSH2 0x417 JUMP JUMPDEST SWAP1 POP PUSH2 0x793 DUP3 PUSH2 0x61E JUMP JUMPDEST DUP2 MSTORE PUSH1 0x20 SWAP2 DUP3 ADD MLOAD SWAP2 DUP2 ADD SWAP2 SWAP1 SWAP2 MSTORE SWAP2 SWAP1 POP JUMP JUMPDEST PUSH0 PUSH0 PUSH0 PUSH0 PUSH0 PUSH0 PUSH0 PUSH0 PUSH2 0x1A0 DUP10 DUP12 SUB SLT ISZERO PUSH2 0x7BF JUMPI PUSH0 PUSH0 REVERT JUMPDEST PUSH2 0x7C8 DUP10 PUSH2 0x3E8 JUMP JUMPDEST PUSH1 0x20 DUP11 ADD MLOAD SWAP1 SWAP9 POP PUSH1 0x1 PUSH1 0x1 PUSH1 0x40 SHL SUB DUP2 GT ISZERO PUSH2 0x7E3 JUMPI PUSH0 PUSH0 REVERT JUMPDEST PUSH2 0x7EF DUP12 DUP3 DUP13 ADD PUSH2 0x4EC JUMP JUMPDEST SWAP8 POP POP PUSH2 0x7FE PUSH1 0x40 DUP11 ADD PUSH2 0x3E8 JUMP JUMPDEST PUSH1 0x60 DUP11 ADD MLOAD SWAP1 SWAP7 POP PUSH1 0x1 PUSH1 0x1 PUSH1 0x40 SHL SUB DUP2 GT ISZERO PUSH2 0x819 JUMPI PUSH0 PUSH0 REVERT JUMPDEST PUSH2 0x825 DUP12 DUP3 DUP13 ADD PUSH2 0x56E JUMP JUMPDEST SWAP6 POP POP PUSH2 0x835 DUP11 PUSH1 0x80 DUP12 ADD PUSH2 0x62D JUMP JUMPDEST PUSH2 0x120 DUP11 ADD MLOAD SWAP1 SWAP5 POP PUSH1 0x1 PUSH1 0x1 PUSH1 0x40 SHL SUB DUP2 GT ISZERO PUSH2 0x851 JUMPI PUSH0 PUSH0 REVERT JUMPDEST PUSH2 0x85D DUP12 DUP3 DUP13 ADD PUSH2 0x6C5 JUMP JUMPDEST SWAP4 POP POP PUSH2 0x86E DUP11 PUSH2 0x140 DUP12 ADD PUSH2 0x770 JUMP JUMPDEST SWAP2 POP PUSH2 0x87D PUSH2 0x180 DUP11 ADD PUSH2 0x61E JUMP JUMPDEST SWAP1 POP SWAP3 SWAP6 SWAP9 POP SWAP3 SWAP6 SWAP9 SWAP1 SWAP4 SWAP7 POP JUMP JUMPDEST PUSH0 DUP2 MLOAD DUP1 DUP5 MSTORE DUP1 PUSH1 0x20 DUP5 ADD PUSH1 0x20 DUP7 ADD MCOPY PUSH0 PUSH1 0x20 DUP3 DUP7 ADD ADD MSTORE PUSH1 0x20 PUSH1 0x1F NOT PUSH1 0x1F DUP4 ADD AND DUP6 ADD ADD SWAP2 POP POP SWAP3 SWAP2 POP POP JUMP JUMPDEST PUSH1 0x20 DUP2 MSTORE PUSH0 DUP3 MLOAD PUSH1 0x60 PUSH1 0x20 DUP5 ADD MSTORE PUSH2 0x8D5 PUSH1 0x80 DUP5 ADD DUP3 PUSH2 0x88C JUMP JUMPDEST SWAP1 POP PUSH1 0x20 DUP5 ADD MLOAD PUSH1 0x1F NOT DUP5 DUP4 SUB ADD PUSH1 0x40 DUP6 ADD MSTORE PUSH2 0x8F2 DUP3 DUP3 PUSH2 0x88C JUMP JUMPDEST PUSH1 0x40 SWAP6 SWAP1 SWAP6 ADD MLOAD PUSH1 0x1 PUSH1 0x1 PUSH1 0xA0 SHL SUB AND PUSH1 0x60 SWAP5 SWAP1 SWAP5 ADD SWAP4 SWAP1 SWAP4 MSTORE POP SWAP2 SWAP3 SWAP2 POP POP JUMP JUMPDEST PUSH0 PUSH1 0x20 DUP3 DUP5 SUB SLT ISZERO PUSH2 0x924 JUMPI PUSH0 PUSH0 REVERT JUMPDEST PUSH2 0x4E5 DUP3 PUSH2 0x3E8 JUMP JUMPDEST PUSH1 0x1 DUP2 DUP2 SHR SWAP1 DUP3 AND DUP1 PUSH2 0x941 JUMPI PUSH1 0x7F DUP3 AND SWAP2 POP JUMPDEST PUSH1 0x20 DUP3 LT DUP2 SUB PUSH2 0x95F JUMPI PUSH4 0x4E487B71 PUSH1 0xE0 SHL PUSH0 MSTORE PUSH1 0x22 PUSH1 0x4 MSTORE PUSH1 0x24 PUSH0 REVERT JUMPDEST POP SWAP2 SWAP1 POP JUMP JUMPDEST PUSH1 0x1F DUP3 GT ISZERO PUSH2 0x9AC JUMPI DUP1 PUSH0 MSTORE PUSH1 0x20 PUSH0 KECCAK256 PUSH1 0x1F DUP5 ADD PUSH1 0x5 SHR DUP2 ADD PUSH1 0x20 DUP6 LT ISZERO PUSH2 0x98A JUMPI POP DUP1 JUMPDEST PUSH1 0x1F DUP5 ADD PUSH1 0x5 SHR DUP3 ADD SWAP2 POP JUMPDEST DUP2 DUP2 LT ISZERO PUSH2 0x9A9 JUMPI PUSH0 DUP2 SSTORE PUSH1 0x1 ADD PUSH2 0x996 JUMP JUMPDEST POP POP JUMPDEST POP POP POP JUMP JUMPDEST DUP2 MLOAD PUSH1 0x1 PUSH1 0x1 PUSH1 0x40 SHL SUB DUP2 GT ISZERO PUSH2 0x9CA JUMPI PUSH2 0x9CA PUSH2 0x403 JUMP JUMPDEST PUSH2 0x9DE DUP2 PUSH2 0x9D8 DUP5 SLOAD PUSH2 0x92D JUMP JUMPDEST DUP5 PUSH2 0x965 JUMP JUMPDEST PUSH1 0x20 PUSH1 0x1F DUP3 GT PUSH1 0x1 DUP2 EQ PUSH2 0xA10 JUMPI PUSH0 DUP4 ISZERO PUSH2 0x9F9 JUMPI POP DUP5 DUP3 ADD MLOAD JUMPDEST PUSH0 NOT PUSH1 0x3 DUP6 SWAP1 SHL SHR NOT AND PUSH1 0x1 DUP5 SWAP1 SHL OR DUP5 SSTORE PUSH2 0x9A9 JUMP JUMPDEST PUSH0 DUP5 DUP2 MSTORE PUSH1 0x20 DUP2 KECCAK256 PUSH1 0x1F NOT DUP6 AND SWAP2 JUMPDEST DUP3 DUP2 LT ISZERO PUSH2 0xA3F JUMPI DUP8 DUP6 ADD MLOAD DUP3 SSTORE PUSH1 0x20 SWAP5 DUP6 ADD SWAP5 PUSH1 0x1 SWAP1 SWAP3 ADD SWAP2 ADD PUSH2 0xA1F JUMP JUMPDEST POP DUP5 DUP3 LT ISZERO PUSH2 0xA5C JUMPI DUP7 DUP5 ADD MLOAD PUSH0 NOT PUSH1 0x3 DUP8 SWAP1 SHL PUSH1 0xF8 AND SHR NOT AND DUP2 SSTORE JUMPDEST POP POP POP POP PUSH1 0x1 SWAP1 DUP2 SHL ADD SWAP1 SSTORE POP JUMP JUMPDEST PUSH4 0x4E487B71 PUSH1 0xE0 SHL PUSH0 MSTORE PUSH1 0x32 PUSH1 0x4 MSTORE PUSH1 0x24 PUSH0 REVERT JUMPDEST PUSH4 0x4E487B71 PUSH1 0xE0 SHL PUSH0 MSTORE PUSH1 0x11 PUSH1 0x4 MSTORE PUSH1 0x24 PUSH0 REVERT JUMPDEST PUSH0 PUSH1 0x1 DUP3 ADD PUSH2 0xAA4 JUMPI PUSH2 0xAA4 PUSH2 0xA7F JUMP JUMPDEST POP PUSH1 0x1 ADD SWAP1 JUMP JUMPDEST PUSH0 PUSH4 0xFFFFFFFF DUP3 AND PUSH4 0xFFFFFFFF DUP2 SUB PUSH2 0xAC6 JUMPI PUSH2 0xAC6 PUSH2 0xA7F JUMP JUMPDEST PUSH1 0x1 ADD SWAP3 SWAP2 POP POP JUMP JUMPDEST PUSH1 0x80 MLOAD PUSH1 0xA0 MLOAD PUSH2 0x1F0E PUSH2 0xB28 PUSH0 CODECOPY PUSH0 PUSH2 0x24A ADD MSTORE PUSH0 DUP2 DUP2 PUSH2 0x5DB ADD MSTORE DUP2 DUP2 PUSH2 0x978 ADD MSTORE DUP2 DUP2 PUSH2 0xA6D ADD MSTORE DUP2 DUP2 PUSH2 0xEA4 ADD MSTORE DUP2 DUP2 PUSH2 0xF85 ADD MSTORE DUP2 DUP2 PUSH2 0x1034 ADD MSTORE DUP2 DUP2 PUSH2 0x1247 ADD MSTORE DUP2 DUP2 PUSH2 0x13FB ADD MSTORE PUSH2 0x159C ADD MSTORE PUSH2 0x1F0E PUSH0 RETURN INVALID PUSH1 0x80 PUSH1 0x40 MSTORE PUSH1 0x4 CALLDATASIZE LT PUSH2 0x189 JUMPI PUSH0 CALLDATALOAD PUSH1 0xE0 SHR DUP1 PUSH4 0x62354E03 GT PUSH2 0xDF JUMPI DUP1 PUSH4 0xB9183515 GT PUSH2 0x83 JUMPI DUP1 PUSH4 0xDBAC26E9 GT PUSH2 0x60 JUMPI DUP1 PUSH4 0xDBAC26E9 EQ PUSH2 0x57D JUMPI DUP1 PUSH4 0xE37BCDAD EQ PUSH2 0x5AB JUMPI DUP1 PUSH4 0xF96DAE0A EQ PUSH2 0x5CA JUMPI DUP1 PUSH4 0xFE436C53 EQ PUSH2 0x5FD JUMPI STOP JUMPDEST DUP1 PUSH4 0xB9183515 EQ PUSH2 0x520 JUMPI DUP1 PUSH4 0xBF3ADAEC EQ PUSH2 0x53F JUMPI DUP1 PUSH4 0xDA7904C2 EQ PUSH2 0x55E JUMPI STOP JUMPDEST DUP1 PUSH4 0xA3DAC6AE GT PUSH2 0xBC JUMPI DUP1 PUSH4 0xA3DAC6AE EQ PUSH2 0x475 JUMPI DUP1 PUSH4 0xAA6C9763 EQ PUSH2 0x495 JUMPI DUP1 PUSH4 0xB03FBB21 EQ PUSH2 0x4B4 JUMPI DUP1 PUSH4 0xB1E44D8F EQ PUSH2 0x4F2 JUMPI STOP JUMPDEST DUP1 PUSH4 0x62354E03 EQ PUSH2 0x3BE JUMPI DUP1 PUSH4 0x65F3657F EQ PUSH2 0x43F JUMPI DUP1 PUSH4 0x8215AE57 EQ PUSH2 0x461 JUMPI STOP JUMPDEST DUP1 PUSH4 0x52050003 GT PUSH2 0x146 JUMPI DUP1 PUSH4 0x5957AC66 GT PUSH2 0x123 JUMPI DUP1 PUSH4 0x5957AC66 EQ PUSH2 0x321 JUMPI DUP1 PUSH4 0x5C19A95C EQ PUSH2 0x355 JUMPI DUP1 PUSH4 0x5E35359E EQ PUSH2 0x374 JUMPI DUP1 PUSH4 0x5F4F3F23 EQ PUSH2 0x393 JUMPI STOP JUMPDEST DUP1 PUSH4 0x52050003 EQ PUSH2 0x284 JUMPI DUP1 PUSH4 0x539E5082 EQ PUSH2 0x2C2 JUMPI DUP1 PUSH4 0x54445AE6 EQ PUSH2 0x2F6 JUMPI STOP JUMPDEST DUP1 PUSH4 0x13CF08B EQ PUSH2 0x18B JUMPI DUP1 PUSH4 0x1035C1CF EQ PUSH2 0x1C3 JUMPI DUP1 PUSH4 0x132DA92D EQ PUSH2 0x1E2 JUMPI DUP1 PUSH4 0x297F9AF0 EQ PUSH2 0x201 JUMPI DUP1 PUSH4 0x2DFCA445 EQ PUSH2 0x224 JUMPI DUP1 PUSH4 0x4AB17F31 EQ PUSH2 0x239 JUMPI JUMPDEST STOP JUMPDEST CALLVALUE DUP1 ISZERO PUSH2 0x196 JUMPI PUSH0 PUSH0 REVERT JUMPDEST POP PUSH2 0x1AA PUSH2 0x1A5 CALLDATASIZE PUSH1 0x4 PUSH2 0x17AB JUMP JUMPDEST PUSH2 0x61C JUMP JUMPDEST PUSH1 0x40 MLOAD PUSH2 0x1BA SWAP5 SWAP4 SWAP3 SWAP2 SWAP1 PUSH2 0x17F0 JUMP JUMPDEST PUSH1 0x40 MLOAD DUP1 SWAP2 SUB SWAP1 RETURN JUMPDEST CALLVALUE DUP1 ISZERO PUSH2 0x1CE JUMPI PUSH0 PUSH0 REVERT JUMPDEST POP PUSH2 0x189 PUSH2 0x1DD CALLDATASIZE PUSH1 0x4 PUSH2 0x1843 JUMP JUMPDEST PUSH2 0x6D7 JUMP JUMPDEST CALLVALUE DUP1 ISZERO PUSH2 0x1ED JUMPI PUSH0 PUSH0 REVERT JUMPDEST POP PUSH2 0x189 PUSH2 0x1FC CALLDATASIZE PUSH1 0x4 PUSH2 0x18E8 JUMP JUMPDEST PUSH2 0x83E JUMP JUMPDEST CALLVALUE DUP1 ISZERO PUSH2 0x20C JUMPI PUSH0 PUSH0 REVERT JUMPDEST POP PUSH2 0x216 PUSH1 0x8 SLOAD DUP2 JUMP JUMPDEST PUSH1 0x40 MLOAD SWAP1 DUP2 MSTORE PUSH1 0x20 ADD PUSH2 0x1BA JUMP JUMPDEST CALLVALUE DUP1 ISZERO PUSH2 0x22F JUMPI PUSH0 PUSH0 REVERT JUMPDEST POP PUSH2 0x216 PUSH1 0x7 SLOAD DUP2 JUMP JUMPDEST CALLVALUE DUP1 ISZERO PUSH2 0x244 JUMPI PUSH0 PUSH0 REVERT JUMPDEST POP PUSH2 0x26C PUSH32 0x0 DUP2 JUMP JUMPDEST PUSH1 0x40 MLOAD PUSH1 0x1 PUSH1 0x1 PUSH1 0xA0 SHL SUB SWAP1 SWAP2 AND DUP2 MSTORE PUSH1 0x20 ADD PUSH2 0x1BA JUMP JUMPDEST CALLVALUE DUP1 ISZERO PUSH2 0x28F JUMPI PUSH0 PUSH0 REVERT JUMPDEST POP PUSH2 0x2B2 PUSH2 0x29E CALLDATASIZE PUSH1 0x4 PUSH2 0x1922 JUMP JUMPDEST PUSH1 0xC PUSH1 0x20 MSTORE PUSH0 SWAP1 DUP2 MSTORE PUSH1 0x40 SWAP1 KECCAK256 SLOAD PUSH1 0xFF AND DUP2 JUMP JUMPDEST PUSH1 0x40 MLOAD SWAP1 ISZERO ISZERO DUP2 MSTORE PUSH1 0x20 ADD PUSH2 0x1BA JUMP JUMPDEST CALLVALUE DUP1 ISZERO PUSH2 0x2CD JUMPI PUSH0 PUSH0 REVERT JUMPDEST POP PUSH2 0x26C PUSH2 0x2DC CALLDATASIZE PUSH1 0x4 PUSH2 0x1922 JUMP JUMPDEST PUSH1 0xE PUSH1 0x20 MSTORE PUSH0 SWAP1 DUP2 MSTORE PUSH1 0x40 SWAP1 KECCAK256 SLOAD PUSH1 0x1 PUSH1 0x1 PUSH1 0xA0 SHL SUB AND DUP2 JUMP JUMPDEST CALLVALUE DUP1 ISZERO PUSH2 0x301 JUMPI PUSH0 PUSH0 REVERT JUMPDEST POP PUSH2 0x216 PUSH2 0x310 CALLDATASIZE PUSH1 0x4 PUSH2 0x1922 JUMP JUMPDEST PUSH1 0xD PUSH1 0x20 MSTORE PUSH0 SWAP1 DUP2 MSTORE PUSH1 0x40 SWAP1 KECCAK256 SLOAD DUP2 JUMP JUMPDEST CALLVALUE DUP1 ISZERO PUSH2 0x32C JUMPI PUSH0 PUSH0 REVERT JUMPDEST POP PUSH1 0x3 SLOAD PUSH1 0x4 SLOAD PUSH2 0x33E SWAP2 PUSH1 0xFF AND SWAP1 DUP3 JUMP JUMPDEST PUSH1 0x40 DUP1 MLOAD SWAP3 ISZERO ISZERO DUP4 MSTORE PUSH1 0x20 DUP4 ADD SWAP2 SWAP1 SWAP2 MSTORE ADD PUSH2 0x1BA JUMP JUMPDEST CALLVALUE DUP1 ISZERO PUSH2 0x360 JUMPI PUSH0 PUSH0 REVERT JUMPDEST POP PUSH2 0x189 PUSH2 0x36F CALLDATASIZE PUSH1 0x4 PUSH2 0x1922 JUMP JUMPDEST PUSH2 0x88A JUMP JUMPDEST CALLVALUE DUP1 ISZERO PUSH2 0x37F JUMPI PUSH0 PUSH0 REVERT JUMPDEST POP PUSH2 0x189 PUSH2 0x38E CALLDATASIZE PUSH1 0x4 PUSH2 0x1944 JUMP JUMPDEST PUSH2 0xACB JUMP JUMPDEST CALLVALUE DUP1 ISZERO PUSH2 0x39E JUMPI PUSH0 PUSH0 REVERT JUMPDEST POP PUSH2 0x216 PUSH2 0x3AD CALLDATASIZE PUSH1 0x4 PUSH2 0x1922 JUMP JUMPDEST PUSH1 0x10 PUSH1 0x20 MSTORE PUSH0 SWAP1 DUP2 MSTORE PUSH1 0x40 SWAP1 KECCAK256 SLOAD DUP2 JUMP JUMPDEST CALLVALUE DUP1 ISZERO PUSH2 0x3C9 JUMPI PUSH0 PUSH0 REVERT JUMPDEST POP PUSH1 0x5 SLOAD PUSH2 0x405 SWAP1 PUSH1 0xFF DUP1 DUP3 AND SWAP2 PUSH2 0x100 DUP2 DIV DUP3 AND SWAP2 PUSH4 0xFFFFFFFF PUSH3 0x10000 DUP4 DIV AND SWAP2 PUSH7 0x1000000000000 DUP2 DIV DUP3 AND SWAP2 PUSH1 0x1 PUSH1 0x38 SHL SWAP1 SWAP2 DIV AND DUP6 JUMP JUMPDEST PUSH1 0x40 DUP1 MLOAD PUSH1 0xFF SWAP7 DUP8 AND DUP2 MSTORE SWAP6 SWAP1 SWAP5 AND PUSH1 0x20 DUP7 ADD MSTORE PUSH4 0xFFFFFFFF SWAP1 SWAP3 AND SWAP3 DUP5 ADD SWAP3 SWAP1 SWAP3 MSTORE SWAP1 ISZERO ISZERO PUSH1 0x60 DUP4 ADD MSTORE ISZERO ISZERO PUSH1 0x80 DUP3 ADD MSTORE PUSH1 0xA0 ADD PUSH2 0x1BA JUMP JUMPDEST CALLVALUE DUP1 ISZERO PUSH2 0x44A JUMPI PUSH0 PUSH0 REVERT JUMPDEST POP PUSH2 0x453 PUSH2 0xCE8 JUMP JUMPDEST PUSH1 0x40 MLOAD PUSH2 0x1BA SWAP3 SWAP2 SWAP1 PUSH2 0x1982 JUMP JUMPDEST CALLVALUE DUP1 ISZERO PUSH2 0x46C JUMPI PUSH0 PUSH0 REVERT JUMPDEST POP PUSH2 0x189 PUSH2 0xE04 JUMP JUMPDEST CALLVALUE DUP1 ISZERO PUSH2 0x480 JUMPI PUSH0 PUSH0 REVERT JUMPDEST POP PUSH1 0x6 SLOAD PUSH2 0x2B2 SWAP1 PUSH1 0x1 PUSH1 0xA0 SHL SWAP1 DIV PUSH1 0xFF AND DUP2 JUMP JUMPDEST CALLVALUE DUP1 ISZERO PUSH2 0x4A0 JUMPI PUSH0 PUSH0 REVERT JUMPDEST POP PUSH2 0x189 PUSH2 0x4AF CALLDATASIZE PUSH1 0x4 PUSH2 0x1A26 JUMP JUMPDEST PUSH2 0x1063 JUMP JUMPDEST CALLVALUE DUP1 ISZERO PUSH2 0x4BF JUMPI PUSH0 PUSH0 REVERT JUMPDEST POP PUSH2 0x4D3 PUSH2 0x4CE CALLDATASIZE PUSH1 0x4 PUSH2 0x1843 JUMP JUMPDEST PUSH2 0x10C1 JUMP JUMPDEST PUSH1 0x40 DUP1 MLOAD PUSH1 0x1 PUSH1 0x1 PUSH1 0xA0 SHL SUB SWAP1 SWAP4 AND DUP4 MSTORE PUSH1 0x20 DUP4 ADD SWAP2 SWAP1 SWAP2 MSTORE ADD PUSH2 0x1BA JUMP JUMPDEST CALLVALUE DUP1 ISZERO PUSH2 0x4FD JUMPI PUSH0 PUSH0 REVERT JUMPDEST POP PUSH2 0x2B2 PUSH2 0x50C CALLDATASIZE PUSH1 0x4 PUSH2 0x1922 JUMP JUMPDEST PUSH1 0xB PUSH1 0x20 MSTORE PUSH0 SWAP1 DUP2 MSTORE PUSH1 0x40 SWAP1 KECCAK256 SLOAD PUSH1 0xFF AND DUP2 JUMP JUMPDEST CALLVALUE DUP1 ISZERO PUSH2 0x52B JUMPI PUSH0 PUSH0 REVERT JUMPDEST POP PUSH2 0x189 PUSH2 0x53A CALLDATASIZE PUSH1 0x4 PUSH2 0x1AD3 JUMP JUMPDEST PUSH2 0x1103 JUMP JUMPDEST CALLVALUE DUP1 ISZERO PUSH2 0x54A JUMPI PUSH0 PUSH0 REVERT JUMPDEST POP PUSH2 0x189 PUSH2 0x559 CALLDATASIZE PUSH1 0x4 PUSH2 0x1AD3 JUMP JUMPDEST PUSH2 0x12B4 JUMP JUMPDEST CALLVALUE DUP1 ISZERO PUSH2 0x569 JUMPI PUSH0 PUSH0 REVERT JUMPDEST POP PUSH2 0x189 PUSH2 0x578 CALLDATASIZE PUSH1 0x4 PUSH2 0x1BC2 JUMP JUMPDEST PUSH2 0x1468 JUMP JUMPDEST CALLVALUE DUP1 ISZERO PUSH2 0x588 JUMPI PUSH0 PUSH0 REVERT JUMPDEST POP PUSH2 0x2B2 PUSH2 0x597 CALLDATASIZE PUSH1 0x4 PUSH2 0x1922 JUMP JUMPDEST PUSH1 0xA PUSH1 0x20 MSTORE PUSH0 SWAP1 DUP2 MSTORE PUSH1 0x40 SWAP1 KECCAK256 SLOAD PUSH1 0xFF AND DUP2 JUMP JUMPDEST CALLVALUE DUP1 ISZERO PUSH2 0x5B6 JUMPI PUSH0 PUSH0 REVERT JUMPDEST POP PUSH2 0x189 PUSH2 0x5C5 CALLDATASIZE PUSH1 0x4 PUSH2 0x1C31 JUMP JUMPDEST PUSH2 0x1632 JUMP JUMPDEST CALLVALUE DUP1 ISZERO PUSH2 0x5D5 JUMPI PUSH0 PUSH0 REVERT JUMPDEST POP PUSH2 0x26C PUSH32 0x0 DUP2 JUMP JUMPDEST CALLVALUE DUP1 ISZERO PUSH2 0x608 JUMPI PUSH0 PUSH0 REVERT JUMPDEST POP PUSH2 0x2B2 PUSH2 0x617 CALLDATASIZE PUSH1 0x4 PUSH2 0x1922 JUMP JUMPDEST PUSH2 0x16EC JUMP JUMPDEST PUSH1 0x9 PUSH1 0x20 MSTORE PUSH0 SWAP1 DUP2 MSTORE PUSH1 0x40 SWAP1 KECCAK256 DUP1 SLOAD PUSH1 0x1 DUP3 ADD SLOAD PUSH1 0x2 DUP4 ADD DUP1 SLOAD PUSH1 0x1 PUSH1 0x1 PUSH1 0xA0 SHL SUB SWAP4 DUP5 AND SWAP5 SWAP3 SWAP1 SWAP4 AND SWAP3 PUSH2 0x650 SWAP1 PUSH2 0x1CCD JUMP JUMPDEST DUP1 PUSH1 0x1F ADD PUSH1 0x20 DUP1 SWAP2 DIV MUL PUSH1 0x20 ADD PUSH1 0x40 MLOAD SWAP1 DUP2 ADD PUSH1 0x40 MSTORE DUP1 SWAP3 SWAP2 SWAP1 DUP2 DUP2 MSTORE PUSH1 0x20 ADD DUP3 DUP1 SLOAD PUSH2 0x67C SWAP1 PUSH2 0x1CCD JUMP JUMPDEST DUP1 ISZERO PUSH2 0x6C7 JUMPI DUP1 PUSH1 0x1F LT PUSH2 0x69E JUMPI PUSH2 0x100 DUP1 DUP4 SLOAD DIV MUL DUP4 MSTORE SWAP2 PUSH1 0x20 ADD SWAP2 PUSH2 0x6C7 JUMP JUMPDEST DUP3 ADD SWAP2 SWAP1 PUSH0 MSTORE PUSH1 0x20 PUSH0 KECCAK256 SWAP1 JUMPDEST DUP2 SLOAD DUP2 MSTORE SWAP1 PUSH1 0x1 ADD SWAP1 PUSH1 0x20 ADD DUP1 DUP4 GT PUSH2 0x6AA JUMPI DUP3 SWAP1 SUB PUSH1 0x1F AND DUP3 ADD SWAP2 JUMPDEST POP POP POP POP POP SWAP1 DUP1 PUSH1 0x3 ADD SLOAD SWAP1 POP DUP5 JUMP JUMPDEST PUSH2 0x6DF PUSH2 0x1783 JUMP JUMPDEST CALLER PUSH0 DUP2 DUP2 MSTORE PUSH1 0xC PUSH1 0x20 MSTORE PUSH1 0x40 SWAP1 KECCAK256 SLOAD PUSH1 0xFF AND PUSH2 0x70E JUMPI PUSH1 0x40 MLOAD PUSH4 0x3FEAE729 PUSH1 0xE1 SHL DUP2 MSTORE PUSH1 0x4 ADD PUSH1 0x40 MLOAD DUP1 SWAP2 SUB SWAP1 REVERT JUMPDEST PUSH0 DUP3 GT PUSH2 0x755 JUMPI PUSH1 0x40 MLOAD PUSH3 0x461BCD PUSH1 0xE5 SHL DUP2 MSTORE PUSH1 0x20 PUSH1 0x4 DUP3 ADD MSTORE PUSH1 0x10 PUSH1 0x24 DUP3 ADD MSTORE PUSH16 0x111053D25B9D985B1A59105B5BDD5B9D PUSH1 0x82 SHL PUSH1 0x44 DUP3 ADD MSTORE PUSH1 0x64 ADD JUMPDEST PUSH1 0x40 MLOAD DUP1 SWAP2 SUB SWAP1 REVERT JUMPDEST DUP2 SELFBALANCE LT ISZERO PUSH2 0x79E JUMPI PUSH1 0x40 MLOAD PUSH3 0x461BCD PUSH1 0xE5 SHL DUP2 MSTORE PUSH1 0x20 PUSH1 0x4 DUP3 ADD MSTORE PUSH1 0x16 PUSH1 0x24 DUP3 ADD MSTORE PUSH22 0x44414F496E73756666696369656E7442616C616E6365 PUSH1 0x50 SHL PUSH1 0x44 DUP3 ADD MSTORE PUSH1 0x64 ADD PUSH2 0x74C JUMP JUMPDEST PUSH0 DUP4 PUSH1 0x1 PUSH1 0x1 PUSH1 0xA0 SHL SUB AND DUP4 PUSH1 0x40 MLOAD PUSH0 PUSH1 0x40 MLOAD DUP1 DUP4 SUB DUP2 DUP6 DUP8 GAS CALL SWAP3 POP POP POP RETURNDATASIZE DUP1 PUSH0 DUP2 EQ PUSH2 0x7E7 JUMPI PUSH1 0x40 MLOAD SWAP2 POP PUSH1 0x1F NOT PUSH1 0x3F RETURNDATASIZE ADD AND DUP3 ADD PUSH1 0x40 MSTORE RETURNDATASIZE DUP3 MSTORE RETURNDATASIZE PUSH0 PUSH1 0x20 DUP5 ADD RETURNDATACOPY PUSH2 0x7EC JUMP JUMPDEST PUSH1 0x60 SWAP2 POP JUMPDEST POP POP SWAP1 POP DUP1 PUSH2 0x82F JUMPI PUSH1 0x40 MLOAD PUSH3 0x461BCD PUSH1 0xE5 SHL DUP2 MSTORE PUSH1 0x20 PUSH1 0x4 DUP3 ADD MSTORE PUSH1 0xF PUSH1 0x24 DUP3 ADD MSTORE PUSH15 0x151C985B9CD9995C8811985A5B1959 PUSH1 0x8A SHL PUSH1 0x44 DUP3 ADD MSTORE PUSH1 0x64 ADD PUSH2 0x74C JUMP JUMPDEST POP POP PUSH2 0x83A PUSH1 0x1 PUSH0 SSTORE JUMP JUMPDEST POP POP JUMP JUMPDEST CALLER PUSH0 DUP2 DUP2 MSTORE PUSH1 0xC PUSH1 0x20 MSTORE PUSH1 0x40 SWAP1 KECCAK256 SLOAD PUSH1 0xFF AND PUSH2 0x86D JUMPI PUSH1 0x40 MLOAD PUSH4 0x3FEAE729 PUSH1 0xE1 SHL DUP2 MSTORE PUSH1 0x4 ADD PUSH1 0x40 MLOAD DUP1 SWAP2 SUB SWAP1 REVERT JUMPDEST POP DUP1 MLOAD PUSH1 0x3 DUP1 SLOAD PUSH1 0xFF NOT AND SWAP2 ISZERO ISZERO SWAP2 SWAP1 SWAP2 OR SWAP1 SSTORE PUSH1 0x20 ADD MLOAD PUSH1 0x4 SSTORE JUMP JUMPDEST CALLER PUSH0 DUP2 DUP2 MSTORE PUSH1 0xB PUSH1 0x20 MSTORE PUSH1 0x40 SWAP1 KECCAK256 SLOAD PUSH1 0xFF AND DUP1 PUSH2 0x8B5 JUMPI POP CALLER PUSH0 SWAP1 DUP2 MSTORE PUSH1 0xC PUSH1 0x20 MSTORE PUSH1 0x40 SWAP1 KECCAK256 SLOAD PUSH1 0xFF AND JUMPDEST PUSH2 0x8D2 JUMPI PUSH1 0x40 MLOAD PUSH4 0x2C972A5F PUSH1 0xE0 SHL DUP2 MSTORE PUSH1 0x4 ADD PUSH1 0x40 MLOAD DUP1 SWAP2 SUB SWAP1 REVERT JUMPDEST PUSH1 0x1 PUSH1 0x1 PUSH1 0xA0 SHL SUB DUP2 AND PUSH0 SWAP1 DUP2 MSTORE PUSH1 0xA PUSH1 0x20 MSTORE PUSH1 0x40 SWAP1 KECCAK256 SLOAD PUSH1 0xFF AND ISZERO PUSH2 0x90B JUMPI PUSH1 0x40 MLOAD PUSH4 0xC8E5275B PUSH1 0xE0 SHL DUP2 MSTORE PUSH1 0x4 ADD PUSH1 0x40 MLOAD DUP1 SWAP2 SUB SWAP1 REVERT JUMPDEST PUSH1 0x1 PUSH1 0x1 PUSH1 0xA0 SHL SUB DUP3 AND PUSH2 0x961 JUMPI PUSH1 0x40 MLOAD PUSH3 0x461BCD PUSH1 0xE5 SHL DUP2 MSTORE PUSH1 0x20 PUSH1 0x4 DUP3 ADD MSTORE PUSH1 0x17 PUSH1 0x24 DUP3 ADD MSTORE PUSH32 0x43616E6E6F742064656C656761746520746F207A65726F000000000000000000 PUSH1 0x44 DUP3 ADD MSTORE PUSH1 0x64 ADD PUSH2 0x74C JUMP JUMPDEST PUSH1 0x40 MLOAD PUSH4 0x70A08231 PUSH1 0xE0 SHL DUP2 MSTORE CALLER PUSH1 0x4 DUP3 ADD MSTORE PUSH0 SWAP1 PUSH32 0x0 PUSH1 0x1 PUSH1 0x1 PUSH1 0xA0 SHL SUB AND SWAP1 PUSH4 0x70A08231 SWAP1 PUSH1 0x24 ADD PUSH1 0x20 PUSH1 0x40 MLOAD DUP1 DUP4 SUB DUP2 DUP7 GAS STATICCALL ISZERO DUP1 ISZERO PUSH2 0x9C5 JUMPI RETURNDATASIZE PUSH0 PUSH0 RETURNDATACOPY RETURNDATASIZE PUSH0 REVERT JUMPDEST POP POP POP POP PUSH1 0x40 MLOAD RETURNDATASIZE PUSH1 0x1F NOT PUSH1 0x1F DUP3 ADD AND DUP3 ADD DUP1 PUSH1 0x40 MSTORE POP DUP2 ADD SWAP1 PUSH2 0x9E9 SWAP2 SWAP1 PUSH2 0x1CFF JUMP JUMPDEST LT ISZERO PUSH2 0xA2E JUMPI PUSH1 0x40 MLOAD PUSH3 0x461BCD PUSH1 0xE5 SHL DUP2 MSTORE PUSH1 0x20 PUSH1 0x4 DUP3 ADD MSTORE PUSH1 0x14 PUSH1 0x24 DUP3 ADD MSTORE PUSH20 0x2D32B937902232B632B3B0BA32B2102837BBB2B9 PUSH1 0x61 SHL PUSH1 0x44 DUP3 ADD MSTORE PUSH1 0x64 ADD PUSH2 0x74C JUMP JUMPDEST PUSH1 0x1 PUSH1 0x1 PUSH1 0xA0 SHL SUB DUP3 DUP2 AND PUSH0 DUP2 DUP2 MSTORE PUSH1 0xE PUSH1 0x20 MSTORE PUSH1 0x40 SWAP1 DUP2 SWAP1 KECCAK256 DUP1 SLOAD PUSH1 0x1 PUSH1 0x1 PUSH1 0xA0 SHL SUB NOT AND CALLER OR SWAP1 SSTORE MLOAD PUSH4 0x17066A57 PUSH1 0xE2 SHL DUP2 MSTORE PUSH1 0x4 DUP2 ADD SWAP2 SWAP1 SWAP2 MSTORE PUSH32 0x0 SWAP1 SWAP2 AND SWAP1 PUSH4 0x5C19A95C SWAP1 PUSH1 0x24 ADD JUMPDEST PUSH0 PUSH1 0x40 MLOAD DUP1 DUP4 SUB DUP2 PUSH0 DUP8 DUP1 EXTCODESIZE ISZERO DUP1 ISZERO PUSH2 0xAB1 JUMPI PUSH0 PUSH0 REVERT JUMPDEST POP GAS CALL ISZERO DUP1 ISZERO PUSH2 0xAC3 JUMPI RETURNDATASIZE PUSH0 PUSH0 RETURNDATACOPY RETURNDATASIZE PUSH0 REVERT JUMPDEST POP POP POP POP POP POP JUMP JUMPDEST PUSH2 0xAD3 PUSH2 0x1783 JUMP JUMPDEST CALLER PUSH0 DUP2 DUP2 MSTORE PUSH1 0xC PUSH1 0x20 MSTORE PUSH1 0x40 SWAP1 KECCAK256 SLOAD PUSH1 0xFF AND PUSH2 0xB02 JUMPI PUSH1 0x40 MLOAD PUSH4 0x3FEAE729 PUSH1 0xE1 SHL DUP2 MSTORE PUSH1 0x4 ADD PUSH1 0x40 MLOAD DUP1 SWAP2 SUB SWAP1 REVERT JUMPDEST PUSH0 DUP3 GT PUSH2 0xB65 JUMPI PUSH1 0x40 MLOAD PUSH3 0x461BCD PUSH1 0xE5 SHL DUP2 MSTORE PUSH1 0x20 PUSH1 0x4 DUP3 ADD MSTORE PUSH1 0x2B PUSH1 0x24 DUP3 ADD MSTORE PUSH32 0x5769746864726177616C20616D6F756E74206D75737420626520677265617465 PUSH1 0x44 DUP3 ADD MSTORE PUSH11 0x72207468616E207A65726F PUSH1 0xA8 SHL PUSH1 0x64 DUP3 ADD MSTORE PUSH1 0x84 ADD PUSH2 0x74C JUMP JUMPDEST PUSH1 0x40 MLOAD PUSH4 0x70A08231 PUSH1 0xE0 SHL DUP2 MSTORE ADDRESS PUSH1 0x4 DUP3 ADD MSTORE DUP5 SWAP1 DUP4 SWAP1 PUSH1 0x1 PUSH1 0x1 PUSH1 0xA0 SHL SUB DUP4 AND SWAP1 PUSH4 0x70A08231 SWAP1 PUSH1 0x24 ADD PUSH1 0x20 PUSH1 0x40 MLOAD DUP1 DUP4 SUB DUP2 DUP7 GAS STATICCALL ISZERO DUP1 ISZERO PUSH2 0xBAB JUMPI RETURNDATASIZE PUSH0 PUSH0 RETURNDATACOPY RETURNDATASIZE PUSH0 REVERT JUMPDEST POP POP POP POP PUSH1 0x40 MLOAD RETURNDATASIZE PUSH1 0x1F NOT PUSH1 0x1F DUP3 ADD AND DUP3 ADD DUP1 PUSH1 0x40 MSTORE POP DUP2 ADD SWAP1 PUSH2 0xBCF SWAP2 SWAP1 PUSH2 0x1CFF JUMP JUMPDEST LT ISZERO PUSH2 0xC1D JUMPI PUSH1 0x40 MLOAD PUSH3 0x461BCD PUSH1 0xE5 SHL DUP2 MSTORE PUSH1 0x20 PUSH1 0x4 DUP3 ADD MSTORE PUSH1 0x1D PUSH1 0x24 DUP3 ADD MSTORE PUSH32 0x496E73756666696369656E742074726561737572792062616C616E6365000000 PUSH1 0x44 DUP3 ADD MSTORE PUSH1 0x64 ADD PUSH2 0x74C JUMP JUMPDEST PUSH1 0x40 MLOAD PUSH4 0xA9059CBB PUSH1 0xE0 SHL DUP2 MSTORE PUSH1 0x1 PUSH1 0x1 PUSH1 0xA0 SHL SUB DUP6 DUP2 AND PUSH1 0x4 DUP4 ADD MSTORE PUSH1 0x24 DUP3 ADD DUP6 SWAP1 MSTORE PUSH0 SWAP2 SWAP1 DUP4 AND SWAP1 PUSH4 0xA9059CBB SWAP1 PUSH1 0x44 ADD PUSH1 0x20 PUSH1 0x40 MLOAD DUP1 DUP4 SUB DUP2 PUSH0 DUP8 GAS CALL ISZERO DUP1 ISZERO PUSH2 0xC6C JUMPI RETURNDATASIZE PUSH0 PUSH0 RETURNDATACOPY RETURNDATASIZE PUSH0 REVERT JUMPDEST POP POP POP POP PUSH1 0x40 MLOAD RETURNDATASIZE PUSH1 0x1F NOT PUSH1 0x1F DUP3 ADD AND DUP3 ADD DUP1 PUSH1 0x40 MSTORE POP DUP2 ADD SWAP1 PUSH2 0xC90 SWAP2 SWAP1 PUSH2 0x1D16 JUMP JUMPDEST SWAP1 POP DUP1 PUSH2 0xCD7 JUMPI PUSH1 0x40 MLOAD PUSH3 0x461BCD PUSH1 0xE5 SHL DUP2 MSTORE PUSH1 0x20 PUSH1 0x4 DUP3 ADD MSTORE PUSH1 0x15 PUSH1 0x24 DUP3 ADD MSTORE PUSH21 0x151BDAD95B881D1C985B9CD9995C8819985A5B1959 PUSH1 0x5A SHL PUSH1 0x44 DUP3 ADD MSTORE PUSH1 0x64 ADD PUSH2 0x74C JUMP JUMPDEST POP POP POP PUSH2 0xCE3 PUSH1 0x1 PUSH0 SSTORE JUMP JUMPDEST POP POP POP JUMP JUMPDEST PUSH1 0x1 DUP1 SLOAD DUP2 SWAP1 PUSH2 0xCF7 SWAP1 PUSH2 0x1CCD JUMP JUMPDEST DUP1 PUSH1 0x1F ADD PUSH1 0x20 DUP1 SWAP2 DIV MUL PUSH1 0x20 ADD PUSH1 0x40 MLOAD SWAP1 DUP2 ADD PUSH1 0x40 MSTORE DUP1 SWAP3 SWAP2 SWAP1 DUP2 DUP2 MSTORE PUSH1 0x20 ADD DUP3 DUP1 SLOAD PUSH2 0xD23 SWAP1 PUSH2 0x1CCD JUMP JUMPDEST DUP1 ISZERO PUSH2 0xD6E JUMPI DUP1 PUSH1 0x1F LT PUSH2 0xD45 JUMPI PUSH2 0x100 DUP1 DUP4 SLOAD DIV MUL DUP4 MSTORE SWAP2 PUSH1 0x20 ADD SWAP2 PUSH2 0xD6E JUMP JUMPDEST DUP3 ADD SWAP2 SWAP1 PUSH0 MSTORE PUSH1 0x20 PUSH0 KECCAK256 SWAP1 JUMPDEST DUP2 SLOAD DUP2 MSTORE SWAP1 PUSH1 0x1 ADD SWAP1 PUSH1 0x20 ADD DUP1 DUP4 GT PUSH2 0xD51 JUMPI DUP3 SWAP1 SUB PUSH1 0x1F AND DUP3 ADD SWAP2 JUMPDEST POP POP POP POP POP SWAP1 DUP1 PUSH1 0x1 ADD DUP1 SLOAD PUSH2 0xD83 SWAP1 PUSH2 0x1CCD JUMP JUMPDEST DUP1 PUSH1 0x1F ADD PUSH1 0x20 DUP1 SWAP2 DIV MUL PUSH1 0x20 ADD PUSH1 0x40 MLOAD SWAP1 DUP2 ADD PUSH1 0x40 MSTORE DUP1 SWAP3 SWAP2 SWAP1 DUP2 DUP2 MSTORE PUSH1 0x20 ADD DUP3 DUP1 SLOAD PUSH2 0xDAF SWAP1 PUSH2 0x1CCD JUMP JUMPDEST DUP1 ISZERO PUSH2 0xDFA JUMPI DUP1 PUSH1 0x1F LT PUSH2 0xDD1 JUMPI PUSH2 0x100 DUP1 DUP4 SLOAD DIV MUL DUP4 MSTORE SWAP2 PUSH1 0x20 ADD SWAP2 PUSH2 0xDFA JUMP JUMPDEST DUP3 ADD SWAP2 SWAP1 PUSH0 MSTORE PUSH1 0x20 PUSH0 KECCAK256 SWAP1 JUMPDEST DUP2 SLOAD DUP2 MSTORE SWAP1 PUSH1 0x1 ADD SWAP1 PUSH1 0x20 ADD DUP1 DUP4 GT PUSH2 0xDDD JUMPI DUP3 SWAP1 SUB PUSH1 0x1F AND DUP3 ADD SWAP2 JUMPDEST POP POP POP POP POP SWAP1 POP DUP3 JUMP JUMPDEST CALLER PUSH0 DUP2 DUP2 MSTORE PUSH1 0xB PUSH1 0x20 MSTORE PUSH1 0x40 SWAP1 KECCAK256 SLOAD PUSH1 0xFF AND DUP1 PUSH2 0xE2F JUMPI POP CALLER PUSH0 SWAP1 DUP2 MSTORE PUSH1 0xC PUSH1 0x20 MSTORE PUSH1 0x40 SWAP1 KECCAK256 SLOAD PUSH1 0xFF AND JUMPDEST PUSH2 0xE4C JUMPI PUSH1 0x40 MLOAD PUSH4 0x2C972A5F PUSH1 0xE0 SHL DUP2 MSTORE PUSH1 0x4 ADD PUSH1 0x40 MLOAD DUP1 SWAP2 SUB SWAP1 REVERT JUMPDEST PUSH1 0x1 PUSH1 0x1 PUSH1 0xA0 SHL SUB DUP2 AND PUSH0 SWAP1 DUP2 MSTORE PUSH1 0xA PUSH1 0x20 MSTORE PUSH1 0x40 SWAP1 KECCAK256 SLOAD PUSH1 0xFF AND ISZERO PUSH2 0xE85 JUMPI PUSH1 0x40 MLOAD PUSH4 0xC8E5275B PUSH1 0xE0 SHL DUP2 MSTORE PUSH1 0x4 ADD PUSH1 0x40 MLOAD DUP1 SWAP2 SUB SWAP1 REVERT JUMPDEST PUSH1 0x40 MLOAD PUSH4 0x2C3E6F0F PUSH1 0xE1 SHL DUP2 MSTORE CALLER PUSH1 0x4 DUP3 ADD MSTORE PUSH0 SWAP1 PUSH1 0x1 PUSH1 0x1 PUSH1 0xA0 SHL SUB PUSH32 0x0 AND SWAP1 PUSH4 0x587CDE1E SWAP1 PUSH1 0x24 ADD PUSH1 0x20 PUSH1 0x40 MLOAD DUP1 DUP4 SUB DUP2 DUP7 GAS STATICCALL ISZERO DUP1 ISZERO PUSH2 0xEE9 JUMPI RETURNDATASIZE PUSH0 PUSH0 RETURNDATACOPY RETURNDATASIZE PUSH0 REVERT JUMPDEST POP POP POP POP PUSH1 0x40 MLOAD RETURNDATASIZE PUSH1 0x1F NOT PUSH1 0x1F DUP3 ADD AND DUP3 ADD DUP1 PUSH1 0x40 MSTORE POP DUP2 ADD SWAP1 PUSH2 0xF0D SWAP2 SWAP1 PUSH2 0x1D31 JUMP JUMPDEST PUSH1 0x1 PUSH1 0x1 PUSH1 0xA0 SHL SUB AND SUB PUSH2 0xF6E JUMPI PUSH1 0x40 MLOAD PUSH3 0x461BCD PUSH1 0xE5 SHL DUP2 MSTORE PUSH1 0x20 PUSH1 0x4 DUP3 ADD MSTORE PUSH1 0x22 PUSH1 0x24 DUP3 ADD MSTORE PUSH32 0x596F7520646F6E277420686176652064656C6567617465732C20746F20636C61 PUSH1 0x44 DUP3 ADD MSTORE PUSH2 0x696D PUSH1 0xF0 SHL PUSH1 0x64 DUP3 ADD MSTORE PUSH1 0x84 ADD PUSH2 0x74C JUMP JUMPDEST PUSH1 0x40 MLOAD PUSH4 0x2C3E6F0F PUSH1 0xE1 SHL DUP2 MSTORE CALLER PUSH1 0x4 DUP3 ADD MSTORE PUSH0 SWAP1 PUSH32 0x0 PUSH1 0x1 PUSH1 0x1 PUSH1 0xA0 SHL SUB AND SWAP1 PUSH4 0x587CDE1E SWAP1 PUSH1 0x24 ADD PUSH1 0x20 PUSH1 0x40 MLOAD DUP1 DUP4 SUB DUP2 DUP7 GAS STATICCALL ISZERO DUP1 ISZERO PUSH2 0xFD2 JUMPI RETURNDATASIZE PUSH0 PUSH0 RETURNDATACOPY RETURNDATASIZE PUSH0 REVERT JUMPDEST POP POP POP POP PUSH1 0x40 MLOAD RETURNDATASIZE PUSH1 0x1F NOT PUSH1 0x1F DUP3 ADD AND DUP3 ADD DUP1 PUSH1 0x40 MSTORE POP DUP2 ADD SWAP1 PUSH2 0xFF6 SWAP2 SWAP1 PUSH2 0x1D31 JUMP JUMPDEST PUSH1 0x1 PUSH1 0x1 PUSH1 0xA0 SHL SUB DUP2 DUP2 AND PUSH0 SWAP1 DUP2 MSTORE PUSH1 0xE PUSH1 0x20 MSTORE PUSH1 0x40 SWAP1 DUP2 SWAP1 KECCAK256 DUP1 SLOAD PUSH1 0x1 PUSH1 0x1 PUSH1 0xA0 SHL SUB NOT AND SWAP1 SSTORE MLOAD PUSH4 0x17066A57 PUSH1 0xE2 SHL DUP2 MSTORE CALLER PUSH1 0x4 DUP3 ADD MSTORE SWAP2 SWAP3 POP PUSH32 0x0 AND SWAP1 PUSH4 0x5C19A95C SWAP1 PUSH1 0x24 ADD PUSH2 0xA9A JUMP JUMPDEST CALLER PUSH0 DUP2 DUP2 MSTORE PUSH1 0xC PUSH1 0x20 MSTORE PUSH1 0x40 SWAP1 KECCAK256 SLOAD PUSH1 0xFF AND PUSH2 0x1092 JUMPI PUSH1 0x40 MLOAD PUSH4 0x3FEAE729 PUSH1 0xE1 SHL DUP2 MSTORE PUSH1 0x4 ADD PUSH1 0x40 MLOAD DUP1 SWAP2 SUB SWAP1 REVERT JUMPDEST DUP2 MLOAD DUP3 SWAP1 PUSH1 0x1 SWAP1 DUP2 SWAP1 PUSH2 0x10A5 SWAP1 DUP3 PUSH2 0x1D90 JUMP JUMPDEST POP PUSH1 0x20 DUP3 ADD MLOAD PUSH1 0x1 DUP3 ADD SWAP1 PUSH2 0x10BA SWAP1 DUP3 PUSH2 0x1D90 JUMP JUMPDEST POP POP POP POP POP JUMP JUMPDEST PUSH1 0xF PUSH1 0x20 MSTORE DUP2 PUSH0 MSTORE PUSH1 0x40 PUSH0 KECCAK256 DUP2 DUP2 SLOAD DUP2 LT PUSH2 0x10DA JUMPI PUSH0 DUP1 REVERT JUMPDEST PUSH0 SWAP2 DUP3 MSTORE PUSH1 0x20 SWAP1 SWAP2 KECCAK256 PUSH1 0x2 SWAP1 SWAP2 MUL ADD DUP1 SLOAD PUSH1 0x1 SWAP1 SWAP2 ADD SLOAD PUSH1 0x1 PUSH1 0x1 PUSH1 0xA0 SHL SUB SWAP1 SWAP2 AND SWAP3 POP SWAP1 POP DUP3 JUMP JUMPDEST CALLER PUSH0 SWAP1 DUP2 MSTORE PUSH1 0xB PUSH1 0x20 MSTORE PUSH1 0x40 SWAP1 KECCAK256 SLOAD PUSH1 0xFF AND DUP1 ISZERO PUSH2 0x1121 JUMPI POP PUSH1 0x8 SLOAD ISZERO JUMPDEST DUP1 PUSH2 0x113A JUMPI POP CALLER PUSH0 SWAP1 DUP2 MSTORE PUSH1 0xC PUSH1 0x20 MSTORE PUSH1 0x40 SWAP1 KECCAK256 SLOAD PUSH1 0xFF AND JUMPDEST PUSH2 0x1157 JUMPI PUSH1 0x40 MLOAD PUSH4 0x2C972A5F PUSH1 0xE0 SHL DUP2 MSTORE PUSH1 0x4 ADD PUSH1 0x40 MLOAD DUP1 SWAP2 SUB SWAP1 REVERT JUMPDEST PUSH0 JUMPDEST DUP2 MLOAD DUP2 PUSH4 0xFFFFFFFF AND LT ISZERO PUSH2 0x83A JUMPI PUSH0 DUP3 DUP3 PUSH4 0xFFFFFFFF AND DUP2 MLOAD DUP2 LT PUSH2 0x1181 JUMPI PUSH2 0x1181 PUSH2 0x1E4B JUMP JUMPDEST PUSH1 0x20 MUL PUSH1 0x20 ADD ADD MLOAD PUSH0 ADD MLOAD SWAP1 POP PUSH0 DUP4 DUP4 PUSH4 0xFFFFFFFF AND DUP2 MLOAD DUP2 LT PUSH2 0x11A7 JUMPI PUSH2 0x11A7 PUSH2 0x1E4B JUMP JUMPDEST PUSH1 0x20 SWAP1 DUP2 MUL SWAP2 SWAP1 SWAP2 ADD DUP2 ADD MLOAD DUP2 ADD MLOAD PUSH1 0x1 PUSH1 0x1 PUSH1 0xA0 SHL SUB DUP5 AND PUSH0 SWAP1 DUP2 MSTORE PUSH1 0xB SWAP1 SWAP3 MSTORE PUSH1 0x40 SWAP1 SWAP2 KECCAK256 SLOAD SWAP1 SWAP2 POP PUSH1 0xFF AND PUSH2 0x1210 JUMPI PUSH1 0x1 PUSH1 0x1 PUSH1 0xA0 SHL SUB DUP3 AND PUSH0 SWAP1 DUP2 MSTORE PUSH1 0xB PUSH1 0x20 MSTORE PUSH1 0x40 DUP2 KECCAK256 DUP1 SLOAD PUSH1 0xFF NOT AND PUSH1 0x1 OR SWAP1 SSTORE PUSH1 0x8 DUP1 SLOAD SWAP1 SWAP2 SWAP1 PUSH2 0x120B SWAP1 PUSH2 0x1E73 JUMP JUMPDEST SWAP1 SWAP2 SSTORE POP JUMPDEST PUSH1 0x6 SLOAD PUSH1 0x1 PUSH1 0xA0 SHL SWAP1 DIV PUSH1 0xFF AND PUSH2 0x129F JUMPI PUSH1 0x40 MLOAD PUSH4 0x73A14035 PUSH1 0xE1 SHL DUP2 MSTORE PUSH1 0x1 PUSH1 0x1 PUSH1 0xA0 SHL SUB DUP4 DUP2 AND PUSH1 0x4 DUP4 ADD MSTORE PUSH1 0x24 DUP3 ADD DUP4 SWAP1 MSTORE PUSH32 0x0 AND SWAP1 PUSH4 0xE742806A SWAP1 PUSH1 0x44 ADD PUSH0 PUSH1 0x40 MLOAD DUP1 DUP4 SUB DUP2 PUSH0 DUP8 DUP1 EXTCODESIZE ISZERO DUP1 ISZERO PUSH2 0x1288 JUMPI PUSH0 PUSH0 REVERT JUMPDEST POP GAS CALL ISZERO DUP1 ISZERO PUSH2 0x129A JUMPI RETURNDATASIZE PUSH0 PUSH0 RETURNDATACOPY RETURNDATASIZE PUSH0 REVERT JUMPDEST POP POP POP POP JUMPDEST POP POP DUP1 DUP1 PUSH2 0x12AC SWAP1 PUSH2 0x1E8B JUMP JUMPDEST SWAP2 POP POP PUSH2 0x1159 JUMP JUMPDEST PUSH1 0x6 SLOAD PUSH1 0x1 PUSH1 0xA0 SHL SWAP1 DIV PUSH1 0xFF AND PUSH2 0x12DE JUMPI PUSH1 0x40 MLOAD PUSH4 0x3FEAE729 PUSH1 0xE1 SHL DUP2 MSTORE PUSH1 0x4 ADD PUSH1 0x40 MLOAD DUP1 SWAP2 SUB SWAP1 REVERT JUMPDEST CALLER PUSH0 SWAP1 DUP2 MSTORE PUSH1 0xC PUSH1 0x20 MSTORE PUSH1 0x40 SWAP1 KECCAK256 SLOAD PUSH1 0xFF AND PUSH2 0x130D JUMPI PUSH1 0x40 MLOAD PUSH4 0x3FEAE729 PUSH1 0xE1 SHL DUP2 MSTORE PUSH1 0x4 ADD PUSH1 0x40 MLOAD DUP1 SWAP2 SUB SWAP1 REVERT JUMPDEST PUSH0 JUMPDEST DUP2 MLOAD DUP2 PUSH4 0xFFFFFFFF AND LT ISZERO PUSH2 0x83A JUMPI PUSH0 DUP3 DUP3 PUSH4 0xFFFFFFFF AND DUP2 MLOAD DUP2 LT PUSH2 0x1337 JUMPI PUSH2 0x1337 PUSH2 0x1E4B JUMP JUMPDEST PUSH1 0x20 MUL PUSH1 0x20 ADD ADD MLOAD PUSH0 ADD MLOAD SWAP1 POP PUSH0 DUP4 DUP4 PUSH4 0xFFFFFFFF AND DUP2 MLOAD DUP2 LT PUSH2 0x135D JUMPI PUSH2 0x135D PUSH2 0x1E4B JUMP JUMPDEST PUSH1 0x20 SWAP1 DUP2 MUL SWAP2 SWAP1 SWAP2 ADD DUP2 ADD MLOAD DUP2 ADD MLOAD PUSH1 0x1 PUSH1 0x1 PUSH1 0xA0 SHL SUB DUP5 AND PUSH0 SWAP1 DUP2 MSTORE PUSH1 0xB SWAP1 SWAP3 MSTORE PUSH1 0x40 SWAP1 SWAP2 KECCAK256 SLOAD SWAP1 SWAP2 POP PUSH1 0xFF AND ISZERO PUSH2 0x13C4 JUMPI PUSH1 0x1 PUSH1 0x1 PUSH1 0xA0 SHL SUB DUP3 AND PUSH0 SWAP1 DUP2 MSTORE PUSH1 0xB PUSH1 0x20 MSTORE PUSH1 0x40 DUP2 KECCAK256 DUP1 SLOAD PUSH1 0xFF NOT AND SWAP1 SSTORE PUSH1 0x8 DUP1 SLOAD SWAP1 SWAP2 SWAP1 PUSH2 0x13BF SWAP1 PUSH2 0x1EAF JUMP JUMPDEST SWAP1 SWAP2 SSTORE POP JUMPDEST PUSH1 0x6 SLOAD PUSH1 0x1 PUSH1 0xA0 SHL SWAP1 DIV PUSH1 0xFF AND PUSH2 0x1453 JUMPI PUSH1 0x40 MLOAD PUSH4 0xAECF8A6D PUSH1 0xE0 SHL DUP2 MSTORE PUSH1 0x1 PUSH1 0x1 PUSH1 0xA0 SHL SUB DUP4 DUP2 AND PUSH1 0x4 DUP4 ADD MSTORE PUSH1 0x24 DUP3 ADD DUP4 SWAP1 MSTORE PUSH32 0x0 AND SWAP1 PUSH4 0xAECF8A6D SWAP1 PUSH1 0x44 ADD PUSH0 PUSH1 0x40 MLOAD DUP1 DUP4 SUB DUP2 PUSH0 DUP8 DUP1 EXTCODESIZE ISZERO DUP1 ISZERO PUSH2 0x143C JUMPI PUSH0 PUSH0 REVERT JUMPDEST POP GAS CALL ISZERO DUP1 ISZERO PUSH2 0x144E JUMPI RETURNDATASIZE PUSH0 PUSH0 RETURNDATACOPY RETURNDATASIZE PUSH0 REVERT JUMPDEST POP POP POP POP JUMPDEST POP POP DUP1 DUP1 PUSH2 0x1460 SWAP1 PUSH2 0x1E8B JUMP JUMPDEST SWAP2 POP POP PUSH2 0x130F JUMP JUMPDEST CALLER PUSH1 0x1 PUSH1 0x1 PUSH1 0xA0 SHL SUB DUP6 AND EQ PUSH2 0x1491 JUMPI PUSH1 0x40 MLOAD PUSH4 0x3FEAE729 PUSH1 0xE1 SHL DUP2 MSTORE PUSH1 0x4 ADD PUSH1 0x40 MLOAD DUP1 SWAP2 SUB SWAP1 REVERT JUMPDEST PUSH1 0x40 DUP1 MLOAD PUSH1 0x80 DUP2 ADD DUP3 MSTORE PUSH1 0x1 PUSH1 0x1 PUSH1 0xA0 SHL SUB DUP1 DUP8 AND DUP3 MSTORE DUP6 DUP2 AND PUSH1 0x20 DUP1 DUP5 ADD SWAP2 DUP3 MSTORE DUP4 DUP6 ADD DUP8 DUP2 MSTORE PUSH1 0x7 SLOAD PUSH1 0x60 DUP7 ADD DUP2 SWAP1 MSTORE PUSH0 SWAP1 DUP2 MSTORE PUSH1 0x9 SWAP1 SWAP3 MSTORE SWAP5 SWAP1 KECCAK256 DUP4 MLOAD DUP2 SLOAD SWAP1 DUP5 AND PUSH1 0x1 PUSH1 0x1 PUSH1 0xA0 SHL SUB NOT SWAP2 DUP3 AND OR DUP3 SSTORE SWAP2 MLOAD PUSH1 0x1 DUP3 ADD DUP1 SLOAD SWAP2 SWAP1 SWAP5 AND SWAP3 AND SWAP2 SWAP1 SWAP2 OR SWAP1 SWAP2 SSTORE SWAP2 MLOAD SWAP1 SWAP2 SWAP1 PUSH1 0x2 DUP3 ADD SWAP1 PUSH2 0x150E SWAP1 DUP3 PUSH2 0x1D90 JUMP JUMPDEST POP PUSH1 0x60 SWAP2 SWAP1 SWAP2 ADD MLOAD PUSH1 0x3 SWAP1 SWAP2 ADD SSTORE PUSH1 0x4 PUSH1 0xFF DUP3 AND GT PUSH2 0x15F6 JUMPI PUSH0 DUP2 PUSH1 0xFF AND PUSH1 0x5 DUP2 GT ISZERO PUSH2 0x153D JUMPI PUSH2 0x153D PUSH2 0x1EC4 JUMP JUMPDEST SWAP1 POP PUSH0 DUP2 PUSH1 0x5 DUP2 GT ISZERO PUSH2 0x1552 JUMPI PUSH2 0x1552 PUSH2 0x1EC4 JUMP JUMPDEST EQ DUP1 PUSH2 0x156F JUMPI POP PUSH1 0x5 DUP2 PUSH1 0x5 DUP2 GT ISZERO PUSH2 0x156D JUMPI PUSH2 0x156D PUSH2 0x1EC4 JUMP JUMPDEST EQ JUMPDEST ISZERO PUSH2 0x15F4 JUMPI PUSH1 0x40 MLOAD PUSH4 0x28AFEB53 PUSH1 0xE2 SHL DUP2 MSTORE PUSH1 0x1 PUSH1 0x1 PUSH1 0xA0 SHL SUB DUP7 DUP2 AND PUSH1 0x4 DUP4 ADD MSTORE PUSH1 0xFF DUP5 AND PUSH1 0x24 DUP4 ADD MSTORE PUSH32 0x0 AND SWAP1 PUSH4 0xA2BFAD4C SWAP1 PUSH1 0x44 ADD PUSH0 PUSH1 0x40 MLOAD DUP1 DUP4 SUB DUP2 PUSH0 DUP8 DUP1 EXTCODESIZE ISZERO DUP1 ISZERO PUSH2 0x15DD JUMPI PUSH0 PUSH0 REVERT JUMPDEST POP GAS CALL ISZERO DUP1 ISZERO PUSH2 0x15EF JUMPI RETURNDATASIZE PUSH0 PUSH0 RETURNDATACOPY RETURNDATASIZE PUSH0 REVERT JUMPDEST POP POP POP POP JUMPDEST POP JUMPDEST PUSH1 0x7 DUP1 SLOAD SWAP1 PUSH0 PUSH2 0x1605 DUP4 PUSH2 0x1E73 JUMP JUMPDEST SWAP1 SWAP2 SSTORE POP POP POP PUSH1 0x1 PUSH1 0x1 PUSH1 0xA0 SHL SUB SWAP1 SWAP3 AND PUSH0 SWAP1 DUP2 MSTORE PUSH1 0xC PUSH1 0x20 MSTORE PUSH1 0x40 SWAP1 KECCAK256 DUP1 SLOAD PUSH1 0xFF NOT AND PUSH1 0x1 OR SWAP1 SSTORE POP POP JUMP JUMPDEST CALLER PUSH0 DUP2 DUP2 MSTORE PUSH1 0xC PUSH1 0x20 MSTORE PUSH1 0x40 SWAP1 KECCAK256 SLOAD PUSH1 0xFF AND PUSH2 0x1661 JUMPI PUSH1 0x40 MLOAD PUSH4 0x3FEAE729 PUSH1 0xE1 SHL DUP2 MSTORE PUSH1 0x4 ADD PUSH1 0x40 MLOAD DUP1 SWAP2 SUB SWAP1 REVERT JUMPDEST POP DUP1 MLOAD PUSH1 0x5 DUP1 SLOAD PUSH1 0x20 DUP5 ADD MLOAD PUSH1 0x40 DUP6 ADD MLOAD PUSH1 0x60 DUP7 ADD MLOAD PUSH1 0x80 SWAP1 SWAP7 ADD MLOAD ISZERO ISZERO PUSH1 0x1 PUSH1 0x38 SHL MUL PUSH8 0xFF00000000000000 NOT SWAP7 ISZERO ISZERO PUSH7 0x1000000000000 MUL PUSH7 0xFF000000000000 NOT PUSH4 0xFFFFFFFF SWAP1 SWAP4 AND PUSH3 0x10000 MUL SWAP3 SWAP1 SWAP3 AND PUSH7 0xFFFFFFFFFF0000 NOT PUSH1 0xFF SWAP5 DUP6 AND PUSH2 0x100 MUL PUSH2 0xFFFF NOT SWAP1 SWAP7 AND SWAP5 SWAP1 SWAP8 AND SWAP4 SWAP1 SWAP4 OR SWAP4 SWAP1 SWAP4 OR SWAP5 SWAP1 SWAP5 AND OR SWAP3 SWAP1 SWAP3 OR SWAP3 SWAP1 SWAP3 AND OR SWAP1 SSTORE JUMP JUMPDEST PUSH1 0x1 PUSH1 0x1 PUSH1 0xA0 SHL SUB DUP2 AND PUSH0 SWAP1 DUP2 MSTORE PUSH1 0xB PUSH1 0x20 MSTORE PUSH1 0x40 DUP2 KECCAK256 SLOAD DUP3 SWAP1 PUSH1 0xFF AND DUP1 PUSH2 0x1722 JUMPI POP CALLER PUSH0 SWAP1 DUP2 MSTORE PUSH1 0xC PUSH1 0x20 MSTORE PUSH1 0x40 SWAP1 KECCAK256 SLOAD PUSH1 0xFF AND JUMPDEST PUSH2 0x173F JUMPI PUSH1 0x40 MLOAD PUSH4 0x2C972A5F PUSH1 0xE0 SHL DUP2 MSTORE PUSH1 0x4 ADD PUSH1 0x40 MLOAD DUP1 SWAP2 SUB SWAP1 REVERT JUMPDEST PUSH1 0x1 PUSH1 0x1 PUSH1 0xA0 SHL SUB DUP2 AND PUSH0 SWAP1 DUP2 MSTORE PUSH1 0xA PUSH1 0x20 MSTORE PUSH1 0x40 SWAP1 KECCAK256 SLOAD PUSH1 0xFF AND ISZERO PUSH2 0x1778 JUMPI PUSH1 0x40 MLOAD PUSH4 0xC8E5275B PUSH1 0xE0 SHL DUP2 MSTORE PUSH1 0x4 ADD PUSH1 0x40 MLOAD DUP1 SWAP2 SUB SWAP1 REVERT JUMPDEST PUSH1 0x1 SWAP2 POP JUMPDEST POP SWAP2 SWAP1 POP JUMP JUMPDEST PUSH1 0x2 PUSH0 SLOAD SUB PUSH2 0x17A5 JUMPI PUSH1 0x40 MLOAD PUSH4 0x3EE5AEB5 PUSH1 0xE0 SHL DUP2 MSTORE PUSH1 0x4 ADD PUSH1 0x40 MLOAD DUP1 SWAP2 SUB SWAP1 REVERT JUMPDEST PUSH1 0x2 PUSH0 SSTORE JUMP JUMPDEST PUSH0 PUSH1 0x20 DUP3 DUP5 SUB SLT ISZERO PUSH2 0x17BB JUMPI PUSH0 PUSH0 REVERT JUMPDEST POP CALLDATALOAD SWAP2 SWAP1 POP JUMP JUMPDEST PUSH0 DUP2 MLOAD DUP1 DUP5 MSTORE DUP1 PUSH1 0x20 DUP5 ADD PUSH1 0x20 DUP7 ADD MCOPY PUSH0 PUSH1 0x20 DUP3 DUP7 ADD ADD MSTORE PUSH1 0x20 PUSH1 0x1F NOT PUSH1 0x1F DUP4 ADD AND DUP6 ADD ADD SWAP2 POP POP SWAP3 SWAP2 POP POP JUMP JUMPDEST PUSH1 0x1 PUSH1 0x1 PUSH1 0xA0 SHL SUB DUP6 DUP2 AND DUP3 MSTORE DUP5 AND PUSH1 0x20 DUP3 ADD MSTORE PUSH1 0x80 PUSH1 0x40 DUP3 ADD DUP2 SWAP1 MSTORE PUSH0 SWAP1 PUSH2 0x181B SWAP1 DUP4 ADD DUP6 PUSH2 0x17C2 JUMP JUMPDEST SWAP1 POP DUP3 PUSH1 0x60 DUP4 ADD MSTORE SWAP6 SWAP5 POP POP POP POP POP JUMP JUMPDEST PUSH1 0x1 PUSH1 0x1 PUSH1 0xA0 SHL SUB DUP2 AND DUP2 EQ PUSH2 0x1840 JUMPI PUSH0 PUSH0 REVERT JUMPDEST POP JUMP JUMPDEST PUSH0 PUSH0 PUSH1 0x40 DUP4 DUP6 SUB SLT ISZERO PUSH2 0x1854 JUMPI PUSH0 PUSH0 REVERT JUMPDEST DUP3 CALLDATALOAD PUSH2 0x185F DUP2 PUSH2 0x182C JUMP JUMPDEST SWAP5 PUSH1 0x20 SWAP4 SWAP1 SWAP4 ADD CALLDATALOAD SWAP4 POP POP POP JUMP JUMPDEST PUSH4 0x4E487B71 PUSH1 0xE0 SHL PUSH0 MSTORE PUSH1 0x41 PUSH1 0x4 MSTORE PUSH1 0x24 PUSH0 REVERT JUMPDEST PUSH1 0x40 DUP1 MLOAD SWAP1 DUP2 ADD PUSH8 0xFFFFFFFFFFFFFFFF DUP2 GT DUP3 DUP3 LT OR ISZERO PUSH2 0x18A4 JUMPI PUSH2 0x18A4 PUSH2 0x186D JUMP JUMPDEST PUSH1 0x40 MSTORE SWAP1 JUMP JUMPDEST PUSH1 0x40 MLOAD PUSH1 0x1F DUP3 ADD PUSH1 0x1F NOT AND DUP2 ADD PUSH8 0xFFFFFFFFFFFFFFFF DUP2 GT DUP3 DUP3 LT OR ISZERO PUSH2 0x18D3 JUMPI PUSH2 0x18D3 PUSH2 0x186D JUMP JUMPDEST PUSH1 0x40 MSTORE SWAP2 SWAP1 POP JUMP JUMPDEST DUP1 ISZERO ISZERO DUP2 EQ PUSH2 0x1840 JUMPI PUSH0 PUSH0 REVERT JUMPDEST PUSH0 PUSH1 0x40 DUP3 DUP5 SUB SLT DUP1 ISZERO PUSH2 0x18F9 JUMPI PUSH0 PUSH0 REVERT JUMPDEST POP PUSH2 0x1902 PUSH2 0x1881 JUMP JUMPDEST DUP3 CALLDATALOAD PUSH2 0x190D DUP2 PUSH2 0x18DB JUMP JUMPDEST DUP2 MSTORE PUSH1 0x20 SWAP3 DUP4 ADD CALLDATALOAD SWAP3 DUP2 ADD SWAP3 SWAP1 SWAP3 MSTORE POP SWAP2 SWAP1 POP JUMP JUMPDEST PUSH0 PUSH1 0x20 DUP3 DUP5 SUB SLT ISZERO PUSH2 0x1932 JUMPI PUSH0 PUSH0 REVERT JUMPDEST DUP2 CALLDATALOAD PUSH2 0x193D DUP2 PUSH2 0x182C JUMP JUMPDEST SWAP4 SWAP3 POP POP POP JUMP JUMPDEST PUSH0 PUSH0 PUSH0 PUSH1 0x60 DUP5 DUP7 SUB SLT ISZERO PUSH2 0x1956 JUMPI PUSH0 PUSH0 REVERT JUMPDEST DUP4 CALLDATALOAD PUSH2 0x1961 DUP2 PUSH2 0x182C JUMP JUMPDEST SWAP3 POP PUSH1 0x20 DUP5 ADD CALLDATALOAD PUSH2 0x1971 DUP2 PUSH2 0x182C JUMP JUMPDEST SWAP3 SWAP6 SWAP3 SWAP5 POP POP POP PUSH1 0x40 SWAP2 SWAP1 SWAP2 ADD CALLDATALOAD SWAP1 JUMP JUMPDEST PUSH1 0x40 DUP2 MSTORE PUSH0 PUSH2 0x1994 PUSH1 0x40 DUP4 ADD DUP6 PUSH2 0x17C2 JUMP JUMPDEST DUP3 DUP2 SUB PUSH1 0x20 DUP5 ADD MSTORE PUSH2 0x19A6 DUP2 DUP6 PUSH2 0x17C2 JUMP JUMPDEST SWAP6 SWAP5 POP POP POP POP POP JUMP JUMPDEST PUSH0 PUSH0 PUSH8 0xFFFFFFFFFFFFFFFF DUP5 GT ISZERO PUSH2 0x19C9 JUMPI PUSH2 0x19C9 PUSH2 0x186D JUMP JUMPDEST POP PUSH1 0x1F DUP4 ADD PUSH1 0x1F NOT AND PUSH1 0x20 ADD PUSH2 0x19DE DUP2 PUSH2 0x18AA JUMP JUMPDEST SWAP2 POP POP DUP3 DUP2 MSTORE DUP4 DUP4 DUP4 ADD GT ISZERO PUSH2 0x19F2 JUMPI PUSH0 PUSH0 REVERT JUMPDEST DUP3 DUP3 PUSH1 0x20 DUP4 ADD CALLDATACOPY PUSH0 PUSH1 0x20 DUP5 DUP4 ADD ADD MSTORE SWAP4 SWAP3 POP POP POP JUMP JUMPDEST PUSH0 DUP3 PUSH1 0x1F DUP4 ADD SLT PUSH2 0x1A17 JUMPI PUSH0 PUSH0 REVERT JUMPDEST PUSH2 0x193D DUP4 DUP4 CALLDATALOAD PUSH1 0x20 DUP6 ADD PUSH2 0x19AF JUMP JUMPDEST PUSH0 PUSH1 0x20 DUP3 DUP5 SUB SLT ISZERO PUSH2 0x1A36 JUMPI PUSH0 PUSH0 REVERT JUMPDEST DUP2 CALLDATALOAD PUSH8 0xFFFFFFFFFFFFFFFF DUP2 GT ISZERO PUSH2 0x1A4C JUMPI PUSH0 PUSH0 REVERT JUMPDEST DUP3 ADD PUSH1 0x40 DUP2 DUP6 SUB SLT ISZERO PUSH2 0x1A5D JUMPI PUSH0 PUSH0 REVERT JUMPDEST PUSH2 0x1A65 PUSH2 0x1881 JUMP JUMPDEST DUP2 CALLDATALOAD PUSH8 0xFFFFFFFFFFFFFFFF DUP2 GT ISZERO PUSH2 0x1A7B JUMPI PUSH0 PUSH0 REVERT JUMPDEST PUSH2 0x1A87 DUP7 DUP3 DUP6 ADD PUSH2 0x1A08 JUMP JUMPDEST DUP3 MSTORE POP PUSH1 0x20 DUP3 ADD CALLDATALOAD PUSH8 0xFFFFFFFFFFFFFFFF DUP2 GT ISZERO PUSH2 0x1AA3 JUMPI PUSH0 PUSH0 REVERT JUMPDEST DUP1 DUP4 ADD SWAP3 POP POP DUP5 PUSH1 0x1F DUP4 ADD SLT PUSH2 0x1AB7 JUMPI PUSH0 PUSH0 REVERT JUMPDEST PUSH2 0x1AC6 DUP6 DUP4 CALLDATALOAD PUSH1 0x20 DUP6 ADD PUSH2 0x19AF JUMP JUMPDEST PUSH1 0x20 DUP3 ADD MSTORE SWAP5 SWAP4 POP POP POP POP JUMP JUMPDEST PUSH0 PUSH1 0x20 DUP3 DUP5 SUB SLT ISZERO PUSH2 0x1AE3 JUMPI PUSH0 PUSH0 REVERT JUMPDEST DUP2 CALLDATALOAD PUSH8 0xFFFFFFFFFFFFFFFF DUP2 GT ISZERO PUSH2 0x1AF9 JUMPI PUSH0 PUSH0 REVERT JUMPDEST DUP3 ADD PUSH1 0x1F DUP2 ADD DUP5 SGT PUSH2 0x1B09 JUMPI PUSH0 PUSH0 REVERT JUMPDEST DUP1 CALLDATALOAD PUSH8 0xFFFFFFFFFFFFFFFF DUP2 GT ISZERO PUSH2 0x1B23 JUMPI PUSH2 0x1B23 PUSH2 0x186D JUMP JUMPDEST PUSH2 0x1B32 PUSH1 0x20 DUP3 PUSH1 0x5 SHL ADD PUSH2 0x18AA JUMP JUMPDEST DUP1 DUP3 DUP3 MSTORE PUSH1 0x20 DUP3 ADD SWAP2 POP PUSH1 0x20 DUP4 PUSH1 0x6 SHL DUP6 ADD ADD SWAP3 POP DUP7 DUP4 GT ISZERO PUSH2 0x1B53 JUMPI PUSH0 PUSH0 REVERT JUMPDEST PUSH1 0x20 DUP5 ADD SWAP4 POP JUMPDEST DUP3 DUP5 LT ISZERO PUSH2 0x1BA3 JUMPI PUSH1 0x40 DUP5 DUP9 SUB SLT ISZERO PUSH2 0x1B71 JUMPI PUSH0 PUSH0 REVERT JUMPDEST PUSH2 0x1B79 PUSH2 0x1881 JUMP JUMPDEST DUP5 CALLDATALOAD PUSH2 0x1B84 DUP2 PUSH2 0x182C JUMP JUMPDEST DUP2 MSTORE PUSH1 0x20 DUP6 DUP2 ADD CALLDATALOAD DUP2 DUP4 ADD MSTORE SWAP1 DUP4 MSTORE PUSH1 0x40 SWAP1 SWAP5 ADD SWAP4 SWAP2 SWAP1 SWAP2 ADD SWAP1 PUSH2 0x1B5A JUMP JUMPDEST SWAP7 SWAP6 POP POP POP POP POP POP JUMP JUMPDEST DUP1 CALLDATALOAD PUSH1 0xFF DUP2 AND DUP2 EQ PUSH2 0x1BBD JUMPI PUSH0 PUSH0 REVERT JUMPDEST SWAP2 SWAP1 POP JUMP JUMPDEST PUSH0 PUSH0 PUSH0 PUSH0 PUSH1 0x80 DUP6 DUP8 SUB SLT ISZERO PUSH2 0x1BD5 JUMPI PUSH0 PUSH0 REVERT JUMPDEST DUP5 CALLDATALOAD PUSH2 0x1BE0 DUP2 PUSH2 0x182C JUMP JUMPDEST SWAP4 POP PUSH1 0x20 DUP6 ADD CALLDATALOAD PUSH2 0x1BF0 DUP2 PUSH2 0x182C JUMP JUMPDEST SWAP3 POP PUSH1 0x40 DUP6 ADD CALLDATALOAD PUSH8 0xFFFFFFFFFFFFFFFF DUP2 GT ISZERO PUSH2 0x1C0B JUMPI PUSH0 PUSH0 REVERT JUMPDEST PUSH2 0x1C17 DUP8 DUP3 DUP9 ADD PUSH2 0x1A08 JUMP JUMPDEST SWAP3 POP POP PUSH2 0x1C26 PUSH1 0x60 DUP7 ADD PUSH2 0x1BAD JUMP JUMPDEST SWAP1 POP SWAP3 SWAP6 SWAP2 SWAP5 POP SWAP3 POP JUMP JUMPDEST PUSH0 PUSH1 0xA0 DUP3 DUP5 SUB SLT DUP1 ISZERO PUSH2 0x1C42 JUMPI PUSH0 PUSH0 REVERT JUMPDEST POP PUSH1 0x40 MLOAD PUSH1 0xA0 DUP2 ADD PUSH8 0xFFFFFFFFFFFFFFFF DUP2 GT DUP3 DUP3 LT OR ISZERO PUSH2 0x1C66 JUMPI PUSH2 0x1C66 PUSH2 0x186D JUMP JUMPDEST PUSH1 0x40 MSTORE PUSH2 0x1C72 DUP4 PUSH2 0x1BAD JUMP JUMPDEST DUP2 MSTORE PUSH2 0x1C80 PUSH1 0x20 DUP5 ADD PUSH2 0x1BAD JUMP JUMPDEST PUSH1 0x20 DUP3 ADD MSTORE PUSH1 0x40 DUP4 ADD CALLDATALOAD PUSH4 0xFFFFFFFF DUP2 AND DUP2 EQ PUSH2 0x1C9B JUMPI PUSH0 PUSH0 REVERT JUMPDEST PUSH1 0x40 DUP3 ADD MSTORE PUSH1 0x60 DUP4 ADD CALLDATALOAD PUSH2 0x1CAE DUP2 PUSH2 0x18DB JUMP JUMPDEST PUSH1 0x60 DUP3 ADD MSTORE PUSH1 0x80 DUP4 ADD CALLDATALOAD PUSH2 0x1CC1 DUP2 PUSH2 0x18DB JUMP JUMPDEST PUSH1 0x80 DUP3 ADD MSTORE SWAP4 SWAP3 POP POP POP JUMP JUMPDEST PUSH1 0x1 DUP2 DUP2 SHR SWAP1 DUP3 AND DUP1 PUSH2 0x1CE1 JUMPI PUSH1 0x7F DUP3 AND SWAP2 POP JUMPDEST PUSH1 0x20 DUP3 LT DUP2 SUB PUSH2 0x177D JUMPI PUSH4 0x4E487B71 PUSH1 0xE0 SHL PUSH0 MSTORE PUSH1 0x22 PUSH1 0x4 MSTORE PUSH1 0x24 PUSH0 REVERT JUMPDEST PUSH0 PUSH1 0x20 DUP3 DUP5 SUB SLT ISZERO PUSH2 0x1D0F JUMPI PUSH0 PUSH0 REVERT JUMPDEST POP MLOAD SWAP2 SWAP1 POP JUMP JUMPDEST PUSH0 PUSH1 0x20 DUP3 DUP5 SUB SLT ISZERO PUSH2 0x1D26 JUMPI PUSH0 PUSH0 REVERT JUMPDEST DUP2 MLOAD PUSH2 0x193D DUP2 PUSH2 0x18DB JUMP JUMPDEST PUSH0 PUSH1 0x20 DUP3 DUP5 SUB SLT ISZERO PUSH2 0x1D41 JUMPI PUSH0 PUSH0 REVERT JUMPDEST DUP2 MLOAD PUSH2 0x193D DUP2 PUSH2 0x182C JUMP JUMPDEST PUSH1 0x1F DUP3 GT ISZERO PUSH2 0xCE3 JUMPI DUP1 PUSH0 MSTORE PUSH1 0x20 PUSH0 KECCAK256 PUSH1 0x1F DUP5 ADD PUSH1 0x5 SHR DUP2 ADD PUSH1 0x20 DUP6 LT ISZERO PUSH2 0x1D71 JUMPI POP DUP1 JUMPDEST PUSH1 0x1F DUP5 ADD PUSH1 0x5 SHR DUP3 ADD SWAP2 POP JUMPDEST DUP2 DUP2 LT ISZERO PUSH2 0x10BA JUMPI PUSH0 DUP2 SSTORE PUSH1 0x1 ADD PUSH2 0x1D7D JUMP JUMPDEST DUP2 MLOAD PUSH8 0xFFFFFFFFFFFFFFFF DUP2 GT ISZERO PUSH2 0x1DAA JUMPI PUSH2 0x1DAA PUSH2 0x186D JUMP JUMPDEST PUSH2 0x1DBE DUP2 PUSH2 0x1DB8 DUP5 SLOAD PUSH2 0x1CCD JUMP JUMPDEST DUP5 PUSH2 0x1D4C JUMP JUMPDEST PUSH1 0x20 PUSH1 0x1F DUP3 GT PUSH1 0x1 DUP2 EQ PUSH2 0x1DF0 JUMPI PUSH0 DUP4 ISZERO PUSH2 0x1DD9 JUMPI POP DUP5 DUP3 ADD MLOAD JUMPDEST PUSH0 NOT PUSH1 0x3 DUP6 SWAP1 SHL SHR NOT AND PUSH1 0x1 DUP5 SWAP1 SHL OR DUP5 SSTORE PUSH2 0x10BA JUMP JUMPDEST PUSH0 DUP5 DUP2 MSTORE PUSH1 0x20 DUP2 KECCAK256 PUSH1 0x1F NOT DUP6 AND SWAP2 JUMPDEST DUP3 DUP2 LT ISZERO PUSH2 0x1E1F JUMPI DUP8 DUP6 ADD MLOAD DUP3 SSTORE PUSH1 0x20 SWAP5 DUP6 ADD SWAP5 PUSH1 0x1 SWAP1 SWAP3 ADD SWAP2 ADD PUSH2 0x1DFF JUMP JUMPDEST POP DUP5 DUP3 LT ISZERO PUSH2 0x1E3C JUMPI DUP7 DUP5 ADD MLOAD PUSH0 NOT PUSH1 0x3 DUP8 SWAP1 SHL PUSH1 0xF8 AND SHR NOT AND DUP2 SSTORE JUMPDEST POP POP POP POP PUSH1 0x1 SWAP1 DUP2 SHL ADD SWAP1 SSTORE POP JUMP JUMPDEST PUSH4 0x4E487B71 PUSH1 0xE0 SHL PUSH0 MSTORE PUSH1 0x32 PUSH1 0x4 MSTORE PUSH1 0x24 PUSH0 REVERT JUMPDEST PUSH4 0x4E487B71 PUSH1 0xE0 SHL PUSH0 MSTORE PUSH1 0x11 PUSH1 0x4 MSTORE PUSH1 0x24 PUSH0 REVERT JUMPDEST PUSH0 PUSH1 0x1 DUP3 ADD PUSH2 0x1E84 JUMPI PUSH2 0x1E84 PUSH2 0x1E5F JUMP JUMPDEST POP PUSH1 0x1 ADD SWAP1 JUMP JUMPDEST PUSH0 PUSH4 0xFFFFFFFF DUP3 AND PUSH4 0xFFFFFFFF DUP2 SUB PUSH2 0x1EA6 JUMPI PUSH2 0x1EA6 PUSH2 0x1E5F JUMP JUMPDEST PUSH1 0x1 ADD SWAP3 SWAP2 POP POP JUMP JUMPDEST PUSH0 DUP2 PUSH2 0x1EBD JUMPI PUSH2 0x1EBD PUSH2 0x1E5F JUMP JUMPDEST POP PUSH0 NOT ADD SWAP1 JUMP JUMPDEST PUSH4 0x4E487B71 PUSH1 0xE0 SHL PUSH0 MSTORE PUSH1 0x21 PUSH1 0x4 MSTORE PUSH1 0x24 PUSH0 REVERT INVALID LOG2 PUSH5 0x6970667358 0x22 SLT KECCAK256 DIV 0xC6 0xD7 0xE 0xE2 EXTSTATICCALL 0xDF PUSH7 0x1F5A9108D1E3FF CREATE SWAP6 BLOBBASEFEE PUSH16 0xCD9531FA64ABF56C154A9CF85464736F PUSH13 0x634300081D0033000000000000 "
		},
		"gasEstimates": {
			"creation": {
				"codeDepositCost": "1590000",
				"executionCost": "infinite",
				"totalCost": "infinite"
			},
			"external": {
				"": "229",
				"DaoCreator()": "infinite",
				"_daoSettings()": "infinite",
				"_proposalCreationSettings()": "4484",
				"addDAOMembers((address,uint256)[])": "infinite",
				"blacklisted(address)": "2566",
				"canInteract(address)": "7108",
				"claimPower()": "infinite",
				"configureProposal(address,address,string,uint8)": "infinite",
				"delegate(address)": "infinite",
				"delegator(address)": "2617",
				"governanceSettings()": "2561",
				"governanceToken()": "infinite",
				"isDAOMember(address)": "2633",
				"isMultiSignDAO()": "2371",
				"isProposal(address)": "2568",
				"membersCount()": "2384",
				"proposalId()": "2406",
				"proposals(uint256)": "infinite",
				"removeDAOMembers((address,uint256)[])": "infinite",
				"tokenDeposited(address,uint256)": "7020",
				"totalTokenDeposits(address)": "2621",
				"treasuryBalance(address)": "2600",
				"updateDaoSettings((string,bytes))": "infinite",
				"updateGovernanceSettings((uint8,uint8,uint32,bool,bool))": "infinite",
				"updateProposalMemberSettings((bool,uint256))": "49042",
				"withdrawFromDAOTreasury(address,uint256)": "infinite",
				"withdrawTokens(address,address,uint256)": "infinite"
			}
		},
		"methodIdentifiers": {
			"DaoCreator()": "4ab17f31",
			"_daoSettings()": "65f3657f",
			"_proposalCreationSettings()": "5957ac66",
			"addDAOMembers((address,uint256)[])": "b9183515",
			"blacklisted(address)": "dbac26e9",
			"canInteract(address)": "fe436c53",
			"claimPower()": "8215ae57",
			"configureProposal(address,address,string,uint8)": "da7904c2",
			"delegate(address)": "5c19a95c",
			"delegator(address)": "539e5082",
			"governanceSettings()": "62354e03",
			"governanceToken()": "f96dae0a",
			"isDAOMember(address)": "b1e44d8f",
			"isMultiSignDAO()": "a3dac6ae",
			"isProposal(address)": "52050003",
			"membersCount()": "297f9af0",
			"proposalId()": "2dfca445",
			"proposals(uint256)": "013cf08b",
			"removeDAOMembers((address,uint256)[])": "bf3adaec",
			"tokenDeposited(address,uint256)": "b03fbb21",
			"totalTokenDeposits(address)": "5f4f3f23",
			"treasuryBalance(address)": "54445ae6",
			"updateDaoSettings((string,bytes))": "aa6c9763",
			"updateGovernanceSettings((uint8,uint8,uint32,bool,bool))": "e37bcdad",
			"updateProposalMemberSettings((bool,uint256))": "132da92d",
			"withdrawFromDAOTreasury(address,uint256)": "1035c1cf",
			"withdrawTokens(address,address,uint256)": "5e35359e"
		}
	},
	"abi": [
		{
			"inputs": [
				{
					"internalType": "address",
					"name": "daoManagementAddress",
					"type": "address"
				},
				{
					"components": [
						{
							"internalType": "string",
							"name": "name",
							"type": "string"
						},
						{
							"internalType": "bytes",
							"name": "data",
							"type": "bytes"
						}
					],
					"internalType": "struct IDAO.DaoSettings",
					"name": "_daoParams",
					"type": "tuple"
				},
				{
					"internalType": "address",
					"name": "_governanceToken",
					"type": "address"
				},
				{
					"components": [
						{
							"internalType": "string",
							"name": "name",
							"type": "string"
						},
						{
							"internalType": "string",
							"name": "symbol",
							"type": "string"
						},
						{
							"internalType": "address",
							"name": "councilAddress",
							"type": "address"
						}
					],
					"internalType": "struct IDAO.GovernanceTokenParams",
					"name": "_GovernanceTokenParams",
					"type": "tuple"
				},
				{
					"components": [
						{
							"internalType": "uint8",
							"name": "minimumParticipationPercentage",
							"type": "uint8"
						},
						{
							"internalType": "uint8",
							"name": "supportThresholdPercentage",
							"type": "uint8"
						},
						{
							"internalType": "uint32",
							"name": "minimumDurationForProposal",
							"type": "uint32"
						},
						{
							"internalType": "bool",
							"name": "earlyExecution",
							"type": "bool"
						},
						{
							"internalType": "bool",
							"name": "canVoteChange",
							"type": "bool"
						}
					],
					"internalType": "struct IDAO.GovernanceSettings",
					"name": "_governanceSettings",
					"type": "tuple"
				},
				{
					"components": [
						{
							"internalType": "address",
							"name": "memberAddress",
							"type": "address"
						},
						{
							"internalType": "uint256",
							"name": "deposit",
							"type": "uint256"
						}
					],
					"internalType": "struct IDAO.DAOMember[]",
					"name": "_daoMembers",
					"type": "tuple[]"
				},
				{
					"components": [
						{
							"internalType": "bool",
							"name": "isTokenBasedProposal",
							"type": "bool"
						},
						{
							"internalType": "uint256",
							"name": "MinimumRequirement",
							"type": "uint256"
						}
					],
					"internalType": "struct IDAO.ProposalCreationSettings",
					"name": "_proposalCreationParams",
					"type": "tuple"
				},
				{
					"internalType": "bool",
					"name": "_isMultiSignDAO",
					"type": "bool"
				}
			],
			"stateMutability": "nonpayable",
			"type": "constructor"
		},
		{
			"inputs": [],
			"name": "DAOBlacklistedAddress",
			"type": "error"
		},
		{
			"inputs": [],
			"name": "DAOInsufficientAllowanceGovernanceToken",
			"type": "error"
		},
		{
			"inputs": [],
			"name": "DAOInsufficientBalance",
			"type": "error"
		},
		{
			"inputs": [],
			"name": "DAOInvalidAmount",
			"type": "error"
		},
		{
			"inputs": [],
			"name": "DAONotADaoMember",
			"type": "error"
		},
		{
			"inputs": [],
			"name": "DAOUnAuthorizedInteraction",
			"type": "error"
		},
		{
			"inputs": [
				{
					"internalType": "uint256",
					"name": "expected",
					"type": "uint256"
				},
				{
					"internalType": "uint256",
					"name": "actual",
					"type": "uint256"
				}
			],
			"name": "DepositsMisMatch",
			"type": "error"
		},
		{
			"inputs": [],
			"name": "NotAFreshGovernanceToken",
			"type": "error"
		},
		{
			"inputs": [],
			"name": "ReentrancyGuardReentrantCall",
			"type": "error"
		},
		{
			"stateMutability": "payable",
			"type": "fallback"
		},
		{
			"inputs": [],
			"name": "DaoCreator",
			"outputs": [
				{
					"internalType": "address",
					"name": "",
					"type": "address"
				}
			],
			"stateMutability": "view",
			"type": "function"
		},
		{
			"inputs": [],
			"name": "_daoSettings",
			"outputs": [
				{
					"internalType": "string",
					"name": "name",
					"type": "string"
				},
				{
					"internalType": "bytes",
					"name": "data",
					"type": "bytes"
				}
			],
			"stateMutability": "view",
			"type": "function"
		},
		{
			"inputs": [],
			"name": "_proposalCreationSettings",
			"outputs": [
				{
					"internalType": "bool",
					"name": "isTokenBasedProposal",
					"type": "bool"
				},
				{
					"internalType": "uint256",
					"name": "MinimumRequirement",
					"type": "uint256"
				}
			],
			"stateMutability": "view",
			"type": "function"
		},
		{
			"inputs": [
				{
					"components": [
						{
							"internalType": "address",
							"name": "memberAddress",
							"type": "address"
						},
						{
							"internalType": "uint256",
							"name": "deposit",
							"type": "uint256"
						}
					],
					"internalType": "struct IDAO.DAOMember[]",
					"name": "members",
					"type": "tuple[]"
				}
			],
			"name": "addDAOMembers",
			"outputs": [],
			"stateMutability": "nonpayable",
			"type": "function"
		},
		{
			"inputs": [
				{
					"internalType": "address",
					"name": "",
					"type": "address"
				}
			],
			"name": "blacklisted",
			"outputs": [
				{
					"internalType": "bool",
					"name": "",
					"type": "bool"
				}
			],
			"stateMutability": "view",
			"type": "function"
		},
		{
			"inputs": [
				{
					"internalType": "address",
					"name": "_account",
					"type": "address"
				}
			],
			"name": "canInteract",
			"outputs": [
				{
					"internalType": "bool",
					"name": "",
					"type": "bool"
				}
			],
			"stateMutability": "view",
			"type": "function"
		},
		{
			"inputs": [],
			"name": "claimPower",
			"outputs": [],
			"stateMutability": "nonpayable",
			"type": "function"
		},
		{
			"inputs": [
				{
					"internalType": "address",
					"name": "proposalAddress",
					"type": "address"
				},
				{
					"internalType": "address",
					"name": "_proposerAddress",
					"type": "address"
				},
				{
					"internalType": "string",
					"name": "_title",
					"type": "string"
				},
				{
					"internalType": "uint8",
					"name": "_actionId",
					"type": "uint8"
				}
			],
			"name": "configureProposal",
			"outputs": [],
			"stateMutability": "nonpayable",
			"type": "function"
		},
		{
			"inputs": [
				{
					"internalType": "address",
					"name": "delegatee",
					"type": "address"
				}
			],
			"name": "delegate",
			"outputs": [],
			"stateMutability": "nonpayable",
			"type": "function"
		},
		{
			"inputs": [
				{
					"internalType": "address",
					"name": "",
					"type": "address"
				}
			],
			"name": "delegator",
			"outputs": [
				{
					"internalType": "address",
					"name": "",
					"type": "address"
				}
			],
			"stateMutability": "view",
			"type": "function"
		},
		{
			"inputs": [],
			"name": "governanceSettings",
			"outputs": [
				{
					"internalType": "uint8",
					"name": "minimumParticipationPercentage",
					"type": "uint8"
				},
				{
					"internalType": "uint8",
					"name": "supportThresholdPercentage",
					"type": "uint8"
				},
				{
					"internalType": "uint32",
					"name": "minimumDurationForProposal",
					"type": "uint32"
				},
				{
					"internalType": "bool",
					"name": "earlyExecution",
					"type": "bool"
				},
				{
					"internalType": "bool",
					"name": "canVoteChange",
					"type": "bool"
				}
			],
			"stateMutability": "view",
			"type": "function"
		},
		{
			"inputs": [],
			"name": "governanceToken",
			"outputs": [
				{
					"internalType": "contract GovernanceToken",
					"name": "",
					"type": "address"
				}
			],
			"stateMutability": "view",
			"type": "function"
		},
		{
			"inputs": [
				{
					"internalType": "address",
					"name": "",
					"type": "address"
				}
			],
			"name": "isDAOMember",
			"outputs": [
				{
					"internalType": "bool",
					"name": "",
					"type": "bool"
				}
			],
			"stateMutability": "view",
			"type": "function"
		},
		{
			"inputs": [],
			"name": "isMultiSignDAO",
			"outputs": [
				{
					"internalType": "bool",
					"name": "",
					"type": "bool"
				}
			],
			"stateMutability": "view",
			"type": "function"
		},
		{
			"inputs": [
				{
					"internalType": "address",
					"name": "",
					"type": "address"
				}
			],
			"name": "isProposal",
			"outputs": [
				{
					"internalType": "bool",
					"name": "",
					"type": "bool"
				}
			],
			"stateMutability": "view",
			"type": "function"
		},
		{
			"inputs": [
				{
					"internalType": "address",
					"name": "",
					"type": "address"
				}
			],
			"name": "isTokenInTreasury",
			"outputs": [
				{
					"internalType": "bool",
					"name": "",
					"type": "bool"
				}
			],
			"stateMutability": "view",
			"type": "function"
		},
		{
			"inputs": [],
			"name": "membersCount",
			"outputs": [
				{
					"internalType": "uint256",
					"name": "",
					"type": "uint256"
				}
			],
			"stateMutability": "view",
			"type": "function"
		},
		{
			"inputs": [],
			"name": "proposalId",
			"outputs": [
				{
					"internalType": "uint256",
					"name": "",
					"type": "uint256"
				}
			],
			"stateMutability": "view",
			"type": "function"
		},
		{
			"inputs": [
				{
					"internalType": "uint256",
					"name": "",
					"type": "uint256"
				}
			],
			"name": "proposals",
			"outputs": [
				{
					"internalType": "address",
					"name": "deployedProposalAddress",
					"type": "address"
				},
				{
					"internalType": "address",
					"name": "creator",
					"type": "address"
				},
				{
					"internalType": "string",
					"name": "title",
					"type": "string"
				},
				{
					"internalType": "uint256",
					"name": "id",
					"type": "uint256"
				}
			],
			"stateMutability": "view",
			"type": "function"
		},
		{
			"inputs": [
				{
					"components": [
						{
							"internalType": "address",
							"name": "memberAddress",
							"type": "address"
						},
						{
							"internalType": "uint256",
							"name": "deposit",
							"type": "uint256"
						}
					],
					"internalType": "struct IDAO.DAOMember[]",
					"name": "members",
					"type": "tuple[]"
				}
			],
			"name": "removeDAOMembers",
			"outputs": [],
			"stateMutability": "nonpayable",
			"type": "function"
		},
		{
			"inputs": [
				{
					"internalType": "address",
					"name": "",
					"type": "address"
				},
				{
					"internalType": "uint256",
					"name": "",
					"type": "uint256"
				}
			],
			"name": "tokenDeposited",
			"outputs": [
				{
					"internalType": "address",
					"name": "token",
					"type": "address"
				},
				{
					"internalType": "uint256",
					"name": "balance",
					"type": "uint256"
				}
			],
			"stateMutability": "view",
			"type": "function"
		},
		{
			"inputs": [
				{
					"internalType": "address",
					"name": "",
					"type": "address"
				}
			],
			"name": "totalTokenDeposits",
			"outputs": [
				{
					"internalType": "uint256",
					"name": "",
					"type": "uint256"
				}
			],
			"stateMutability": "view",
			"type": "function"
		},
		{
			"inputs": [
				{
					"internalType": "address",
					"name": "",
					"type": "address"
				}
			],
			"name": "treasuryBalance",
			"outputs": [
				{
					"internalType": "uint256",
					"name": "",
					"type": "uint256"
				}
			],
			"stateMutability": "view",
			"type": "function"
		},
		{
			"inputs": [
				{
					"internalType": "uint256",
					"name": "",
					"type": "uint256"
				}
			],
			"name": "treasuryTokens",
			"outputs": [
				{
					"internalType": "address",
					"name": "",
					"type": "address"
				}
			],
			"stateMutability": "view",
			"type": "function"
		},
		{
			"inputs": [
				{
					"components": [
						{
							"internalType": "string",
							"name": "name",
							"type": "string"
						},
						{
							"internalType": "bytes",
							"name": "data",
							"type": "bytes"
						}
					],
					"internalType": "struct IDAO.DaoSettings",
					"name": "_daoParams",
					"type": "tuple"
				}
			],
			"name": "updateDaoSettings",
			"outputs": [],
			"stateMutability": "nonpayable",
			"type": "function"
		},
		{
			"inputs": [
				{
					"components": [
						{
							"internalType": "uint8",
							"name": "minimumParticipationPercentage",
							"type": "uint8"
						},
						{
							"internalType": "uint8",
							"name": "supportThresholdPercentage",
							"type": "uint8"
						},
						{
							"internalType": "uint32",
							"name": "minimumDurationForProposal",
							"type": "uint32"
						},
						{
							"internalType": "bool",
							"name": "earlyExecution",
							"type": "bool"
						},
						{
							"internalType": "bool",
							"name": "canVoteChange",
							"type": "bool"
						}
					],
					"internalType": "struct IDAO.GovernanceSettings",
					"name": "_newSettings",
					"type": "tuple"
				}
			],
			"name": "updateGovernanceSettings",
			"outputs": [],
			"stateMutability": "nonpayable",
			"type": "function"
		},
		{
			"inputs": [
				{
					"components": [
						{
							"internalType": "bool",
							"name": "isTokenBasedProposal",
							"type": "bool"
						},
						{
							"internalType": "uint256",
							"name": "MinimumRequirement",
							"type": "uint256"
						}
					],
					"internalType": "struct IDAO.ProposalCreationSettings",
					"name": "_proposalCreationParams",
					"type": "tuple"
				}
			],
			"name": "updateProposalMemberSettings",
			"outputs": [],
			"stateMutability": "nonpayable",
			"type": "function"
		},
		{
			"inputs": [
				{
					"internalType": "address",
					"name": "_to",
					"type": "address"
				},
				{
					"internalType": "uint256",
					"name": "amount",
					"type": "uint256"
				}
			],
			"name": "withdrawFromDAOTreasury",
			"outputs": [],
			"stateMutability": "nonpayable",
			"type": "function"
		},
		{
			"inputs": [
				{
					"internalType": "address",
					"name": "_token",
					"type": "address"
				},
				{
					"internalType": "address",
					"name": "_to",
					"type": "address"
				},
				{
					"internalType": "uint256",
					"name": "_amount",
					"type": "uint256"
				}
			],
			"name": "withdrawTokens",
			"outputs": [],
			"stateMutability": "nonpayable",
			"type": "function"
		},
		{
			"stateMutability": "payable",
			"type": "receive"
		}
	]
}