{
	"data": {
		"bytecode": {
			"linkReferences": {},
			"object": "60a0604052306080523480156012575f5ffd5b50608051613d426100395f395f81816106aa015281816106d301526108170152613d425ff3fe6080604052600436106100a5575f3560e01c8063715018a611610062578063715018a6146101ee5780638da5cb5b14610202578063ad3cb1cc1461023e578063c4d66de81461026e578063cac2699b1461028d578063f2fde38b146102bd575f5ffd5b806316db523b146100a957806336df9184146100ca57806345850e9b1461014c5780634f1ef2861461018357806352d1902d1461019657806354fd4d50146101b8575b5f5ffd5b3480156100b4575f5ffd5b506100c86100c3366004610eae565b6102dc565b005b3480156100d5575f5ffd5b506101186100e4366004610fdd565b600160208190525f918252604090912080549181015460028201546003909201546001600160a01b03918216928216911684565b604080519485526001600160a01b039384166020860152918316918401919091521660608201526080015b60405180910390f35b348015610157575f5ffd5b5060025461016b906001600160a01b031681565b6040516001600160a01b039091168152602001610143565b6100c8610191366004610ff6565b6104e1565b3480156101a1575f5ffd5b506101aa610500565b604051908152602001610143565b3480156101c3575f5ffd5b50604080518082019091526005815264302e322e3360d81b60208201525b6040516101439190611070565b3480156101f9575f5ffd5b506100c861051b565b34801561020d575f5ffd5b507f9016d09d72d40fdae2fd8ceac6b6234c7706214fd39c1cd1e609a0528c199300546001600160a01b031661016b565b348015610249575f5ffd5b506101e1604051806040016040528060058152602001640352e302e360dc1b81525081565b348015610279575f5ffd5b506100c8610288366004611082565b61052e565b348015610298575f5ffd5b505f546102a89063ffffffff1681565b60405163ffffffff9091168152602001610143565b3480156102c8575f5ffd5b506100c86102d7366004611082565b61065d565b5f60025f9054906101000a90046001600160a01b03168888888888888860405161030590610b5b565b610316989796959493929190611138565b604051809103905ff08015801561032f573d5f5f3e3d5ffd5b505f805463ffffffff168152600160208181526040928390208c51805190830120815591820180546001600160a01b0386166001600160a01b03199182168117909255600284018054909116331790558351637cb6d70560e11b815293519495509193919263f96dae0a92600480830193928290030181865afa1580156103b8573d5f5f3e3d5ffd5b505050506040513d601f19601f820116820180604052508101906103dc919061123e565b6003820180546001600160a01b0319166001600160a01b03929092169190911790555f805463ffffffff16908061041283611259565b91906101000a81548163ffffffff021916908363ffffffff160217905550507fea82eb76a34b80f509a37f34681a8034bdd752a459fae698508b3e6a0f145c2082836001600160a01b031663f96dae0a6040518163ffffffff1660e01b8152600401602060405180830381865afa15801561048f573d5f5f3e3d5ffd5b505050506040513d601f19601f820116820180604052508101906104b3919061123e565b604080516001600160a01b0393841681529290911660208301520160405180910390a1505050505050505050565b6104e961069f565b6104f282610743565b6104fc828261074b565b5050565b5f61050961080c565b505f516020613ced5f395f51905f5290565b610523610855565b61052c5f6108b0565b565b7ff0c57e16840df040f15088dc2f81fe391c3923bec73e23a9662efc9c229c6a008054600160401b810460ff1615906001600160401b03165f811580156105725750825b90505f826001600160401b0316600114801561058d5750303b155b90508115801561059b575080155b156105b95760405163f92ee8a960e01b815260040160405180910390fd5b845467ffffffffffffffff1916600117855583156105e357845460ff60401b1916600160401b1785555b6105ec33610920565b6105f4610931565b600280546001600160a01b0319166001600160a01b038816179055831561065557845460ff60401b19168555604051600181527fc7f505b2f371ae2175ee4913f4499e1f2633a7b5936321eed1cdaeb6115181d29060200160405180910390a15b505050505050565b610665610855565b6001600160a01b03811661069357604051631e4fbdf760e01b81525f60048201526024015b60405180910390fd5b61069c816108b0565b50565b306001600160a01b037f000000000000000000000000000000000000000000000000000000000000000016148061072557507f00000000000000000000000000000000000000000000000000000000000000006001600160a01b03166107195f516020613ced5f395f51905f52546001600160a01b031690565b6001600160a01b031614155b1561052c5760405163703e46dd60e11b815260040160405180910390fd5b61069c610855565b816001600160a01b03166352d1902d6040518163ffffffff1660e01b8152600401602060405180830381865afa9250505080156107a5575060408051601f3d908101601f191682019092526107a291810190611289565b60015b6107cd57604051634c9c8ce360e01b81526001600160a01b038316600482015260240161068a565b5f516020613ced5f395f51905f5281146107fd57604051632a87526960e21b81526004810182905260240161068a565b6108078383610939565b505050565b306001600160a01b037f0000000000000000000000000000000000000000000000000000000000000000161461052c5760405163703e46dd60e11b815260040160405180910390fd5b336108877f9016d09d72d40fdae2fd8ceac6b6234c7706214fd39c1cd1e609a0528c199300546001600160a01b031690565b6001600160a01b03161461052c5760405163118cdaa760e01b815233600482015260240161068a565b7f9016d09d72d40fdae2fd8ceac6b6234c7706214fd39c1cd1e609a0528c19930080546001600160a01b031981166001600160a01b03848116918217845560405192169182907f8be0079c531659141344cd1fd0a4f28419497f9722a3daafe3b4186f6b6457e0905f90a3505050565b61092861098e565b61069c816109d7565b61052c61098e565b610942826109df565b6040516001600160a01b038316907fbc7cd75a20ee27fd9adebab32041f755214dbc6bffa90cc0225b39da2e5c2d3b905f90a2805115610986576108078282610a42565b6104fc610ab4565b7ff0c57e16840df040f15088dc2f81fe391c3923bec73e23a9662efc9c229c6a0054600160401b900460ff1661052c57604051631afcd79f60e31b815260040160405180910390fd5b61066561098e565b806001600160a01b03163b5f03610a1457604051634c9c8ce360e01b81526001600160a01b038216600482015260240161068a565b5f516020613ced5f395f51905f5280546001600160a01b0319166001600160a01b0392909216919091179055565b60605f5f846001600160a01b031684604051610a5e91906112a0565b5f60405180830381855af49150503d805f8114610a96576040519150601f19603f3d011682016040523d82523d5f602084013e610a9b565b606091505b5091509150610aab858383610ad3565b95945050505050565b341561052c5760405163b398979f60e01b815260040160405180910390fd5b606082610ae857610ae382610b32565b610b2b565b8151158015610aff57506001600160a01b0384163b155b15610b2857604051639996b31560e01b81526001600160a01b038516600482015260240161068a565b50805b9392505050565b805115610b425780518082602001fd5b60405163d6bda27560e01b815260040160405180910390fd5b612a36806112b783390190565b634e487b7160e01b5f52604160045260245ffd5b604080519081016001600160401b0381118282101715610b9e57610b9e610b68565b60405290565b604051601f8201601f191681016001600160401b0381118282101715610bcc57610bcc610b68565b604052919050565b5f82601f830112610be3575f5ffd5b8135602083015f5f6001600160401b03841115610c0257610c02610b68565b50601f8301601f1916602001610c1781610ba4565b915050828152858383011115610c2b575f5ffd5b828260208301375f92810160200192909252509392505050565b6001600160a01b038116811461069c575f5ffd5b8035610c6481610c45565b919050565b5f60608284031215610c79575f5ffd5b604051606081016001600160401b0381118282101715610c9b57610c9b610b68565b60405290508082356001600160401b03811115610cb6575f5ffd5b610cc285828601610bd4565b82525060208301356001600160401b03811115610cdd575f5ffd5b610ce985828601610bd4565b6020830152506040830135610cfd81610c45565b6040919091015292915050565b803560ff81168114610c64575f5ffd5b803563ffffffff81168114610c64575f5ffd5b80358015158114610c64575f5ffd5b5f60a08284031215610d4c575f5ffd5b60405160a081016001600160401b0381118282101715610d6e57610d6e610b68565b604052905080610d7d83610d0a565b8152610d8b60208401610d0a565b6020820152610d9c60408401610d1a565b6040820152610dad60608401610d2d565b6060820152610dbe60808401610d2d565b60808201525092915050565b5f82601f830112610dd9575f5ffd5b81356001600160401b03811115610df257610df2610b68565b610e0160208260051b01610ba4565b8082825260208201915060208360061b860101925085831115610e22575f5ffd5b602085015b83811015610e6d5760408188031215610e3e575f5ffd5b610e46610b7c565b8135610e5181610c45565b8152602082810135818301529084529290920191604001610e27565b5095945050505050565b5f60408284031215610e87575f5ffd5b610e8f610b7c565b9050610e9a82610d2d565b815260209182013591810191909152919050565b5f5f5f5f5f5f5f610180888a031215610ec5575f5ffd5b87356001600160401b03811115610eda575f5ffd5b88016040818b031215610eeb575f5ffd5b610ef3610b7c565b81356001600160401b03811115610f08575f5ffd5b610f148c828501610bd4565b82525060208201356001600160401b03811115610f2f575f5ffd5b610f3b8c828501610bd4565b6020830152508098505050610f5260208901610c59565b955060408801356001600160401b03811115610f6c575f5ffd5b610f788a828b01610c69565b955050610f888960608a01610d3c565b93506101008801356001600160401b03811115610fa3575f5ffd5b610faf8a828b01610dca565b935050610fc0896101208a01610e77565b9150610fcf6101608901610d2d565b905092959891949750929550565b5f60208284031215610fed575f5ffd5b610b2b82610d1a565b5f5f60408385031215611007575f5ffd5b823561101281610c45565b915060208301356001600160401b0381111561102c575f5ffd5b61103885828601610bd4565b9150509250929050565b5f81518084528060208401602086015e5f602082860101526020601f19601f83011685010191505092915050565b602081525f610b2b6020830184611042565b5f60208284031215611092575f5ffd5b8135610b2b81610c45565b5f8151606084526110b16060850182611042565b9050602083015184820360208601526110ca8282611042565b6040948501516001600160a01b03169590940194909452509092915050565b5f8151808452602084019350602083015f5b8281101561112e57815180516001600160a01b0316875260209081015181880152604090960195909101906001016110fb565b5093949350505050565b60018060a01b03891681526101a060208201525f885160406101a08401526111646101e0840182611042565b905060208a015161019f19848303016101c08501526111838282611042565b91505061119b604084018a6001600160a01b03169052565b82810360608401526111ad818961109d565b90506111f7608084018860ff815116825260ff602082015116602083015263ffffffff60408201511660408301526060810151151560608301526080810151151560808301525050565b82810361012084015261120a81876110e9565b85511515610140850152602086015161016085015291506112289050565b8215156101808301529998505050505050505050565b5f6020828403121561124e575f5ffd5b8151610b2b81610c45565b5f63ffffffff821663ffffffff810361128057634e487b7160e01b5f52601160045260245ffd5b60010192915050565b5f60208284031215611299575f5ffd5b5051919050565b5f82518060208501845e5f92019182525091905056fe60c060405234801561000f575f5ffd5b50604051612a36380380612a3683398101604081905261002e916107a7565b60015f5560068054821515600160a01b9081026001600160a81b03199092166001600160a01b038c1617919091179182905589910460ff16610143576001600160a01b0387166100e95760405163662837cf60e11b81526001600160a01b0382169063cc506f9e906100a49089906004016108ba565b6020604051808303815f875af11580156100c0573d5f5f3e3d5ffd5b505050506040513d601f19601f820116820180604052508101906100e49190610914565b6100eb565b865b6001600160a01b0316608081905260405163965afa8960e01b815230600482015263965afa89906024015f604051808303815f87803b15801561012c575f5ffd5b505af115801561013e573d5f5f3e3d5ffd5b505050505b8451600580546020880151604089015160608a015160808b015115156701000000000000000260ff60381b1991151566010000000000000260ff60301b1963ffffffff90941662010000029390931666ffffffffff00001960ff9586166101000261ffff19909716959098169490941794909417959095169190911717929092169190911790558751889060019081906101dd90826109b1565b50602082015160018201906101f290826109b1565b505083516003805491151560ff199283161790556020808601516004556040808a01516001600160a01b031660a052335f908152600b909252902080549091166001179055506102418461024f565b505050505050505050610acf565b335f908152600b602052604090205460ff16801561026d5750600854155b806102865750335f908152600c602052604090205460ff165b6102a357604051632c972a5f60e01b815260040160405180910390fd5b5f5b81518163ffffffff1610156103e4575f828263ffffffff16815181106102cd576102cd610a6b565b60200260200101515f015190505f838363ffffffff16815181106102f3576102f3610a6b565b6020908102919091018101518101516001600160a01b0384165f908152600b90925260409091205490915060ff1661035c576001600160a01b0382165f908152600b60205260408120805460ff191660011790556008805490919061035790610a93565b909155505b600654600160a01b900460ff166103cf576080516040516373a1403560e11b81526001600160a01b038481166004830152602482018490529091169063e742806a906044015f604051808303815f87803b1580156103b8575f5ffd5b505af11580156103ca573d5f5f3e3d5ffd5b505050505b505080806103dc90610aab565b9150506102a5565b5050565b80516001600160a01b03811681146103fe575f5ffd5b919050565b634e487b7160e01b5f52604160045260245ffd5b604080519081016001600160401b038111828210171561043957610439610403565b60405290565b604051601f8201601f191681016001600160401b038111828210171561046757610467610403565b604052919050565b5f806001600160401b0384111561048857610488610403565b50601f8301601f191660200161049d8161043f565b9150508281528383830111156104b1575f5ffd5b8282602083015e5f602084830101529392505050565b5f82601f8301126104d6575f5ffd5b6104e58383516020850161046f565b9392505050565b5f604082840312156104fc575f5ffd5b610504610417565b82519091506001600160401b0381111561051c575f5ffd5b610528848285016104c7565b82525060208201516001600160401b03811115610543575f5ffd5b8201601f81018413610553575f5ffd5b6105628482516020840161046f565b60208301525092915050565b5f6060828403121561057e575f5ffd5b604051606081016001600160401b03811182821017156105a0576105a0610403565b604052825190915081906001600160401b038111156105bd575f5ffd5b6105c9858286016104c7565b82525060208301516001600160401b038111156105e4575f5ffd5b6105f0858286016104c7565b602083015250610602604084016103e8565b60408201525092915050565b805160ff811681146103fe575f5ffd5b805180151581146103fe575f5ffd5b5f60a0828403121561063d575f5ffd5b60405160a081016001600160401b038111828210171561065f5761065f610403565b60405290508061066e8361060e565b815261067c6020840161060e565b6020820152604083015163ffffffff81168114610697575f5ffd5b60408201526106a86060840161061e565b60608201526106b96080840161061e565b60808201525092915050565b5f82601f8301126106d4575f5ffd5b81516001600160401b038111156106ed576106ed610403565b6106fc60208260051b0161043f565b8082825260208201915060208360061b86010192508583111561071d575f5ffd5b602085015b838110156107665760408188031215610739575f5ffd5b610741610417565b61074a826103e8565b8152602082810151818301529084529290920191604001610722565b5095945050505050565b5f60408284031215610780575f5ffd5b610788610417565b90506107938261061e565b815260209182015191810191909152919050565b5f5f5f5f5f5f5f5f6101a0898b0312156107bf575f5ffd5b6107c8896103e8565b60208a01519098506001600160401b038111156107e3575f5ffd5b6107ef8b828c016104ec565b9750506107fe60408a016103e8565b60608a01519096506001600160401b03811115610819575f5ffd5b6108258b828c0161056e565b9550506108358a60808b0161062d565b6101208a01519094506001600160401b03811115610851575f5ffd5b61085d8b828c016106c5565b93505061086e8a6101408b01610770565b915061087d6101808a0161061e565b90509295985092959890939650565b5f81518084528060208401602086015e5f602082860101526020601f19601f83011685010191505092915050565b602081525f8251606060208401526108d5608084018261088c565b90506020840151601f198483030160408501526108f2828261088c565b604095909501516001600160a01b031660609490940193909352509192915050565b5f60208284031215610924575f5ffd5b6104e5826103e8565b600181811c9082168061094157607f821691505b60208210810361095f57634e487b7160e01b5f52602260045260245ffd5b50919050565b601f8211156109ac57805f5260205f20601f840160051c8101602085101561098a5750805b601f840160051c820191505b818110156109a9575f8155600101610996565b50505b505050565b81516001600160401b038111156109ca576109ca610403565b6109de816109d8845461092d565b84610965565b6020601f821160018114610a10575f83156109f95750848201515b5f19600385901b1c1916600184901b1784556109a9565b5f84815260208120601f198516915b82811015610a3f5787850151825560209485019460019092019101610a1f565b5084821015610a5c57868401515f19600387901b60f8161c191681555b50505050600190811b01905550565b634e487b7160e01b5f52603260045260245ffd5b634e487b7160e01b5f52601160045260245ffd5b5f60018201610aa457610aa4610a7f565b5060010190565b5f63ffffffff821663ffffffff8103610ac657610ac6610a7f565b60010192915050565b60805160a051611f0e610b285f395f61024a01525f81816105db0152818161097801528181610a6d01528181610ea401528181610f850152818161103401528181611247015281816113fb015261159c0152611f0e5ff3fe608060405260043610610189575f3560e01c806362354e03116100df578063b918351511610083578063dbac26e911610060578063dbac26e91461057d578063e37bcdad146105ab578063f96dae0a146105ca578063fe436c53146105fd57005b8063b918351514610520578063bf3adaec1461053f578063da7904c21461055e57005b8063a3dac6ae116100bc578063a3dac6ae14610475578063aa6c976314610495578063b03fbb21146104b4578063b1e44d8f146104f257005b806362354e03146103be57806365f3657f1461043f5780638215ae571461046157005b806352050003116101465780635957ac66116101235780635957ac66146103215780635c19a95c146103555780635e35359e146103745780635f4f3f231461039357005b80635205000314610284578063539e5082146102c257806354445ae6146102f657005b8063013cf08b1461018b5780631035c1cf146101c3578063132da92d146101e2578063297f9af0146102015780632dfca445146102245780634ab17f3114610239575b005b348015610196575f5ffd5b506101aa6101a53660046117ab565b61061c565b6040516101ba94939291906117f0565b60405180910390f35b3480156101ce575f5ffd5b506101896101dd366004611843565b6106d7565b3480156101ed575f5ffd5b506101896101fc3660046118e8565b61083e565b34801561020c575f5ffd5b5061021660085481565b6040519081526020016101ba565b34801561022f575f5ffd5b5061021660075481565b348015610244575f5ffd5b5061026c7f000000000000000000000000000000000000000000000000000000000000000081565b6040516001600160a01b0390911681526020016101ba565b34801561028f575f5ffd5b506102b261029e366004611922565b600c6020525f908152604090205460ff1681565b60405190151581526020016101ba565b3480156102cd575f5ffd5b5061026c6102dc366004611922565b600e6020525f90815260409020546001600160a01b031681565b348015610301575f5ffd5b50610216610310366004611922565b600d6020525f908152604090205481565b34801561032c575f5ffd5b5060035460045461033e9160ff169082565b6040805192151583526020830191909152016101ba565b348015610360575f5ffd5b5061018961036f366004611922565b61088a565b34801561037f575f5ffd5b5061018961038e366004611944565b610acb565b34801561039e575f5ffd5b506102166103ad366004611922565b60106020525f908152604090205481565b3480156103c9575f5ffd5b506005546104059060ff80821691610100810482169163ffffffff620100008304169166010000000000008104821691600160381b9091041685565b6040805160ff968716815295909416602086015263ffffffff9092169284019290925290151560608301521515608082015260a0016101ba565b34801561044a575f5ffd5b50610453610ce8565b6040516101ba929190611982565b34801561046c575f5ffd5b50610189610e04565b348015610480575f5ffd5b506006546102b290600160a01b900460ff1681565b3480156104a0575f5ffd5b506101896104af366004611a26565b611063565b3480156104bf575f5ffd5b506104d36104ce366004611843565b6110c1565b604080516001600160a01b0390931683526020830191909152016101ba565b3480156104fd575f5ffd5b506102b261050c366004611922565b600b6020525f908152604090205460ff1681565b34801561052b575f5ffd5b5061018961053a366004611ad3565b611103565b34801561054a575f5ffd5b50610189610559366004611ad3565b6112b4565b348015610569575f5ffd5b50610189610578366004611bc2565b611468565b348015610588575f5ffd5b506102b2610597366004611922565b600a6020525f908152604090205460ff1681565b3480156105b6575f5ffd5b506101896105c5366004611c31565b611632565b3480156105d5575f5ffd5b5061026c7f000000000000000000000000000000000000000000000000000000000000000081565b348015610608575f5ffd5b506102b2610617366004611922565b6116ec565b60096020525f90815260409020805460018201546002830180546001600160a01b0393841694929093169261065090611ccd565b80601f016020809104026020016040519081016040528092919081815260200182805461067c90611ccd565b80156106c75780601f1061069e576101008083540402835291602001916106c7565b820191905f5260205f20905b8154815290600101906020018083116106aa57829003601f168201915b5050505050908060030154905084565b6106df611783565b335f818152600c602052604090205460ff1661070e57604051633feae72960e11b815260040160405180910390fd5b5f82116107555760405162461bcd60e51b815260206004820152601060248201526f111053d25b9d985b1a59105b5bdd5b9d60821b60448201526064015b60405180910390fd5b8147101561079e5760405162461bcd60e51b815260206004820152601660248201527544414f496e73756666696369656e7442616c616e636560501b604482015260640161074c565b5f836001600160a01b0316836040515f6040518083038185875af1925050503d805f81146107e7576040519150601f19603f3d011682016040523d82523d5f602084013e6107ec565b606091505b505090508061082f5760405162461bcd60e51b815260206004820152600f60248201526e151c985b9cd9995c8811985a5b1959608a1b604482015260640161074c565b505061083a60015f55565b5050565b335f818152600c602052604090205460ff1661086d57604051633feae72960e11b815260040160405180910390fd5b5080516003805460ff191691151591909117905560200151600455565b335f818152600b602052604090205460ff16806108b55750335f908152600c602052604090205460ff165b6108d257604051632c972a5f60e01b815260040160405180910390fd5b6001600160a01b0381165f908152600a602052604090205460ff161561090b5760405163c8e5275b60e01b815260040160405180910390fd5b6001600160a01b0382166109615760405162461bcd60e51b815260206004820152601760248201527f43616e6e6f742064656c656761746520746f207a65726f000000000000000000604482015260640161074c565b6040516370a0823160e01b81523360048201525f907f00000000000000000000000000000000000000000000000000000000000000006001600160a01b0316906370a0823190602401602060405180830381865afa1580156109c5573d5f5f3e3d5ffd5b505050506040513d601f19601f820116820180604052508101906109e99190611cff565b1015610a2e5760405162461bcd60e51b81526020600482015260146024820152732d32b937902232b632b3b0ba32b2102837bbb2b960611b604482015260640161074c565b6001600160a01b038281165f818152600e60205260409081902080546001600160a01b03191633179055516317066a5760e21b815260048101919091527f000000000000000000000000000000000000000000000000000000000000000090911690635c19a95c906024015b5f604051808303815f87803b158015610ab1575f5ffd5b505af1158015610ac3573d5f5f3e3d5ffd5b505050505050565b610ad3611783565b335f818152600c602052604090205460ff16610b0257604051633feae72960e11b815260040160405180910390fd5b5f8211610b655760405162461bcd60e51b815260206004820152602b60248201527f5769746864726177616c20616d6f756e74206d7573742062652067726561746560448201526a72207468616e207a65726f60a81b606482015260840161074c565b6040516370a0823160e01b8152306004820152849083906001600160a01b038316906370a0823190602401602060405180830381865afa158015610bab573d5f5f3e3d5ffd5b505050506040513d601f19601f82011682018060405250810190610bcf9190611cff565b1015610c1d5760405162461bcd60e51b815260206004820152601d60248201527f496e73756666696369656e742074726561737572792062616c616e6365000000604482015260640161074c565b60405163a9059cbb60e01b81526001600160a01b038581166004830152602482018590525f919083169063a9059cbb906044016020604051808303815f875af1158015610c6c573d5f5f3e3d5ffd5b505050506040513d601f19601f82011682018060405250810190610c909190611d16565b905080610cd75760405162461bcd60e51b8152602060048201526015602482015274151bdad95b881d1c985b9cd9995c8819985a5b1959605a1b604482015260640161074c565b505050610ce360015f55565b505050565b600180548190610cf790611ccd565b80601f0160208091040260200160405190810160405280929190818152602001828054610d2390611ccd565b8015610d6e5780601f10610d4557610100808354040283529160200191610d6e565b820191905f5260205f20905b815481529060010190602001808311610d5157829003601f168201915b505050505090806001018054610d8390611ccd565b80601f0160208091040260200160405190810160405280929190818152602001828054610daf90611ccd565b8015610dfa5780601f10610dd157610100808354040283529160200191610dfa565b820191905f5260205f20905b815481529060010190602001808311610ddd57829003601f168201915b5050505050905082565b335f818152600b602052604090205460ff1680610e2f5750335f908152600c602052604090205460ff165b610e4c57604051632c972a5f60e01b815260040160405180910390fd5b6001600160a01b0381165f908152600a602052604090205460ff1615610e855760405163c8e5275b60e01b815260040160405180910390fd5b604051632c3e6f0f60e11b81523360048201525f906001600160a01b037f0000000000000000000000000000000000000000000000000000000000000000169063587cde1e90602401602060405180830381865afa158015610ee9573d5f5f3e3d5ffd5b505050506040513d601f19601f82011682018060405250810190610f0d9190611d31565b6001600160a01b031603610f6e5760405162461bcd60e51b815260206004820152602260248201527f596f7520646f6e277420686176652064656c6567617465732c20746f20636c61604482015261696d60f01b606482015260840161074c565b604051632c3e6f0f60e11b81523360048201525f907f00000000000000000000000000000000000000000000000000000000000000006001600160a01b03169063587cde1e90602401602060405180830381865afa158015610fd2573d5f5f3e3d5ffd5b505050506040513d601f19601f82011682018060405250810190610ff69190611d31565b6001600160a01b038181165f908152600e60205260409081902080546001600160a01b0319169055516317066a5760e21b81523360048201529192507f00000000000000000000000000000000000000000000000000000000000000001690635c19a95c90602401610a9a565b335f818152600c602052604090205460ff1661109257604051633feae72960e11b815260040160405180910390fd5b8151829060019081906110a59082611d90565b50602082015160018201906110ba9082611d90565b5050505050565b600f602052815f5260405f2081815481106110da575f80fd5b5f918252602090912060029091020180546001909101546001600160a01b039091169250905082565b335f908152600b602052604090205460ff1680156111215750600854155b8061113a5750335f908152600c602052604090205460ff165b61115757604051632c972a5f60e01b815260040160405180910390fd5b5f5b81518163ffffffff16101561083a575f828263ffffffff168151811061118157611181611e4b565b60200260200101515f015190505f838363ffffffff16815181106111a7576111a7611e4b565b6020908102919091018101518101516001600160a01b0384165f908152600b90925260409091205490915060ff16611210576001600160a01b0382165f908152600b60205260408120805460ff191660011790556008805490919061120b90611e73565b909155505b600654600160a01b900460ff1661129f576040516373a1403560e11b81526001600160a01b038381166004830152602482018390527f0000000000000000000000000000000000000000000000000000000000000000169063e742806a906044015f604051808303815f87803b158015611288575f5ffd5b505af115801561129a573d5f5f3e3d5ffd5b505050505b505080806112ac90611e8b565b915050611159565b600654600160a01b900460ff166112de57604051633feae72960e11b815260040160405180910390fd5b335f908152600c602052604090205460ff1661130d57604051633feae72960e11b815260040160405180910390fd5b5f5b81518163ffffffff16101561083a575f828263ffffffff168151811061133757611337611e4b565b60200260200101515f015190505f838363ffffffff168151811061135d5761135d611e4b565b6020908102919091018101518101516001600160a01b0384165f908152600b90925260409091205490915060ff16156113c4576001600160a01b0382165f908152600b60205260408120805460ff19169055600880549091906113bf90611eaf565b909155505b600654600160a01b900460ff166114535760405163aecf8a6d60e01b81526001600160a01b038381166004830152602482018390527f0000000000000000000000000000000000000000000000000000000000000000169063aecf8a6d906044015f604051808303815f87803b15801561143c575f5ffd5b505af115801561144e573d5f5f3e3d5ffd5b505050505b5050808061146090611e8b565b91505061130f565b336001600160a01b0385161461149157604051633feae72960e11b815260040160405180910390fd5b604080516080810182526001600160a01b0380871682528581166020808401918252838501878152600754606086018190525f9081526009909252949020835181549084166001600160a01b03199182161782559151600182018054919094169216919091179091559151909190600282019061150e9082611d90565b5060609190910151600390910155600460ff8216116115f6575f8160ff16600581111561153d5761153d611ec4565b90505f81600581111561155257611552611ec4565b148061156f5750600581600581111561156d5761156d611ec4565b145b156115f4576040516328afeb5360e21b81526001600160a01b03868116600483015260ff841660248301527f0000000000000000000000000000000000000000000000000000000000000000169063a2bfad4c906044015f604051808303815f87803b1580156115dd575f5ffd5b505af11580156115ef573d5f5f3e3d5ffd5b505050505b505b60078054905f61160583611e73565b9091555050506001600160a01b039092165f908152600c60205260409020805460ff191660011790555050565b335f818152600c602052604090205460ff1661166157604051633feae72960e11b815260040160405180910390fd5b508051600580546020840151604085015160608601516080909601511515600160381b0267ff000000000000001996151566010000000000000266ff0000000000001963ffffffff90931662010000029290921666ffffffffff00001960ff9485166101000261ffff1990961694909716939093179390931794909416179290921792909216179055565b6001600160a01b0381165f908152600b6020526040812054829060ff16806117225750335f908152600c602052604090205460ff165b61173f57604051632c972a5f60e01b815260040160405180910390fd5b6001600160a01b0381165f908152600a602052604090205460ff16156117785760405163c8e5275b60e01b815260040160405180910390fd5b600191505b50919050565b60025f54036117a557604051633ee5aeb560e01b815260040160405180910390fd5b60025f55565b5f602082840312156117bb575f5ffd5b5035919050565b5f81518084528060208401602086015e5f602082860101526020601f19601f83011685010191505092915050565b6001600160a01b038581168252841660208201526080604082018190525f9061181b908301856117c2565b905082606083015295945050505050565b6001600160a01b0381168114611840575f5ffd5b50565b5f5f60408385031215611854575f5ffd5b823561185f8161182c565b946020939093013593505050565b634e487b7160e01b5f52604160045260245ffd5b6040805190810167ffffffffffffffff811182821017156118a4576118a461186d565b60405290565b604051601f8201601f1916810167ffffffffffffffff811182821017156118d3576118d361186d565b604052919050565b8015158114611840575f5ffd5b5f60408284031280156118f9575f5ffd5b50611902611881565b823561190d816118db565b81526020928301359281019290925250919050565b5f60208284031215611932575f5ffd5b813561193d8161182c565b9392505050565b5f5f5f60608486031215611956575f5ffd5b83356119618161182c565b925060208401356119718161182c565b929592945050506040919091013590565b604081525f61199460408301856117c2565b82810360208401526119a681856117c2565b95945050505050565b5f5f67ffffffffffffffff8411156119c9576119c961186d565b50601f8301601f19166020016119de816118aa565b9150508281528383830111156119f2575f5ffd5b828260208301375f602084830101529392505050565b5f82601f830112611a17575f5ffd5b61193d838335602085016119af565b5f60208284031215611a36575f5ffd5b813567ffffffffffffffff811115611a4c575f5ffd5b820160408185031215611a5d575f5ffd5b611a65611881565b813567ffffffffffffffff811115611a7b575f5ffd5b611a8786828501611a08565b825250602082013567ffffffffffffffff811115611aa3575f5ffd5b80830192505084601f830112611ab7575f5ffd5b611ac6858335602085016119af565b6020820152949350505050565b5f60208284031215611ae3575f5ffd5b813567ffffffffffffffff811115611af9575f5ffd5b8201601f81018413611b09575f5ffd5b803567ffffffffffffffff811115611b2357611b2361186d565b611b3260208260051b016118aa565b8082825260208201915060208360061b850101925086831115611b53575f5ffd5b6020840193505b82841015611ba35760408488031215611b71575f5ffd5b611b79611881565b8435611b848161182c565b8152602085810135818301529083526040909401939190910190611b5a565b9695505050505050565b803560ff81168114611bbd575f5ffd5b919050565b5f5f5f5f60808587031215611bd5575f5ffd5b8435611be08161182c565b93506020850135611bf08161182c565b9250604085013567ffffffffffffffff811115611c0b575f5ffd5b611c1787828801611a08565b925050611c2660608601611bad565b905092959194509250565b5f60a0828403128015611c42575f5ffd5b5060405160a0810167ffffffffffffffff81118282101715611c6657611c6661186d565b604052611c7283611bad565b8152611c8060208401611bad565b6020820152604083013563ffffffff81168114611c9b575f5ffd5b60408201526060830135611cae816118db565b60608201526080830135611cc1816118db565b60808201529392505050565b600181811c90821680611ce157607f821691505b60208210810361177d57634e487b7160e01b5f52602260045260245ffd5b5f60208284031215611d0f575f5ffd5b5051919050565b5f60208284031215611d26575f5ffd5b815161193d816118db565b5f60208284031215611d41575f5ffd5b815161193d8161182c565b601f821115610ce357805f5260205f20601f840160051c81016020851015611d715750805b601f840160051c820191505b818110156110ba575f8155600101611d7d565b815167ffffffffffffffff811115611daa57611daa61186d565b611dbe81611db88454611ccd565b84611d4c565b6020601f821160018114611df0575f8315611dd95750848201515b5f19600385901b1c1916600184901b1784556110ba565b5f84815260208120601f198516915b82811015611e1f5787850151825560209485019460019092019101611dff565b5084821015611e3c57868401515f19600387901b60f8161c191681555b50505050600190811b01905550565b634e487b7160e01b5f52603260045260245ffd5b634e487b7160e01b5f52601160045260245ffd5b5f60018201611e8457611e84611e5f565b5060010190565b5f63ffffffff821663ffffffff8103611ea657611ea6611e5f565b60010192915050565b5f81611ebd57611ebd611e5f565b505f190190565b634e487b7160e01b5f52602160045260245ffdfea26469706673582212207c4c88a681149f2cca2b258d08eb17212eab7fa2df033271ab3f030ce85845b864736f6c634300081d0033360894a13ba1a3210667c828492db98dca3e2076cc3735a920a3ca505d382bbca26469706673582212208aafe1ffe4f5340284bc4998ad420c6bedf0a8b81582601c036c01334b4a7ac964736f6c634300081d0033",
			"opcodes": "PUSH1 0xA0 PUSH1 0x40 MSTORE ADDRESS PUSH1 0x80 MSTORE CALLVALUE DUP1 ISZERO PUSH1 0x12 JUMPI PUSH0 PUSH0 REVERT JUMPDEST POP PUSH1 0x80 MLOAD PUSH2 0x3D42 PUSH2 0x39 PUSH0 CODECOPY PUSH0 DUP2 DUP2 PUSH2 0x6AA ADD MSTORE DUP2 DUP2 PUSH2 0x6D3 ADD MSTORE PUSH2 0x817 ADD MSTORE PUSH2 0x3D42 PUSH0 RETURN INVALID PUSH1 0x80 PUSH1 0x40 MSTORE PUSH1 0x4 CALLDATASIZE LT PUSH2 0xA5 JUMPI PUSH0 CALLDATALOAD PUSH1 0xE0 SHR DUP1 PUSH4 0x715018A6 GT PUSH2 0x62 JUMPI DUP1 PUSH4 0x715018A6 EQ PUSH2 0x1EE JUMPI DUP1 PUSH4 0x8DA5CB5B EQ PUSH2 0x202 JUMPI DUP1 PUSH4 0xAD3CB1CC EQ PUSH2 0x23E JUMPI DUP1 PUSH4 0xC4D66DE8 EQ PUSH2 0x26E JUMPI DUP1 PUSH4 0xCAC2699B EQ PUSH2 0x28D JUMPI DUP1 PUSH4 0xF2FDE38B EQ PUSH2 0x2BD JUMPI PUSH0 PUSH0 REVERT JUMPDEST DUP1 PUSH4 0x16DB523B EQ PUSH2 0xA9 JUMPI DUP1 PUSH4 0x36DF9184 EQ PUSH2 0xCA JUMPI DUP1 PUSH4 0x45850E9B EQ PUSH2 0x14C JUMPI DUP1 PUSH4 0x4F1EF286 EQ PUSH2 0x183 JUMPI DUP1 PUSH4 0x52D1902D EQ PUSH2 0x196 JUMPI DUP1 PUSH4 0x54FD4D50 EQ PUSH2 0x1B8 JUMPI JUMPDEST PUSH0 PUSH0 REVERT JUMPDEST CALLVALUE DUP1 ISZERO PUSH2 0xB4 JUMPI PUSH0 PUSH0 REVERT JUMPDEST POP PUSH2 0xC8 PUSH2 0xC3 CALLDATASIZE PUSH1 0x4 PUSH2 0xEAE JUMP JUMPDEST PUSH2 0x2DC JUMP JUMPDEST STOP JUMPDEST CALLVALUE DUP1 ISZERO PUSH2 0xD5 JUMPI PUSH0 PUSH0 REVERT JUMPDEST POP PUSH2 0x118 PUSH2 0xE4 CALLDATASIZE PUSH1 0x4 PUSH2 0xFDD JUMP JUMPDEST PUSH1 0x1 PUSH1 0x20 DUP2 SWAP1 MSTORE PUSH0 SWAP2 DUP3 MSTORE PUSH1 0x40 SWAP1 SWAP2 KECCAK256 DUP1 SLOAD SWAP2 DUP2 ADD SLOAD PUSH1 0x2 DUP3 ADD SLOAD PUSH1 0x3 SWAP1 SWAP3 ADD SLOAD PUSH1 0x1 PUSH1 0x1 PUSH1 0xA0 SHL SUB SWAP2 DUP3 AND SWAP3 DUP3 AND SWAP2 AND DUP5 JUMP JUMPDEST PUSH1 0x40 DUP1 MLOAD SWAP5 DUP6 MSTORE PUSH1 0x1 PUSH1 0x1 PUSH1 0xA0 SHL SUB SWAP4 DUP5 AND PUSH1 0x20 DUP7 ADD MSTORE SWAP2 DUP4 AND SWAP2 DUP5 ADD SWAP2 SWAP1 SWAP2 MSTORE AND PUSH1 0x60 DUP3 ADD MSTORE PUSH1 0x80 ADD JUMPDEST PUSH1 0x40 MLOAD DUP1 SWAP2 SUB SWAP1 RETURN JUMPDEST CALLVALUE DUP1 ISZERO PUSH2 0x157 JUMPI PUSH0 PUSH0 REVERT JUMPDEST POP PUSH1 0x2 SLOAD PUSH2 0x16B SWAP1 PUSH1 0x1 PUSH1 0x1 PUSH1 0xA0 SHL SUB AND DUP2 JUMP JUMPDEST PUSH1 0x40 MLOAD PUSH1 0x1 PUSH1 0x1 PUSH1 0xA0 SHL SUB SWAP1 SWAP2 AND DUP2 MSTORE PUSH1 0x20 ADD PUSH2 0x143 JUMP JUMPDEST PUSH2 0xC8 PUSH2 0x191 CALLDATASIZE PUSH1 0x4 PUSH2 0xFF6 JUMP JUMPDEST PUSH2 0x4E1 JUMP JUMPDEST CALLVALUE DUP1 ISZERO PUSH2 0x1A1 JUMPI PUSH0 PUSH0 REVERT JUMPDEST POP PUSH2 0x1AA PUSH2 0x500 JUMP JUMPDEST PUSH1 0x40 MLOAD SWAP1 DUP2 MSTORE PUSH1 0x20 ADD PUSH2 0x143 JUMP JUMPDEST CALLVALUE DUP1 ISZERO PUSH2 0x1C3 JUMPI PUSH0 PUSH0 REVERT JUMPDEST POP PUSH1 0x40 DUP1 MLOAD DUP1 DUP3 ADD SWAP1 SWAP2 MSTORE PUSH1 0x5 DUP2 MSTORE PUSH5 0x302E322E33 PUSH1 0xD8 SHL PUSH1 0x20 DUP3 ADD MSTORE JUMPDEST PUSH1 0x40 MLOAD PUSH2 0x143 SWAP2 SWAP1 PUSH2 0x1070 JUMP JUMPDEST CALLVALUE DUP1 ISZERO PUSH2 0x1F9 JUMPI PUSH0 PUSH0 REVERT JUMPDEST POP PUSH2 0xC8 PUSH2 0x51B JUMP JUMPDEST CALLVALUE DUP1 ISZERO PUSH2 0x20D JUMPI PUSH0 PUSH0 REVERT JUMPDEST POP PUSH32 0x9016D09D72D40FDAE2FD8CEAC6B6234C7706214FD39C1CD1E609A0528C199300 SLOAD PUSH1 0x1 PUSH1 0x1 PUSH1 0xA0 SHL SUB AND PUSH2 0x16B JUMP JUMPDEST CALLVALUE DUP1 ISZERO PUSH2 0x249 JUMPI PUSH0 PUSH0 REVERT JUMPDEST POP PUSH2 0x1E1 PUSH1 0x40 MLOAD DUP1 PUSH1 0x40 ADD PUSH1 0x40 MSTORE DUP1 PUSH1 0x5 DUP2 MSTORE PUSH1 0x20 ADD PUSH5 0x352E302E3 PUSH1 0xDC SHL DUP2 MSTORE POP DUP2 JUMP JUMPDEST CALLVALUE DUP1 ISZERO PUSH2 0x279 JUMPI PUSH0 PUSH0 REVERT JUMPDEST POP PUSH2 0xC8 PUSH2 0x288 CALLDATASIZE PUSH1 0x4 PUSH2 0x1082 JUMP JUMPDEST PUSH2 0x52E JUMP JUMPDEST CALLVALUE DUP1 ISZERO PUSH2 0x298 JUMPI PUSH0 PUSH0 REVERT JUMPDEST POP PUSH0 SLOAD PUSH2 0x2A8 SWAP1 PUSH4 0xFFFFFFFF AND DUP2 JUMP JUMPDEST PUSH1 0x40 MLOAD PUSH4 0xFFFFFFFF SWAP1 SWAP2 AND DUP2 MSTORE PUSH1 0x20 ADD PUSH2 0x143 JUMP JUMPDEST CALLVALUE DUP1 ISZERO PUSH2 0x2C8 JUMPI PUSH0 PUSH0 REVERT JUMPDEST POP PUSH2 0xC8 PUSH2 0x2D7 CALLDATASIZE PUSH1 0x4 PUSH2 0x1082 JUMP JUMPDEST PUSH2 0x65D JUMP JUMPDEST PUSH0 PUSH1 0x2 PUSH0 SWAP1 SLOAD SWAP1 PUSH2 0x100 EXP SWAP1 DIV PUSH1 0x1 PUSH1 0x1 PUSH1 0xA0 SHL SUB AND DUP9 DUP9 DUP9 DUP9 DUP9 DUP9 DUP9 PUSH1 0x40 MLOAD PUSH2 0x305 SWAP1 PUSH2 0xB5B JUMP JUMPDEST PUSH2 0x316 SWAP9 SWAP8 SWAP7 SWAP6 SWAP5 SWAP4 SWAP3 SWAP2 SWAP1 PUSH2 0x1138 JUMP JUMPDEST PUSH1 0x40 MLOAD DUP1 SWAP2 SUB SWAP1 PUSH0 CREATE DUP1 ISZERO DUP1 ISZERO PUSH2 0x32F JUMPI RETURNDATASIZE PUSH0 PUSH0 RETURNDATACOPY RETURNDATASIZE PUSH0 REVERT JUMPDEST POP PUSH0 DUP1 SLOAD PUSH4 0xFFFFFFFF AND DUP2 MSTORE PUSH1 0x1 PUSH1 0x20 DUP2 DUP2 MSTORE PUSH1 0x40 SWAP3 DUP4 SWAP1 KECCAK256 DUP13 MLOAD DUP1 MLOAD SWAP1 DUP4 ADD KECCAK256 DUP2 SSTORE SWAP2 DUP3 ADD DUP1 SLOAD PUSH1 0x1 PUSH1 0x1 PUSH1 0xA0 SHL SUB DUP7 AND PUSH1 0x1 PUSH1 0x1 PUSH1 0xA0 SHL SUB NOT SWAP2 DUP3 AND DUP2 OR SWAP1 SWAP3 SSTORE PUSH1 0x2 DUP5 ADD DUP1 SLOAD SWAP1 SWAP2 AND CALLER OR SWAP1 SSTORE DUP4 MLOAD PUSH4 0x7CB6D705 PUSH1 0xE1 SHL DUP2 MSTORE SWAP4 MLOAD SWAP5 SWAP6 POP SWAP2 SWAP4 SWAP2 SWAP3 PUSH4 0xF96DAE0A SWAP3 PUSH1 0x4 DUP1 DUP4 ADD SWAP4 SWAP3 DUP3 SWAP1 SUB ADD DUP2 DUP7 GAS STATICCALL ISZERO DUP1 ISZERO PUSH2 0x3B8 JUMPI RETURNDATASIZE PUSH0 PUSH0 RETURNDATACOPY RETURNDATASIZE PUSH0 REVERT JUMPDEST POP POP POP POP PUSH1 0x40 MLOAD RETURNDATASIZE PUSH1 0x1F NOT PUSH1 0x1F DUP3 ADD AND DUP3 ADD DUP1 PUSH1 0x40 MSTORE POP DUP2 ADD SWAP1 PUSH2 0x3DC SWAP2 SWAP1 PUSH2 0x123E JUMP JUMPDEST PUSH1 0x3 DUP3 ADD DUP1 SLOAD PUSH1 0x1 PUSH1 0x1 PUSH1 0xA0 SHL SUB NOT AND PUSH1 0x1 PUSH1 0x1 PUSH1 0xA0 SHL SUB SWAP3 SWAP1 SWAP3 AND SWAP2 SWAP1 SWAP2 OR SWAP1 SSTORE PUSH0 DUP1 SLOAD PUSH4 0xFFFFFFFF AND SWAP1 DUP1 PUSH2 0x412 DUP4 PUSH2 0x1259 JUMP JUMPDEST SWAP2 SWAP1 PUSH2 0x100 EXP DUP2 SLOAD DUP2 PUSH4 0xFFFFFFFF MUL NOT AND SWAP1 DUP4 PUSH4 0xFFFFFFFF AND MUL OR SWAP1 SSTORE POP POP PUSH32 0xEA82EB76A34B80F509A37F34681A8034BDD752A459FAE698508B3E6A0F145C20 DUP3 DUP4 PUSH1 0x1 PUSH1 0x1 PUSH1 0xA0 SHL SUB AND PUSH4 0xF96DAE0A PUSH1 0x40 MLOAD DUP2 PUSH4 0xFFFFFFFF AND PUSH1 0xE0 SHL DUP2 MSTORE PUSH1 0x4 ADD PUSH1 0x20 PUSH1 0x40 MLOAD DUP1 DUP4 SUB DUP2 DUP7 GAS STATICCALL ISZERO DUP1 ISZERO PUSH2 0x48F JUMPI RETURNDATASIZE PUSH0 PUSH0 RETURNDATACOPY RETURNDATASIZE PUSH0 REVERT JUMPDEST POP POP POP POP PUSH1 0x40 MLOAD RETURNDATASIZE PUSH1 0x1F NOT PUSH1 0x1F DUP3 ADD AND DUP3 ADD DUP1 PUSH1 0x40 MSTORE POP DUP2 ADD SWAP1 PUSH2 0x4B3 SWAP2 SWAP1 PUSH2 0x123E JUMP JUMPDEST PUSH1 0x40 DUP1 MLOAD PUSH1 0x1 PUSH1 0x1 PUSH1 0xA0 SHL SUB SWAP4 DUP5 AND DUP2 MSTORE SWAP3 SWAP1 SWAP2 AND PUSH1 0x20 DUP4 ADD MSTORE ADD PUSH1 0x40 MLOAD DUP1 SWAP2 SUB SWAP1 LOG1 POP POP POP POP POP POP POP POP POP JUMP JUMPDEST PUSH2 0x4E9 PUSH2 0x69F JUMP JUMPDEST PUSH2 0x4F2 DUP3 PUSH2 0x743 JUMP JUMPDEST PUSH2 0x4FC DUP3 DUP3 PUSH2 0x74B JUMP JUMPDEST POP POP JUMP JUMPDEST PUSH0 PUSH2 0x509 PUSH2 0x80C JUMP JUMPDEST POP PUSH0 MLOAD PUSH1 0x20 PUSH2 0x3CED PUSH0 CODECOPY PUSH0 MLOAD SWAP1 PUSH0 MSTORE SWAP1 JUMP JUMPDEST PUSH2 0x523 PUSH2 0x855 JUMP JUMPDEST PUSH2 0x52C PUSH0 PUSH2 0x8B0 JUMP JUMPDEST JUMP JUMPDEST PUSH32 0xF0C57E16840DF040F15088DC2F81FE391C3923BEC73E23A9662EFC9C229C6A00 DUP1 SLOAD PUSH1 0x1 PUSH1 0x40 SHL DUP2 DIV PUSH1 0xFF AND ISZERO SWAP1 PUSH1 0x1 PUSH1 0x1 PUSH1 0x40 SHL SUB AND PUSH0 DUP2 ISZERO DUP1 ISZERO PUSH2 0x572 JUMPI POP DUP3 JUMPDEST SWAP1 POP PUSH0 DUP3 PUSH1 0x1 PUSH1 0x1 PUSH1 0x40 SHL SUB AND PUSH1 0x1 EQ DUP1 ISZERO PUSH2 0x58D JUMPI POP ADDRESS EXTCODESIZE ISZERO JUMPDEST SWAP1 POP DUP2 ISZERO DUP1 ISZERO PUSH2 0x59B JUMPI POP DUP1 ISZERO JUMPDEST ISZERO PUSH2 0x5B9 JUMPI PUSH1 0x40 MLOAD PUSH4 0xF92EE8A9 PUSH1 0xE0 SHL DUP2 MSTORE PUSH1 0x4 ADD PUSH1 0x40 MLOAD DUP1 SWAP2 SUB SWAP1 REVERT JUMPDEST DUP5 SLOAD PUSH8 0xFFFFFFFFFFFFFFFF NOT AND PUSH1 0x1 OR DUP6 SSTORE DUP4 ISZERO PUSH2 0x5E3 JUMPI DUP5 SLOAD PUSH1 0xFF PUSH1 0x40 SHL NOT AND PUSH1 0x1 PUSH1 0x40 SHL OR DUP6 SSTORE JUMPDEST PUSH2 0x5EC CALLER PUSH2 0x920 JUMP JUMPDEST PUSH2 0x5F4 PUSH2 0x931 JUMP JUMPDEST PUSH1 0x2 DUP1 SLOAD PUSH1 0x1 PUSH1 0x1 PUSH1 0xA0 SHL SUB NOT AND PUSH1 0x1 PUSH1 0x1 PUSH1 0xA0 SHL SUB DUP9 AND OR SWAP1 SSTORE DUP4 ISZERO PUSH2 0x655 JUMPI DUP5 SLOAD PUSH1 0xFF PUSH1 0x40 SHL NOT AND DUP6 SSTORE PUSH1 0x40 MLOAD PUSH1 0x1 DUP2 MSTORE PUSH32 0xC7F505B2F371AE2175EE4913F4499E1F2633A7B5936321EED1CDAEB6115181D2 SWAP1 PUSH1 0x20 ADD PUSH1 0x40 MLOAD DUP1 SWAP2 SUB SWAP1 LOG1 JUMPDEST POP POP POP POP POP POP JUMP JUMPDEST PUSH2 0x665 PUSH2 0x855 JUMP JUMPDEST PUSH1 0x1 PUSH1 0x1 PUSH1 0xA0 SHL SUB DUP2 AND PUSH2 0x693 JUMPI PUSH1 0x40 MLOAD PUSH4 0x1E4FBDF7 PUSH1 0xE0 SHL DUP2 MSTORE PUSH0 PUSH1 0x4 DUP3 ADD MSTORE PUSH1 0x24 ADD JUMPDEST PUSH1 0x40 MLOAD DUP1 SWAP2 SUB SWAP1 REVERT JUMPDEST PUSH2 0x69C DUP2 PUSH2 0x8B0 JUMP JUMPDEST POP JUMP JUMPDEST ADDRESS PUSH1 0x1 PUSH1 0x1 PUSH1 0xA0 SHL SUB PUSH32 0x0 AND EQ DUP1 PUSH2 0x725 JUMPI POP PUSH32 0x0 PUSH1 0x1 PUSH1 0x1 PUSH1 0xA0 SHL SUB AND PUSH2 0x719 PUSH0 MLOAD PUSH1 0x20 PUSH2 0x3CED PUSH0 CODECOPY PUSH0 MLOAD SWAP1 PUSH0 MSTORE SLOAD PUSH1 0x1 PUSH1 0x1 PUSH1 0xA0 SHL SUB AND SWAP1 JUMP JUMPDEST PUSH1 0x1 PUSH1 0x1 PUSH1 0xA0 SHL SUB AND EQ ISZERO JUMPDEST ISZERO PUSH2 0x52C JUMPI PUSH1 0x40 MLOAD PUSH4 0x703E46DD PUSH1 0xE1 SHL DUP2 MSTORE PUSH1 0x4 ADD PUSH1 0x40 MLOAD DUP1 SWAP2 SUB SWAP1 REVERT JUMPDEST PUSH2 0x69C PUSH2 0x855 JUMP JUMPDEST DUP2 PUSH1 0x1 PUSH1 0x1 PUSH1 0xA0 SHL SUB AND PUSH4 0x52D1902D PUSH1 0x40 MLOAD DUP2 PUSH4 0xFFFFFFFF AND PUSH1 0xE0 SHL DUP2 MSTORE PUSH1 0x4 ADD PUSH1 0x20 PUSH1 0x40 MLOAD DUP1 DUP4 SUB DUP2 DUP7 GAS STATICCALL SWAP3 POP POP POP DUP1 ISZERO PUSH2 0x7A5 JUMPI POP PUSH1 0x40 DUP1 MLOAD PUSH1 0x1F RETURNDATASIZE SWAP1 DUP2 ADD PUSH1 0x1F NOT AND DUP3 ADD SWAP1 SWAP3 MSTORE PUSH2 0x7A2 SWAP2 DUP2 ADD SWAP1 PUSH2 0x1289 JUMP JUMPDEST PUSH1 0x1 JUMPDEST PUSH2 0x7CD JUMPI PUSH1 0x40 MLOAD PUSH4 0x4C9C8CE3 PUSH1 0xE0 SHL DUP2 MSTORE PUSH1 0x1 PUSH1 0x1 PUSH1 0xA0 SHL SUB DUP4 AND PUSH1 0x4 DUP3 ADD MSTORE PUSH1 0x24 ADD PUSH2 0x68A JUMP JUMPDEST PUSH0 MLOAD PUSH1 0x20 PUSH2 0x3CED PUSH0 CODECOPY PUSH0 MLOAD SWAP1 PUSH0 MSTORE DUP2 EQ PUSH2 0x7FD JUMPI PUSH1 0x40 MLOAD PUSH4 0x2A875269 PUSH1 0xE2 SHL DUP2 MSTORE PUSH1 0x4 DUP2 ADD DUP3 SWAP1 MSTORE PUSH1 0x24 ADD PUSH2 0x68A JUMP JUMPDEST PUSH2 0x807 DUP4 DUP4 PUSH2 0x939 JUMP JUMPDEST POP POP POP JUMP JUMPDEST ADDRESS PUSH1 0x1 PUSH1 0x1 PUSH1 0xA0 SHL SUB PUSH32 0x0 AND EQ PUSH2 0x52C JUMPI PUSH1 0x40 MLOAD PUSH4 0x703E46DD PUSH1 0xE1 SHL DUP2 MSTORE PUSH1 0x4 ADD PUSH1 0x40 MLOAD DUP1 SWAP2 SUB SWAP1 REVERT JUMPDEST CALLER PUSH2 0x887 PUSH32 0x9016D09D72D40FDAE2FD8CEAC6B6234C7706214FD39C1CD1E609A0528C199300 SLOAD PUSH1 0x1 PUSH1 0x1 PUSH1 0xA0 SHL SUB AND SWAP1 JUMP JUMPDEST PUSH1 0x1 PUSH1 0x1 PUSH1 0xA0 SHL SUB AND EQ PUSH2 0x52C JUMPI PUSH1 0x40 MLOAD PUSH4 0x118CDAA7 PUSH1 0xE0 SHL DUP2 MSTORE CALLER PUSH1 0x4 DUP3 ADD MSTORE PUSH1 0x24 ADD PUSH2 0x68A JUMP JUMPDEST PUSH32 0x9016D09D72D40FDAE2FD8CEAC6B6234C7706214FD39C1CD1E609A0528C199300 DUP1 SLOAD PUSH1 0x1 PUSH1 0x1 PUSH1 0xA0 SHL SUB NOT DUP2 AND PUSH1 0x1 PUSH1 0x1 PUSH1 0xA0 SHL SUB DUP5 DUP2 AND SWAP2 DUP3 OR DUP5 SSTORE PUSH1 0x40 MLOAD SWAP3 AND SWAP2 DUP3 SWAP1 PUSH32 0x8BE0079C531659141344CD1FD0A4F28419497F9722A3DAAFE3B4186F6B6457E0 SWAP1 PUSH0 SWAP1 LOG3 POP POP POP JUMP JUMPDEST PUSH2 0x928 PUSH2 0x98E JUMP JUMPDEST PUSH2 0x69C DUP2 PUSH2 0x9D7 JUMP JUMPDEST PUSH2 0x52C PUSH2 0x98E JUMP JUMPDEST PUSH2 0x942 DUP3 PUSH2 0x9DF JUMP JUMPDEST PUSH1 0x40 MLOAD PUSH1 0x1 PUSH1 0x1 PUSH1 0xA0 SHL SUB DUP4 AND SWAP1 PUSH32 0xBC7CD75A20EE27FD9ADEBAB32041F755214DBC6BFFA90CC0225B39DA2E5C2D3B SWAP1 PUSH0 SWAP1 LOG2 DUP1 MLOAD ISZERO PUSH2 0x986 JUMPI PUSH2 0x807 DUP3 DUP3 PUSH2 0xA42 JUMP JUMPDEST PUSH2 0x4FC PUSH2 0xAB4 JUMP JUMPDEST PUSH32 0xF0C57E16840DF040F15088DC2F81FE391C3923BEC73E23A9662EFC9C229C6A00 SLOAD PUSH1 0x1 PUSH1 0x40 SHL SWAP1 DIV PUSH1 0xFF AND PUSH2 0x52C JUMPI PUSH1 0x40 MLOAD PUSH4 0x1AFCD79F PUSH1 0xE3 SHL DUP2 MSTORE PUSH1 0x4 ADD PUSH1 0x40 MLOAD DUP1 SWAP2 SUB SWAP1 REVERT JUMPDEST PUSH2 0x665 PUSH2 0x98E JUMP JUMPDEST DUP1 PUSH1 0x1 PUSH1 0x1 PUSH1 0xA0 SHL SUB AND EXTCODESIZE PUSH0 SUB PUSH2 0xA14 JUMPI PUSH1 0x40 MLOAD PUSH4 0x4C9C8CE3 PUSH1 0xE0 SHL DUP2 MSTORE PUSH1 0x1 PUSH1 0x1 PUSH1 0xA0 SHL SUB DUP3 AND PUSH1 0x4 DUP3 ADD MSTORE PUSH1 0x24 ADD PUSH2 0x68A JUMP JUMPDEST PUSH0 MLOAD PUSH1 0x20 PUSH2 0x3CED PUSH0 CODECOPY PUSH0 MLOAD SWAP1 PUSH0 MSTORE DUP1 SLOAD PUSH1 0x1 PUSH1 0x1 PUSH1 0xA0 SHL SUB NOT AND PUSH1 0x1 PUSH1 0x1 PUSH1 0xA0 SHL SUB SWAP3 SWAP1 SWAP3 AND SWAP2 SWAP1 SWAP2 OR SWAP1 SSTORE JUMP JUMPDEST PUSH1 0x60 PUSH0 PUSH0 DUP5 PUSH1 0x1 PUSH1 0x1 PUSH1 0xA0 SHL SUB AND DUP5 PUSH1 0x40 MLOAD PUSH2 0xA5E SWAP2 SWAP1 PUSH2 0x12A0 JUMP JUMPDEST PUSH0 PUSH1 0x40 MLOAD DUP1 DUP4 SUB DUP2 DUP6 GAS DELEGATECALL SWAP2 POP POP RETURNDATASIZE DUP1 PUSH0 DUP2 EQ PUSH2 0xA96 JUMPI PUSH1 0x40 MLOAD SWAP2 POP PUSH1 0x1F NOT PUSH1 0x3F RETURNDATASIZE ADD AND DUP3 ADD PUSH1 0x40 MSTORE RETURNDATASIZE DUP3 MSTORE RETURNDATASIZE PUSH0 PUSH1 0x20 DUP5 ADD RETURNDATACOPY PUSH2 0xA9B JUMP JUMPDEST PUSH1 0x60 SWAP2 POP JUMPDEST POP SWAP2 POP SWAP2 POP PUSH2 0xAAB DUP6 DUP4 DUP4 PUSH2 0xAD3 JUMP JUMPDEST SWAP6 SWAP5 POP POP POP POP POP JUMP JUMPDEST CALLVALUE ISZERO PUSH2 0x52C JUMPI PUSH1 0x40 MLOAD PUSH4 0xB398979F PUSH1 0xE0 SHL DUP2 MSTORE PUSH1 0x4 ADD PUSH1 0x40 MLOAD DUP1 SWAP2 SUB SWAP1 REVERT JUMPDEST PUSH1 0x60 DUP3 PUSH2 0xAE8 JUMPI PUSH2 0xAE3 DUP3 PUSH2 0xB32 JUMP JUMPDEST PUSH2 0xB2B JUMP JUMPDEST DUP2 MLOAD ISZERO DUP1 ISZERO PUSH2 0xAFF JUMPI POP PUSH1 0x1 PUSH1 0x1 PUSH1 0xA0 SHL SUB DUP5 AND EXTCODESIZE ISZERO JUMPDEST ISZERO PUSH2 0xB28 JUMPI PUSH1 0x40 MLOAD PUSH4 0x9996B315 PUSH1 0xE0 SHL DUP2 MSTORE PUSH1 0x1 PUSH1 0x1 PUSH1 0xA0 SHL SUB DUP6 AND PUSH1 0x4 DUP3 ADD MSTORE PUSH1 0x24 ADD PUSH2 0x68A JUMP JUMPDEST POP DUP1 JUMPDEST SWAP4 SWAP3 POP POP POP JUMP JUMPDEST DUP1 MLOAD ISZERO PUSH2 0xB42 JUMPI DUP1 MLOAD DUP1 DUP3 PUSH1 0x20 ADD REVERT JUMPDEST PUSH1 0x40 MLOAD PUSH4 0xD6BDA275 PUSH1 0xE0 SHL DUP2 MSTORE PUSH1 0x4 ADD PUSH1 0x40 MLOAD DUP1 SWAP2 SUB SWAP1 REVERT JUMPDEST PUSH2 0x2A36 DUP1 PUSH2 0x12B7 DUP4 CODECOPY ADD SWAP1 JUMP JUMPDEST PUSH4 0x4E487B71 PUSH1 0xE0 SHL PUSH0 MSTORE PUSH1 0x41 PUSH1 0x4 MSTORE PUSH1 0x24 PUSH0 REVERT JUMPDEST PUSH1 0x40 DUP1 MLOAD SWAP1 DUP2 ADD PUSH1 0x1 PUSH1 0x1 PUSH1 0x40 SHL SUB DUP2 GT DUP3 DUP3 LT OR ISZERO PUSH2 0xB9E JUMPI PUSH2 0xB9E PUSH2 0xB68 JUMP JUMPDEST PUSH1 0x40 MSTORE SWAP1 JUMP JUMPDEST PUSH1 0x40 MLOAD PUSH1 0x1F DUP3 ADD PUSH1 0x1F NOT AND DUP2 ADD PUSH1 0x1 PUSH1 0x1 PUSH1 0x40 SHL SUB DUP2 GT DUP3 DUP3 LT OR ISZERO PUSH2 0xBCC JUMPI PUSH2 0xBCC PUSH2 0xB68 JUMP JUMPDEST PUSH1 0x40 MSTORE SWAP2 SWAP1 POP JUMP JUMPDEST PUSH0 DUP3 PUSH1 0x1F DUP4 ADD SLT PUSH2 0xBE3 JUMPI PUSH0 PUSH0 REVERT JUMPDEST DUP2 CALLDATALOAD PUSH1 0x20 DUP4 ADD PUSH0 PUSH0 PUSH1 0x1 PUSH1 0x1 PUSH1 0x40 SHL SUB DUP5 GT ISZERO PUSH2 0xC02 JUMPI PUSH2 0xC02 PUSH2 0xB68 JUMP JUMPDEST POP PUSH1 0x1F DUP4 ADD PUSH1 0x1F NOT AND PUSH1 0x20 ADD PUSH2 0xC17 DUP2 PUSH2 0xBA4 JUMP JUMPDEST SWAP2 POP POP DUP3 DUP2 MSTORE DUP6 DUP4 DUP4 ADD GT ISZERO PUSH2 0xC2B JUMPI PUSH0 PUSH0 REVERT JUMPDEST DUP3 DUP3 PUSH1 0x20 DUP4 ADD CALLDATACOPY PUSH0 SWAP3 DUP2 ADD PUSH1 0x20 ADD SWAP3 SWAP1 SWAP3 MSTORE POP SWAP4 SWAP3 POP POP POP JUMP JUMPDEST PUSH1 0x1 PUSH1 0x1 PUSH1 0xA0 SHL SUB DUP2 AND DUP2 EQ PUSH2 0x69C JUMPI PUSH0 PUSH0 REVERT JUMPDEST DUP1 CALLDATALOAD PUSH2 0xC64 DUP2 PUSH2 0xC45 JUMP JUMPDEST SWAP2 SWAP1 POP JUMP JUMPDEST PUSH0 PUSH1 0x60 DUP3 DUP5 SUB SLT ISZERO PUSH2 0xC79 JUMPI PUSH0 PUSH0 REVERT JUMPDEST PUSH1 0x40 MLOAD PUSH1 0x60 DUP2 ADD PUSH1 0x1 PUSH1 0x1 PUSH1 0x40 SHL SUB DUP2 GT DUP3 DUP3 LT OR ISZERO PUSH2 0xC9B JUMPI PUSH2 0xC9B PUSH2 0xB68 JUMP JUMPDEST PUSH1 0x40 MSTORE SWAP1 POP DUP1 DUP3 CALLDATALOAD PUSH1 0x1 PUSH1 0x1 PUSH1 0x40 SHL SUB DUP2 GT ISZERO PUSH2 0xCB6 JUMPI PUSH0 PUSH0 REVERT JUMPDEST PUSH2 0xCC2 DUP6 DUP3 DUP7 ADD PUSH2 0xBD4 JUMP JUMPDEST DUP3 MSTORE POP PUSH1 0x20 DUP4 ADD CALLDATALOAD PUSH1 0x1 PUSH1 0x1 PUSH1 0x40 SHL SUB DUP2 GT ISZERO PUSH2 0xCDD JUMPI PUSH0 PUSH0 REVERT JUMPDEST PUSH2 0xCE9 DUP6 DUP3 DUP7 ADD PUSH2 0xBD4 JUMP JUMPDEST PUSH1 0x20 DUP4 ADD MSTORE POP PUSH1 0x40 DUP4 ADD CALLDATALOAD PUSH2 0xCFD DUP2 PUSH2 0xC45 JUMP JUMPDEST PUSH1 0x40 SWAP2 SWAP1 SWAP2 ADD MSTORE SWAP3 SWAP2 POP POP JUMP JUMPDEST DUP1 CALLDATALOAD PUSH1 0xFF DUP2 AND DUP2 EQ PUSH2 0xC64 JUMPI PUSH0 PUSH0 REVERT JUMPDEST DUP1 CALLDATALOAD PUSH4 0xFFFFFFFF DUP2 AND DUP2 EQ PUSH2 0xC64 JUMPI PUSH0 PUSH0 REVERT JUMPDEST DUP1 CALLDATALOAD DUP1 ISZERO ISZERO DUP2 EQ PUSH2 0xC64 JUMPI PUSH0 PUSH0 REVERT JUMPDEST PUSH0 PUSH1 0xA0 DUP3 DUP5 SUB SLT ISZERO PUSH2 0xD4C JUMPI PUSH0 PUSH0 REVERT JUMPDEST PUSH1 0x40 MLOAD PUSH1 0xA0 DUP2 ADD PUSH1 0x1 PUSH1 0x1 PUSH1 0x40 SHL SUB DUP2 GT DUP3 DUP3 LT OR ISZERO PUSH2 0xD6E JUMPI PUSH2 0xD6E PUSH2 0xB68 JUMP JUMPDEST PUSH1 0x40 MSTORE SWAP1 POP DUP1 PUSH2 0xD7D DUP4 PUSH2 0xD0A JUMP JUMPDEST DUP2 MSTORE PUSH2 0xD8B PUSH1 0x20 DUP5 ADD PUSH2 0xD0A JUMP JUMPDEST PUSH1 0x20 DUP3 ADD MSTORE PUSH2 0xD9C PUSH1 0x40 DUP5 ADD PUSH2 0xD1A JUMP JUMPDEST PUSH1 0x40 DUP3 ADD MSTORE PUSH2 0xDAD PUSH1 0x60 DUP5 ADD PUSH2 0xD2D JUMP JUMPDEST PUSH1 0x60 DUP3 ADD MSTORE PUSH2 0xDBE PUSH1 0x80 DUP5 ADD PUSH2 0xD2D JUMP JUMPDEST PUSH1 0x80 DUP3 ADD MSTORE POP SWAP3 SWAP2 POP POP JUMP JUMPDEST PUSH0 DUP3 PUSH1 0x1F DUP4 ADD SLT PUSH2 0xDD9 JUMPI PUSH0 PUSH0 REVERT JUMPDEST DUP2 CALLDATALOAD PUSH1 0x1 PUSH1 0x1 PUSH1 0x40 SHL SUB DUP2 GT ISZERO PUSH2 0xDF2 JUMPI PUSH2 0xDF2 PUSH2 0xB68 JUMP JUMPDEST PUSH2 0xE01 PUSH1 0x20 DUP3 PUSH1 0x5 SHL ADD PUSH2 0xBA4 JUMP JUMPDEST DUP1 DUP3 DUP3 MSTORE PUSH1 0x20 DUP3 ADD SWAP2 POP PUSH1 0x20 DUP4 PUSH1 0x6 SHL DUP7 ADD ADD SWAP3 POP DUP6 DUP4 GT ISZERO PUSH2 0xE22 JUMPI PUSH0 PUSH0 REVERT JUMPDEST PUSH1 0x20 DUP6 ADD JUMPDEST DUP4 DUP2 LT ISZERO PUSH2 0xE6D JUMPI PUSH1 0x40 DUP2 DUP9 SUB SLT ISZERO PUSH2 0xE3E JUMPI PUSH0 PUSH0 REVERT JUMPDEST PUSH2 0xE46 PUSH2 0xB7C JUMP JUMPDEST DUP2 CALLDATALOAD PUSH2 0xE51 DUP2 PUSH2 0xC45 JUMP JUMPDEST DUP2 MSTORE PUSH1 0x20 DUP3 DUP2 ADD CALLDATALOAD DUP2 DUP4 ADD MSTORE SWAP1 DUP5 MSTORE SWAP3 SWAP1 SWAP3 ADD SWAP2 PUSH1 0x40 ADD PUSH2 0xE27 JUMP JUMPDEST POP SWAP6 SWAP5 POP POP POP POP POP JUMP JUMPDEST PUSH0 PUSH1 0x40 DUP3 DUP5 SUB SLT ISZERO PUSH2 0xE87 JUMPI PUSH0 PUSH0 REVERT JUMPDEST PUSH2 0xE8F PUSH2 0xB7C JUMP JUMPDEST SWAP1 POP PUSH2 0xE9A DUP3 PUSH2 0xD2D JUMP JUMPDEST DUP2 MSTORE PUSH1 0x20 SWAP2 DUP3 ADD CALLDATALOAD SWAP2 DUP2 ADD SWAP2 SWAP1 SWAP2 MSTORE SWAP2 SWAP1 POP JUMP JUMPDEST PUSH0 PUSH0 PUSH0 PUSH0 PUSH0 PUSH0 PUSH0 PUSH2 0x180 DUP9 DUP11 SUB SLT ISZERO PUSH2 0xEC5 JUMPI PUSH0 PUSH0 REVERT JUMPDEST DUP8 CALLDATALOAD PUSH1 0x1 PUSH1 0x1 PUSH1 0x40 SHL SUB DUP2 GT ISZERO PUSH2 0xEDA JUMPI PUSH0 PUSH0 REVERT JUMPDEST DUP9 ADD PUSH1 0x40 DUP2 DUP12 SUB SLT ISZERO PUSH2 0xEEB JUMPI PUSH0 PUSH0 REVERT JUMPDEST PUSH2 0xEF3 PUSH2 0xB7C JUMP JUMPDEST DUP2 CALLDATALOAD PUSH1 0x1 PUSH1 0x1 PUSH1 0x40 SHL SUB DUP2 GT ISZERO PUSH2 0xF08 JUMPI PUSH0 PUSH0 REVERT JUMPDEST PUSH2 0xF14 DUP13 DUP3 DUP6 ADD PUSH2 0xBD4 JUMP JUMPDEST DUP3 MSTORE POP PUSH1 0x20 DUP3 ADD CALLDATALOAD PUSH1 0x1 PUSH1 0x1 PUSH1 0x40 SHL SUB DUP2 GT ISZERO PUSH2 0xF2F JUMPI PUSH0 PUSH0 REVERT JUMPDEST PUSH2 0xF3B DUP13 DUP3 DUP6 ADD PUSH2 0xBD4 JUMP JUMPDEST PUSH1 0x20 DUP4 ADD MSTORE POP DUP1 SWAP9 POP POP POP PUSH2 0xF52 PUSH1 0x20 DUP10 ADD PUSH2 0xC59 JUMP JUMPDEST SWAP6 POP PUSH1 0x40 DUP9 ADD CALLDATALOAD PUSH1 0x1 PUSH1 0x1 PUSH1 0x40 SHL SUB DUP2 GT ISZERO PUSH2 0xF6C JUMPI PUSH0 PUSH0 REVERT JUMPDEST PUSH2 0xF78 DUP11 DUP3 DUP12 ADD PUSH2 0xC69 JUMP JUMPDEST SWAP6 POP POP PUSH2 0xF88 DUP10 PUSH1 0x60 DUP11 ADD PUSH2 0xD3C JUMP JUMPDEST SWAP4 POP PUSH2 0x100 DUP9 ADD CALLDATALOAD PUSH1 0x1 PUSH1 0x1 PUSH1 0x40 SHL SUB DUP2 GT ISZERO PUSH2 0xFA3 JUMPI PUSH0 PUSH0 REVERT JUMPDEST PUSH2 0xFAF DUP11 DUP3 DUP12 ADD PUSH2 0xDCA JUMP JUMPDEST SWAP4 POP POP PUSH2 0xFC0 DUP10 PUSH2 0x120 DUP11 ADD PUSH2 0xE77 JUMP JUMPDEST SWAP2 POP PUSH2 0xFCF PUSH2 0x160 DUP10 ADD PUSH2 0xD2D JUMP JUMPDEST SWAP1 POP SWAP3 SWAP6 SWAP9 SWAP2 SWAP5 SWAP8 POP SWAP3 SWAP6 POP JUMP JUMPDEST PUSH0 PUSH1 0x20 DUP3 DUP5 SUB SLT ISZERO PUSH2 0xFED JUMPI PUSH0 PUSH0 REVERT JUMPDEST PUSH2 0xB2B DUP3 PUSH2 0xD1A JUMP JUMPDEST PUSH0 PUSH0 PUSH1 0x40 DUP4 DUP6 SUB SLT ISZERO PUSH2 0x1007 JUMPI PUSH0 PUSH0 REVERT JUMPDEST DUP3 CALLDATALOAD PUSH2 0x1012 DUP2 PUSH2 0xC45 JUMP JUMPDEST SWAP2 POP PUSH1 0x20 DUP4 ADD CALLDATALOAD PUSH1 0x1 PUSH1 0x1 PUSH1 0x40 SHL SUB DUP2 GT ISZERO PUSH2 0x102C JUMPI PUSH0 PUSH0 REVERT JUMPDEST PUSH2 0x1038 DUP6 DUP3 DUP7 ADD PUSH2 0xBD4 JUMP JUMPDEST SWAP2 POP POP SWAP3 POP SWAP3 SWAP1 POP JUMP JUMPDEST PUSH0 DUP2 MLOAD DUP1 DUP5 MSTORE DUP1 PUSH1 0x20 DUP5 ADD PUSH1 0x20 DUP7 ADD MCOPY PUSH0 PUSH1 0x20 DUP3 DUP7 ADD ADD MSTORE PUSH1 0x20 PUSH1 0x1F NOT PUSH1 0x1F DUP4 ADD AND DUP6 ADD ADD SWAP2 POP POP SWAP3 SWAP2 POP POP JUMP JUMPDEST PUSH1 0x20 DUP2 MSTORE PUSH0 PUSH2 0xB2B PUSH1 0x20 DUP4 ADD DUP5 PUSH2 0x1042 JUMP JUMPDEST PUSH0 PUSH1 0x20 DUP3 DUP5 SUB SLT ISZERO PUSH2 0x1092 JUMPI PUSH0 PUSH0 REVERT JUMPDEST DUP2 CALLDATALOAD PUSH2 0xB2B DUP2 PUSH2 0xC45 JUMP JUMPDEST PUSH0 DUP2 MLOAD PUSH1 0x60 DUP5 MSTORE PUSH2 0x10B1 PUSH1 0x60 DUP6 ADD DUP3 PUSH2 0x1042 JUMP JUMPDEST SWAP1 POP PUSH1 0x20 DUP4 ADD MLOAD DUP5 DUP3 SUB PUSH1 0x20 DUP7 ADD MSTORE PUSH2 0x10CA DUP3 DUP3 PUSH2 0x1042 JUMP JUMPDEST PUSH1 0x40 SWAP5 DUP6 ADD MLOAD PUSH1 0x1 PUSH1 0x1 PUSH1 0xA0 SHL SUB AND SWAP6 SWAP1 SWAP5 ADD SWAP5 SWAP1 SWAP5 MSTORE POP SWAP1 SWAP3 SWAP2 POP POP JUMP JUMPDEST PUSH0 DUP2 MLOAD DUP1 DUP5 MSTORE PUSH1 0x20 DUP5 ADD SWAP4 POP PUSH1 0x20 DUP4 ADD PUSH0 JUMPDEST DUP3 DUP2 LT ISZERO PUSH2 0x112E JUMPI DUP2 MLOAD DUP1 MLOAD PUSH1 0x1 PUSH1 0x1 PUSH1 0xA0 SHL SUB AND DUP8 MSTORE PUSH1 0x20 SWAP1 DUP2 ADD MLOAD DUP2 DUP9 ADD MSTORE PUSH1 0x40 SWAP1 SWAP7 ADD SWAP6 SWAP1 SWAP2 ADD SWAP1 PUSH1 0x1 ADD PUSH2 0x10FB JUMP JUMPDEST POP SWAP4 SWAP5 SWAP4 POP POP POP POP JUMP JUMPDEST PUSH1 0x1 DUP1 PUSH1 0xA0 SHL SUB DUP10 AND DUP2 MSTORE PUSH2 0x1A0 PUSH1 0x20 DUP3 ADD MSTORE PUSH0 DUP9 MLOAD PUSH1 0x40 PUSH2 0x1A0 DUP5 ADD MSTORE PUSH2 0x1164 PUSH2 0x1E0 DUP5 ADD DUP3 PUSH2 0x1042 JUMP JUMPDEST SWAP1 POP PUSH1 0x20 DUP11 ADD MLOAD PUSH2 0x19F NOT DUP5 DUP4 SUB ADD PUSH2 0x1C0 DUP6 ADD MSTORE PUSH2 0x1183 DUP3 DUP3 PUSH2 0x1042 JUMP JUMPDEST SWAP2 POP POP PUSH2 0x119B PUSH1 0x40 DUP5 ADD DUP11 PUSH1 0x1 PUSH1 0x1 PUSH1 0xA0 SHL SUB AND SWAP1 MSTORE JUMP JUMPDEST DUP3 DUP2 SUB PUSH1 0x60 DUP5 ADD MSTORE PUSH2 0x11AD DUP2 DUP10 PUSH2 0x109D JUMP JUMPDEST SWAP1 POP PUSH2 0x11F7 PUSH1 0x80 DUP5 ADD DUP9 PUSH1 0xFF DUP2 MLOAD AND DUP3 MSTORE PUSH1 0xFF PUSH1 0x20 DUP3 ADD MLOAD AND PUSH1 0x20 DUP4 ADD MSTORE PUSH4 0xFFFFFFFF PUSH1 0x40 DUP3 ADD MLOAD AND PUSH1 0x40 DUP4 ADD MSTORE PUSH1 0x60 DUP2 ADD MLOAD ISZERO ISZERO PUSH1 0x60 DUP4 ADD MSTORE PUSH1 0x80 DUP2 ADD MLOAD ISZERO ISZERO PUSH1 0x80 DUP4 ADD MSTORE POP POP JUMP JUMPDEST DUP3 DUP2 SUB PUSH2 0x120 DUP5 ADD MSTORE PUSH2 0x120A DUP2 DUP8 PUSH2 0x10E9 JUMP JUMPDEST DUP6 MLOAD ISZERO ISZERO PUSH2 0x140 DUP6 ADD MSTORE PUSH1 0x20 DUP7 ADD MLOAD PUSH2 0x160 DUP6 ADD MSTORE SWAP2 POP PUSH2 0x1228 SWAP1 POP JUMP JUMPDEST DUP3 ISZERO ISZERO PUSH2 0x180 DUP4 ADD MSTORE SWAP10 SWAP9 POP POP POP POP POP POP POP POP POP JUMP JUMPDEST PUSH0 PUSH1 0x20 DUP3 DUP5 SUB SLT ISZERO PUSH2 0x124E JUMPI PUSH0 PUSH0 REVERT JUMPDEST DUP2 MLOAD PUSH2 0xB2B DUP2 PUSH2 0xC45 JUMP JUMPDEST PUSH0 PUSH4 0xFFFFFFFF DUP3 AND PUSH4 0xFFFFFFFF DUP2 SUB PUSH2 0x1280 JUMPI PUSH4 0x4E487B71 PUSH1 0xE0 SHL PUSH0 MSTORE PUSH1 0x11 PUSH1 0x4 MSTORE PUSH1 0x24 PUSH0 REVERT JUMPDEST PUSH1 0x1 ADD SWAP3 SWAP2 POP POP JUMP JUMPDEST PUSH0 PUSH1 0x20 DUP3 DUP5 SUB SLT ISZERO PUSH2 0x1299 JUMPI PUSH0 PUSH0 REVERT JUMPDEST POP MLOAD SWAP2 SWAP1 POP JUMP JUMPDEST PUSH0 DUP3 MLOAD DUP1 PUSH1 0x20 DUP6 ADD DUP5 MCOPY PUSH0 SWAP3 ADD SWAP2 DUP3 MSTORE POP SWAP2 SWAP1 POP JUMP INVALID PUSH1 0xC0 PUSH1 0x40 MSTORE CALLVALUE DUP1 ISZERO PUSH2 0xF JUMPI PUSH0 PUSH0 REVERT JUMPDEST POP PUSH1 0x40 MLOAD PUSH2 0x2A36 CODESIZE SUB DUP1 PUSH2 0x2A36 DUP4 CODECOPY DUP2 ADD PUSH1 0x40 DUP2 SWAP1 MSTORE PUSH2 0x2E SWAP2 PUSH2 0x7A7 JUMP JUMPDEST PUSH1 0x1 PUSH0 SSTORE PUSH1 0x6 DUP1 SLOAD DUP3 ISZERO ISZERO PUSH1 0x1 PUSH1 0xA0 SHL SWAP1 DUP2 MUL PUSH1 0x1 PUSH1 0x1 PUSH1 0xA8 SHL SUB NOT SWAP1 SWAP3 AND PUSH1 0x1 PUSH1 0x1 PUSH1 0xA0 SHL SUB DUP13 AND OR SWAP2 SWAP1 SWAP2 OR SWAP2 DUP3 SWAP1 SSTORE DUP10 SWAP2 DIV PUSH1 0xFF AND PUSH2 0x143 JUMPI PUSH1 0x1 PUSH1 0x1 PUSH1 0xA0 SHL SUB DUP8 AND PUSH2 0xE9 JUMPI PUSH1 0x40 MLOAD PUSH4 0x662837CF PUSH1 0xE1 SHL DUP2 MSTORE PUSH1 0x1 PUSH1 0x1 PUSH1 0xA0 SHL SUB DUP3 AND SWAP1 PUSH4 0xCC506F9E SWAP1 PUSH2 0xA4 SWAP1 DUP10 SWAP1 PUSH1 0x4 ADD PUSH2 0x8BA JUMP JUMPDEST PUSH1 0x20 PUSH1 0x40 MLOAD DUP1 DUP4 SUB DUP2 PUSH0 DUP8 GAS CALL ISZERO DUP1 ISZERO PUSH2 0xC0 JUMPI RETURNDATASIZE PUSH0 PUSH0 RETURNDATACOPY RETURNDATASIZE PUSH0 REVERT JUMPDEST POP POP POP POP PUSH1 0x40 MLOAD RETURNDATASIZE PUSH1 0x1F NOT PUSH1 0x1F DUP3 ADD AND DUP3 ADD DUP1 PUSH1 0x40 MSTORE POP DUP2 ADD SWAP1 PUSH2 0xE4 SWAP2 SWAP1 PUSH2 0x914 JUMP JUMPDEST PUSH2 0xEB JUMP JUMPDEST DUP7 JUMPDEST PUSH1 0x1 PUSH1 0x1 PUSH1 0xA0 SHL SUB AND PUSH1 0x80 DUP2 SWAP1 MSTORE PUSH1 0x40 MLOAD PUSH4 0x965AFA89 PUSH1 0xE0 SHL DUP2 MSTORE ADDRESS PUSH1 0x4 DUP3 ADD MSTORE PUSH4 0x965AFA89 SWAP1 PUSH1 0x24 ADD PUSH0 PUSH1 0x40 MLOAD DUP1 DUP4 SUB DUP2 PUSH0 DUP8 DUP1 EXTCODESIZE ISZERO DUP1 ISZERO PUSH2 0x12C JUMPI PUSH0 PUSH0 REVERT JUMPDEST POP GAS CALL ISZERO DUP1 ISZERO PUSH2 0x13E JUMPI RETURNDATASIZE PUSH0 PUSH0 RETURNDATACOPY RETURNDATASIZE PUSH0 REVERT JUMPDEST POP POP POP POP JUMPDEST DUP5 MLOAD PUSH1 0x5 DUP1 SLOAD PUSH1 0x20 DUP9 ADD MLOAD PUSH1 0x40 DUP10 ADD MLOAD PUSH1 0x60 DUP11 ADD MLOAD PUSH1 0x80 DUP12 ADD MLOAD ISZERO ISZERO PUSH8 0x100000000000000 MUL PUSH1 0xFF PUSH1 0x38 SHL NOT SWAP2 ISZERO ISZERO PUSH7 0x1000000000000 MUL PUSH1 0xFF PUSH1 0x30 SHL NOT PUSH4 0xFFFFFFFF SWAP1 SWAP5 AND PUSH3 0x10000 MUL SWAP4 SWAP1 SWAP4 AND PUSH7 0xFFFFFFFFFF0000 NOT PUSH1 0xFF SWAP6 DUP7 AND PUSH2 0x100 MUL PUSH2 0xFFFF NOT SWAP1 SWAP8 AND SWAP6 SWAP1 SWAP9 AND SWAP5 SWAP1 SWAP5 OR SWAP5 SWAP1 SWAP5 OR SWAP6 SWAP1 SWAP6 AND SWAP2 SWAP1 SWAP2 OR OR SWAP3 SWAP1 SWAP3 AND SWAP2 SWAP1 SWAP2 OR SWAP1 SSTORE DUP8 MLOAD DUP9 SWAP1 PUSH1 0x1 SWAP1 DUP2 SWAP1 PUSH2 0x1DD SWAP1 DUP3 PUSH2 0x9B1 JUMP JUMPDEST POP PUSH1 0x20 DUP3 ADD MLOAD PUSH1 0x1 DUP3 ADD SWAP1 PUSH2 0x1F2 SWAP1 DUP3 PUSH2 0x9B1 JUMP JUMPDEST POP POP DUP4 MLOAD PUSH1 0x3 DUP1 SLOAD SWAP2 ISZERO ISZERO PUSH1 0xFF NOT SWAP3 DUP4 AND OR SWAP1 SSTORE PUSH1 0x20 DUP1 DUP7 ADD MLOAD PUSH1 0x4 SSTORE PUSH1 0x40 DUP1 DUP11 ADD MLOAD PUSH1 0x1 PUSH1 0x1 PUSH1 0xA0 SHL SUB AND PUSH1 0xA0 MSTORE CALLER PUSH0 SWAP1 DUP2 MSTORE PUSH1 0xB SWAP1 SWAP3 MSTORE SWAP1 KECCAK256 DUP1 SLOAD SWAP1 SWAP2 AND PUSH1 0x1 OR SWAP1 SSTORE POP PUSH2 0x241 DUP5 PUSH2 0x24F JUMP JUMPDEST POP POP POP POP POP POP POP POP POP PUSH2 0xACF JUMP JUMPDEST CALLER PUSH0 SWAP1 DUP2 MSTORE PUSH1 0xB PUSH1 0x20 MSTORE PUSH1 0x40 SWAP1 KECCAK256 SLOAD PUSH1 0xFF AND DUP1 ISZERO PUSH2 0x26D JUMPI POP PUSH1 0x8 SLOAD ISZERO JUMPDEST DUP1 PUSH2 0x286 JUMPI POP CALLER PUSH0 SWAP1 DUP2 MSTORE PUSH1 0xC PUSH1 0x20 MSTORE PUSH1 0x40 SWAP1 KECCAK256 SLOAD PUSH1 0xFF AND JUMPDEST PUSH2 0x2A3 JUMPI PUSH1 0x40 MLOAD PUSH4 0x2C972A5F PUSH1 0xE0 SHL DUP2 MSTORE PUSH1 0x4 ADD PUSH1 0x40 MLOAD DUP1 SWAP2 SUB SWAP1 REVERT JUMPDEST PUSH0 JUMPDEST DUP2 MLOAD DUP2 PUSH4 0xFFFFFFFF AND LT ISZERO PUSH2 0x3E4 JUMPI PUSH0 DUP3 DUP3 PUSH4 0xFFFFFFFF AND DUP2 MLOAD DUP2 LT PUSH2 0x2CD JUMPI PUSH2 0x2CD PUSH2 0xA6B JUMP JUMPDEST PUSH1 0x20 MUL PUSH1 0x20 ADD ADD MLOAD PUSH0 ADD MLOAD SWAP1 POP PUSH0 DUP4 DUP4 PUSH4 0xFFFFFFFF AND DUP2 MLOAD DUP2 LT PUSH2 0x2F3 JUMPI PUSH2 0x2F3 PUSH2 0xA6B JUMP JUMPDEST PUSH1 0x20 SWAP1 DUP2 MUL SWAP2 SWAP1 SWAP2 ADD DUP2 ADD MLOAD DUP2 ADD MLOAD PUSH1 0x1 PUSH1 0x1 PUSH1 0xA0 SHL SUB DUP5 AND PUSH0 SWAP1 DUP2 MSTORE PUSH1 0xB SWAP1 SWAP3 MSTORE PUSH1 0x40 SWAP1 SWAP2 KECCAK256 SLOAD SWAP1 SWAP2 POP PUSH1 0xFF AND PUSH2 0x35C JUMPI PUSH1 0x1 PUSH1 0x1 PUSH1 0xA0 SHL SUB DUP3 AND PUSH0 SWAP1 DUP2 MSTORE PUSH1 0xB PUSH1 0x20 MSTORE PUSH1 0x40 DUP2 KECCAK256 DUP1 SLOAD PUSH1 0xFF NOT AND PUSH1 0x1 OR SWAP1 SSTORE PUSH1 0x8 DUP1 SLOAD SWAP1 SWAP2 SWAP1 PUSH2 0x357 SWAP1 PUSH2 0xA93 JUMP JUMPDEST SWAP1 SWAP2 SSTORE POP JUMPDEST PUSH1 0x6 SLOAD PUSH1 0x1 PUSH1 0xA0 SHL SWAP1 DIV PUSH1 0xFF AND PUSH2 0x3CF JUMPI PUSH1 0x80 MLOAD PUSH1 0x40 MLOAD PUSH4 0x73A14035 PUSH1 0xE1 SHL DUP2 MSTORE PUSH1 0x1 PUSH1 0x1 PUSH1 0xA0 SHL SUB DUP5 DUP2 AND PUSH1 0x4 DUP4 ADD MSTORE PUSH1 0x24 DUP3 ADD DUP5 SWAP1 MSTORE SWAP1 SWAP2 AND SWAP1 PUSH4 0xE742806A SWAP1 PUSH1 0x44 ADD PUSH0 PUSH1 0x40 MLOAD DUP1 DUP4 SUB DUP2 PUSH0 DUP8 DUP1 EXTCODESIZE ISZERO DUP1 ISZERO PUSH2 0x3B8 JUMPI PUSH0 PUSH0 REVERT JUMPDEST POP GAS CALL ISZERO DUP1 ISZERO PUSH2 0x3CA JUMPI RETURNDATASIZE PUSH0 PUSH0 RETURNDATACOPY RETURNDATASIZE PUSH0 REVERT JUMPDEST POP POP POP POP JUMPDEST POP POP DUP1 DUP1 PUSH2 0x3DC SWAP1 PUSH2 0xAAB JUMP JUMPDEST SWAP2 POP POP PUSH2 0x2A5 JUMP JUMPDEST POP POP JUMP JUMPDEST DUP1 MLOAD PUSH1 0x1 PUSH1 0x1 PUSH1 0xA0 SHL SUB DUP2 AND DUP2 EQ PUSH2 0x3FE JUMPI PUSH0 PUSH0 REVERT JUMPDEST SWAP2 SWAP1 POP JUMP JUMPDEST PUSH4 0x4E487B71 PUSH1 0xE0 SHL PUSH0 MSTORE PUSH1 0x41 PUSH1 0x4 MSTORE PUSH1 0x24 PUSH0 REVERT JUMPDEST PUSH1 0x40 DUP1 MLOAD SWAP1 DUP2 ADD PUSH1 0x1 PUSH1 0x1 PUSH1 0x40 SHL SUB DUP2 GT DUP3 DUP3 LT OR ISZERO PUSH2 0x439 JUMPI PUSH2 0x439 PUSH2 0x403 JUMP JUMPDEST PUSH1 0x40 MSTORE SWAP1 JUMP JUMPDEST PUSH1 0x40 MLOAD PUSH1 0x1F DUP3 ADD PUSH1 0x1F NOT AND DUP2 ADD PUSH1 0x1 PUSH1 0x1 PUSH1 0x40 SHL SUB DUP2 GT DUP3 DUP3 LT OR ISZERO PUSH2 0x467 JUMPI PUSH2 0x467 PUSH2 0x403 JUMP JUMPDEST PUSH1 0x40 MSTORE SWAP2 SWAP1 POP JUMP JUMPDEST PUSH0 DUP1 PUSH1 0x1 PUSH1 0x1 PUSH1 0x40 SHL SUB DUP5 GT ISZERO PUSH2 0x488 JUMPI PUSH2 0x488 PUSH2 0x403 JUMP JUMPDEST POP PUSH1 0x1F DUP4 ADD PUSH1 0x1F NOT AND PUSH1 0x20 ADD PUSH2 0x49D DUP2 PUSH2 0x43F JUMP JUMPDEST SWAP2 POP POP DUP3 DUP2 MSTORE DUP4 DUP4 DUP4 ADD GT ISZERO PUSH2 0x4B1 JUMPI PUSH0 PUSH0 REVERT JUMPDEST DUP3 DUP3 PUSH1 0x20 DUP4 ADD MCOPY PUSH0 PUSH1 0x20 DUP5 DUP4 ADD ADD MSTORE SWAP4 SWAP3 POP POP POP JUMP JUMPDEST PUSH0 DUP3 PUSH1 0x1F DUP4 ADD SLT PUSH2 0x4D6 JUMPI PUSH0 PUSH0 REVERT JUMPDEST PUSH2 0x4E5 DUP4 DUP4 MLOAD PUSH1 0x20 DUP6 ADD PUSH2 0x46F JUMP JUMPDEST SWAP4 SWAP3 POP POP POP JUMP JUMPDEST PUSH0 PUSH1 0x40 DUP3 DUP5 SUB SLT ISZERO PUSH2 0x4FC JUMPI PUSH0 PUSH0 REVERT JUMPDEST PUSH2 0x504 PUSH2 0x417 JUMP JUMPDEST DUP3 MLOAD SWAP1 SWAP2 POP PUSH1 0x1 PUSH1 0x1 PUSH1 0x40 SHL SUB DUP2 GT ISZERO PUSH2 0x51C JUMPI PUSH0 PUSH0 REVERT JUMPDEST PUSH2 0x528 DUP5 DUP3 DUP6 ADD PUSH2 0x4C7 JUMP JUMPDEST DUP3 MSTORE POP PUSH1 0x20 DUP3 ADD MLOAD PUSH1 0x1 PUSH1 0x1 PUSH1 0x40 SHL SUB DUP2 GT ISZERO PUSH2 0x543 JUMPI PUSH0 PUSH0 REVERT JUMPDEST DUP3 ADD PUSH1 0x1F DUP2 ADD DUP5 SGT PUSH2 0x553 JUMPI PUSH0 PUSH0 REVERT JUMPDEST PUSH2 0x562 DUP5 DUP3 MLOAD PUSH1 0x20 DUP5 ADD PUSH2 0x46F JUMP JUMPDEST PUSH1 0x20 DUP4 ADD MSTORE POP SWAP3 SWAP2 POP POP JUMP JUMPDEST PUSH0 PUSH1 0x60 DUP3 DUP5 SUB SLT ISZERO PUSH2 0x57E JUMPI PUSH0 PUSH0 REVERT JUMPDEST PUSH1 0x40 MLOAD PUSH1 0x60 DUP2 ADD PUSH1 0x1 PUSH1 0x1 PUSH1 0x40 SHL SUB DUP2 GT DUP3 DUP3 LT OR ISZERO PUSH2 0x5A0 JUMPI PUSH2 0x5A0 PUSH2 0x403 JUMP JUMPDEST PUSH1 0x40 MSTORE DUP3 MLOAD SWAP1 SWAP2 POP DUP2 SWAP1 PUSH1 0x1 PUSH1 0x1 PUSH1 0x40 SHL SUB DUP2 GT ISZERO PUSH2 0x5BD JUMPI PUSH0 PUSH0 REVERT JUMPDEST PUSH2 0x5C9 DUP6 DUP3 DUP7 ADD PUSH2 0x4C7 JUMP JUMPDEST DUP3 MSTORE POP PUSH1 0x20 DUP4 ADD MLOAD PUSH1 0x1 PUSH1 0x1 PUSH1 0x40 SHL SUB DUP2 GT ISZERO PUSH2 0x5E4 JUMPI PUSH0 PUSH0 REVERT JUMPDEST PUSH2 0x5F0 DUP6 DUP3 DUP7 ADD PUSH2 0x4C7 JUMP JUMPDEST PUSH1 0x20 DUP4 ADD MSTORE POP PUSH2 0x602 PUSH1 0x40 DUP5 ADD PUSH2 0x3E8 JUMP JUMPDEST PUSH1 0x40 DUP3 ADD MSTORE POP SWAP3 SWAP2 POP POP JUMP JUMPDEST DUP1 MLOAD PUSH1 0xFF DUP2 AND DUP2 EQ PUSH2 0x3FE JUMPI PUSH0 PUSH0 REVERT JUMPDEST DUP1 MLOAD DUP1 ISZERO ISZERO DUP2 EQ PUSH2 0x3FE JUMPI PUSH0 PUSH0 REVERT JUMPDEST PUSH0 PUSH1 0xA0 DUP3 DUP5 SUB SLT ISZERO PUSH2 0x63D JUMPI PUSH0 PUSH0 REVERT JUMPDEST PUSH1 0x40 MLOAD PUSH1 0xA0 DUP2 ADD PUSH1 0x1 PUSH1 0x1 PUSH1 0x40 SHL SUB DUP2 GT DUP3 DUP3 LT OR ISZERO PUSH2 0x65F JUMPI PUSH2 0x65F PUSH2 0x403 JUMP JUMPDEST PUSH1 0x40 MSTORE SWAP1 POP DUP1 PUSH2 0x66E DUP4 PUSH2 0x60E JUMP JUMPDEST DUP2 MSTORE PUSH2 0x67C PUSH1 0x20 DUP5 ADD PUSH2 0x60E JUMP JUMPDEST PUSH1 0x20 DUP3 ADD MSTORE PUSH1 0x40 DUP4 ADD MLOAD PUSH4 0xFFFFFFFF DUP2 AND DUP2 EQ PUSH2 0x697 JUMPI PUSH0 PUSH0 REVERT JUMPDEST PUSH1 0x40 DUP3 ADD MSTORE PUSH2 0x6A8 PUSH1 0x60 DUP5 ADD PUSH2 0x61E JUMP JUMPDEST PUSH1 0x60 DUP3 ADD MSTORE PUSH2 0x6B9 PUSH1 0x80 DUP5 ADD PUSH2 0x61E JUMP JUMPDEST PUSH1 0x80 DUP3 ADD MSTORE POP SWAP3 SWAP2 POP POP JUMP JUMPDEST PUSH0 DUP3 PUSH1 0x1F DUP4 ADD SLT PUSH2 0x6D4 JUMPI PUSH0 PUSH0 REVERT JUMPDEST DUP2 MLOAD PUSH1 0x1 PUSH1 0x1 PUSH1 0x40 SHL SUB DUP2 GT ISZERO PUSH2 0x6ED JUMPI PUSH2 0x6ED PUSH2 0x403 JUMP JUMPDEST PUSH2 0x6FC PUSH1 0x20 DUP3 PUSH1 0x5 SHL ADD PUSH2 0x43F JUMP JUMPDEST DUP1 DUP3 DUP3 MSTORE PUSH1 0x20 DUP3 ADD SWAP2 POP PUSH1 0x20 DUP4 PUSH1 0x6 SHL DUP7 ADD ADD SWAP3 POP DUP6 DUP4 GT ISZERO PUSH2 0x71D JUMPI PUSH0 PUSH0 REVERT JUMPDEST PUSH1 0x20 DUP6 ADD JUMPDEST DUP4 DUP2 LT ISZERO PUSH2 0x766 JUMPI PUSH1 0x40 DUP2 DUP9 SUB SLT ISZERO PUSH2 0x739 JUMPI PUSH0 PUSH0 REVERT JUMPDEST PUSH2 0x741 PUSH2 0x417 JUMP JUMPDEST PUSH2 0x74A DUP3 PUSH2 0x3E8 JUMP JUMPDEST DUP2 MSTORE PUSH1 0x20 DUP3 DUP2 ADD MLOAD DUP2 DUP4 ADD MSTORE SWAP1 DUP5 MSTORE SWAP3 SWAP1 SWAP3 ADD SWAP2 PUSH1 0x40 ADD PUSH2 0x722 JUMP JUMPDEST POP SWAP6 SWAP5 POP POP POP POP POP JUMP JUMPDEST PUSH0 PUSH1 0x40 DUP3 DUP5 SUB SLT ISZERO PUSH2 0x780 JUMPI PUSH0 PUSH0 REVERT JUMPDEST PUSH2 0x788 PUSH2 0x417 JUMP JUMPDEST SWAP1 POP PUSH2 0x793 DUP3 PUSH2 0x61E JUMP JUMPDEST DUP2 MSTORE PUSH1 0x20 SWAP2 DUP3 ADD MLOAD SWAP2 DUP2 ADD SWAP2 SWAP1 SWAP2 MSTORE SWAP2 SWAP1 POP JUMP JUMPDEST PUSH0 PUSH0 PUSH0 PUSH0 PUSH0 PUSH0 PUSH0 PUSH0 PUSH2 0x1A0 DUP10 DUP12 SUB SLT ISZERO PUSH2 0x7BF JUMPI PUSH0 PUSH0 REVERT JUMPDEST PUSH2 0x7C8 DUP10 PUSH2 0x3E8 JUMP JUMPDEST PUSH1 0x20 DUP11 ADD MLOAD SWAP1 SWAP9 POP PUSH1 0x1 PUSH1 0x1 PUSH1 0x40 SHL SUB DUP2 GT ISZERO PUSH2 0x7E3 JUMPI PUSH0 PUSH0 REVERT JUMPDEST PUSH2 0x7EF DUP12 DUP3 DUP13 ADD PUSH2 0x4EC JUMP JUMPDEST SWAP8 POP POP PUSH2 0x7FE PUSH1 0x40 DUP11 ADD PUSH2 0x3E8 JUMP JUMPDEST PUSH1 0x60 DUP11 ADD MLOAD SWAP1 SWAP7 POP PUSH1 0x1 PUSH1 0x1 PUSH1 0x40 SHL SUB DUP2 GT ISZERO PUSH2 0x819 JUMPI PUSH0 PUSH0 REVERT JUMPDEST PUSH2 0x825 DUP12 DUP3 DUP13 ADD PUSH2 0x56E JUMP JUMPDEST SWAP6 POP POP PUSH2 0x835 DUP11 PUSH1 0x80 DUP12 ADD PUSH2 0x62D JUMP JUMPDEST PUSH2 0x120 DUP11 ADD MLOAD SWAP1 SWAP5 POP PUSH1 0x1 PUSH1 0x1 PUSH1 0x40 SHL SUB DUP2 GT ISZERO PUSH2 0x851 JUMPI PUSH0 PUSH0 REVERT JUMPDEST PUSH2 0x85D DUP12 DUP3 DUP13 ADD PUSH2 0x6C5 JUMP JUMPDEST SWAP4 POP POP PUSH2 0x86E DUP11 PUSH2 0x140 DUP12 ADD PUSH2 0x770 JUMP JUMPDEST SWAP2 POP PUSH2 0x87D PUSH2 0x180 DUP11 ADD PUSH2 0x61E JUMP JUMPDEST SWAP1 POP SWAP3 SWAP6 SWAP9 POP SWAP3 SWAP6 SWAP9 SWAP1 SWAP4 SWAP7 POP JUMP JUMPDEST PUSH0 DUP2 MLOAD DUP1 DUP5 MSTORE DUP1 PUSH1 0x20 DUP5 ADD PUSH1 0x20 DUP7 ADD MCOPY PUSH0 PUSH1 0x20 DUP3 DUP7 ADD ADD MSTORE PUSH1 0x20 PUSH1 0x1F NOT PUSH1 0x1F DUP4 ADD AND DUP6 ADD ADD SWAP2 POP POP SWAP3 SWAP2 POP POP JUMP JUMPDEST PUSH1 0x20 DUP2 MSTORE PUSH0 DUP3 MLOAD PUSH1 0x60 PUSH1 0x20 DUP5 ADD MSTORE PUSH2 0x8D5 PUSH1 0x80 DUP5 ADD DUP3 PUSH2 0x88C JUMP JUMPDEST SWAP1 POP PUSH1 0x20 DUP5 ADD MLOAD PUSH1 0x1F NOT DUP5 DUP4 SUB ADD PUSH1 0x40 DUP6 ADD MSTORE PUSH2 0x8F2 DUP3 DUP3 PUSH2 0x88C JUMP JUMPDEST PUSH1 0x40 SWAP6 SWAP1 SWAP6 ADD MLOAD PUSH1 0x1 PUSH1 0x1 PUSH1 0xA0 SHL SUB AND PUSH1 0x60 SWAP5 SWAP1 SWAP5 ADD SWAP4 SWAP1 SWAP4 MSTORE POP SWAP2 SWAP3 SWAP2 POP POP JUMP JUMPDEST PUSH0 PUSH1 0x20 DUP3 DUP5 SUB SLT ISZERO PUSH2 0x924 JUMPI PUSH0 PUSH0 REVERT JUMPDEST PUSH2 0x4E5 DUP3 PUSH2 0x3E8 JUMP JUMPDEST PUSH1 0x1 DUP2 DUP2 SHR SWAP1 DUP3 AND DUP1 PUSH2 0x941 JUMPI PUSH1 0x7F DUP3 AND SWAP2 POP JUMPDEST PUSH1 0x20 DUP3 LT DUP2 SUB PUSH2 0x95F JUMPI PUSH4 0x4E487B71 PUSH1 0xE0 SHL PUSH0 MSTORE PUSH1 0x22 PUSH1 0x4 MSTORE PUSH1 0x24 PUSH0 REVERT JUMPDEST POP SWAP2 SWAP1 POP JUMP JUMPDEST PUSH1 0x1F DUP3 GT ISZERO PUSH2 0x9AC JUMPI DUP1 PUSH0 MSTORE PUSH1 0x20 PUSH0 KECCAK256 PUSH1 0x1F DUP5 ADD PUSH1 0x5 SHR DUP2 ADD PUSH1 0x20 DUP6 LT ISZERO PUSH2 0x98A JUMPI POP DUP1 JUMPDEST PUSH1 0x1F DUP5 ADD PUSH1 0x5 SHR DUP3 ADD SWAP2 POP JUMPDEST DUP2 DUP2 LT ISZERO PUSH2 0x9A9 JUMPI PUSH0 DUP2 SSTORE PUSH1 0x1 ADD PUSH2 0x996 JUMP JUMPDEST POP POP JUMPDEST POP POP POP JUMP JUMPDEST DUP2 MLOAD PUSH1 0x1 PUSH1 0x1 PUSH1 0x40 SHL SUB DUP2 GT ISZERO PUSH2 0x9CA JUMPI PUSH2 0x9CA PUSH2 0x403 JUMP JUMPDEST PUSH2 0x9DE DUP2 PUSH2 0x9D8 DUP5 SLOAD PUSH2 0x92D JUMP JUMPDEST DUP5 PUSH2 0x965 JUMP JUMPDEST PUSH1 0x20 PUSH1 0x1F DUP3 GT PUSH1 0x1 DUP2 EQ PUSH2 0xA10 JUMPI PUSH0 DUP4 ISZERO PUSH2 0x9F9 JUMPI POP DUP5 DUP3 ADD MLOAD JUMPDEST PUSH0 NOT PUSH1 0x3 DUP6 SWAP1 SHL SHR NOT AND PUSH1 0x1 DUP5 SWAP1 SHL OR DUP5 SSTORE PUSH2 0x9A9 JUMP JUMPDEST PUSH0 DUP5 DUP2 MSTORE PUSH1 0x20 DUP2 KECCAK256 PUSH1 0x1F NOT DUP6 AND SWAP2 JUMPDEST DUP3 DUP2 LT ISZERO PUSH2 0xA3F JUMPI DUP8 DUP6 ADD MLOAD DUP3 SSTORE PUSH1 0x20 SWAP5 DUP6 ADD SWAP5 PUSH1 0x1 SWAP1 SWAP3 ADD SWAP2 ADD PUSH2 0xA1F JUMP JUMPDEST POP DUP5 DUP3 LT ISZERO PUSH2 0xA5C JUMPI DUP7 DUP5 ADD MLOAD PUSH0 NOT PUSH1 0x3 DUP8 SWAP1 SHL PUSH1 0xF8 AND SHR NOT AND DUP2 SSTORE JUMPDEST POP POP POP POP PUSH1 0x1 SWAP1 DUP2 SHL ADD SWAP1 SSTORE POP JUMP JUMPDEST PUSH4 0x4E487B71 PUSH1 0xE0 SHL PUSH0 MSTORE PUSH1 0x32 PUSH1 0x4 MSTORE PUSH1 0x24 PUSH0 REVERT JUMPDEST PUSH4 0x4E487B71 PUSH1 0xE0 SHL PUSH0 MSTORE PUSH1 0x11 PUSH1 0x4 MSTORE PUSH1 0x24 PUSH0 REVERT JUMPDEST PUSH0 PUSH1 0x1 DUP3 ADD PUSH2 0xAA4 JUMPI PUSH2 0xAA4 PUSH2 0xA7F JUMP JUMPDEST POP PUSH1 0x1 ADD SWAP1 JUMP JUMPDEST PUSH0 PUSH4 0xFFFFFFFF DUP3 AND PUSH4 0xFFFFFFFF DUP2 SUB PUSH2 0xAC6 JUMPI PUSH2 0xAC6 PUSH2 0xA7F JUMP JUMPDEST PUSH1 0x1 ADD SWAP3 SWAP2 POP POP JUMP JUMPDEST PUSH1 0x80 MLOAD PUSH1 0xA0 MLOAD PUSH2 0x1F0E PUSH2 0xB28 PUSH0 CODECOPY PUSH0 PUSH2 0x24A ADD MSTORE PUSH0 DUP2 DUP2 PUSH2 0x5DB ADD MSTORE DUP2 DUP2 PUSH2 0x978 ADD MSTORE DUP2 DUP2 PUSH2 0xA6D ADD MSTORE DUP2 DUP2 PUSH2 0xEA4 ADD MSTORE DUP2 DUP2 PUSH2 0xF85 ADD MSTORE DUP2 DUP2 PUSH2 0x1034 ADD MSTORE DUP2 DUP2 PUSH2 0x1247 ADD MSTORE DUP2 DUP2 PUSH2 0x13FB ADD MSTORE PUSH2 0x159C ADD MSTORE PUSH2 0x1F0E PUSH0 RETURN INVALID PUSH1 0x80 PUSH1 0x40 MSTORE PUSH1 0x4 CALLDATASIZE LT PUSH2 0x189 JUMPI PUSH0 CALLDATALOAD PUSH1 0xE0 SHR DUP1 PUSH4 0x62354E03 GT PUSH2 0xDF JUMPI DUP1 PUSH4 0xB9183515 GT PUSH2 0x83 JUMPI DUP1 PUSH4 0xDBAC26E9 GT PUSH2 0x60 JUMPI DUP1 PUSH4 0xDBAC26E9 EQ PUSH2 0x57D JUMPI DUP1 PUSH4 0xE37BCDAD EQ PUSH2 0x5AB JUMPI DUP1 PUSH4 0xF96DAE0A EQ PUSH2 0x5CA JUMPI DUP1 PUSH4 0xFE436C53 EQ PUSH2 0x5FD JUMPI STOP JUMPDEST DUP1 PUSH4 0xB9183515 EQ PUSH2 0x520 JUMPI DUP1 PUSH4 0xBF3ADAEC EQ PUSH2 0x53F JUMPI DUP1 PUSH4 0xDA7904C2 EQ PUSH2 0x55E JUMPI STOP JUMPDEST DUP1 PUSH4 0xA3DAC6AE GT PUSH2 0xBC JUMPI DUP1 PUSH4 0xA3DAC6AE EQ PUSH2 0x475 JUMPI DUP1 PUSH4 0xAA6C9763 EQ PUSH2 0x495 JUMPI DUP1 PUSH4 0xB03FBB21 EQ PUSH2 0x4B4 JUMPI DUP1 PUSH4 0xB1E44D8F EQ PUSH2 0x4F2 JUMPI STOP JUMPDEST DUP1 PUSH4 0x62354E03 EQ PUSH2 0x3BE JUMPI DUP1 PUSH4 0x65F3657F EQ PUSH2 0x43F JUMPI DUP1 PUSH4 0x8215AE57 EQ PUSH2 0x461 JUMPI STOP JUMPDEST DUP1 PUSH4 0x52050003 GT PUSH2 0x146 JUMPI DUP1 PUSH4 0x5957AC66 GT PUSH2 0x123 JUMPI DUP1 PUSH4 0x5957AC66 EQ PUSH2 0x321 JUMPI DUP1 PUSH4 0x5C19A95C EQ PUSH2 0x355 JUMPI DUP1 PUSH4 0x5E35359E EQ PUSH2 0x374 JUMPI DUP1 PUSH4 0x5F4F3F23 EQ PUSH2 0x393 JUMPI STOP JUMPDEST DUP1 PUSH4 0x52050003 EQ PUSH2 0x284 JUMPI DUP1 PUSH4 0x539E5082 EQ PUSH2 0x2C2 JUMPI DUP1 PUSH4 0x54445AE6 EQ PUSH2 0x2F6 JUMPI STOP JUMPDEST DUP1 PUSH4 0x13CF08B EQ PUSH2 0x18B JUMPI DUP1 PUSH4 0x1035C1CF EQ PUSH2 0x1C3 JUMPI DUP1 PUSH4 0x132DA92D EQ PUSH2 0x1E2 JUMPI DUP1 PUSH4 0x297F9AF0 EQ PUSH2 0x201 JUMPI DUP1 PUSH4 0x2DFCA445 EQ PUSH2 0x224 JUMPI DUP1 PUSH4 0x4AB17F31 EQ PUSH2 0x239 JUMPI JUMPDEST STOP JUMPDEST CALLVALUE DUP1 ISZERO PUSH2 0x196 JUMPI PUSH0 PUSH0 REVERT JUMPDEST POP PUSH2 0x1AA PUSH2 0x1A5 CALLDATASIZE PUSH1 0x4 PUSH2 0x17AB JUMP JUMPDEST PUSH2 0x61C JUMP JUMPDEST PUSH1 0x40 MLOAD PUSH2 0x1BA SWAP5 SWAP4 SWAP3 SWAP2 SWAP1 PUSH2 0x17F0 JUMP JUMPDEST PUSH1 0x40 MLOAD DUP1 SWAP2 SUB SWAP1 RETURN JUMPDEST CALLVALUE DUP1 ISZERO PUSH2 0x1CE JUMPI PUSH0 PUSH0 REVERT JUMPDEST POP PUSH2 0x189 PUSH2 0x1DD CALLDATASIZE PUSH1 0x4 PUSH2 0x1843 JUMP JUMPDEST PUSH2 0x6D7 JUMP JUMPDEST CALLVALUE DUP1 ISZERO PUSH2 0x1ED JUMPI PUSH0 PUSH0 REVERT JUMPDEST POP PUSH2 0x189 PUSH2 0x1FC CALLDATASIZE PUSH1 0x4 PUSH2 0x18E8 JUMP JUMPDEST PUSH2 0x83E JUMP JUMPDEST CALLVALUE DUP1 ISZERO PUSH2 0x20C JUMPI PUSH0 PUSH0 REVERT JUMPDEST POP PUSH2 0x216 PUSH1 0x8 SLOAD DUP2 JUMP JUMPDEST PUSH1 0x40 MLOAD SWAP1 DUP2 MSTORE PUSH1 0x20 ADD PUSH2 0x1BA JUMP JUMPDEST CALLVALUE DUP1 ISZERO PUSH2 0x22F JUMPI PUSH0 PUSH0 REVERT JUMPDEST POP PUSH2 0x216 PUSH1 0x7 SLOAD DUP2 JUMP JUMPDEST CALLVALUE DUP1 ISZERO PUSH2 0x244 JUMPI PUSH0 PUSH0 REVERT JUMPDEST POP PUSH2 0x26C PUSH32 0x0 DUP2 JUMP JUMPDEST PUSH1 0x40 MLOAD PUSH1 0x1 PUSH1 0x1 PUSH1 0xA0 SHL SUB SWAP1 SWAP2 AND DUP2 MSTORE PUSH1 0x20 ADD PUSH2 0x1BA JUMP JUMPDEST CALLVALUE DUP1 ISZERO PUSH2 0x28F JUMPI PUSH0 PUSH0 REVERT JUMPDEST POP PUSH2 0x2B2 PUSH2 0x29E CALLDATASIZE PUSH1 0x4 PUSH2 0x1922 JUMP JUMPDEST PUSH1 0xC PUSH1 0x20 MSTORE PUSH0 SWAP1 DUP2 MSTORE PUSH1 0x40 SWAP1 KECCAK256 SLOAD PUSH1 0xFF AND DUP2 JUMP JUMPDEST PUSH1 0x40 MLOAD SWAP1 ISZERO ISZERO DUP2 MSTORE PUSH1 0x20 ADD PUSH2 0x1BA JUMP JUMPDEST CALLVALUE DUP1 ISZERO PUSH2 0x2CD JUMPI PUSH0 PUSH0 REVERT JUMPDEST POP PUSH2 0x26C PUSH2 0x2DC CALLDATASIZE PUSH1 0x4 PUSH2 0x1922 JUMP JUMPDEST PUSH1 0xE PUSH1 0x20 MSTORE PUSH0 SWAP1 DUP2 MSTORE PUSH1 0x40 SWAP1 KECCAK256 SLOAD PUSH1 0x1 PUSH1 0x1 PUSH1 0xA0 SHL SUB AND DUP2 JUMP JUMPDEST CALLVALUE DUP1 ISZERO PUSH2 0x301 JUMPI PUSH0 PUSH0 REVERT JUMPDEST POP PUSH2 0x216 PUSH2 0x310 CALLDATASIZE PUSH1 0x4 PUSH2 0x1922 JUMP JUMPDEST PUSH1 0xD PUSH1 0x20 MSTORE PUSH0 SWAP1 DUP2 MSTORE PUSH1 0x40 SWAP1 KECCAK256 SLOAD DUP2 JUMP JUMPDEST CALLVALUE DUP1 ISZERO PUSH2 0x32C JUMPI PUSH0 PUSH0 REVERT JUMPDEST POP PUSH1 0x3 SLOAD PUSH1 0x4 SLOAD PUSH2 0x33E SWAP2 PUSH1 0xFF AND SWAP1 DUP3 JUMP JUMPDEST PUSH1 0x40 DUP1 MLOAD SWAP3 ISZERO ISZERO DUP4 MSTORE PUSH1 0x20 DUP4 ADD SWAP2 SWAP1 SWAP2 MSTORE ADD PUSH2 0x1BA JUMP JUMPDEST CALLVALUE DUP1 ISZERO PUSH2 0x360 JUMPI PUSH0 PUSH0 REVERT JUMPDEST POP PUSH2 0x189 PUSH2 0x36F CALLDATASIZE PUSH1 0x4 PUSH2 0x1922 JUMP JUMPDEST PUSH2 0x88A JUMP JUMPDEST CALLVALUE DUP1 ISZERO PUSH2 0x37F JUMPI PUSH0 PUSH0 REVERT JUMPDEST POP PUSH2 0x189 PUSH2 0x38E CALLDATASIZE PUSH1 0x4 PUSH2 0x1944 JUMP JUMPDEST PUSH2 0xACB JUMP JUMPDEST CALLVALUE DUP1 ISZERO PUSH2 0x39E JUMPI PUSH0 PUSH0 REVERT JUMPDEST POP PUSH2 0x216 PUSH2 0x3AD CALLDATASIZE PUSH1 0x4 PUSH2 0x1922 JUMP JUMPDEST PUSH1 0x10 PUSH1 0x20 MSTORE PUSH0 SWAP1 DUP2 MSTORE PUSH1 0x40 SWAP1 KECCAK256 SLOAD DUP2 JUMP JUMPDEST CALLVALUE DUP1 ISZERO PUSH2 0x3C9 JUMPI PUSH0 PUSH0 REVERT JUMPDEST POP PUSH1 0x5 SLOAD PUSH2 0x405 SWAP1 PUSH1 0xFF DUP1 DUP3 AND SWAP2 PUSH2 0x100 DUP2 DIV DUP3 AND SWAP2 PUSH4 0xFFFFFFFF PUSH3 0x10000 DUP4 DIV AND SWAP2 PUSH7 0x1000000000000 DUP2 DIV DUP3 AND SWAP2 PUSH1 0x1 PUSH1 0x38 SHL SWAP1 SWAP2 DIV AND DUP6 JUMP JUMPDEST PUSH1 0x40 DUP1 MLOAD PUSH1 0xFF SWAP7 DUP8 AND DUP2 MSTORE SWAP6 SWAP1 SWAP5 AND PUSH1 0x20 DUP7 ADD MSTORE PUSH4 0xFFFFFFFF SWAP1 SWAP3 AND SWAP3 DUP5 ADD SWAP3 SWAP1 SWAP3 MSTORE SWAP1 ISZERO ISZERO PUSH1 0x60 DUP4 ADD MSTORE ISZERO ISZERO PUSH1 0x80 DUP3 ADD MSTORE PUSH1 0xA0 ADD PUSH2 0x1BA JUMP JUMPDEST CALLVALUE DUP1 ISZERO PUSH2 0x44A JUMPI PUSH0 PUSH0 REVERT JUMPDEST POP PUSH2 0x453 PUSH2 0xCE8 JUMP JUMPDEST PUSH1 0x40 MLOAD PUSH2 0x1BA SWAP3 SWAP2 SWAP1 PUSH2 0x1982 JUMP JUMPDEST CALLVALUE DUP1 ISZERO PUSH2 0x46C JUMPI PUSH0 PUSH0 REVERT JUMPDEST POP PUSH2 0x189 PUSH2 0xE04 JUMP JUMPDEST CALLVALUE DUP1 ISZERO PUSH2 0x480 JUMPI PUSH0 PUSH0 REVERT JUMPDEST POP PUSH1 0x6 SLOAD PUSH2 0x2B2 SWAP1 PUSH1 0x1 PUSH1 0xA0 SHL SWAP1 DIV PUSH1 0xFF AND DUP2 JUMP JUMPDEST CALLVALUE DUP1 ISZERO PUSH2 0x4A0 JUMPI PUSH0 PUSH0 REVERT JUMPDEST POP PUSH2 0x189 PUSH2 0x4AF CALLDATASIZE PUSH1 0x4 PUSH2 0x1A26 JUMP JUMPDEST PUSH2 0x1063 JUMP JUMPDEST CALLVALUE DUP1 ISZERO PUSH2 0x4BF JUMPI PUSH0 PUSH0 REVERT JUMPDEST POP PUSH2 0x4D3 PUSH2 0x4CE CALLDATASIZE PUSH1 0x4 PUSH2 0x1843 JUMP JUMPDEST PUSH2 0x10C1 JUMP JUMPDEST PUSH1 0x40 DUP1 MLOAD PUSH1 0x1 PUSH1 0x1 PUSH1 0xA0 SHL SUB SWAP1 SWAP4 AND DUP4 MSTORE PUSH1 0x20 DUP4 ADD SWAP2 SWAP1 SWAP2 MSTORE ADD PUSH2 0x1BA JUMP JUMPDEST CALLVALUE DUP1 ISZERO PUSH2 0x4FD JUMPI PUSH0 PUSH0 REVERT JUMPDEST POP PUSH2 0x2B2 PUSH2 0x50C CALLDATASIZE PUSH1 0x4 PUSH2 0x1922 JUMP JUMPDEST PUSH1 0xB PUSH1 0x20 MSTORE PUSH0 SWAP1 DUP2 MSTORE PUSH1 0x40 SWAP1 KECCAK256 SLOAD PUSH1 0xFF AND DUP2 JUMP JUMPDEST CALLVALUE DUP1 ISZERO PUSH2 0x52B JUMPI PUSH0 PUSH0 REVERT JUMPDEST POP PUSH2 0x189 PUSH2 0x53A CALLDATASIZE PUSH1 0x4 PUSH2 0x1AD3 JUMP JUMPDEST PUSH2 0x1103 JUMP JUMPDEST CALLVALUE DUP1 ISZERO PUSH2 0x54A JUMPI PUSH0 PUSH0 REVERT JUMPDEST POP PUSH2 0x189 PUSH2 0x559 CALLDATASIZE PUSH1 0x4 PUSH2 0x1AD3 JUMP JUMPDEST PUSH2 0x12B4 JUMP JUMPDEST CALLVALUE DUP1 ISZERO PUSH2 0x569 JUMPI PUSH0 PUSH0 REVERT JUMPDEST POP PUSH2 0x189 PUSH2 0x578 CALLDATASIZE PUSH1 0x4 PUSH2 0x1BC2 JUMP JUMPDEST PUSH2 0x1468 JUMP JUMPDEST CALLVALUE DUP1 ISZERO PUSH2 0x588 JUMPI PUSH0 PUSH0 REVERT JUMPDEST POP PUSH2 0x2B2 PUSH2 0x597 CALLDATASIZE PUSH1 0x4 PUSH2 0x1922 JUMP JUMPDEST PUSH1 0xA PUSH1 0x20 MSTORE PUSH0 SWAP1 DUP2 MSTORE PUSH1 0x40 SWAP1 KECCAK256 SLOAD PUSH1 0xFF AND DUP2 JUMP JUMPDEST CALLVALUE DUP1 ISZERO PUSH2 0x5B6 JUMPI PUSH0 PUSH0 REVERT JUMPDEST POP PUSH2 0x189 PUSH2 0x5C5 CALLDATASIZE PUSH1 0x4 PUSH2 0x1C31 JUMP JUMPDEST PUSH2 0x1632 JUMP JUMPDEST CALLVALUE DUP1 ISZERO PUSH2 0x5D5 JUMPI PUSH0 PUSH0 REVERT JUMPDEST POP PUSH2 0x26C PUSH32 0x0 DUP2 JUMP JUMPDEST CALLVALUE DUP1 ISZERO PUSH2 0x608 JUMPI PUSH0 PUSH0 REVERT JUMPDEST POP PUSH2 0x2B2 PUSH2 0x617 CALLDATASIZE PUSH1 0x4 PUSH2 0x1922 JUMP JUMPDEST PUSH2 0x16EC JUMP JUMPDEST PUSH1 0x9 PUSH1 0x20 MSTORE PUSH0 SWAP1 DUP2 MSTORE PUSH1 0x40 SWAP1 KECCAK256 DUP1 SLOAD PUSH1 0x1 DUP3 ADD SLOAD PUSH1 0x2 DUP4 ADD DUP1 SLOAD PUSH1 0x1 PUSH1 0x1 PUSH1 0xA0 SHL SUB SWAP4 DUP5 AND SWAP5 SWAP3 SWAP1 SWAP4 AND SWAP3 PUSH2 0x650 SWAP1 PUSH2 0x1CCD JUMP JUMPDEST DUP1 PUSH1 0x1F ADD PUSH1 0x20 DUP1 SWAP2 DIV MUL PUSH1 0x20 ADD PUSH1 0x40 MLOAD SWAP1 DUP2 ADD PUSH1 0x40 MSTORE DUP1 SWAP3 SWAP2 SWAP1 DUP2 DUP2 MSTORE PUSH1 0x20 ADD DUP3 DUP1 SLOAD PUSH2 0x67C SWAP1 PUSH2 0x1CCD JUMP JUMPDEST DUP1 ISZERO PUSH2 0x6C7 JUMPI DUP1 PUSH1 0x1F LT PUSH2 0x69E JUMPI PUSH2 0x100 DUP1 DUP4 SLOAD DIV MUL DUP4 MSTORE SWAP2 PUSH1 0x20 ADD SWAP2 PUSH2 0x6C7 JUMP JUMPDEST DUP3 ADD SWAP2 SWAP1 PUSH0 MSTORE PUSH1 0x20 PUSH0 KECCAK256 SWAP1 JUMPDEST DUP2 SLOAD DUP2 MSTORE SWAP1 PUSH1 0x1 ADD SWAP1 PUSH1 0x20 ADD DUP1 DUP4 GT PUSH2 0x6AA JUMPI DUP3 SWAP1 SUB PUSH1 0x1F AND DUP3 ADD SWAP2 JUMPDEST POP POP POP POP POP SWAP1 DUP1 PUSH1 0x3 ADD SLOAD SWAP1 POP DUP5 JUMP JUMPDEST PUSH2 0x6DF PUSH2 0x1783 JUMP JUMPDEST CALLER PUSH0 DUP2 DUP2 MSTORE PUSH1 0xC PUSH1 0x20 MSTORE PUSH1 0x40 SWAP1 KECCAK256 SLOAD PUSH1 0xFF AND PUSH2 0x70E JUMPI PUSH1 0x40 MLOAD PUSH4 0x3FEAE729 PUSH1 0xE1 SHL DUP2 MSTORE PUSH1 0x4 ADD PUSH1 0x40 MLOAD DUP1 SWAP2 SUB SWAP1 REVERT JUMPDEST PUSH0 DUP3 GT PUSH2 0x755 JUMPI PUSH1 0x40 MLOAD PUSH3 0x461BCD PUSH1 0xE5 SHL DUP2 MSTORE PUSH1 0x20 PUSH1 0x4 DUP3 ADD MSTORE PUSH1 0x10 PUSH1 0x24 DUP3 ADD MSTORE PUSH16 0x111053D25B9D985B1A59105B5BDD5B9D PUSH1 0x82 SHL PUSH1 0x44 DUP3 ADD MSTORE PUSH1 0x64 ADD JUMPDEST PUSH1 0x40 MLOAD DUP1 SWAP2 SUB SWAP1 REVERT JUMPDEST DUP2 SELFBALANCE LT ISZERO PUSH2 0x79E JUMPI PUSH1 0x40 MLOAD PUSH3 0x461BCD PUSH1 0xE5 SHL DUP2 MSTORE PUSH1 0x20 PUSH1 0x4 DUP3 ADD MSTORE PUSH1 0x16 PUSH1 0x24 DUP3 ADD MSTORE PUSH22 0x44414F496E73756666696369656E7442616C616E6365 PUSH1 0x50 SHL PUSH1 0x44 DUP3 ADD MSTORE PUSH1 0x64 ADD PUSH2 0x74C JUMP JUMPDEST PUSH0 DUP4 PUSH1 0x1 PUSH1 0x1 PUSH1 0xA0 SHL SUB AND DUP4 PUSH1 0x40 MLOAD PUSH0 PUSH1 0x40 MLOAD DUP1 DUP4 SUB DUP2 DUP6 DUP8 GAS CALL SWAP3 POP POP POP RETURNDATASIZE DUP1 PUSH0 DUP2 EQ PUSH2 0x7E7 JUMPI PUSH1 0x40 MLOAD SWAP2 POP PUSH1 0x1F NOT PUSH1 0x3F RETURNDATASIZE ADD AND DUP3 ADD PUSH1 0x40 MSTORE RETURNDATASIZE DUP3 MSTORE RETURNDATASIZE PUSH0 PUSH1 0x20 DUP5 ADD RETURNDATACOPY PUSH2 0x7EC JUMP JUMPDEST PUSH1 0x60 SWAP2 POP JUMPDEST POP POP SWAP1 POP DUP1 PUSH2 0x82F JUMPI PUSH1 0x40 MLOAD PUSH3 0x461BCD PUSH1 0xE5 SHL DUP2 MSTORE PUSH1 0x20 PUSH1 0x4 DUP3 ADD MSTORE PUSH1 0xF PUSH1 0x24 DUP3 ADD MSTORE PUSH15 0x151C985B9CD9995C8811985A5B1959 PUSH1 0x8A SHL PUSH1 0x44 DUP3 ADD MSTORE PUSH1 0x64 ADD PUSH2 0x74C JUMP JUMPDEST POP POP PUSH2 0x83A PUSH1 0x1 PUSH0 SSTORE JUMP JUMPDEST POP POP JUMP JUMPDEST CALLER PUSH0 DUP2 DUP2 MSTORE PUSH1 0xC PUSH1 0x20 MSTORE PUSH1 0x40 SWAP1 KECCAK256 SLOAD PUSH1 0xFF AND PUSH2 0x86D JUMPI PUSH1 0x40 MLOAD PUSH4 0x3FEAE729 PUSH1 0xE1 SHL DUP2 MSTORE PUSH1 0x4 ADD PUSH1 0x40 MLOAD DUP1 SWAP2 SUB SWAP1 REVERT JUMPDEST POP DUP1 MLOAD PUSH1 0x3 DUP1 SLOAD PUSH1 0xFF NOT AND SWAP2 ISZERO ISZERO SWAP2 SWAP1 SWAP2 OR SWAP1 SSTORE PUSH1 0x20 ADD MLOAD PUSH1 0x4 SSTORE JUMP JUMPDEST CALLER PUSH0 DUP2 DUP2 MSTORE PUSH1 0xB PUSH1 0x20 MSTORE PUSH1 0x40 SWAP1 KECCAK256 SLOAD PUSH1 0xFF AND DUP1 PUSH2 0x8B5 JUMPI POP CALLER PUSH0 SWAP1 DUP2 MSTORE PUSH1 0xC PUSH1 0x20 MSTORE PUSH1 0x40 SWAP1 KECCAK256 SLOAD PUSH1 0xFF AND JUMPDEST PUSH2 0x8D2 JUMPI PUSH1 0x40 MLOAD PUSH4 0x2C972A5F PUSH1 0xE0 SHL DUP2 MSTORE PUSH1 0x4 ADD PUSH1 0x40 MLOAD DUP1 SWAP2 SUB SWAP1 REVERT JUMPDEST PUSH1 0x1 PUSH1 0x1 PUSH1 0xA0 SHL SUB DUP2 AND PUSH0 SWAP1 DUP2 MSTORE PUSH1 0xA PUSH1 0x20 MSTORE PUSH1 0x40 SWAP1 KECCAK256 SLOAD PUSH1 0xFF AND ISZERO PUSH2 0x90B JUMPI PUSH1 0x40 MLOAD PUSH4 0xC8E5275B PUSH1 0xE0 SHL DUP2 MSTORE PUSH1 0x4 ADD PUSH1 0x40 MLOAD DUP1 SWAP2 SUB SWAP1 REVERT JUMPDEST PUSH1 0x1 PUSH1 0x1 PUSH1 0xA0 SHL SUB DUP3 AND PUSH2 0x961 JUMPI PUSH1 0x40 MLOAD PUSH3 0x461BCD PUSH1 0xE5 SHL DUP2 MSTORE PUSH1 0x20 PUSH1 0x4 DUP3 ADD MSTORE PUSH1 0x17 PUSH1 0x24 DUP3 ADD MSTORE PUSH32 0x43616E6E6F742064656C656761746520746F207A65726F000000000000000000 PUSH1 0x44 DUP3 ADD MSTORE PUSH1 0x64 ADD PUSH2 0x74C JUMP JUMPDEST PUSH1 0x40 MLOAD PUSH4 0x70A08231 PUSH1 0xE0 SHL DUP2 MSTORE CALLER PUSH1 0x4 DUP3 ADD MSTORE PUSH0 SWAP1 PUSH32 0x0 PUSH1 0x1 PUSH1 0x1 PUSH1 0xA0 SHL SUB AND SWAP1 PUSH4 0x70A08231 SWAP1 PUSH1 0x24 ADD PUSH1 0x20 PUSH1 0x40 MLOAD DUP1 DUP4 SUB DUP2 DUP7 GAS STATICCALL ISZERO DUP1 ISZERO PUSH2 0x9C5 JUMPI RETURNDATASIZE PUSH0 PUSH0 RETURNDATACOPY RETURNDATASIZE PUSH0 REVERT JUMPDEST POP POP POP POP PUSH1 0x40 MLOAD RETURNDATASIZE PUSH1 0x1F NOT PUSH1 0x1F DUP3 ADD AND DUP3 ADD DUP1 PUSH1 0x40 MSTORE POP DUP2 ADD SWAP1 PUSH2 0x9E9 SWAP2 SWAP1 PUSH2 0x1CFF JUMP JUMPDEST LT ISZERO PUSH2 0xA2E JUMPI PUSH1 0x40 MLOAD PUSH3 0x461BCD PUSH1 0xE5 SHL DUP2 MSTORE PUSH1 0x20 PUSH1 0x4 DUP3 ADD MSTORE PUSH1 0x14 PUSH1 0x24 DUP3 ADD MSTORE PUSH20 0x2D32B937902232B632B3B0BA32B2102837BBB2B9 PUSH1 0x61 SHL PUSH1 0x44 DUP3 ADD MSTORE PUSH1 0x64 ADD PUSH2 0x74C JUMP JUMPDEST PUSH1 0x1 PUSH1 0x1 PUSH1 0xA0 SHL SUB DUP3 DUP2 AND PUSH0 DUP2 DUP2 MSTORE PUSH1 0xE PUSH1 0x20 MSTORE PUSH1 0x40 SWAP1 DUP2 SWAP1 KECCAK256 DUP1 SLOAD PUSH1 0x1 PUSH1 0x1 PUSH1 0xA0 SHL SUB NOT AND CALLER OR SWAP1 SSTORE MLOAD PUSH4 0x17066A57 PUSH1 0xE2 SHL DUP2 MSTORE PUSH1 0x4 DUP2 ADD SWAP2 SWAP1 SWAP2 MSTORE PUSH32 0x0 SWAP1 SWAP2 AND SWAP1 PUSH4 0x5C19A95C SWAP1 PUSH1 0x24 ADD JUMPDEST PUSH0 PUSH1 0x40 MLOAD DUP1 DUP4 SUB DUP2 PUSH0 DUP8 DUP1 EXTCODESIZE ISZERO DUP1 ISZERO PUSH2 0xAB1 JUMPI PUSH0 PUSH0 REVERT JUMPDEST POP GAS CALL ISZERO DUP1 ISZERO PUSH2 0xAC3 JUMPI RETURNDATASIZE PUSH0 PUSH0 RETURNDATACOPY RETURNDATASIZE PUSH0 REVERT JUMPDEST POP POP POP POP POP POP JUMP JUMPDEST PUSH2 0xAD3 PUSH2 0x1783 JUMP JUMPDEST CALLER PUSH0 DUP2 DUP2 MSTORE PUSH1 0xC PUSH1 0x20 MSTORE PUSH1 0x40 SWAP1 KECCAK256 SLOAD PUSH1 0xFF AND PUSH2 0xB02 JUMPI PUSH1 0x40 MLOAD PUSH4 0x3FEAE729 PUSH1 0xE1 SHL DUP2 MSTORE PUSH1 0x4 ADD PUSH1 0x40 MLOAD DUP1 SWAP2 SUB SWAP1 REVERT JUMPDEST PUSH0 DUP3 GT PUSH2 0xB65 JUMPI PUSH1 0x40 MLOAD PUSH3 0x461BCD PUSH1 0xE5 SHL DUP2 MSTORE PUSH1 0x20 PUSH1 0x4 DUP3 ADD MSTORE PUSH1 0x2B PUSH1 0x24 DUP3 ADD MSTORE PUSH32 0x5769746864726177616C20616D6F756E74206D75737420626520677265617465 PUSH1 0x44 DUP3 ADD MSTORE PUSH11 0x72207468616E207A65726F PUSH1 0xA8 SHL PUSH1 0x64 DUP3 ADD MSTORE PUSH1 0x84 ADD PUSH2 0x74C JUMP JUMPDEST PUSH1 0x40 MLOAD PUSH4 0x70A08231 PUSH1 0xE0 SHL DUP2 MSTORE ADDRESS PUSH1 0x4 DUP3 ADD MSTORE DUP5 SWAP1 DUP4 SWAP1 PUSH1 0x1 PUSH1 0x1 PUSH1 0xA0 SHL SUB DUP4 AND SWAP1 PUSH4 0x70A08231 SWAP1 PUSH1 0x24 ADD PUSH1 0x20 PUSH1 0x40 MLOAD DUP1 DUP4 SUB DUP2 DUP7 GAS STATICCALL ISZERO DUP1 ISZERO PUSH2 0xBAB JUMPI RETURNDATASIZE PUSH0 PUSH0 RETURNDATACOPY RETURNDATASIZE PUSH0 REVERT JUMPDEST POP POP POP POP PUSH1 0x40 MLOAD RETURNDATASIZE PUSH1 0x1F NOT PUSH1 0x1F DUP3 ADD AND DUP3 ADD DUP1 PUSH1 0x40 MSTORE POP DUP2 ADD SWAP1 PUSH2 0xBCF SWAP2 SWAP1 PUSH2 0x1CFF JUMP JUMPDEST LT ISZERO PUSH2 0xC1D JUMPI PUSH1 0x40 MLOAD PUSH3 0x461BCD PUSH1 0xE5 SHL DUP2 MSTORE PUSH1 0x20 PUSH1 0x4 DUP3 ADD MSTORE PUSH1 0x1D PUSH1 0x24 DUP3 ADD MSTORE PUSH32 0x496E73756666696369656E742074726561737572792062616C616E6365000000 PUSH1 0x44 DUP3 ADD MSTORE PUSH1 0x64 ADD PUSH2 0x74C JUMP JUMPDEST PUSH1 0x40 MLOAD PUSH4 0xA9059CBB PUSH1 0xE0 SHL DUP2 MSTORE PUSH1 0x1 PUSH1 0x1 PUSH1 0xA0 SHL SUB DUP6 DUP2 AND PUSH1 0x4 DUP4 ADD MSTORE PUSH1 0x24 DUP3 ADD DUP6 SWAP1 MSTORE PUSH0 SWAP2 SWAP1 DUP4 AND SWAP1 PUSH4 0xA9059CBB SWAP1 PUSH1 0x44 ADD PUSH1 0x20 PUSH1 0x40 MLOAD DUP1 DUP4 SUB DUP2 PUSH0 DUP8 GAS CALL ISZERO DUP1 ISZERO PUSH2 0xC6C JUMPI RETURNDATASIZE PUSH0 PUSH0 RETURNDATACOPY RETURNDATASIZE PUSH0 REVERT JUMPDEST POP POP POP POP PUSH1 0x40 MLOAD RETURNDATASIZE PUSH1 0x1F NOT PUSH1 0x1F DUP3 ADD AND DUP3 ADD DUP1 PUSH1 0x40 MSTORE POP DUP2 ADD SWAP1 PUSH2 0xC90 SWAP2 SWAP1 PUSH2 0x1D16 JUMP JUMPDEST SWAP1 POP DUP1 PUSH2 0xCD7 JUMPI PUSH1 0x40 MLOAD PUSH3 0x461BCD PUSH1 0xE5 SHL DUP2 MSTORE PUSH1 0x20 PUSH1 0x4 DUP3 ADD MSTORE PUSH1 0x15 PUSH1 0x24 DUP3 ADD MSTORE PUSH21 0x151BDAD95B881D1C985B9CD9995C8819985A5B1959 PUSH1 0x5A SHL PUSH1 0x44 DUP3 ADD MSTORE PUSH1 0x64 ADD PUSH2 0x74C JUMP JUMPDEST POP POP POP PUSH2 0xCE3 PUSH1 0x1 PUSH0 SSTORE JUMP JUMPDEST POP POP POP JUMP JUMPDEST PUSH1 0x1 DUP1 SLOAD DUP2 SWAP1 PUSH2 0xCF7 SWAP1 PUSH2 0x1CCD JUMP JUMPDEST DUP1 PUSH1 0x1F ADD PUSH1 0x20 DUP1 SWAP2 DIV MUL PUSH1 0x20 ADD PUSH1 0x40 MLOAD SWAP1 DUP2 ADD PUSH1 0x40 MSTORE DUP1 SWAP3 SWAP2 SWAP1 DUP2 DUP2 MSTORE PUSH1 0x20 ADD DUP3 DUP1 SLOAD PUSH2 0xD23 SWAP1 PUSH2 0x1CCD JUMP JUMPDEST DUP1 ISZERO PUSH2 0xD6E JUMPI DUP1 PUSH1 0x1F LT PUSH2 0xD45 JUMPI PUSH2 0x100 DUP1 DUP4 SLOAD DIV MUL DUP4 MSTORE SWAP2 PUSH1 0x20 ADD SWAP2 PUSH2 0xD6E JUMP JUMPDEST DUP3 ADD SWAP2 SWAP1 PUSH0 MSTORE PUSH1 0x20 PUSH0 KECCAK256 SWAP1 JUMPDEST DUP2 SLOAD DUP2 MSTORE SWAP1 PUSH1 0x1 ADD SWAP1 PUSH1 0x20 ADD DUP1 DUP4 GT PUSH2 0xD51 JUMPI DUP3 SWAP1 SUB PUSH1 0x1F AND DUP3 ADD SWAP2 JUMPDEST POP POP POP POP POP SWAP1 DUP1 PUSH1 0x1 ADD DUP1 SLOAD PUSH2 0xD83 SWAP1 PUSH2 0x1CCD JUMP JUMPDEST DUP1 PUSH1 0x1F ADD PUSH1 0x20 DUP1 SWAP2 DIV MUL PUSH1 0x20 ADD PUSH1 0x40 MLOAD SWAP1 DUP2 ADD PUSH1 0x40 MSTORE DUP1 SWAP3 SWAP2 SWAP1 DUP2 DUP2 MSTORE PUSH1 0x20 ADD DUP3 DUP1 SLOAD PUSH2 0xDAF SWAP1 PUSH2 0x1CCD JUMP JUMPDEST DUP1 ISZERO PUSH2 0xDFA JUMPI DUP1 PUSH1 0x1F LT PUSH2 0xDD1 JUMPI PUSH2 0x100 DUP1 DUP4 SLOAD DIV MUL DUP4 MSTORE SWAP2 PUSH1 0x20 ADD SWAP2 PUSH2 0xDFA JUMP JUMPDEST DUP3 ADD SWAP2 SWAP1 PUSH0 MSTORE PUSH1 0x20 PUSH0 KECCAK256 SWAP1 JUMPDEST DUP2 SLOAD DUP2 MSTORE SWAP1 PUSH1 0x1 ADD SWAP1 PUSH1 0x20 ADD DUP1 DUP4 GT PUSH2 0xDDD JUMPI DUP3 SWAP1 SUB PUSH1 0x1F AND DUP3 ADD SWAP2 JUMPDEST POP POP POP POP POP SWAP1 POP DUP3 JUMP JUMPDEST CALLER PUSH0 DUP2 DUP2 MSTORE PUSH1 0xB PUSH1 0x20 MSTORE PUSH1 0x40 SWAP1 KECCAK256 SLOAD PUSH1 0xFF AND DUP1 PUSH2 0xE2F JUMPI POP CALLER PUSH0 SWAP1 DUP2 MSTORE PUSH1 0xC PUSH1 0x20 MSTORE PUSH1 0x40 SWAP1 KECCAK256 SLOAD PUSH1 0xFF AND JUMPDEST PUSH2 0xE4C JUMPI PUSH1 0x40 MLOAD PUSH4 0x2C972A5F PUSH1 0xE0 SHL DUP2 MSTORE PUSH1 0x4 ADD PUSH1 0x40 MLOAD DUP1 SWAP2 SUB SWAP1 REVERT JUMPDEST PUSH1 0x1 PUSH1 0x1 PUSH1 0xA0 SHL SUB DUP2 AND PUSH0 SWAP1 DUP2 MSTORE PUSH1 0xA PUSH1 0x20 MSTORE PUSH1 0x40 SWAP1 KECCAK256 SLOAD PUSH1 0xFF AND ISZERO PUSH2 0xE85 JUMPI PUSH1 0x40 MLOAD PUSH4 0xC8E5275B PUSH1 0xE0 SHL DUP2 MSTORE PUSH1 0x4 ADD PUSH1 0x40 MLOAD DUP1 SWAP2 SUB SWAP1 REVERT JUMPDEST PUSH1 0x40 MLOAD PUSH4 0x2C3E6F0F PUSH1 0xE1 SHL DUP2 MSTORE CALLER PUSH1 0x4 DUP3 ADD MSTORE PUSH0 SWAP1 PUSH1 0x1 PUSH1 0x1 PUSH1 0xA0 SHL SUB PUSH32 0x0 AND SWAP1 PUSH4 0x587CDE1E SWAP1 PUSH1 0x24 ADD PUSH1 0x20 PUSH1 0x40 MLOAD DUP1 DUP4 SUB DUP2 DUP7 GAS STATICCALL ISZERO DUP1 ISZERO PUSH2 0xEE9 JUMPI RETURNDATASIZE PUSH0 PUSH0 RETURNDATACOPY RETURNDATASIZE PUSH0 REVERT JUMPDEST POP POP POP POP PUSH1 0x40 MLOAD RETURNDATASIZE PUSH1 0x1F NOT PUSH1 0x1F DUP3 ADD AND DUP3 ADD DUP1 PUSH1 0x40 MSTORE POP DUP2 ADD SWAP1 PUSH2 0xF0D SWAP2 SWAP1 PUSH2 0x1D31 JUMP JUMPDEST PUSH1 0x1 PUSH1 0x1 PUSH1 0xA0 SHL SUB AND SUB PUSH2 0xF6E JUMPI PUSH1 0x40 MLOAD PUSH3 0x461BCD PUSH1 0xE5 SHL DUP2 MSTORE PUSH1 0x20 PUSH1 0x4 DUP3 ADD MSTORE PUSH1 0x22 PUSH1 0x24 DUP3 ADD MSTORE PUSH32 0x596F7520646F6E277420686176652064656C6567617465732C20746F20636C61 PUSH1 0x44 DUP3 ADD MSTORE PUSH2 0x696D PUSH1 0xF0 SHL PUSH1 0x64 DUP3 ADD MSTORE PUSH1 0x84 ADD PUSH2 0x74C JUMP JUMPDEST PUSH1 0x40 MLOAD PUSH4 0x2C3E6F0F PUSH1 0xE1 SHL DUP2 MSTORE CALLER PUSH1 0x4 DUP3 ADD MSTORE PUSH0 SWAP1 PUSH32 0x0 PUSH1 0x1 PUSH1 0x1 PUSH1 0xA0 SHL SUB AND SWAP1 PUSH4 0x587CDE1E SWAP1 PUSH1 0x24 ADD PUSH1 0x20 PUSH1 0x40 MLOAD DUP1 DUP4 SUB DUP2 DUP7 GAS STATICCALL ISZERO DUP1 ISZERO PUSH2 0xFD2 JUMPI RETURNDATASIZE PUSH0 PUSH0 RETURNDATACOPY RETURNDATASIZE PUSH0 REVERT JUMPDEST POP POP POP POP PUSH1 0x40 MLOAD RETURNDATASIZE PUSH1 0x1F NOT PUSH1 0x1F DUP3 ADD AND DUP3 ADD DUP1 PUSH1 0x40 MSTORE POP DUP2 ADD SWAP1 PUSH2 0xFF6 SWAP2 SWAP1 PUSH2 0x1D31 JUMP JUMPDEST PUSH1 0x1 PUSH1 0x1 PUSH1 0xA0 SHL SUB DUP2 DUP2 AND PUSH0 SWAP1 DUP2 MSTORE PUSH1 0xE PUSH1 0x20 MSTORE PUSH1 0x40 SWAP1 DUP2 SWAP1 KECCAK256 DUP1 SLOAD PUSH1 0x1 PUSH1 0x1 PUSH1 0xA0 SHL SUB NOT AND SWAP1 SSTORE MLOAD PUSH4 0x17066A57 PUSH1 0xE2 SHL DUP2 MSTORE CALLER PUSH1 0x4 DUP3 ADD MSTORE SWAP2 SWAP3 POP PUSH32 0x0 AND SWAP1 PUSH4 0x5C19A95C SWAP1 PUSH1 0x24 ADD PUSH2 0xA9A JUMP JUMPDEST CALLER PUSH0 DUP2 DUP2 MSTORE PUSH1 0xC PUSH1 0x20 MSTORE PUSH1 0x40 SWAP1 KECCAK256 SLOAD PUSH1 0xFF AND PUSH2 0x1092 JUMPI PUSH1 0x40 MLOAD PUSH4 0x3FEAE729 PUSH1 0xE1 SHL DUP2 MSTORE PUSH1 0x4 ADD PUSH1 0x40 MLOAD DUP1 SWAP2 SUB SWAP1 REVERT JUMPDEST DUP2 MLOAD DUP3 SWAP1 PUSH1 0x1 SWAP1 DUP2 SWAP1 PUSH2 0x10A5 SWAP1 DUP3 PUSH2 0x1D90 JUMP JUMPDEST POP PUSH1 0x20 DUP3 ADD MLOAD PUSH1 0x1 DUP3 ADD SWAP1 PUSH2 0x10BA SWAP1 DUP3 PUSH2 0x1D90 JUMP JUMPDEST POP POP POP POP POP JUMP JUMPDEST PUSH1 0xF PUSH1 0x20 MSTORE DUP2 PUSH0 MSTORE PUSH1 0x40 PUSH0 KECCAK256 DUP2 DUP2 SLOAD DUP2 LT PUSH2 0x10DA JUMPI PUSH0 DUP1 REVERT JUMPDEST PUSH0 SWAP2 DUP3 MSTORE PUSH1 0x20 SWAP1 SWAP2 KECCAK256 PUSH1 0x2 SWAP1 SWAP2 MUL ADD DUP1 SLOAD PUSH1 0x1 SWAP1 SWAP2 ADD SLOAD PUSH1 0x1 PUSH1 0x1 PUSH1 0xA0 SHL SUB SWAP1 SWAP2 AND SWAP3 POP SWAP1 POP DUP3 JUMP JUMPDEST CALLER PUSH0 SWAP1 DUP2 MSTORE PUSH1 0xB PUSH1 0x20 MSTORE PUSH1 0x40 SWAP1 KECCAK256 SLOAD PUSH1 0xFF AND DUP1 ISZERO PUSH2 0x1121 JUMPI POP PUSH1 0x8 SLOAD ISZERO JUMPDEST DUP1 PUSH2 0x113A JUMPI POP CALLER PUSH0 SWAP1 DUP2 MSTORE PUSH1 0xC PUSH1 0x20 MSTORE PUSH1 0x40 SWAP1 KECCAK256 SLOAD PUSH1 0xFF AND JUMPDEST PUSH2 0x1157 JUMPI PUSH1 0x40 MLOAD PUSH4 0x2C972A5F PUSH1 0xE0 SHL DUP2 MSTORE PUSH1 0x4 ADD PUSH1 0x40 MLOAD DUP1 SWAP2 SUB SWAP1 REVERT JUMPDEST PUSH0 JUMPDEST DUP2 MLOAD DUP2 PUSH4 0xFFFFFFFF AND LT ISZERO PUSH2 0x83A JUMPI PUSH0 DUP3 DUP3 PUSH4 0xFFFFFFFF AND DUP2 MLOAD DUP2 LT PUSH2 0x1181 JUMPI PUSH2 0x1181 PUSH2 0x1E4B JUMP JUMPDEST PUSH1 0x20 MUL PUSH1 0x20 ADD ADD MLOAD PUSH0 ADD MLOAD SWAP1 POP PUSH0 DUP4 DUP4 PUSH4 0xFFFFFFFF AND DUP2 MLOAD DUP2 LT PUSH2 0x11A7 JUMPI PUSH2 0x11A7 PUSH2 0x1E4B JUMP JUMPDEST PUSH1 0x20 SWAP1 DUP2 MUL SWAP2 SWAP1 SWAP2 ADD DUP2 ADD MLOAD DUP2 ADD MLOAD PUSH1 0x1 PUSH1 0x1 PUSH1 0xA0 SHL SUB DUP5 AND PUSH0 SWAP1 DUP2 MSTORE PUSH1 0xB SWAP1 SWAP3 MSTORE PUSH1 0x40 SWAP1 SWAP2 KECCAK256 SLOAD SWAP1 SWAP2 POP PUSH1 0xFF AND PUSH2 0x1210 JUMPI PUSH1 0x1 PUSH1 0x1 PUSH1 0xA0 SHL SUB DUP3 AND PUSH0 SWAP1 DUP2 MSTORE PUSH1 0xB PUSH1 0x20 MSTORE PUSH1 0x40 DUP2 KECCAK256 DUP1 SLOAD PUSH1 0xFF NOT AND PUSH1 0x1 OR SWAP1 SSTORE PUSH1 0x8 DUP1 SLOAD SWAP1 SWAP2 SWAP1 PUSH2 0x120B SWAP1 PUSH2 0x1E73 JUMP JUMPDEST SWAP1 SWAP2 SSTORE POP JUMPDEST PUSH1 0x6 SLOAD PUSH1 0x1 PUSH1 0xA0 SHL SWAP1 DIV PUSH1 0xFF AND PUSH2 0x129F JUMPI PUSH1 0x40 MLOAD PUSH4 0x73A14035 PUSH1 0xE1 SHL DUP2 MSTORE PUSH1 0x1 PUSH1 0x1 PUSH1 0xA0 SHL SUB DUP4 DUP2 AND PUSH1 0x4 DUP4 ADD MSTORE PUSH1 0x24 DUP3 ADD DUP4 SWAP1 MSTORE PUSH32 0x0 AND SWAP1 PUSH4 0xE742806A SWAP1 PUSH1 0x44 ADD PUSH0 PUSH1 0x40 MLOAD DUP1 DUP4 SUB DUP2 PUSH0 DUP8 DUP1 EXTCODESIZE ISZERO DUP1 ISZERO PUSH2 0x1288 JUMPI PUSH0 PUSH0 REVERT JUMPDEST POP GAS CALL ISZERO DUP1 ISZERO PUSH2 0x129A JUMPI RETURNDATASIZE PUSH0 PUSH0 RETURNDATACOPY RETURNDATASIZE PUSH0 REVERT JUMPDEST POP POP POP POP JUMPDEST POP POP DUP1 DUP1 PUSH2 0x12AC SWAP1 PUSH2 0x1E8B JUMP JUMPDEST SWAP2 POP POP PUSH2 0x1159 JUMP JUMPDEST PUSH1 0x6 SLOAD PUSH1 0x1 PUSH1 0xA0 SHL SWAP1 DIV PUSH1 0xFF AND PUSH2 0x12DE JUMPI PUSH1 0x40 MLOAD PUSH4 0x3FEAE729 PUSH1 0xE1 SHL DUP2 MSTORE PUSH1 0x4 ADD PUSH1 0x40 MLOAD DUP1 SWAP2 SUB SWAP1 REVERT JUMPDEST CALLER PUSH0 SWAP1 DUP2 MSTORE PUSH1 0xC PUSH1 0x20 MSTORE PUSH1 0x40 SWAP1 KECCAK256 SLOAD PUSH1 0xFF AND PUSH2 0x130D JUMPI PUSH1 0x40 MLOAD PUSH4 0x3FEAE729 PUSH1 0xE1 SHL DUP2 MSTORE PUSH1 0x4 ADD PUSH1 0x40 MLOAD DUP1 SWAP2 SUB SWAP1 REVERT JUMPDEST PUSH0 JUMPDEST DUP2 MLOAD DUP2 PUSH4 0xFFFFFFFF AND LT ISZERO PUSH2 0x83A JUMPI PUSH0 DUP3 DUP3 PUSH4 0xFFFFFFFF AND DUP2 MLOAD DUP2 LT PUSH2 0x1337 JUMPI PUSH2 0x1337 PUSH2 0x1E4B JUMP JUMPDEST PUSH1 0x20 MUL PUSH1 0x20 ADD ADD MLOAD PUSH0 ADD MLOAD SWAP1 POP PUSH0 DUP4 DUP4 PUSH4 0xFFFFFFFF AND DUP2 MLOAD DUP2 LT PUSH2 0x135D JUMPI PUSH2 0x135D PUSH2 0x1E4B JUMP JUMPDEST PUSH1 0x20 SWAP1 DUP2 MUL SWAP2 SWAP1 SWAP2 ADD DUP2 ADD MLOAD DUP2 ADD MLOAD PUSH1 0x1 PUSH1 0x1 PUSH1 0xA0 SHL SUB DUP5 AND PUSH0 SWAP1 DUP2 MSTORE PUSH1 0xB SWAP1 SWAP3 MSTORE PUSH1 0x40 SWAP1 SWAP2 KECCAK256 SLOAD SWAP1 SWAP2 POP PUSH1 0xFF AND ISZERO PUSH2 0x13C4 JUMPI PUSH1 0x1 PUSH1 0x1 PUSH1 0xA0 SHL SUB DUP3 AND PUSH0 SWAP1 DUP2 MSTORE PUSH1 0xB PUSH1 0x20 MSTORE PUSH1 0x40 DUP2 KECCAK256 DUP1 SLOAD PUSH1 0xFF NOT AND SWAP1 SSTORE PUSH1 0x8 DUP1 SLOAD SWAP1 SWAP2 SWAP1 PUSH2 0x13BF SWAP1 PUSH2 0x1EAF JUMP JUMPDEST SWAP1 SWAP2 SSTORE POP JUMPDEST PUSH1 0x6 SLOAD PUSH1 0x1 PUSH1 0xA0 SHL SWAP1 DIV PUSH1 0xFF AND PUSH2 0x1453 JUMPI PUSH1 0x40 MLOAD PUSH4 0xAECF8A6D PUSH1 0xE0 SHL DUP2 MSTORE PUSH1 0x1 PUSH1 0x1 PUSH1 0xA0 SHL SUB DUP4 DUP2 AND PUSH1 0x4 DUP4 ADD MSTORE PUSH1 0x24 DUP3 ADD DUP4 SWAP1 MSTORE PUSH32 0x0 AND SWAP1 PUSH4 0xAECF8A6D SWAP1 PUSH1 0x44 ADD PUSH0 PUSH1 0x40 MLOAD DUP1 DUP4 SUB DUP2 PUSH0 DUP8 DUP1 EXTCODESIZE ISZERO DUP1 ISZERO PUSH2 0x143C JUMPI PUSH0 PUSH0 REVERT JUMPDEST POP GAS CALL ISZERO DUP1 ISZERO PUSH2 0x144E JUMPI RETURNDATASIZE PUSH0 PUSH0 RETURNDATACOPY RETURNDATASIZE PUSH0 REVERT JUMPDEST POP POP POP POP JUMPDEST POP POP DUP1 DUP1 PUSH2 0x1460 SWAP1 PUSH2 0x1E8B JUMP JUMPDEST SWAP2 POP POP PUSH2 0x130F JUMP JUMPDEST CALLER PUSH1 0x1 PUSH1 0x1 PUSH1 0xA0 SHL SUB DUP6 AND EQ PUSH2 0x1491 JUMPI PUSH1 0x40 MLOAD PUSH4 0x3FEAE729 PUSH1 0xE1 SHL DUP2 MSTORE PUSH1 0x4 ADD PUSH1 0x40 MLOAD DUP1 SWAP2 SUB SWAP1 REVERT JUMPDEST PUSH1 0x40 DUP1 MLOAD PUSH1 0x80 DUP2 ADD DUP3 MSTORE PUSH1 0x1 PUSH1 0x1 PUSH1 0xA0 SHL SUB DUP1 DUP8 AND DUP3 MSTORE DUP6 DUP2 AND PUSH1 0x20 DUP1 DUP5 ADD SWAP2 DUP3 MSTORE DUP4 DUP6 ADD DUP8 DUP2 MSTORE PUSH1 0x7 SLOAD PUSH1 0x60 DUP7 ADD DUP2 SWAP1 MSTORE PUSH0 SWAP1 DUP2 MSTORE PUSH1 0x9 SWAP1 SWAP3 MSTORE SWAP5 SWAP1 KECCAK256 DUP4 MLOAD DUP2 SLOAD SWAP1 DUP5 AND PUSH1 0x1 PUSH1 0x1 PUSH1 0xA0 SHL SUB NOT SWAP2 DUP3 AND OR DUP3 SSTORE SWAP2 MLOAD PUSH1 0x1 DUP3 ADD DUP1 SLOAD SWAP2 SWAP1 SWAP5 AND SWAP3 AND SWAP2 SWAP1 SWAP2 OR SWAP1 SWAP2 SSTORE SWAP2 MLOAD SWAP1 SWAP2 SWAP1 PUSH1 0x2 DUP3 ADD SWAP1 PUSH2 0x150E SWAP1 DUP3 PUSH2 0x1D90 JUMP JUMPDEST POP PUSH1 0x60 SWAP2 SWAP1 SWAP2 ADD MLOAD PUSH1 0x3 SWAP1 SWAP2 ADD SSTORE PUSH1 0x4 PUSH1 0xFF DUP3 AND GT PUSH2 0x15F6 JUMPI PUSH0 DUP2 PUSH1 0xFF AND PUSH1 0x5 DUP2 GT ISZERO PUSH2 0x153D JUMPI PUSH2 0x153D PUSH2 0x1EC4 JUMP JUMPDEST SWAP1 POP PUSH0 DUP2 PUSH1 0x5 DUP2 GT ISZERO PUSH2 0x1552 JUMPI PUSH2 0x1552 PUSH2 0x1EC4 JUMP JUMPDEST EQ DUP1 PUSH2 0x156F JUMPI POP PUSH1 0x5 DUP2 PUSH1 0x5 DUP2 GT ISZERO PUSH2 0x156D JUMPI PUSH2 0x156D PUSH2 0x1EC4 JUMP JUMPDEST EQ JUMPDEST ISZERO PUSH2 0x15F4 JUMPI PUSH1 0x40 MLOAD PUSH4 0x28AFEB53 PUSH1 0xE2 SHL DUP2 MSTORE PUSH1 0x1 PUSH1 0x1 PUSH1 0xA0 SHL SUB DUP7 DUP2 AND PUSH1 0x4 DUP4 ADD MSTORE PUSH1 0xFF DUP5 AND PUSH1 0x24 DUP4 ADD MSTORE PUSH32 0x0 AND SWAP1 PUSH4 0xA2BFAD4C SWAP1 PUSH1 0x44 ADD PUSH0 PUSH1 0x40 MLOAD DUP1 DUP4 SUB DUP2 PUSH0 DUP8 DUP1 EXTCODESIZE ISZERO DUP1 ISZERO PUSH2 0x15DD JUMPI PUSH0 PUSH0 REVERT JUMPDEST POP GAS CALL ISZERO DUP1 ISZERO PUSH2 0x15EF JUMPI RETURNDATASIZE PUSH0 PUSH0 RETURNDATACOPY RETURNDATASIZE PUSH0 REVERT JUMPDEST POP POP POP POP JUMPDEST POP JUMPDEST PUSH1 0x7 DUP1 SLOAD SWAP1 PUSH0 PUSH2 0x1605 DUP4 PUSH2 0x1E73 JUMP JUMPDEST SWAP1 SWAP2 SSTORE POP POP POP PUSH1 0x1 PUSH1 0x1 PUSH1 0xA0 SHL SUB SWAP1 SWAP3 AND PUSH0 SWAP1 DUP2 MSTORE PUSH1 0xC PUSH1 0x20 MSTORE PUSH1 0x40 SWAP1 KECCAK256 DUP1 SLOAD PUSH1 0xFF NOT AND PUSH1 0x1 OR SWAP1 SSTORE POP POP JUMP JUMPDEST CALLER PUSH0 DUP2 DUP2 MSTORE PUSH1 0xC PUSH1 0x20 MSTORE PUSH1 0x40 SWAP1 KECCAK256 SLOAD PUSH1 0xFF AND PUSH2 0x1661 JUMPI PUSH1 0x40 MLOAD PUSH4 0x3FEAE729 PUSH1 0xE1 SHL DUP2 MSTORE PUSH1 0x4 ADD PUSH1 0x40 MLOAD DUP1 SWAP2 SUB SWAP1 REVERT JUMPDEST POP DUP1 MLOAD PUSH1 0x5 DUP1 SLOAD PUSH1 0x20 DUP5 ADD MLOAD PUSH1 0x40 DUP6 ADD MLOAD PUSH1 0x60 DUP7 ADD MLOAD PUSH1 0x80 SWAP1 SWAP7 ADD MLOAD ISZERO ISZERO PUSH1 0x1 PUSH1 0x38 SHL MUL PUSH8 0xFF00000000000000 NOT SWAP7 ISZERO ISZERO PUSH7 0x1000000000000 MUL PUSH7 0xFF000000000000 NOT PUSH4 0xFFFFFFFF SWAP1 SWAP4 AND PUSH3 0x10000 MUL SWAP3 SWAP1 SWAP3 AND PUSH7 0xFFFFFFFFFF0000 NOT PUSH1 0xFF SWAP5 DUP6 AND PUSH2 0x100 MUL PUSH2 0xFFFF NOT SWAP1 SWAP7 AND SWAP5 SWAP1 SWAP8 AND SWAP4 SWAP1 SWAP4 OR SWAP4 SWAP1 SWAP4 OR SWAP5 SWAP1 SWAP5 AND OR SWAP3 SWAP1 SWAP3 OR SWAP3 SWAP1 SWAP3 AND OR SWAP1 SSTORE JUMP JUMPDEST PUSH1 0x1 PUSH1 0x1 PUSH1 0xA0 SHL SUB DUP2 AND PUSH0 SWAP1 DUP2 MSTORE PUSH1 0xB PUSH1 0x20 MSTORE PUSH1 0x40 DUP2 KECCAK256 SLOAD DUP3 SWAP1 PUSH1 0xFF AND DUP1 PUSH2 0x1722 JUMPI POP CALLER PUSH0 SWAP1 DUP2 MSTORE PUSH1 0xC PUSH1 0x20 MSTORE PUSH1 0x40 SWAP1 KECCAK256 SLOAD PUSH1 0xFF AND JUMPDEST PUSH2 0x173F JUMPI PUSH1 0x40 MLOAD PUSH4 0x2C972A5F PUSH1 0xE0 SHL DUP2 MSTORE PUSH1 0x4 ADD PUSH1 0x40 MLOAD DUP1 SWAP2 SUB SWAP1 REVERT JUMPDEST PUSH1 0x1 PUSH1 0x1 PUSH1 0xA0 SHL SUB DUP2 AND PUSH0 SWAP1 DUP2 MSTORE PUSH1 0xA PUSH1 0x20 MSTORE PUSH1 0x40 SWAP1 KECCAK256 SLOAD PUSH1 0xFF AND ISZERO PUSH2 0x1778 JUMPI PUSH1 0x40 MLOAD PUSH4 0xC8E5275B PUSH1 0xE0 SHL DUP2 MSTORE PUSH1 0x4 ADD PUSH1 0x40 MLOAD DUP1 SWAP2 SUB SWAP1 REVERT JUMPDEST PUSH1 0x1 SWAP2 POP JUMPDEST POP SWAP2 SWAP1 POP JUMP JUMPDEST PUSH1 0x2 PUSH0 SLOAD SUB PUSH2 0x17A5 JUMPI PUSH1 0x40 MLOAD PUSH4 0x3EE5AEB5 PUSH1 0xE0 SHL DUP2 MSTORE PUSH1 0x4 ADD PUSH1 0x40 MLOAD DUP1 SWAP2 SUB SWAP1 REVERT JUMPDEST PUSH1 0x2 PUSH0 SSTORE JUMP JUMPDEST PUSH0 PUSH1 0x20 DUP3 DUP5 SUB SLT ISZERO PUSH2 0x17BB JUMPI PUSH0 PUSH0 REVERT JUMPDEST POP CALLDATALOAD SWAP2 SWAP1 POP JUMP JUMPDEST PUSH0 DUP2 MLOAD DUP1 DUP5 MSTORE DUP1 PUSH1 0x20 DUP5 ADD PUSH1 0x20 DUP7 ADD MCOPY PUSH0 PUSH1 0x20 DUP3 DUP7 ADD ADD MSTORE PUSH1 0x20 PUSH1 0x1F NOT PUSH1 0x1F DUP4 ADD AND DUP6 ADD ADD SWAP2 POP POP SWAP3 SWAP2 POP POP JUMP JUMPDEST PUSH1 0x1 PUSH1 0x1 PUSH1 0xA0 SHL SUB DUP6 DUP2 AND DUP3 MSTORE DUP5 AND PUSH1 0x20 DUP3 ADD MSTORE PUSH1 0x80 PUSH1 0x40 DUP3 ADD DUP2 SWAP1 MSTORE PUSH0 SWAP1 PUSH2 0x181B SWAP1 DUP4 ADD DUP6 PUSH2 0x17C2 JUMP JUMPDEST SWAP1 POP DUP3 PUSH1 0x60 DUP4 ADD MSTORE SWAP6 SWAP5 POP POP POP POP POP JUMP JUMPDEST PUSH1 0x1 PUSH1 0x1 PUSH1 0xA0 SHL SUB DUP2 AND DUP2 EQ PUSH2 0x1840 JUMPI PUSH0 PUSH0 REVERT JUMPDEST POP JUMP JUMPDEST PUSH0 PUSH0 PUSH1 0x40 DUP4 DUP6 SUB SLT ISZERO PUSH2 0x1854 JUMPI PUSH0 PUSH0 REVERT JUMPDEST DUP3 CALLDATALOAD PUSH2 0x185F DUP2 PUSH2 0x182C JUMP JUMPDEST SWAP5 PUSH1 0x20 SWAP4 SWAP1 SWAP4 ADD CALLDATALOAD SWAP4 POP POP POP JUMP JUMPDEST PUSH4 0x4E487B71 PUSH1 0xE0 SHL PUSH0 MSTORE PUSH1 0x41 PUSH1 0x4 MSTORE PUSH1 0x24 PUSH0 REVERT JUMPDEST PUSH1 0x40 DUP1 MLOAD SWAP1 DUP2 ADD PUSH8 0xFFFFFFFFFFFFFFFF DUP2 GT DUP3 DUP3 LT OR ISZERO PUSH2 0x18A4 JUMPI PUSH2 0x18A4 PUSH2 0x186D JUMP JUMPDEST PUSH1 0x40 MSTORE SWAP1 JUMP JUMPDEST PUSH1 0x40 MLOAD PUSH1 0x1F DUP3 ADD PUSH1 0x1F NOT AND DUP2 ADD PUSH8 0xFFFFFFFFFFFFFFFF DUP2 GT DUP3 DUP3 LT OR ISZERO PUSH2 0x18D3 JUMPI PUSH2 0x18D3 PUSH2 0x186D JUMP JUMPDEST PUSH1 0x40 MSTORE SWAP2 SWAP1 POP JUMP JUMPDEST DUP1 ISZERO ISZERO DUP2 EQ PUSH2 0x1840 JUMPI PUSH0 PUSH0 REVERT JUMPDEST PUSH0 PUSH1 0x40 DUP3 DUP5 SUB SLT DUP1 ISZERO PUSH2 0x18F9 JUMPI PUSH0 PUSH0 REVERT JUMPDEST POP PUSH2 0x1902 PUSH2 0x1881 JUMP JUMPDEST DUP3 CALLDATALOAD PUSH2 0x190D DUP2 PUSH2 0x18DB JUMP JUMPDEST DUP2 MSTORE PUSH1 0x20 SWAP3 DUP4 ADD CALLDATALOAD SWAP3 DUP2 ADD SWAP3 SWAP1 SWAP3 MSTORE POP SWAP2 SWAP1 POP JUMP JUMPDEST PUSH0 PUSH1 0x20 DUP3 DUP5 SUB SLT ISZERO PUSH2 0x1932 JUMPI PUSH0 PUSH0 REVERT JUMPDEST DUP2 CALLDATALOAD PUSH2 0x193D DUP2 PUSH2 0x182C JUMP JUMPDEST SWAP4 SWAP3 POP POP POP JUMP JUMPDEST PUSH0 PUSH0 PUSH0 PUSH1 0x60 DUP5 DUP7 SUB SLT ISZERO PUSH2 0x1956 JUMPI PUSH0 PUSH0 REVERT JUMPDEST DUP4 CALLDATALOAD PUSH2 0x1961 DUP2 PUSH2 0x182C JUMP JUMPDEST SWAP3 POP PUSH1 0x20 DUP5 ADD CALLDATALOAD PUSH2 0x1971 DUP2 PUSH2 0x182C JUMP JUMPDEST SWAP3 SWAP6 SWAP3 SWAP5 POP POP POP PUSH1 0x40 SWAP2 SWAP1 SWAP2 ADD CALLDATALOAD SWAP1 JUMP JUMPDEST PUSH1 0x40 DUP2 MSTORE PUSH0 PUSH2 0x1994 PUSH1 0x40 DUP4 ADD DUP6 PUSH2 0x17C2 JUMP JUMPDEST DUP3 DUP2 SUB PUSH1 0x20 DUP5 ADD MSTORE PUSH2 0x19A6 DUP2 DUP6 PUSH2 0x17C2 JUMP JUMPDEST SWAP6 SWAP5 POP POP POP POP POP JUMP JUMPDEST PUSH0 PUSH0 PUSH8 0xFFFFFFFFFFFFFFFF DUP5 GT ISZERO PUSH2 0x19C9 JUMPI PUSH2 0x19C9 PUSH2 0x186D JUMP JUMPDEST POP PUSH1 0x1F DUP4 ADD PUSH1 0x1F NOT AND PUSH1 0x20 ADD PUSH2 0x19DE DUP2 PUSH2 0x18AA JUMP JUMPDEST SWAP2 POP POP DUP3 DUP2 MSTORE DUP4 DUP4 DUP4 ADD GT ISZERO PUSH2 0x19F2 JUMPI PUSH0 PUSH0 REVERT JUMPDEST DUP3 DUP3 PUSH1 0x20 DUP4 ADD CALLDATACOPY PUSH0 PUSH1 0x20 DUP5 DUP4 ADD ADD MSTORE SWAP4 SWAP3 POP POP POP JUMP JUMPDEST PUSH0 DUP3 PUSH1 0x1F DUP4 ADD SLT PUSH2 0x1A17 JUMPI PUSH0 PUSH0 REVERT JUMPDEST PUSH2 0x193D DUP4 DUP4 CALLDATALOAD PUSH1 0x20 DUP6 ADD PUSH2 0x19AF JUMP JUMPDEST PUSH0 PUSH1 0x20 DUP3 DUP5 SUB SLT ISZERO PUSH2 0x1A36 JUMPI PUSH0 PUSH0 REVERT JUMPDEST DUP2 CALLDATALOAD PUSH8 0xFFFFFFFFFFFFFFFF DUP2 GT ISZERO PUSH2 0x1A4C JUMPI PUSH0 PUSH0 REVERT JUMPDEST DUP3 ADD PUSH1 0x40 DUP2 DUP6 SUB SLT ISZERO PUSH2 0x1A5D JUMPI PUSH0 PUSH0 REVERT JUMPDEST PUSH2 0x1A65 PUSH2 0x1881 JUMP JUMPDEST DUP2 CALLDATALOAD PUSH8 0xFFFFFFFFFFFFFFFF DUP2 GT ISZERO PUSH2 0x1A7B JUMPI PUSH0 PUSH0 REVERT JUMPDEST PUSH2 0x1A87 DUP7 DUP3 DUP6 ADD PUSH2 0x1A08 JUMP JUMPDEST DUP3 MSTORE POP PUSH1 0x20 DUP3 ADD CALLDATALOAD PUSH8 0xFFFFFFFFFFFFFFFF DUP2 GT ISZERO PUSH2 0x1AA3 JUMPI PUSH0 PUSH0 REVERT JUMPDEST DUP1 DUP4 ADD SWAP3 POP POP DUP5 PUSH1 0x1F DUP4 ADD SLT PUSH2 0x1AB7 JUMPI PUSH0 PUSH0 REVERT JUMPDEST PUSH2 0x1AC6 DUP6 DUP4 CALLDATALOAD PUSH1 0x20 DUP6 ADD PUSH2 0x19AF JUMP JUMPDEST PUSH1 0x20 DUP3 ADD MSTORE SWAP5 SWAP4 POP POP POP POP JUMP JUMPDEST PUSH0 PUSH1 0x20 DUP3 DUP5 SUB SLT ISZERO PUSH2 0x1AE3 JUMPI PUSH0 PUSH0 REVERT JUMPDEST DUP2 CALLDATALOAD PUSH8 0xFFFFFFFFFFFFFFFF DUP2 GT ISZERO PUSH2 0x1AF9 JUMPI PUSH0 PUSH0 REVERT JUMPDEST DUP3 ADD PUSH1 0x1F DUP2 ADD DUP5 SGT PUSH2 0x1B09 JUMPI PUSH0 PUSH0 REVERT JUMPDEST DUP1 CALLDATALOAD PUSH8 0xFFFFFFFFFFFFFFFF DUP2 GT ISZERO PUSH2 0x1B23 JUMPI PUSH2 0x1B23 PUSH2 0x186D JUMP JUMPDEST PUSH2 0x1B32 PUSH1 0x20 DUP3 PUSH1 0x5 SHL ADD PUSH2 0x18AA JUMP JUMPDEST DUP1 DUP3 DUP3 MSTORE PUSH1 0x20 DUP3 ADD SWAP2 POP PUSH1 0x20 DUP4 PUSH1 0x6 SHL DUP6 ADD ADD SWAP3 POP DUP7 DUP4 GT ISZERO PUSH2 0x1B53 JUMPI PUSH0 PUSH0 REVERT JUMPDEST PUSH1 0x20 DUP5 ADD SWAP4 POP JUMPDEST DUP3 DUP5 LT ISZERO PUSH2 0x1BA3 JUMPI PUSH1 0x40 DUP5 DUP9 SUB SLT ISZERO PUSH2 0x1B71 JUMPI PUSH0 PUSH0 REVERT JUMPDEST PUSH2 0x1B79 PUSH2 0x1881 JUMP JUMPDEST DUP5 CALLDATALOAD PUSH2 0x1B84 DUP2 PUSH2 0x182C JUMP JUMPDEST DUP2 MSTORE PUSH1 0x20 DUP6 DUP2 ADD CALLDATALOAD DUP2 DUP4 ADD MSTORE SWAP1 DUP4 MSTORE PUSH1 0x40 SWAP1 SWAP5 ADD SWAP4 SWAP2 SWAP1 SWAP2 ADD SWAP1 PUSH2 0x1B5A JUMP JUMPDEST SWAP7 SWAP6 POP POP POP POP POP POP JUMP JUMPDEST DUP1 CALLDATALOAD PUSH1 0xFF DUP2 AND DUP2 EQ PUSH2 0x1BBD JUMPI PUSH0 PUSH0 REVERT JUMPDEST SWAP2 SWAP1 POP JUMP JUMPDEST PUSH0 PUSH0 PUSH0 PUSH0 PUSH1 0x80 DUP6 DUP8 SUB SLT ISZERO PUSH2 0x1BD5 JUMPI PUSH0 PUSH0 REVERT JUMPDEST DUP5 CALLDATALOAD PUSH2 0x1BE0 DUP2 PUSH2 0x182C JUMP JUMPDEST SWAP4 POP PUSH1 0x20 DUP6 ADD CALLDATALOAD PUSH2 0x1BF0 DUP2 PUSH2 0x182C JUMP JUMPDEST SWAP3 POP PUSH1 0x40 DUP6 ADD CALLDATALOAD PUSH8 0xFFFFFFFFFFFFFFFF DUP2 GT ISZERO PUSH2 0x1C0B JUMPI PUSH0 PUSH0 REVERT JUMPDEST PUSH2 0x1C17 DUP8 DUP3 DUP9 ADD PUSH2 0x1A08 JUMP JUMPDEST SWAP3 POP POP PUSH2 0x1C26 PUSH1 0x60 DUP7 ADD PUSH2 0x1BAD JUMP JUMPDEST SWAP1 POP SWAP3 SWAP6 SWAP2 SWAP5 POP SWAP3 POP JUMP JUMPDEST PUSH0 PUSH1 0xA0 DUP3 DUP5 SUB SLT DUP1 ISZERO PUSH2 0x1C42 JUMPI PUSH0 PUSH0 REVERT JUMPDEST POP PUSH1 0x40 MLOAD PUSH1 0xA0 DUP2 ADD PUSH8 0xFFFFFFFFFFFFFFFF DUP2 GT DUP3 DUP3 LT OR ISZERO PUSH2 0x1C66 JUMPI PUSH2 0x1C66 PUSH2 0x186D JUMP JUMPDEST PUSH1 0x40 MSTORE PUSH2 0x1C72 DUP4 PUSH2 0x1BAD JUMP JUMPDEST DUP2 MSTORE PUSH2 0x1C80 PUSH1 0x20 DUP5 ADD PUSH2 0x1BAD JUMP JUMPDEST PUSH1 0x20 DUP3 ADD MSTORE PUSH1 0x40 DUP4 ADD CALLDATALOAD PUSH4 0xFFFFFFFF DUP2 AND DUP2 EQ PUSH2 0x1C9B JUMPI PUSH0 PUSH0 REVERT JUMPDEST PUSH1 0x40 DUP3 ADD MSTORE PUSH1 0x60 DUP4 ADD CALLDATALOAD PUSH2 0x1CAE DUP2 PUSH2 0x18DB JUMP JUMPDEST PUSH1 0x60 DUP3 ADD MSTORE PUSH1 0x80 DUP4 ADD CALLDATALOAD PUSH2 0x1CC1 DUP2 PUSH2 0x18DB JUMP JUMPDEST PUSH1 0x80 DUP3 ADD MSTORE SWAP4 SWAP3 POP POP POP JUMP JUMPDEST PUSH1 0x1 DUP2 DUP2 SHR SWAP1 DUP3 AND DUP1 PUSH2 0x1CE1 JUMPI PUSH1 0x7F DUP3 AND SWAP2 POP JUMPDEST PUSH1 0x20 DUP3 LT DUP2 SUB PUSH2 0x177D JUMPI PUSH4 0x4E487B71 PUSH1 0xE0 SHL PUSH0 MSTORE PUSH1 0x22 PUSH1 0x4 MSTORE PUSH1 0x24 PUSH0 REVERT JUMPDEST PUSH0 PUSH1 0x20 DUP3 DUP5 SUB SLT ISZERO PUSH2 0x1D0F JUMPI PUSH0 PUSH0 REVERT JUMPDEST POP MLOAD SWAP2 SWAP1 POP JUMP JUMPDEST PUSH0 PUSH1 0x20 DUP3 DUP5 SUB SLT ISZERO PUSH2 0x1D26 JUMPI PUSH0 PUSH0 REVERT JUMPDEST DUP2 MLOAD PUSH2 0x193D DUP2 PUSH2 0x18DB JUMP JUMPDEST PUSH0 PUSH1 0x20 DUP3 DUP5 SUB SLT ISZERO PUSH2 0x1D41 JUMPI PUSH0 PUSH0 REVERT JUMPDEST DUP2 MLOAD PUSH2 0x193D DUP2 PUSH2 0x182C JUMP JUMPDEST PUSH1 0x1F DUP3 GT ISZERO PUSH2 0xCE3 JUMPI DUP1 PUSH0 MSTORE PUSH1 0x20 PUSH0 KECCAK256 PUSH1 0x1F DUP5 ADD PUSH1 0x5 SHR DUP2 ADD PUSH1 0x20 DUP6 LT ISZERO PUSH2 0x1D71 JUMPI POP DUP1 JUMPDEST PUSH1 0x1F DUP5 ADD PUSH1 0x5 SHR DUP3 ADD SWAP2 POP JUMPDEST DUP2 DUP2 LT ISZERO PUSH2 0x10BA JUMPI PUSH0 DUP2 SSTORE PUSH1 0x1 ADD PUSH2 0x1D7D JUMP JUMPDEST DUP2 MLOAD PUSH8 0xFFFFFFFFFFFFFFFF DUP2 GT ISZERO PUSH2 0x1DAA JUMPI PUSH2 0x1DAA PUSH2 0x186D JUMP JUMPDEST PUSH2 0x1DBE DUP2 PUSH2 0x1DB8 DUP5 SLOAD PUSH2 0x1CCD JUMP JUMPDEST DUP5 PUSH2 0x1D4C JUMP JUMPDEST PUSH1 0x20 PUSH1 0x1F DUP3 GT PUSH1 0x1 DUP2 EQ PUSH2 0x1DF0 JUMPI PUSH0 DUP4 ISZERO PUSH2 0x1DD9 JUMPI POP DUP5 DUP3 ADD MLOAD JUMPDEST PUSH0 NOT PUSH1 0x3 DUP6 SWAP1 SHL SHR NOT AND PUSH1 0x1 DUP5 SWAP1 SHL OR DUP5 SSTORE PUSH2 0x10BA JUMP JUMPDEST PUSH0 DUP5 DUP2 MSTORE PUSH1 0x20 DUP2 KECCAK256 PUSH1 0x1F NOT DUP6 AND SWAP2 JUMPDEST DUP3 DUP2 LT ISZERO PUSH2 0x1E1F JUMPI DUP8 DUP6 ADD MLOAD DUP3 SSTORE PUSH1 0x20 SWAP5 DUP6 ADD SWAP5 PUSH1 0x1 SWAP1 SWAP3 ADD SWAP2 ADD PUSH2 0x1DFF JUMP JUMPDEST POP DUP5 DUP3 LT ISZERO PUSH2 0x1E3C JUMPI DUP7 DUP5 ADD MLOAD PUSH0 NOT PUSH1 0x3 DUP8 SWAP1 SHL PUSH1 0xF8 AND SHR NOT AND DUP2 SSTORE JUMPDEST POP POP POP POP PUSH1 0x1 SWAP1 DUP2 SHL ADD SWAP1 SSTORE POP JUMP JUMPDEST PUSH4 0x4E487B71 PUSH1 0xE0 SHL PUSH0 MSTORE PUSH1 0x32 PUSH1 0x4 MSTORE PUSH1 0x24 PUSH0 REVERT JUMPDEST PUSH4 0x4E487B71 PUSH1 0xE0 SHL PUSH0 MSTORE PUSH1 0x11 PUSH1 0x4 MSTORE PUSH1 0x24 PUSH0 REVERT JUMPDEST PUSH0 PUSH1 0x1 DUP3 ADD PUSH2 0x1E84 JUMPI PUSH2 0x1E84 PUSH2 0x1E5F JUMP JUMPDEST POP PUSH1 0x1 ADD SWAP1 JUMP JUMPDEST PUSH0 PUSH4 0xFFFFFFFF DUP3 AND PUSH4 0xFFFFFFFF DUP2 SUB PUSH2 0x1EA6 JUMPI PUSH2 0x1EA6 PUSH2 0x1E5F JUMP JUMPDEST PUSH1 0x1 ADD SWAP3 SWAP2 POP POP JUMP JUMPDEST PUSH0 DUP2 PUSH2 0x1EBD JUMPI PUSH2 0x1EBD PUSH2 0x1E5F JUMP JUMPDEST POP PUSH0 NOT ADD SWAP1 JUMP JUMPDEST PUSH4 0x4E487B71 PUSH1 0xE0 SHL PUSH0 MSTORE PUSH1 0x21 PUSH1 0x4 MSTORE PUSH1 0x24 PUSH0 REVERT INVALID LOG2 PUSH5 0x6970667358 0x22 SLT KECCAK256 PUSH29 0x4C88A681149F2CCA2B258D08EB17212EAB7FA2DF033271AB3F030CE858 GASLIMIT 0xB8 PUSH5 0x736F6C6343 STOP ADDMOD SAR STOP CALLER CALLDATASIZE ADDMOD SWAP5 LOG1 EXTCODESIZE LOG1 LOG3 0x21 MOD PUSH8 0xC828492DB98DCA3E KECCAK256 PUSH23 0xCC3735A920A3CA505D382BBCA26469706673582212208A 0xAF RJUMPI 0xFFE4 CREATE2 CALLVALUE MUL DUP5 0xBC BLOBHASH SWAP9 0xAD TIMESTAMP 0xC PUSH12 0xEDF0A8B81582601C036C0133 0x4B BLOBBASEFEE PUSH27 0xC964736F6C634300081D0033000000000000000000000000000000 "
		},
		"gasEstimates": {
			"creation": {
				"codeDepositCost": "3136400",
				"executionCost": "infinite",
				"totalCost": "infinite"
			},
			"external": {
				"UPGRADE_INTERFACE_VERSION()": "infinite",
				"createDAO((string,bytes),address,(string,string,address),(uint8,uint8,uint32,bool,bool),(address,uint256)[],(bool,uint256),bool)": "infinite",
				"daoId()": "2399",
				"daoManagement()": "2381",
				"daos(uint32)": "8990",
				"initialize(address)": "infinite",
				"owner()": "2352",
				"proxiableUUID()": "infinite",
				"renounceOwnership()": "infinite",
				"transferOwnership(address)": "infinite",
				"upgradeToAndCall(address,bytes)": "infinite",
				"version()": "infinite"
			},
			"internal": {
				"_authorizeUpgrade(address)": "infinite"
			}
		},
		"methodIdentifiers": {
			"UPGRADE_INTERFACE_VERSION()": "ad3cb1cc",
			"createDAO((string,bytes),address,(string,string,address),(uint8,uint8,uint32,bool,bool),(address,uint256)[],(bool,uint256),bool)": "16db523b",
			"daoId()": "cac2699b",
			"daoManagement()": "45850e9b",
			"daos(uint32)": "36df9184",
			"initialize(address)": "c4d66de8",
			"owner()": "8da5cb5b",
			"proxiableUUID()": "52d1902d",
			"renounceOwnership()": "715018a6",
			"transferOwnership(address)": "f2fde38b",
			"upgradeToAndCall(address,bytes)": "4f1ef286",
			"version()": "54fd4d50"
		}
	},
	"abi": [
		{
			"inputs": [
				{
					"internalType": "address",
					"name": "target",
					"type": "address"
				}
			],
			"name": "AddressEmptyCode",
			"type": "error"
		},
		{
			"inputs": [
				{
					"internalType": "address",
					"name": "implementation",
					"type": "address"
				}
			],
			"name": "ERC1967InvalidImplementation",
			"type": "error"
		},
		{
			"inputs": [],
			"name": "ERC1967NonPayable",
			"type": "error"
		},
		{
			"inputs": [],
			"name": "FailedCall",
			"type": "error"
		},
		{
			"inputs": [],
			"name": "InvalidInitialization",
			"type": "error"
		},
		{
			"inputs": [],
			"name": "NotInitializing",
			"type": "error"
		},
		{
			"inputs": [
				{
					"internalType": "address",
					"name": "owner",
					"type": "address"
				}
			],
			"name": "OwnableInvalidOwner",
			"type": "error"
		},
		{
			"inputs": [
				{
					"internalType": "address",
					"name": "account",
					"type": "address"
				}
			],
			"name": "OwnableUnauthorizedAccount",
			"type": "error"
		},
		{
			"inputs": [],
			"name": "UUPSUnauthorizedCallContext",
			"type": "error"
		},
		{
			"inputs": [
				{
					"internalType": "bytes32",
					"name": "slot",
					"type": "bytes32"
				}
			],
			"name": "UUPSUnsupportedProxiableUUID",
			"type": "error"
		},
		{
			"anonymous": false,
			"inputs": [
				{
					"indexed": false,
					"internalType": "uint64",
					"name": "version",
					"type": "uint64"
				}
			],
			"name": "Initialized",
			"type": "event"
		},
		{
			"anonymous": false,
			"inputs": [
				{
					"indexed": true,
					"internalType": "address",
					"name": "previousOwner",
					"type": "address"
				},
				{
					"indexed": true,
					"internalType": "address",
					"name": "newOwner",
					"type": "address"
				}
			],
			"name": "OwnershipTransferred",
			"type": "event"
		},
		{
			"anonymous": false,
			"inputs": [
				{
					"indexed": true,
					"internalType": "address",
					"name": "implementation",
					"type": "address"
				}
			],
			"name": "Upgraded",
			"type": "event"
		},
		{
			"anonymous": false,
			"inputs": [
				{
					"indexed": false,
					"internalType": "address",
					"name": "daoAddress",
					"type": "address"
				},
				{
					"indexed": false,
					"internalType": "address",
					"name": "governanceToken",
					"type": "address"
				}
			],
			"name": "daoCreated",
			"type": "event"
		},
		{
			"inputs": [],
			"name": "UPGRADE_INTERFACE_VERSION",
			"outputs": [
				{
					"internalType": "string",
					"name": "",
					"type": "string"
				}
			],
			"stateMutability": "view",
			"type": "function"
		},
		{
			"inputs": [
				{
					"components": [
						{
							"internalType": "string",
							"name": "name",
							"type": "string"
						},
						{
							"internalType": "bytes",
							"name": "data",
							"type": "bytes"
						}
					],
					"internalType": "struct IDAO.DaoSettings",
					"name": "daoParams",
					"type": "tuple"
				},
				{
					"internalType": "address",
					"name": "governanceTokenAddress",
					"type": "address"
				},
				{
					"components": [
						{
							"internalType": "string",
							"name": "name",
							"type": "string"
						},
						{
							"internalType": "string",
							"name": "symbol",
							"type": "string"
						},
						{
							"internalType": "address",
							"name": "councilAddress",
							"type": "address"
						}
					],
					"internalType": "struct IDAO.GovernanceTokenParams",
					"name": "governanceTokenParams",
					"type": "tuple"
				},
				{
					"components": [
						{
							"internalType": "uint8",
							"name": "minimumParticipationPercentage",
							"type": "uint8"
						},
						{
							"internalType": "uint8",
							"name": "supportThresholdPercentage",
							"type": "uint8"
						},
						{
							"internalType": "uint32",
							"name": "minimumDurationForProposal",
							"type": "uint32"
						},
						{
							"internalType": "bool",
							"name": "earlyExecution",
							"type": "bool"
						},
						{
							"internalType": "bool",
							"name": "canVoteChange",
							"type": "bool"
						}
					],
					"internalType": "struct IDAO.GovernanceSettings",
					"name": "governanceSettings",
					"type": "tuple"
				},
				{
					"components": [
						{
							"internalType": "address",
							"name": "memberAddress",
							"type": "address"
						},
						{
							"internalType": "uint256",
							"name": "deposit",
							"type": "uint256"
						}
					],
					"internalType": "struct IDAO.DAOMember[]",
					"name": "_daoMembers",
					"type": "tuple[]"
				},
				{
					"components": [
						{
							"internalType": "bool",
							"name": "isTokenBasedProposal",
							"type": "bool"
						},
						{
							"internalType": "uint256",
							"name": "MinimumRequirement",
							"type": "uint256"
						}
					],
					"internalType": "struct IDAO.ProposalCreationSettings",
					"name": "proposalCreationParams",
					"type": "tuple"
				},
				{
					"internalType": "bool",
					"name": "isMultiSignDAO",
					"type": "bool"
				}
			],
			"name": "createDAO",
			"outputs": [],
			"stateMutability": "nonpayable",
			"type": "function"
		},
		{
			"inputs": [],
			"name": "daoId",
			"outputs": [
				{
					"internalType": "uint32",
					"name": "",
					"type": "uint32"
				}
			],
			"stateMutability": "view",
			"type": "function"
		},
		{
			"inputs": [],
			"name": "daoManagement",
			"outputs": [
				{
					"internalType": "address",
					"name": "",
					"type": "address"
				}
			],
			"stateMutability": "view",
			"type": "function"
		},
		{
			"inputs": [
				{
					"internalType": "uint32",
					"name": "",
					"type": "uint32"
				}
			],
			"name": "daos",
			"outputs": [
				{
					"internalType": "bytes32",
					"name": "name",
					"type": "bytes32"
				},
				{
					"internalType": "address",
					"name": "daoAddress",
					"type": "address"
				},
				{
					"internalType": "address",
					"name": "daoCreator",
					"type": "address"
				},
				{
					"internalType": "address",
					"name": "governanceAddress",
					"type": "address"
				}
			],
			"stateMutability": "view",
			"type": "function"
		},
		{
			"inputs": [
				{
					"internalType": "address",
					"name": "_daoManagement",
					"type": "address"
				}
			],
			"name": "initialize",
			"outputs": [],
			"stateMutability": "nonpayable",
			"type": "function"
		},
		{
			"inputs": [],
			"name": "owner",
			"outputs": [
				{
					"internalType": "address",
					"name": "",
					"type": "address"
				}
			],
			"stateMutability": "view",
			"type": "function"
		},
		{
			"inputs": [],
			"name": "proxiableUUID",
			"outputs": [
				{
					"internalType": "bytes32",
					"name": "",
					"type": "bytes32"
				}
			],
			"stateMutability": "view",
			"type": "function"
		},
		{
			"inputs": [],
			"name": "renounceOwnership",
			"outputs": [],
			"stateMutability": "nonpayable",
			"type": "function"
		},
		{
			"inputs": [
				{
					"internalType": "address",
					"name": "newOwner",
					"type": "address"
				}
			],
			"name": "transferOwnership",
			"outputs": [],
			"stateMutability": "nonpayable",
			"type": "function"
		},
		{
			"inputs": [
				{
					"internalType": "address",
					"name": "newImplementation",
					"type": "address"
				},
				{
					"internalType": "bytes",
					"name": "data",
					"type": "bytes"
				}
			],
			"name": "upgradeToAndCall",
			"outputs": [],
			"stateMutability": "payable",
			"type": "function"
		},
		{
			"inputs": [],
			"name": "version",
			"outputs": [
				{
					"internalType": "string",
					"name": "",
					"type": "string"
				}
			],
			"stateMutability": "pure",
			"type": "function"
		}
	]
}