{
	"data": {
		"bytecode": {
			"linkReferences": {},
			"object": "610160604052348015610010575f5ffd5b5060405161327d38038061327d83398101604081905261002f9161051e565b6040805180820190915260018152603160f81b602082015285908190858288600361005a8382610650565b5060046100678282610650565b50506005805460ff191690555060016006556001600160a01b0381166100a757604051631e4fbdf760e01b81525f60048201526024015b60405180910390fd5b6100b081610263565b506100bc8260086102b4565b610120526100cb8160096102b4565b61014052815160208084019190912060e052815190820120610100524660a05261015760e05161010051604080517f8b73c3c69bb8fe3d512ecc4cf759cc79239f7b179b0ffacaa9a75d522b39400f60208201529081019290925260608201524660808201523060a08201525f9060c00160405160208183030381529060405280519060200120905090565b60805250503060c05250600f8054610100600160a81b031916905561021481606081015160108054602084015184516040860151608087015160a09097015163ff00ff001990941663010000009615159690960261ff00191695909517610100921515929092029190911762ff00ff191690151562ff000019161762010000931515939093029290921761ffff60201b19166401000000009315159390930260ff60281b1916929092176501000000000091151591909102179055565b600f805460ff191660ff841617905561022d5f846102e6565b506102587f5611063d513780fd7cb3f52dedf0696140727f47ee0024e046ea70e4f4d62a13846102e6565b505050505050610762565b600780546001600160a01b038381166001600160a01b0319831681179093556040519116919082907f8be0079c531659141344cd1fd0a4f28419497f9722a3daafe3b4186f6b6457e0905f90a35050565b5f6020835110156102cf576102c883610391565b90506102e0565b816102da8482610650565b5060ff90505b92915050565b5f828152600e602090815260408083206001600160a01b038516845290915281205460ff1661038a575f838152600e602090815260408083206001600160a01b03861684529091529020805460ff191660011790556103423390565b6001600160a01b0316826001600160a01b0316847f2f8788117e7eff1d82e926ec794901d17c78024a50270940304540a733656f0d60405160405180910390a45060016102e0565b505f6102e0565b5f5f829050601f815111156103bb578260405163305a27a960e01b815260040161009e919061070a565b80516103c68261073f565b179392505050565b634e487b7160e01b5f52604160045260245ffd5b5f82601f8301126103f1575f5ffd5b81516001600160401b0381111561040a5761040a6103ce565b604051601f8201601f19908116603f011681016001600160401b0381118282101715610438576104386103ce565b60405281815283820160200185101561044f575f5ffd5b8160208501602083015e5f918101602001919091529392505050565b8051801515811461047a575f5ffd5b919050565b5f60c0828403121561048f575f5ffd5b60405160c081016001600160401b03811182821017156104b1576104b16103ce565b6040529050806104c08361046b565b81526104ce6020840161046b565b60208201526104df6040840161046b565b60408201526104f06060840161046b565b60608201526105016080840161046b565b608082015261051260a0840161046b565b60a08201525092915050565b5f5f5f5f5f6101408688031215610533575f5ffd5b85516001600160401b03811115610548575f5ffd5b610554888289016103e2565b602088015190965090506001600160401b03811115610571575f5ffd5b61057d888289016103e2565b604088015190955090506001600160a01b038116811461059b575f5ffd5b606087015190935060ff811681146105b1575f5ffd5b91506105c0876080880161047f565b90509295509295909350565b600181811c908216806105e057607f821691505b6020821081036105fe57634e487b7160e01b5f52602260045260245ffd5b50919050565b601f82111561064b57805f5260205f20601f840160051c810160208510156106295750805b601f840160051c820191505b81811015610648575f8155600101610635565b50505b505050565b81516001600160401b03811115610669576106696103ce565b61067d8161067784546105cc565b84610604565b6020601f8211600181146106af575f83156106985750848201515b5f19600385901b1c1916600184901b178455610648565b5f84815260208120601f198516915b828110156106de57878501518255602094850194600190920191016106be565b50848210156106fb57868401515f19600387901b60f8161c191681555b50505050600190811b01905550565b602081525f82518060208401528060208501604085015e5f604082850101526040601f19601f83011684010191505092915050565b805160208083015191908110156105fe575f1960209190910360031b1b16919050565b60805160a05160c05160e051610100516101205161014051612aca6107b35f395f61190501525f6118d801525f61150b01525f6114e301525f61143e01525f61146801525f6114920152612aca5ff3fe608060405234801561000f575f5ffd5b5060043610610281575f3560e01c8063715018a611610156578063a217fddf116100ca578063d547741f11610084578063d547741f146105e4578063dd62ed3e146105f7578063e742806a1461062f578063f1127ed814610642578063f2fde38b14610681578063f99e36bc14610694575f5ffd5b8063a217fddf1461057e578063a2bfad4c14610585578063a9059cbb14610598578063aecf8a6d146105ab578063c3cda520146105be578063d505accf146105d1575f5ffd5b80638e539e8c1161011b5780638e539e8c1461050b57806391d148541461051e57806391ddadf41461053157806395d89b4114610550578063965afa89146105585780639ab24eb01461056b575f5ffd5b8063715018a6146104bc5780637ecebe00146104c45780638456cb59146104d757806384b0196e146104df5780638da5cb5b146104fa575f5ffd5b80633a46b1a8116101f8578063521f87cf116101b2578063521f87cf1461040b578063587cde1e146104235780635c19a95c1461044e5780635c975abb146104615780636fcfff451461046c57806370a0823114610494575f5ffd5b80633a46b1a8146103915780633f4ba83a146103a45780634ac5b7a8146103ac5780634bf5d7e9146103bf5780634dca738b146103c757806352050003146103e9575f5ffd5b806323b872dd1161024957806323b872dd14610317578063248a9ca31461032a5780632f2ff15d1461034c578063313ce567146103615780633644e5151461037657806336568abe1461037e575f5ffd5b806301ffc9a71461028557806306fdde03146102ad578063095ea7b3146102c257806318160ddd146102d55780632131c68c146102e7575b5f5ffd5b610298610293366004612686565b61070d565b60405190151581526020015b60405180910390f35b6102b5610743565b6040516102a491906126db565b6102986102d0366004612708565b6107d3565b6002545b6040519081526020016102a4565b600f546102ff9061010090046001600160a01b031681565b6040516001600160a01b0390911681526020016102a4565b610298610325366004612730565b6107ea565b6102d961033836600461276a565b5f908152600e602052604090206001015490565b61035f61035a366004612781565b61080d565b005b600f5460405160ff90911681526020016102a4565b6102d9610837565b61035f61038c366004612781565b610845565b6102d961039f366004612708565b61087d565b61035f6108b7565b6102986103ba3660046127ab565b610949565b6102b56109c5565b6102986103d53660046127ab565b60116020525f908152604090205460ff1681565b6102986103f73660046127ab565b60126020525f908152604090205460ff1681565b610298600f5461010090046001600160a01b03161590565b6102ff6104313660046127ab565b6001600160a01b039081165f908152600b60205260409020541690565b61035f61045c3660046127ab565b610a3d565b60055460ff16610298565b61047f61047a3660046127ab565b610a4c565b60405163ffffffff90911681526020016102a4565b6102d96104a23660046127ab565b6001600160a01b03165f9081526020819052604090205490565b61035f610a56565b6102d96104d23660046127ab565b610a67565b61035f610a71565b6104e7610afd565b6040516102a497969594939291906127c4565b6007546001600160a01b03166102ff565b6102d961051936600461276a565b610b3f565b61029861052c366004612781565b610b63565b610539610b8d565b60405165ffffffffffff90911681526020016102a4565b6102b5610b96565b61035f6105663660046127ab565b610ba5565b6102d96105793660046127ab565b610ced565b6102d95f81565b61035f610593366004612708565b610d0d565b6102986105a6366004612708565b610e48565b61035f6105b9366004612708565b610e9d565b61035f6105cc36600461286a565b610f66565b61035f6105df3660046128be565b611022565b61035f6105f2366004612781565b611158565b6102d9610605366004612924565b6001600160a01b039182165f90815260016020908152604080832093909416825291909152205490565b61035f61063d366004612708565b61117c565b61065561065036600461294c565b611256565b60408051825165ffffffffffff1681526020928301516001600160d01b031692810192909252016102a4565b61035f61068f3660046127ab565b61127a565b6010546106d49060ff8082169161010081048216916201000082048116916301000000810482169164010000000082048116916501000000000090041686565b604080519615158752941515602087015292151593850193909352151560608401529015156080830152151560a082015260c0016102a4565b5f6001600160e01b03198216637965db0b60e01b148061073d57506301ffc9a760e01b6001600160e01b03198316145b92915050565b60606003805461075290612989565b80601f016020809104026020016040519081016040528092919081815260200182805461077e90612989565b80156107c95780601f106107a0576101008083540402835291602001916107c9565b820191905f5260205f20905b8154815290600101906020018083116107ac57829003601f168201915b5050505050905090565b5f336107e08185856112b7565b5060019392505050565b5f336107f78582856112c4565b61080285858561133a565b506001949350505050565b5f828152600e602052604090206001015461082781611397565b61083183836113a1565b50505050565b5f610840611432565b905090565b6001600160a01b038116331461086e5760405163334bd91960e11b815260040160405180910390fd5b610878828261155b565b505050565b5f6108a761088a836115c6565b6001600160a01b0385165f908152600c6020526040902090611614565b6001600160d01b03169392505050565b60105462010000900460ff166108e057604051634beb0e8d60e11b815260040160405180910390fd5b6108e86116c4565b60055460ff1661093f5760405162461bcd60e51b815260206004820152601760248201527f436f6e7472616374206973206e6f74207061757365642e00000000000000000060448201526064015b60405180910390fd5b6109476116e7565b565b5f6001600160a01b03821661099b5760405162461bcd60e51b8152602060048201526018602482015277496e76616c69642070726f706f73616c206164647265737360401b6044820152606401610936565b61073d7fb0aafe805b29ea5e57cdf96e1f39c2ff0e6edd978cc45f739c43f08208c90d6e83610b63565b60606109cf611739565b65ffffffffffff166109df610b8d565b65ffffffffffff1614610a05576040516301bfc1c560e61b815260040160405180910390fd5b5060408051808201909152601d81527f6d6f64653d626c6f636b6e756d6265722666726f6d3d64656661756c74000000602082015290565b33610a488183611743565b5050565b5f61073d826117b4565b610a5e6117d5565b6109475f611802565b5f61073d82611853565b60105462010000900460ff16610a9a57604051634beb0e8d60e11b815260040160405180910390fd5b610aa2611870565b60055460ff1615610af55760405162461bcd60e51b815260206004820152601b60248201527f436f6e747261637420697320616c7265616479207061757365642e00000000006044820152606401610936565b610947611894565b5f6060805f5f5f6060610b0e6118d1565b610b166118fe565b604080515f80825260208201909252600f60f81b9b939a50919850469750309650945092509050565b5f610b54610b4c836115c6565b600d90611614565b6001600160d01b031692915050565b5f918252600e602090815260408084206001600160a01b0393909316845291905290205460ff1690565b5f610840611739565b60606004805461075290612989565b600f5461010090046001600160a01b031615610c035760405162461bcd60e51b815260206004820152601760248201527f44414f206164647265737320616c7265616479207365740000000000000000006044820152606401610936565b6001600160a01b038116610c4f5760405162461bcd60e51b8152602060048201526013602482015272496e76616c69642044414f206164647265737360681b6044820152606401610936565b600f8054610100600160a81b0319166101006001600160a01b038416908102919091179091555f908152601160205260409020805460ff19166001179055610cb77f262c70cb68844873654dc54487b634cb00850c1e13c785cd0d96a2b89b829472826113a1565b50610ce27fb7cd08e7968c8eb3cceee719dc902b03ff20ef36607309c7b72f07cdb4dbcd3d826113a1565b50610a485f826113a1565b6001600160a01b0381165f908152600c60205260408120610b549061192b565b335f8181526011602052604090205460ff16610d3c57604051638018e00f60e01b815260040160405180910390fd5b6001600160a01b038316610d8d5760405162461bcd60e51b8152602060048201526018602482015277496e76616c69642070726f706f73616c206164647265737360401b6044820152606401610936565b815f03610deb57610dbe7fb0aafe805b29ea5e57cdf96e1f39c2ff0e6edd978cc45f739c43f08208c90d6e846113a1565b50610de97f262c70cb68844873654dc54487b634cb00850c1e13c785cd0d96a2b89b829472846113a1565b505b8160050361087857610e1d7fb0aafe805b29ea5e57cdf96e1f39c2ff0e6edd978cc45f739c43f08208c90d6e846113a1565b506108317fb7cd08e7968c8eb3cceee719dc902b03ff20ef36607309c7b72f07cdb4dbcd3d846113a1565b6010545f90640100000000900460ff16610e75576040516334bc2a9160e01b815260040160405180910390fd5b610e7d611962565b610e85611870565b610e9033848461133a565b50600161073d6001600655565b601054610100900460ff16610ec55760405163f5cd3cbb60e01b815260040160405180910390fd5b610ecd611962565b610ed5611870565b6001600160a01b038216610efc5760405163e720ed0d60e01b815260040160405180910390fd5b610f267fb7cd08e7968c8eb3cceee719dc902b03ff20ef36607309c7b72f07cdb4dbcd3d33610b63565b80610f355750610f3533610949565b610f5257604051636f2e121d60e01b815260040160405180910390fd5b610f5c828261198c565b610a486001600655565b83421115610f8a57604051632341d78760e11b815260048101859052602401610936565b604080517fe48329057bfd03d55e49b547132e39cffd9c1820ad7b9d4c5307691425d15adf60208201526001600160a01b0388169181019190915260608101869052608081018590525f9061100390610ffb9060a001604051602081830303815290604052805190602001206119c0565b8585856119ec565b905061100f8187611a18565b6110198188611743565b50505050505050565b834211156110465760405163313c898160e11b815260048101859052602401610936565b5f7f6e71edae12b1b97f4d1f60370fef10105fa2faae0126114a169c64845d6126c98888886110918c6001600160a01b03165f908152600a6020526040902080546001810190915590565b6040805160208101969096526001600160a01b0394851690860152929091166060840152608083015260a082015260c0810186905260e0016040516020818303038152906040528051906020012090505f6110eb826119c0565b90505f6110fa828787876119ec565b9050896001600160a01b0316816001600160a01b031614611141576040516325c0072360e11b81526001600160a01b0380831660048301528b166024820152604401610936565b61114c8a8a8a6112b7565b50505050505050505050565b5f828152600e602052604090206001015461117281611397565b610831838361155b565b611184611962565b61118c611870565b60105460ff166111af57604051632203aebf60e21b815260040160405180910390fd5b6001600160a01b0382166111d65760405163e720ed0d60e01b815260040160405180910390fd5b5f81116111f65760405163082e6a8360e31b815260040160405180910390fd5b6112207f262c70cb68844873654dc54487b634cb00850c1e13c785cd0d96a2b89b82947233610b63565b8061122f575061122f33610949565b61124c57604051636f2e121d60e01b815260040160405180910390fd5b610f5c8282611a6a565b604080518082019091525f80825260208201526112738383611a9e565b9392505050565b6112826117d5565b6001600160a01b0381166112ab57604051631e4fbdf760e01b81525f6004820152602401610936565b6112b481611802565b50565b6108788383836001611ad2565b6001600160a01b038381165f908152600160209081526040808320938616835292905220545f19811015610831578181101561132c57604051637dc7a0d960e11b81526001600160a01b03841660048201526024810182905260448101839052606401610936565b61083184848484035f611ad2565b6001600160a01b03831661136357604051634b637e8f60e11b81525f6004820152602401610936565b6001600160a01b03821661138c5760405163ec442f0560e01b81525f6004820152602401610936565b610878838383611ba4565b6112b48133611bb7565b5f6113ac8383610b63565b61142b575f838152600e602090815260408083206001600160a01b03861684529091529020805460ff191660011790556113e33390565b6001600160a01b0316826001600160a01b0316847f2f8788117e7eff1d82e926ec794901d17c78024a50270940304540a733656f0d60405160405180910390a450600161073d565b505f61073d565b5f306001600160a01b037f00000000000000000000000000000000000000000000000000000000000000001614801561148a57507f000000000000000000000000000000000000000000000000000000000000000046145b156114b457507f000000000000000000000000000000000000000000000000000000000000000090565b610840604080517f8b73c3c69bb8fe3d512ecc4cf759cc79239f7b179b0ffacaa9a75d522b39400f60208201527f0000000000000000000000000000000000000000000000000000000000000000918101919091527f000000000000000000000000000000000000000000000000000000000000000060608201524660808201523060a08201525f9060c00160405160208183030381529060405280519060200120905090565b5f6115668383610b63565b1561142b575f838152600e602090815260408083206001600160a01b0386168085529252808320805460ff1916905551339286917ff6391f5c32d9c69d2a47ea670b442974b53935d1edc7fd64eb21e047a839171b9190a450600161073d565b5f5f6115d0610b8d565b90508065ffffffffffff16831061160b57604051637669fc0f60e11b81526004810184905265ffffffffffff82166024820152604401610936565b61127383611bf0565b81545f9081816005811115611670575f61162d84611c26565b61163790856129d5565b5f8881526020902090915081015465ffffffffffff90811690871610156116605780915061166e565b61166b8160016129e8565b92505b505b5f61167d87878585611d7e565b905080156116b7576116a1876116946001846129d5565b5f91825260209091200190565b54600160301b90046001600160d01b03166116b9565b5f5b979650505050505050565b60055460ff1661094757604051638dfc202b60e01b815260040160405180910390fd5b6116ef6116c4565b6005805460ff191690557f5db9ee0a495bf2e6ff9c91a7834c1ba4fdd244a5e8aa4e537bd38aeae4b073aa335b6040516001600160a01b03909116815260200160405180910390a1565b5f61084043611bf0565b6001600160a01b038281165f818152600b602052604080822080548686166001600160a01b0319821681179092559151919094169392849290917f3134e8a2e6d97e929a7e54011ea5485d7d196dd5f0ba4d4ef95803e8e3fc257f9190a461087881836117af86611ddd565b611dfa565b6001600160a01b0381165f908152600c602052604081205461073d90611f63565b6007546001600160a01b031633146109475760405163118cdaa760e01b8152336004820152602401610936565b600780546001600160a01b038381166001600160a01b0319831681179093556040519116919082907f8be0079c531659141344cd1fd0a4f28419497f9722a3daafe3b4186f6b6457e0905f90a35050565b6001600160a01b0381165f908152600a602052604081205461073d565b60055460ff16156109475760405163d93c066560e01b815260040160405180910390fd5b61189c611870565b6005805460ff191660011790557f62e78cea01bee320cd4e420270b5ea74000d11b0c9f74754ebdbfc544b05a25861171c3390565b60606108407f00000000000000000000000000000000000000000000000000000000000000006008611f93565b60606108407f00000000000000000000000000000000000000000000000000000000000000006009611f93565b80545f90801561195a57611944836116946001846129d5565b54600160301b90046001600160d01b0316611273565b5f9392505050565b60026006540361198557604051633ee5aeb560e01b815260040160405180910390fd5b6002600655565b6001600160a01b0382166119b557604051634b637e8f60e11b81525f6004820152602401610936565b610a48825f83611ba4565b5f61073d6119cc611432565b8360405161190160f01b8152600281019290925260228201526042902090565b5f5f5f5f6119fc8888888861203c565b925092509250611a0c8282612104565b50909695505050505050565b6001600160a01b0382165f908152600a60205260409020805460018101909155818114610878576040516301d4b62360e61b81526001600160a01b038416600482015260248101829052604401610936565b6001600160a01b038216611a935760405163ec442f0560e01b81525f6004820152602401610936565b610a485f8383611ba4565b604080518082019091525f80825260208201526001600160a01b0383165f908152600c6020526040902061127390836121bc565b6001600160a01b038416611afb5760405163e602df0560e01b81525f6004820152602401610936565b6001600160a01b038316611b2457604051634a1406b160e11b81525f6004820152602401610936565b6001600160a01b038085165f908152600160209081526040808320938716835292905220829055801561083157826001600160a01b0316846001600160a01b03167f8c5be1e5ebec7d5bd14f71427d1e84f3dd0314c0f7b2291e5b200ac8c7c3b92584604051611b9691815260200190565b60405180910390a350505050565b611bac611870565b610878838383612229565b611bc18282610b63565b610a485760405163e2517d3f60e01b81526001600160a01b038216600482015260248101839052604401610936565b5f65ffffffffffff821115611c22576040516306dfcc6560e41b81526030600482015260248101839052604401610936565b5090565b5f60018211611c33575090565b816001600160801b8210611c4c5760809190911c9060401b5b680100000000000000008210611c675760409190911c9060201b5b6401000000008210611c7e5760209190911c9060101b5b620100008210611c935760109190911c9060081b5b6101008210611ca75760089190911c9060041b5b60108210611cba5760049190911c9060021b5b60048210611cc65760011b5b600302600190811c90818581611cde57611cde6129fb565b048201901c90506001818581611cf657611cf66129fb565b048201901c90506001818581611d0e57611d0e6129fb565b048201901c90506001818581611d2657611d266129fb565b048201901c90506001818581611d3e57611d3e6129fb565b048201901c90506001818581611d5657611d566129fb565b048201901c9050611d75818581611d6f57611d6f6129fb565b04821190565b90039392505050565b5f5b81831015611dd5575f611d93848461228f565b5f8781526020902090915065ffffffffffff86169082015465ffffffffffff161115611dc157809250611dcf565b611dcc8160016129e8565b93505b50611d80565b509392505050565b6001600160a01b0381165f9081526020819052604081205461073d565b816001600160a01b0316836001600160a01b031614158015611e1b57505f81115b15610878576001600160a01b03831615611ec2576001600160a01b0383165f908152600c602052604081208190611e5d906122a9611e58866122b4565b6122e7565b6001600160d01b031691506001600160d01b03169150846001600160a01b03167fdec2bacdd2f05b59de34da9b523dff8be42e5e38e818c82fdb0bae774387a7248383604051611eb7929190918252602082015260400190565b60405180910390a250505b6001600160a01b03821615610878576001600160a01b0382165f908152600c602052604081208190611efa9061231f611e58866122b4565b6001600160d01b031691506001600160d01b03169150836001600160a01b03167fdec2bacdd2f05b59de34da9b523dff8be42e5e38e818c82fdb0bae774387a7248383604051611f54929190918252602082015260400190565b60405180910390a25050505050565b5f63ffffffff821115611c22576040516306dfcc6560e41b81526020600482015260248101839052604401610936565b606060ff8314611fad57611fa68361232a565b905061073d565b818054611fb990612989565b80601f0160208091040260200160405190810160405280929190818152602001828054611fe590612989565b80156120305780601f1061200757610100808354040283529160200191612030565b820191905f5260205f20905b81548152906001019060200180831161201357829003601f168201915b5050505050905061073d565b5f80807f7fffffffffffffffffffffffffffffff5d576e7357a4501ddfe92f46681b20a084111561207557505f915060039050826120fa565b604080515f808252602082018084528a905260ff891692820192909252606081018790526080810186905260019060a0016020604051602081039080840390855afa1580156120c6573d5f5f3e3d5ffd5b5050604051601f1901519150506001600160a01b0381166120f157505f9250600191508290506120fa565b92505f91508190505b9450945094915050565b5f82600381111561211757612117612a0f565b03612120575050565b600182600381111561213457612134612a0f565b036121525760405163f645eedf60e01b815260040160405180910390fd5b600282600381111561216657612166612a0f565b036121875760405163fce698f760e01b815260048101829052602401610936565b600382600381111561219b5761219b612a0f565b03610a48576040516335e2f38360e21b815260048101829052602401610936565b604080518082019091525f8082526020820152825f018263ffffffff16815481106121e9576121e9612a23565b5f9182526020918290206040805180820190915291015465ffffffffffff81168252600160301b90046001600160d01b0316918101919091529392505050565b612234838383612367565b6001600160a01b038316612284575f61224c60025490565b90506001600160d01b038082111561228157604051630e58ae9360e11b81526004810183905260248101829052604401610936565b50505b61087883838361248d565b5f61229d6002848418612a37565b611273908484166129e8565b5f6112738284612a56565b5f6001600160d01b03821115611c22576040516306dfcc6560e41b815260d0600482015260248101839052604401610936565b5f5f6123126122f4610b8d565b61230a6123008861192b565b868863ffffffff16565b879190612502565b915091505b935093915050565b5f6112738284612a75565b60605f6123368361250f565b6040805160208082528183019092529192505f91906020820181803683375050509182525060208101929092525090565b6001600160a01b038316612391578060025f82825461238691906129e8565b909155506124019050565b6001600160a01b0383165f90815260208190526040902054818110156123e35760405163391434e360e21b81526001600160a01b03851660048201526024810182905260448101839052606401610936565b6001600160a01b0384165f9081526020819052604090209082900390555b6001600160a01b03821661241d5760028054829003905561243b565b6001600160a01b0382165f9081526020819052604090208054820190555b816001600160a01b0316836001600160a01b03167fddf252ad1be2c89b69c2b068fc378daa952ba7f163c4a11628f55a4df523b3ef8360405161248091815260200190565b60405180910390a3505050565b6001600160a01b0383166124af576124ac600d61231f611e58846122b4565b50505b6001600160a01b0382166124d1576124ce600d6122a9611e58846122b4565b50505b6001600160a01b038381165f908152600b602052604080822054858416835291205461087892918216911683611dfa565b5f80612312858585612536565b5f60ff8216601f81111561073d57604051632cd44ac360e21b815260040160405180910390fd5b82545f908190801561262c575f612552876116946001856129d5565b805490915065ffffffffffff80821691600160301b90046001600160d01b031690881682111561259557604051632520601d60e01b815260040160405180910390fd5b8765ffffffffffff168265ffffffffffff16036125ce57825465ffffffffffff16600160301b6001600160d01b0389160217835561261e565b6040805180820190915265ffffffffffff808a1682526001600160d01b03808a1660208085019182528d54600181018f555f8f81529190912094519151909216600160301b029216919091179101555b945085935061231792505050565b50506040805180820190915265ffffffffffff80851682526001600160d01b0380851660208085019182528854600181018a555f8a815291822095519251909316600160301b029190931617920191909155905081612317565b5f60208284031215612696575f5ffd5b81356001600160e01b031981168114611273575f5ffd5b5f81518084528060208401602086015e5f602082860101526020601f19601f83011685010191505092915050565b602081525f61127360208301846126ad565b80356001600160a01b0381168114612703575f5ffd5b919050565b5f5f60408385031215612719575f5ffd5b612722836126ed565b946020939093013593505050565b5f5f5f60608486031215612742575f5ffd5b61274b846126ed565b9250612759602085016126ed565b929592945050506040919091013590565b5f6020828403121561277a575f5ffd5b5035919050565b5f5f60408385031215612792575f5ffd5b823591506127a2602084016126ed565b90509250929050565b5f602082840312156127bb575f5ffd5b611273826126ed565b60ff60f81b8816815260e060208201525f6127e260e08301896126ad565b82810360408401526127f481896126ad565b606084018890526001600160a01b038716608085015260a0840186905283810360c0850152845180825260208087019350909101905f5b8181101561284957835183526020938401939092019160010161282b565b50909b9a5050505050505050505050565b803560ff81168114612703575f5ffd5b5f5f5f5f5f5f60c0878903121561287f575f5ffd5b612888876126ed565b955060208701359450604087013593506128a46060880161285a565b9598949750929560808101359460a0909101359350915050565b5f5f5f5f5f5f5f60e0888a0312156128d4575f5ffd5b6128dd886126ed565b96506128eb602089016126ed565b955060408801359450606088013593506129076080890161285a565b9699959850939692959460a0840135945060c09093013592915050565b5f5f60408385031215612935575f5ffd5b61293e836126ed565b91506127a2602084016126ed565b5f5f6040838503121561295d575f5ffd5b612966836126ed565b9150602083013563ffffffff8116811461297e575f5ffd5b809150509250929050565b600181811c9082168061299d57607f821691505b6020821081036129bb57634e487b7160e01b5f52602260045260245ffd5b50919050565b634e487b7160e01b5f52601160045260245ffd5b8181038181111561073d5761073d6129c1565b8082018082111561073d5761073d6129c1565b634e487b7160e01b5f52601260045260245ffd5b634e487b7160e01b5f52602160045260245ffd5b634e487b7160e01b5f52603260045260245ffd5b5f82612a5157634e487b7160e01b5f52601260045260245ffd5b500490565b6001600160d01b03828116828216039081111561073d5761073d6129c1565b6001600160d01b03818116838216019081111561073d5761073d6129c156fea26469706673582212201750ca9deca73dd19bb72e56eea85f62229b050034cab8ec89f8f46dd88b793c64736f6c634300081d0033",
			"opcodes": "PUSH2 0x160 PUSH1 0x40 MSTORE CALLVALUE DUP1 ISZERO PUSH2 0x10 JUMPI PUSH0 PUSH0 REVERT JUMPDEST POP PUSH1 0x40 MLOAD PUSH2 0x327D CODESIZE SUB DUP1 PUSH2 0x327D DUP4 CODECOPY DUP2 ADD PUSH1 0x40 DUP2 SWAP1 MSTORE PUSH2 0x2F SWAP2 PUSH2 0x51E JUMP JUMPDEST PUSH1 0x40 DUP1 MLOAD DUP1 DUP3 ADD SWAP1 SWAP2 MSTORE PUSH1 0x1 DUP2 MSTORE PUSH1 0x31 PUSH1 0xF8 SHL PUSH1 0x20 DUP3 ADD MSTORE DUP6 SWAP1 DUP2 SWAP1 DUP6 DUP3 DUP9 PUSH1 0x3 PUSH2 0x5A DUP4 DUP3 PUSH2 0x650 JUMP JUMPDEST POP PUSH1 0x4 PUSH2 0x67 DUP3 DUP3 PUSH2 0x650 JUMP JUMPDEST POP POP PUSH1 0x5 DUP1 SLOAD PUSH1 0xFF NOT AND SWAP1 SSTORE POP PUSH1 0x1 PUSH1 0x6 SSTORE PUSH1 0x1 PUSH1 0x1 PUSH1 0xA0 SHL SUB DUP2 AND PUSH2 0xA7 JUMPI PUSH1 0x40 MLOAD PUSH4 0x1E4FBDF7 PUSH1 0xE0 SHL DUP2 MSTORE PUSH0 PUSH1 0x4 DUP3 ADD MSTORE PUSH1 0x24 ADD JUMPDEST PUSH1 0x40 MLOAD DUP1 SWAP2 SUB SWAP1 REVERT JUMPDEST PUSH2 0xB0 DUP2 PUSH2 0x263 JUMP JUMPDEST POP PUSH2 0xBC DUP3 PUSH1 0x8 PUSH2 0x2B4 JUMP JUMPDEST PUSH2 0x120 MSTORE PUSH2 0xCB DUP2 PUSH1 0x9 PUSH2 0x2B4 JUMP JUMPDEST PUSH2 0x140 MSTORE DUP2 MLOAD PUSH1 0x20 DUP1 DUP5 ADD SWAP2 SWAP1 SWAP2 KECCAK256 PUSH1 0xE0 MSTORE DUP2 MLOAD SWAP1 DUP3 ADD KECCAK256 PUSH2 0x100 MSTORE CHAINID PUSH1 0xA0 MSTORE PUSH2 0x157 PUSH1 0xE0 MLOAD PUSH2 0x100 MLOAD PUSH1 0x40 DUP1 MLOAD PUSH32 0x8B73C3C69BB8FE3D512ECC4CF759CC79239F7B179B0FFACAA9A75D522B39400F PUSH1 0x20 DUP3 ADD MSTORE SWAP1 DUP2 ADD SWAP3 SWAP1 SWAP3 MSTORE PUSH1 0x60 DUP3 ADD MSTORE CHAINID PUSH1 0x80 DUP3 ADD MSTORE ADDRESS PUSH1 0xA0 DUP3 ADD MSTORE PUSH0 SWAP1 PUSH1 0xC0 ADD PUSH1 0x40 MLOAD PUSH1 0x20 DUP2 DUP4 SUB SUB DUP2 MSTORE SWAP1 PUSH1 0x40 MSTORE DUP1 MLOAD SWAP1 PUSH1 0x20 ADD KECCAK256 SWAP1 POP SWAP1 JUMP JUMPDEST PUSH1 0x80 MSTORE POP POP ADDRESS PUSH1 0xC0 MSTORE POP PUSH1 0xF DUP1 SLOAD PUSH2 0x100 PUSH1 0x1 PUSH1 0xA8 SHL SUB NOT AND SWAP1 SSTORE PUSH2 0x214 DUP2 PUSH1 0x60 DUP2 ADD MLOAD PUSH1 0x10 DUP1 SLOAD PUSH1 0x20 DUP5 ADD MLOAD DUP5 MLOAD PUSH1 0x40 DUP7 ADD MLOAD PUSH1 0x80 DUP8 ADD MLOAD PUSH1 0xA0 SWAP1 SWAP8 ADD MLOAD PUSH4 0xFF00FF00 NOT SWAP1 SWAP5 AND PUSH4 0x1000000 SWAP7 ISZERO ISZERO SWAP7 SWAP1 SWAP7 MUL PUSH2 0xFF00 NOT AND SWAP6 SWAP1 SWAP6 OR PUSH2 0x100 SWAP3 ISZERO ISZERO SWAP3 SWAP1 SWAP3 MUL SWAP2 SWAP1 SWAP2 OR PUSH3 0xFF00FF NOT AND SWAP1 ISZERO ISZERO PUSH3 0xFF0000 NOT AND OR PUSH3 0x10000 SWAP4 ISZERO ISZERO SWAP4 SWAP1 SWAP4 MUL SWAP3 SWAP1 SWAP3 OR PUSH2 0xFFFF PUSH1 0x20 SHL NOT AND PUSH5 0x100000000 SWAP4 ISZERO ISZERO SWAP4 SWAP1 SWAP4 MUL PUSH1 0xFF PUSH1 0x28 SHL NOT AND SWAP3 SWAP1 SWAP3 OR PUSH6 0x10000000000 SWAP2 ISZERO ISZERO SWAP2 SWAP1 SWAP2 MUL OR SWAP1 SSTORE JUMP JUMPDEST PUSH1 0xF DUP1 SLOAD PUSH1 0xFF NOT AND PUSH1 0xFF DUP5 AND OR SWAP1 SSTORE PUSH2 0x22D PUSH0 DUP5 PUSH2 0x2E6 JUMP JUMPDEST POP PUSH2 0x258 PUSH32 0x5611063D513780FD7CB3F52DEDF0696140727F47EE0024E046EA70E4F4D62A13 DUP5 PUSH2 0x2E6 JUMP JUMPDEST POP POP POP POP POP POP PUSH2 0x762 JUMP JUMPDEST PUSH1 0x7 DUP1 SLOAD PUSH1 0x1 PUSH1 0x1 PUSH1 0xA0 SHL SUB DUP4 DUP2 AND PUSH1 0x1 PUSH1 0x1 PUSH1 0xA0 SHL SUB NOT DUP4 AND DUP2 OR SWAP1 SWAP4 SSTORE PUSH1 0x40 MLOAD SWAP2 AND SWAP2 SWAP1 DUP3 SWAP1 PUSH32 0x8BE0079C531659141344CD1FD0A4F28419497F9722A3DAAFE3B4186F6B6457E0 SWAP1 PUSH0 SWAP1 LOG3 POP POP JUMP JUMPDEST PUSH0 PUSH1 0x20 DUP4 MLOAD LT ISZERO PUSH2 0x2CF JUMPI PUSH2 0x2C8 DUP4 PUSH2 0x391 JUMP JUMPDEST SWAP1 POP PUSH2 0x2E0 JUMP JUMPDEST DUP2 PUSH2 0x2DA DUP5 DUP3 PUSH2 0x650 JUMP JUMPDEST POP PUSH1 0xFF SWAP1 POP JUMPDEST SWAP3 SWAP2 POP POP JUMP JUMPDEST PUSH0 DUP3 DUP2 MSTORE PUSH1 0xE PUSH1 0x20 SWAP1 DUP2 MSTORE PUSH1 0x40 DUP1 DUP4 KECCAK256 PUSH1 0x1 PUSH1 0x1 PUSH1 0xA0 SHL SUB DUP6 AND DUP5 MSTORE SWAP1 SWAP2 MSTORE DUP2 KECCAK256 SLOAD PUSH1 0xFF AND PUSH2 0x38A JUMPI PUSH0 DUP4 DUP2 MSTORE PUSH1 0xE PUSH1 0x20 SWAP1 DUP2 MSTORE PUSH1 0x40 DUP1 DUP4 KECCAK256 PUSH1 0x1 PUSH1 0x1 PUSH1 0xA0 SHL SUB DUP7 AND DUP5 MSTORE SWAP1 SWAP2 MSTORE SWAP1 KECCAK256 DUP1 SLOAD PUSH1 0xFF NOT AND PUSH1 0x1 OR SWAP1 SSTORE PUSH2 0x342 CALLER SWAP1 JUMP JUMPDEST PUSH1 0x1 PUSH1 0x1 PUSH1 0xA0 SHL SUB AND DUP3 PUSH1 0x1 PUSH1 0x1 PUSH1 0xA0 SHL SUB AND DUP5 PUSH32 0x2F8788117E7EFF1D82E926EC794901D17C78024A50270940304540A733656F0D PUSH1 0x40 MLOAD PUSH1 0x40 MLOAD DUP1 SWAP2 SUB SWAP1 LOG4 POP PUSH1 0x1 PUSH2 0x2E0 JUMP JUMPDEST POP PUSH0 PUSH2 0x2E0 JUMP JUMPDEST PUSH0 PUSH0 DUP3 SWAP1 POP PUSH1 0x1F DUP2 MLOAD GT ISZERO PUSH2 0x3BB JUMPI DUP3 PUSH1 0x40 MLOAD PUSH4 0x305A27A9 PUSH1 0xE0 SHL DUP2 MSTORE PUSH1 0x4 ADD PUSH2 0x9E SWAP2 SWAP1 PUSH2 0x70A JUMP JUMPDEST DUP1 MLOAD PUSH2 0x3C6 DUP3 PUSH2 0x73F JUMP JUMPDEST OR SWAP4 SWAP3 POP POP POP JUMP JUMPDEST PUSH4 0x4E487B71 PUSH1 0xE0 SHL PUSH0 MSTORE PUSH1 0x41 PUSH1 0x4 MSTORE PUSH1 0x24 PUSH0 REVERT JUMPDEST PUSH0 DUP3 PUSH1 0x1F DUP4 ADD SLT PUSH2 0x3F1 JUMPI PUSH0 PUSH0 REVERT JUMPDEST DUP2 MLOAD PUSH1 0x1 PUSH1 0x1 PUSH1 0x40 SHL SUB DUP2 GT ISZERO PUSH2 0x40A JUMPI PUSH2 0x40A PUSH2 0x3CE JUMP JUMPDEST PUSH1 0x40 MLOAD PUSH1 0x1F DUP3 ADD PUSH1 0x1F NOT SWAP1 DUP2 AND PUSH1 0x3F ADD AND DUP2 ADD PUSH1 0x1 PUSH1 0x1 PUSH1 0x40 SHL SUB DUP2 GT DUP3 DUP3 LT OR ISZERO PUSH2 0x438 JUMPI PUSH2 0x438 PUSH2 0x3CE JUMP JUMPDEST PUSH1 0x40 MSTORE DUP2 DUP2 MSTORE DUP4 DUP3 ADD PUSH1 0x20 ADD DUP6 LT ISZERO PUSH2 0x44F JUMPI PUSH0 PUSH0 REVERT JUMPDEST DUP2 PUSH1 0x20 DUP6 ADD PUSH1 0x20 DUP4 ADD MCOPY PUSH0 SWAP2 DUP2 ADD PUSH1 0x20 ADD SWAP2 SWAP1 SWAP2 MSTORE SWAP4 SWAP3 POP POP POP JUMP JUMPDEST DUP1 MLOAD DUP1 ISZERO ISZERO DUP2 EQ PUSH2 0x47A JUMPI PUSH0 PUSH0 REVERT JUMPDEST SWAP2 SWAP1 POP JUMP JUMPDEST PUSH0 PUSH1 0xC0 DUP3 DUP5 SUB SLT ISZERO PUSH2 0x48F JUMPI PUSH0 PUSH0 REVERT JUMPDEST PUSH1 0x40 MLOAD PUSH1 0xC0 DUP2 ADD PUSH1 0x1 PUSH1 0x1 PUSH1 0x40 SHL SUB DUP2 GT DUP3 DUP3 LT OR ISZERO PUSH2 0x4B1 JUMPI PUSH2 0x4B1 PUSH2 0x3CE JUMP JUMPDEST PUSH1 0x40 MSTORE SWAP1 POP DUP1 PUSH2 0x4C0 DUP4 PUSH2 0x46B JUMP JUMPDEST DUP2 MSTORE PUSH2 0x4CE PUSH1 0x20 DUP5 ADD PUSH2 0x46B JUMP JUMPDEST PUSH1 0x20 DUP3 ADD MSTORE PUSH2 0x4DF PUSH1 0x40 DUP5 ADD PUSH2 0x46B JUMP JUMPDEST PUSH1 0x40 DUP3 ADD MSTORE PUSH2 0x4F0 PUSH1 0x60 DUP5 ADD PUSH2 0x46B JUMP JUMPDEST PUSH1 0x60 DUP3 ADD MSTORE PUSH2 0x501 PUSH1 0x80 DUP5 ADD PUSH2 0x46B JUMP JUMPDEST PUSH1 0x80 DUP3 ADD MSTORE PUSH2 0x512 PUSH1 0xA0 DUP5 ADD PUSH2 0x46B JUMP JUMPDEST PUSH1 0xA0 DUP3 ADD MSTORE POP SWAP3 SWAP2 POP POP JUMP JUMPDEST PUSH0 PUSH0 PUSH0 PUSH0 PUSH0 PUSH2 0x140 DUP7 DUP9 SUB SLT ISZERO PUSH2 0x533 JUMPI PUSH0 PUSH0 REVERT JUMPDEST DUP6 MLOAD PUSH1 0x1 PUSH1 0x1 PUSH1 0x40 SHL SUB DUP2 GT ISZERO PUSH2 0x548 JUMPI PUSH0 PUSH0 REVERT JUMPDEST PUSH2 0x554 DUP9 DUP3 DUP10 ADD PUSH2 0x3E2 JUMP JUMPDEST PUSH1 0x20 DUP9 ADD MLOAD SWAP1 SWAP7 POP SWAP1 POP PUSH1 0x1 PUSH1 0x1 PUSH1 0x40 SHL SUB DUP2 GT ISZERO PUSH2 0x571 JUMPI PUSH0 PUSH0 REVERT JUMPDEST PUSH2 0x57D DUP9 DUP3 DUP10 ADD PUSH2 0x3E2 JUMP JUMPDEST PUSH1 0x40 DUP9 ADD MLOAD SWAP1 SWAP6 POP SWAP1 POP PUSH1 0x1 PUSH1 0x1 PUSH1 0xA0 SHL SUB DUP2 AND DUP2 EQ PUSH2 0x59B JUMPI PUSH0 PUSH0 REVERT JUMPDEST PUSH1 0x60 DUP8 ADD MLOAD SWAP1 SWAP4 POP PUSH1 0xFF DUP2 AND DUP2 EQ PUSH2 0x5B1 JUMPI PUSH0 PUSH0 REVERT JUMPDEST SWAP2 POP PUSH2 0x5C0 DUP8 PUSH1 0x80 DUP9 ADD PUSH2 0x47F JUMP JUMPDEST SWAP1 POP SWAP3 SWAP6 POP SWAP3 SWAP6 SWAP1 SWAP4 POP JUMP JUMPDEST PUSH1 0x1 DUP2 DUP2 SHR SWAP1 DUP3 AND DUP1 PUSH2 0x5E0 JUMPI PUSH1 0x7F DUP3 AND SWAP2 POP JUMPDEST PUSH1 0x20 DUP3 LT DUP2 SUB PUSH2 0x5FE JUMPI PUSH4 0x4E487B71 PUSH1 0xE0 SHL PUSH0 MSTORE PUSH1 0x22 PUSH1 0x4 MSTORE PUSH1 0x24 PUSH0 REVERT JUMPDEST POP SWAP2 SWAP1 POP JUMP JUMPDEST PUSH1 0x1F DUP3 GT ISZERO PUSH2 0x64B JUMPI DUP1 PUSH0 MSTORE PUSH1 0x20 PUSH0 KECCAK256 PUSH1 0x1F DUP5 ADD PUSH1 0x5 SHR DUP2 ADD PUSH1 0x20 DUP6 LT ISZERO PUSH2 0x629 JUMPI POP DUP1 JUMPDEST PUSH1 0x1F DUP5 ADD PUSH1 0x5 SHR DUP3 ADD SWAP2 POP JUMPDEST DUP2 DUP2 LT ISZERO PUSH2 0x648 JUMPI PUSH0 DUP2 SSTORE PUSH1 0x1 ADD PUSH2 0x635 JUMP JUMPDEST POP POP JUMPDEST POP POP POP JUMP JUMPDEST DUP2 MLOAD PUSH1 0x1 PUSH1 0x1 PUSH1 0x40 SHL SUB DUP2 GT ISZERO PUSH2 0x669 JUMPI PUSH2 0x669 PUSH2 0x3CE JUMP JUMPDEST PUSH2 0x67D DUP2 PUSH2 0x677 DUP5 SLOAD PUSH2 0x5CC JUMP JUMPDEST DUP5 PUSH2 0x604 JUMP JUMPDEST PUSH1 0x20 PUSH1 0x1F DUP3 GT PUSH1 0x1 DUP2 EQ PUSH2 0x6AF JUMPI PUSH0 DUP4 ISZERO PUSH2 0x698 JUMPI POP DUP5 DUP3 ADD MLOAD JUMPDEST PUSH0 NOT PUSH1 0x3 DUP6 SWAP1 SHL SHR NOT AND PUSH1 0x1 DUP5 SWAP1 SHL OR DUP5 SSTORE PUSH2 0x648 JUMP JUMPDEST PUSH0 DUP5 DUP2 MSTORE PUSH1 0x20 DUP2 KECCAK256 PUSH1 0x1F NOT DUP6 AND SWAP2 JUMPDEST DUP3 DUP2 LT ISZERO PUSH2 0x6DE JUMPI DUP8 DUP6 ADD MLOAD DUP3 SSTORE PUSH1 0x20 SWAP5 DUP6 ADD SWAP5 PUSH1 0x1 SWAP1 SWAP3 ADD SWAP2 ADD PUSH2 0x6BE JUMP JUMPDEST POP DUP5 DUP3 LT ISZERO PUSH2 0x6FB JUMPI DUP7 DUP5 ADD MLOAD PUSH0 NOT PUSH1 0x3 DUP8 SWAP1 SHL PUSH1 0xF8 AND SHR NOT AND DUP2 SSTORE JUMPDEST POP POP POP POP PUSH1 0x1 SWAP1 DUP2 SHL ADD SWAP1 SSTORE POP JUMP JUMPDEST PUSH1 0x20 DUP2 MSTORE PUSH0 DUP3 MLOAD DUP1 PUSH1 0x20 DUP5 ADD MSTORE DUP1 PUSH1 0x20 DUP6 ADD PUSH1 0x40 DUP6 ADD MCOPY PUSH0 PUSH1 0x40 DUP3 DUP6 ADD ADD MSTORE PUSH1 0x40 PUSH1 0x1F NOT PUSH1 0x1F DUP4 ADD AND DUP5 ADD ADD SWAP2 POP POP SWAP3 SWAP2 POP POP JUMP JUMPDEST DUP1 MLOAD PUSH1 0x20 DUP1 DUP4 ADD MLOAD SWAP2 SWAP1 DUP2 LT ISZERO PUSH2 0x5FE JUMPI PUSH0 NOT PUSH1 0x20 SWAP2 SWAP1 SWAP2 SUB PUSH1 0x3 SHL SHL AND SWAP2 SWAP1 POP JUMP JUMPDEST PUSH1 0x80 MLOAD PUSH1 0xA0 MLOAD PUSH1 0xC0 MLOAD PUSH1 0xE0 MLOAD PUSH2 0x100 MLOAD PUSH2 0x120 MLOAD PUSH2 0x140 MLOAD PUSH2 0x2ACA PUSH2 0x7B3 PUSH0 CODECOPY PUSH0 PUSH2 0x1905 ADD MSTORE PUSH0 PUSH2 0x18D8 ADD MSTORE PUSH0 PUSH2 0x150B ADD MSTORE PUSH0 PUSH2 0x14E3 ADD MSTORE PUSH0 PUSH2 0x143E ADD MSTORE PUSH0 PUSH2 0x1468 ADD MSTORE PUSH0 PUSH2 0x1492 ADD MSTORE PUSH2 0x2ACA PUSH0 RETURN INVALID PUSH1 0x80 PUSH1 0x40 MSTORE CALLVALUE DUP1 ISZERO PUSH2 0xF JUMPI PUSH0 PUSH0 REVERT JUMPDEST POP PUSH1 0x4 CALLDATASIZE LT PUSH2 0x281 JUMPI PUSH0 CALLDATALOAD PUSH1 0xE0 SHR DUP1 PUSH4 0x715018A6 GT PUSH2 0x156 JUMPI DUP1 PUSH4 0xA217FDDF GT PUSH2 0xCA JUMPI DUP1 PUSH4 0xD547741F GT PUSH2 0x84 JUMPI DUP1 PUSH4 0xD547741F EQ PUSH2 0x5E4 JUMPI DUP1 PUSH4 0xDD62ED3E EQ PUSH2 0x5F7 JUMPI DUP1 PUSH4 0xE742806A EQ PUSH2 0x62F JUMPI DUP1 PUSH4 0xF1127ED8 EQ PUSH2 0x642 JUMPI DUP1 PUSH4 0xF2FDE38B EQ PUSH2 0x681 JUMPI DUP1 PUSH4 0xF99E36BC EQ PUSH2 0x694 JUMPI PUSH0 PUSH0 REVERT JUMPDEST DUP1 PUSH4 0xA217FDDF EQ PUSH2 0x57E JUMPI DUP1 PUSH4 0xA2BFAD4C EQ PUSH2 0x585 JUMPI DUP1 PUSH4 0xA9059CBB EQ PUSH2 0x598 JUMPI DUP1 PUSH4 0xAECF8A6D EQ PUSH2 0x5AB JUMPI DUP1 PUSH4 0xC3CDA520 EQ PUSH2 0x5BE JUMPI DUP1 PUSH4 0xD505ACCF EQ PUSH2 0x5D1 JUMPI PUSH0 PUSH0 REVERT JUMPDEST DUP1 PUSH4 0x8E539E8C GT PUSH2 0x11B JUMPI DUP1 PUSH4 0x8E539E8C EQ PUSH2 0x50B JUMPI DUP1 PUSH4 0x91D14854 EQ PUSH2 0x51E JUMPI DUP1 PUSH4 0x91DDADF4 EQ PUSH2 0x531 JUMPI DUP1 PUSH4 0x95D89B41 EQ PUSH2 0x550 JUMPI DUP1 PUSH4 0x965AFA89 EQ PUSH2 0x558 JUMPI DUP1 PUSH4 0x9AB24EB0 EQ PUSH2 0x56B JUMPI PUSH0 PUSH0 REVERT JUMPDEST DUP1 PUSH4 0x715018A6 EQ PUSH2 0x4BC JUMPI DUP1 PUSH4 0x7ECEBE00 EQ PUSH2 0x4C4 JUMPI DUP1 PUSH4 0x8456CB59 EQ PUSH2 0x4D7 JUMPI DUP1 PUSH4 0x84B0196E EQ PUSH2 0x4DF JUMPI DUP1 PUSH4 0x8DA5CB5B EQ PUSH2 0x4FA JUMPI PUSH0 PUSH0 REVERT JUMPDEST DUP1 PUSH4 0x3A46B1A8 GT PUSH2 0x1F8 JUMPI DUP1 PUSH4 0x521F87CF GT PUSH2 0x1B2 JUMPI DUP1 PUSH4 0x521F87CF EQ PUSH2 0x40B JUMPI DUP1 PUSH4 0x587CDE1E EQ PUSH2 0x423 JUMPI DUP1 PUSH4 0x5C19A95C EQ PUSH2 0x44E JUMPI DUP1 PUSH4 0x5C975ABB EQ PUSH2 0x461 JUMPI DUP1 PUSH4 0x6FCFFF45 EQ PUSH2 0x46C JUMPI DUP1 PUSH4 0x70A08231 EQ PUSH2 0x494 JUMPI PUSH0 PUSH0 REVERT JUMPDEST DUP1 PUSH4 0x3A46B1A8 EQ PUSH2 0x391 JUMPI DUP1 PUSH4 0x3F4BA83A EQ PUSH2 0x3A4 JUMPI DUP1 PUSH4 0x4AC5B7A8 EQ PUSH2 0x3AC JUMPI DUP1 PUSH4 0x4BF5D7E9 EQ PUSH2 0x3BF JUMPI DUP1 PUSH4 0x4DCA738B EQ PUSH2 0x3C7 JUMPI DUP1 PUSH4 0x52050003 EQ PUSH2 0x3E9 JUMPI PUSH0 PUSH0 REVERT JUMPDEST DUP1 PUSH4 0x23B872DD GT PUSH2 0x249 JUMPI DUP1 PUSH4 0x23B872DD EQ PUSH2 0x317 JUMPI DUP1 PUSH4 0x248A9CA3 EQ PUSH2 0x32A JUMPI DUP1 PUSH4 0x2F2FF15D EQ PUSH2 0x34C JUMPI DUP1 PUSH4 0x313CE567 EQ PUSH2 0x361 JUMPI DUP1 PUSH4 0x3644E515 EQ PUSH2 0x376 JUMPI DUP1 PUSH4 0x36568ABE EQ PUSH2 0x37E JUMPI PUSH0 PUSH0 REVERT JUMPDEST DUP1 PUSH4 0x1FFC9A7 EQ PUSH2 0x285 JUMPI DUP1 PUSH4 0x6FDDE03 EQ PUSH2 0x2AD JUMPI DUP1 PUSH4 0x95EA7B3 EQ PUSH2 0x2C2 JUMPI DUP1 PUSH4 0x18160DDD EQ PUSH2 0x2D5 JUMPI DUP1 PUSH4 0x2131C68C EQ PUSH2 0x2E7 JUMPI JUMPDEST PUSH0 PUSH0 REVERT JUMPDEST PUSH2 0x298 PUSH2 0x293 CALLDATASIZE PUSH1 0x4 PUSH2 0x2686 JUMP JUMPDEST PUSH2 0x70D JUMP JUMPDEST PUSH1 0x40 MLOAD SWAP1 ISZERO ISZERO DUP2 MSTORE PUSH1 0x20 ADD JUMPDEST PUSH1 0x40 MLOAD DUP1 SWAP2 SUB SWAP1 RETURN JUMPDEST PUSH2 0x2B5 PUSH2 0x743 JUMP JUMPDEST PUSH1 0x40 MLOAD PUSH2 0x2A4 SWAP2 SWAP1 PUSH2 0x26DB JUMP JUMPDEST PUSH2 0x298 PUSH2 0x2D0 CALLDATASIZE PUSH1 0x4 PUSH2 0x2708 JUMP JUMPDEST PUSH2 0x7D3 JUMP JUMPDEST PUSH1 0x2 SLOAD JUMPDEST PUSH1 0x40 MLOAD SWAP1 DUP2 MSTORE PUSH1 0x20 ADD PUSH2 0x2A4 JUMP JUMPDEST PUSH1 0xF SLOAD PUSH2 0x2FF SWAP1 PUSH2 0x100 SWAP1 DIV PUSH1 0x1 PUSH1 0x1 PUSH1 0xA0 SHL SUB AND DUP2 JUMP JUMPDEST PUSH1 0x40 MLOAD PUSH1 0x1 PUSH1 0x1 PUSH1 0xA0 SHL SUB SWAP1 SWAP2 AND DUP2 MSTORE PUSH1 0x20 ADD PUSH2 0x2A4 JUMP JUMPDEST PUSH2 0x298 PUSH2 0x325 CALLDATASIZE PUSH1 0x4 PUSH2 0x2730 JUMP JUMPDEST PUSH2 0x7EA JUMP JUMPDEST PUSH2 0x2D9 PUSH2 0x338 CALLDATASIZE PUSH1 0x4 PUSH2 0x276A JUMP JUMPDEST PUSH0 SWAP1 DUP2 MSTORE PUSH1 0xE PUSH1 0x20 MSTORE PUSH1 0x40 SWAP1 KECCAK256 PUSH1 0x1 ADD SLOAD SWAP1 JUMP JUMPDEST PUSH2 0x35F PUSH2 0x35A CALLDATASIZE PUSH1 0x4 PUSH2 0x2781 JUMP JUMPDEST PUSH2 0x80D JUMP JUMPDEST STOP JUMPDEST PUSH1 0xF SLOAD PUSH1 0x40 MLOAD PUSH1 0xFF SWAP1 SWAP2 AND DUP2 MSTORE PUSH1 0x20 ADD PUSH2 0x2A4 JUMP JUMPDEST PUSH2 0x2D9 PUSH2 0x837 JUMP JUMPDEST PUSH2 0x35F PUSH2 0x38C CALLDATASIZE PUSH1 0x4 PUSH2 0x2781 JUMP JUMPDEST PUSH2 0x845 JUMP JUMPDEST PUSH2 0x2D9 PUSH2 0x39F CALLDATASIZE PUSH1 0x4 PUSH2 0x2708 JUMP JUMPDEST PUSH2 0x87D JUMP JUMPDEST PUSH2 0x35F PUSH2 0x8B7 JUMP JUMPDEST PUSH2 0x298 PUSH2 0x3BA CALLDATASIZE PUSH1 0x4 PUSH2 0x27AB JUMP JUMPDEST PUSH2 0x949 JUMP JUMPDEST PUSH2 0x2B5 PUSH2 0x9C5 JUMP JUMPDEST PUSH2 0x298 PUSH2 0x3D5 CALLDATASIZE PUSH1 0x4 PUSH2 0x27AB JUMP JUMPDEST PUSH1 0x11 PUSH1 0x20 MSTORE PUSH0 SWAP1 DUP2 MSTORE PUSH1 0x40 SWAP1 KECCAK256 SLOAD PUSH1 0xFF AND DUP2 JUMP JUMPDEST PUSH2 0x298 PUSH2 0x3F7 CALLDATASIZE PUSH1 0x4 PUSH2 0x27AB JUMP JUMPDEST PUSH1 0x12 PUSH1 0x20 MSTORE PUSH0 SWAP1 DUP2 MSTORE PUSH1 0x40 SWAP1 KECCAK256 SLOAD PUSH1 0xFF AND DUP2 JUMP JUMPDEST PUSH2 0x298 PUSH1 0xF SLOAD PUSH2 0x100 SWAP1 DIV PUSH1 0x1 PUSH1 0x1 PUSH1 0xA0 SHL SUB AND ISZERO SWAP1 JUMP JUMPDEST PUSH2 0x2FF PUSH2 0x431 CALLDATASIZE PUSH1 0x4 PUSH2 0x27AB JUMP JUMPDEST PUSH1 0x1 PUSH1 0x1 PUSH1 0xA0 SHL SUB SWAP1 DUP2 AND PUSH0 SWAP1 DUP2 MSTORE PUSH1 0xB PUSH1 0x20 MSTORE PUSH1 0x40 SWAP1 KECCAK256 SLOAD AND SWAP1 JUMP JUMPDEST PUSH2 0x35F PUSH2 0x45C CALLDATASIZE PUSH1 0x4 PUSH2 0x27AB JUMP JUMPDEST PUSH2 0xA3D JUMP JUMPDEST PUSH1 0x5 SLOAD PUSH1 0xFF AND PUSH2 0x298 JUMP JUMPDEST PUSH2 0x47F PUSH2 0x47A CALLDATASIZE PUSH1 0x4 PUSH2 0x27AB JUMP JUMPDEST PUSH2 0xA4C JUMP JUMPDEST PUSH1 0x40 MLOAD PUSH4 0xFFFFFFFF SWAP1 SWAP2 AND DUP2 MSTORE PUSH1 0x20 ADD PUSH2 0x2A4 JUMP JUMPDEST PUSH2 0x2D9 PUSH2 0x4A2 CALLDATASIZE PUSH1 0x4 PUSH2 0x27AB JUMP JUMPDEST PUSH1 0x1 PUSH1 0x1 PUSH1 0xA0 SHL SUB AND PUSH0 SWAP1 DUP2 MSTORE PUSH1 0x20 DUP2 SWAP1 MSTORE PUSH1 0x40 SWAP1 KECCAK256 SLOAD SWAP1 JUMP JUMPDEST PUSH2 0x35F PUSH2 0xA56 JUMP JUMPDEST PUSH2 0x2D9 PUSH2 0x4D2 CALLDATASIZE PUSH1 0x4 PUSH2 0x27AB JUMP JUMPDEST PUSH2 0xA67 JUMP JUMPDEST PUSH2 0x35F PUSH2 0xA71 JUMP JUMPDEST PUSH2 0x4E7 PUSH2 0xAFD JUMP JUMPDEST PUSH1 0x40 MLOAD PUSH2 0x2A4 SWAP8 SWAP7 SWAP6 SWAP5 SWAP4 SWAP3 SWAP2 SWAP1 PUSH2 0x27C4 JUMP JUMPDEST PUSH1 0x7 SLOAD PUSH1 0x1 PUSH1 0x1 PUSH1 0xA0 SHL SUB AND PUSH2 0x2FF JUMP JUMPDEST PUSH2 0x2D9 PUSH2 0x519 CALLDATASIZE PUSH1 0x4 PUSH2 0x276A JUMP JUMPDEST PUSH2 0xB3F JUMP JUMPDEST PUSH2 0x298 PUSH2 0x52C CALLDATASIZE PUSH1 0x4 PUSH2 0x2781 JUMP JUMPDEST PUSH2 0xB63 JUMP JUMPDEST PUSH2 0x539 PUSH2 0xB8D JUMP JUMPDEST PUSH1 0x40 MLOAD PUSH6 0xFFFFFFFFFFFF SWAP1 SWAP2 AND DUP2 MSTORE PUSH1 0x20 ADD PUSH2 0x2A4 JUMP JUMPDEST PUSH2 0x2B5 PUSH2 0xB96 JUMP JUMPDEST PUSH2 0x35F PUSH2 0x566 CALLDATASIZE PUSH1 0x4 PUSH2 0x27AB JUMP JUMPDEST PUSH2 0xBA5 JUMP JUMPDEST PUSH2 0x2D9 PUSH2 0x579 CALLDATASIZE PUSH1 0x4 PUSH2 0x27AB JUMP JUMPDEST PUSH2 0xCED JUMP JUMPDEST PUSH2 0x2D9 PUSH0 DUP2 JUMP JUMPDEST PUSH2 0x35F PUSH2 0x593 CALLDATASIZE PUSH1 0x4 PUSH2 0x2708 JUMP JUMPDEST PUSH2 0xD0D JUMP JUMPDEST PUSH2 0x298 PUSH2 0x5A6 CALLDATASIZE PUSH1 0x4 PUSH2 0x2708 JUMP JUMPDEST PUSH2 0xE48 JUMP JUMPDEST PUSH2 0x35F PUSH2 0x5B9 CALLDATASIZE PUSH1 0x4 PUSH2 0x2708 JUMP JUMPDEST PUSH2 0xE9D JUMP JUMPDEST PUSH2 0x35F PUSH2 0x5CC CALLDATASIZE PUSH1 0x4 PUSH2 0x286A JUMP JUMPDEST PUSH2 0xF66 JUMP JUMPDEST PUSH2 0x35F PUSH2 0x5DF CALLDATASIZE PUSH1 0x4 PUSH2 0x28BE JUMP JUMPDEST PUSH2 0x1022 JUMP JUMPDEST PUSH2 0x35F PUSH2 0x5F2 CALLDATASIZE PUSH1 0x4 PUSH2 0x2781 JUMP JUMPDEST PUSH2 0x1158 JUMP JUMPDEST PUSH2 0x2D9 PUSH2 0x605 CALLDATASIZE PUSH1 0x4 PUSH2 0x2924 JUMP JUMPDEST PUSH1 0x1 PUSH1 0x1 PUSH1 0xA0 SHL SUB SWAP2 DUP3 AND PUSH0 SWAP1 DUP2 MSTORE PUSH1 0x1 PUSH1 0x20 SWAP1 DUP2 MSTORE PUSH1 0x40 DUP1 DUP4 KECCAK256 SWAP4 SWAP1 SWAP5 AND DUP3 MSTORE SWAP2 SWAP1 SWAP2 MSTORE KECCAK256 SLOAD SWAP1 JUMP JUMPDEST PUSH2 0x35F PUSH2 0x63D CALLDATASIZE PUSH1 0x4 PUSH2 0x2708 JUMP JUMPDEST PUSH2 0x117C JUMP JUMPDEST PUSH2 0x655 PUSH2 0x650 CALLDATASIZE PUSH1 0x4 PUSH2 0x294C JUMP JUMPDEST PUSH2 0x1256 JUMP JUMPDEST PUSH1 0x40 DUP1 MLOAD DUP3 MLOAD PUSH6 0xFFFFFFFFFFFF AND DUP2 MSTORE PUSH1 0x20 SWAP3 DUP4 ADD MLOAD PUSH1 0x1 PUSH1 0x1 PUSH1 0xD0 SHL SUB AND SWAP3 DUP2 ADD SWAP3 SWAP1 SWAP3 MSTORE ADD PUSH2 0x2A4 JUMP JUMPDEST PUSH2 0x35F PUSH2 0x68F CALLDATASIZE PUSH1 0x4 PUSH2 0x27AB JUMP JUMPDEST PUSH2 0x127A JUMP JUMPDEST PUSH1 0x10 SLOAD PUSH2 0x6D4 SWAP1 PUSH1 0xFF DUP1 DUP3 AND SWAP2 PUSH2 0x100 DUP2 DIV DUP3 AND SWAP2 PUSH3 0x10000 DUP3 DIV DUP2 AND SWAP2 PUSH4 0x1000000 DUP2 DIV DUP3 AND SWAP2 PUSH5 0x100000000 DUP3 DIV DUP2 AND SWAP2 PUSH6 0x10000000000 SWAP1 DIV AND DUP7 JUMP JUMPDEST PUSH1 0x40 DUP1 MLOAD SWAP7 ISZERO ISZERO DUP8 MSTORE SWAP5 ISZERO ISZERO PUSH1 0x20 DUP8 ADD MSTORE SWAP3 ISZERO ISZERO SWAP4 DUP6 ADD SWAP4 SWAP1 SWAP4 MSTORE ISZERO ISZERO PUSH1 0x60 DUP5 ADD MSTORE SWAP1 ISZERO ISZERO PUSH1 0x80 DUP4 ADD MSTORE ISZERO ISZERO PUSH1 0xA0 DUP3 ADD MSTORE PUSH1 0xC0 ADD PUSH2 0x2A4 JUMP JUMPDEST PUSH0 PUSH1 0x1 PUSH1 0x1 PUSH1 0xE0 SHL SUB NOT DUP3 AND PUSH4 0x7965DB0B PUSH1 0xE0 SHL EQ DUP1 PUSH2 0x73D JUMPI POP PUSH4 0x1FFC9A7 PUSH1 0xE0 SHL PUSH1 0x1 PUSH1 0x1 PUSH1 0xE0 SHL SUB NOT DUP4 AND EQ JUMPDEST SWAP3 SWAP2 POP POP JUMP JUMPDEST PUSH1 0x60 PUSH1 0x3 DUP1 SLOAD PUSH2 0x752 SWAP1 PUSH2 0x2989 JUMP JUMPDEST DUP1 PUSH1 0x1F ADD PUSH1 0x20 DUP1 SWAP2 DIV MUL PUSH1 0x20 ADD PUSH1 0x40 MLOAD SWAP1 DUP2 ADD PUSH1 0x40 MSTORE DUP1 SWAP3 SWAP2 SWAP1 DUP2 DUP2 MSTORE PUSH1 0x20 ADD DUP3 DUP1 SLOAD PUSH2 0x77E SWAP1 PUSH2 0x2989 JUMP JUMPDEST DUP1 ISZERO PUSH2 0x7C9 JUMPI DUP1 PUSH1 0x1F LT PUSH2 0x7A0 JUMPI PUSH2 0x100 DUP1 DUP4 SLOAD DIV MUL DUP4 MSTORE SWAP2 PUSH1 0x20 ADD SWAP2 PUSH2 0x7C9 JUMP JUMPDEST DUP3 ADD SWAP2 SWAP1 PUSH0 MSTORE PUSH1 0x20 PUSH0 KECCAK256 SWAP1 JUMPDEST DUP2 SLOAD DUP2 MSTORE SWAP1 PUSH1 0x1 ADD SWAP1 PUSH1 0x20 ADD DUP1 DUP4 GT PUSH2 0x7AC JUMPI DUP3 SWAP1 SUB PUSH1 0x1F AND DUP3 ADD SWAP2 JUMPDEST POP POP POP POP POP SWAP1 POP SWAP1 JUMP JUMPDEST PUSH0 CALLER PUSH2 0x7E0 DUP2 DUP6 DUP6 PUSH2 0x12B7 JUMP JUMPDEST POP PUSH1 0x1 SWAP4 SWAP3 POP POP POP JUMP JUMPDEST PUSH0 CALLER PUSH2 0x7F7 DUP6 DUP3 DUP6 PUSH2 0x12C4 JUMP JUMPDEST PUSH2 0x802 DUP6 DUP6 DUP6 PUSH2 0x133A JUMP JUMPDEST POP PUSH1 0x1 SWAP5 SWAP4 POP POP POP POP JUMP JUMPDEST PUSH0 DUP3 DUP2 MSTORE PUSH1 0xE PUSH1 0x20 MSTORE PUSH1 0x40 SWAP1 KECCAK256 PUSH1 0x1 ADD SLOAD PUSH2 0x827 DUP2 PUSH2 0x1397 JUMP JUMPDEST PUSH2 0x831 DUP4 DUP4 PUSH2 0x13A1 JUMP JUMPDEST POP POP POP POP JUMP JUMPDEST PUSH0 PUSH2 0x840 PUSH2 0x1432 JUMP JUMPDEST SWAP1 POP SWAP1 JUMP JUMPDEST PUSH1 0x1 PUSH1 0x1 PUSH1 0xA0 SHL SUB DUP2 AND CALLER EQ PUSH2 0x86E JUMPI PUSH1 0x40 MLOAD PUSH4 0x334BD919 PUSH1 0xE1 SHL DUP2 MSTORE PUSH1 0x4 ADD PUSH1 0x40 MLOAD DUP1 SWAP2 SUB SWAP1 REVERT JUMPDEST PUSH2 0x878 DUP3 DUP3 PUSH2 0x155B JUMP JUMPDEST POP POP POP JUMP JUMPDEST PUSH0 PUSH2 0x8A7 PUSH2 0x88A DUP4 PUSH2 0x15C6 JUMP JUMPDEST PUSH1 0x1 PUSH1 0x1 PUSH1 0xA0 SHL SUB DUP6 AND PUSH0 SWAP1 DUP2 MSTORE PUSH1 0xC PUSH1 0x20 MSTORE PUSH1 0x40 SWAP1 KECCAK256 SWAP1 PUSH2 0x1614 JUMP JUMPDEST PUSH1 0x1 PUSH1 0x1 PUSH1 0xD0 SHL SUB AND SWAP4 SWAP3 POP POP POP JUMP JUMPDEST PUSH1 0x10 SLOAD PUSH3 0x10000 SWAP1 DIV PUSH1 0xFF AND PUSH2 0x8E0 JUMPI PUSH1 0x40 MLOAD PUSH4 0x4BEB0E8D PUSH1 0xE1 SHL DUP2 MSTORE PUSH1 0x4 ADD PUSH1 0x40 MLOAD DUP1 SWAP2 SUB SWAP1 REVERT JUMPDEST PUSH2 0x8E8 PUSH2 0x16C4 JUMP JUMPDEST PUSH1 0x5 SLOAD PUSH1 0xFF AND PUSH2 0x93F JUMPI PUSH1 0x40 MLOAD PUSH3 0x461BCD PUSH1 0xE5 SHL DUP2 MSTORE PUSH1 0x20 PUSH1 0x4 DUP3 ADD MSTORE PUSH1 0x17 PUSH1 0x24 DUP3 ADD MSTORE PUSH32 0x436F6E7472616374206973206E6F74207061757365642E000000000000000000 PUSH1 0x44 DUP3 ADD MSTORE PUSH1 0x64 ADD JUMPDEST PUSH1 0x40 MLOAD DUP1 SWAP2 SUB SWAP1 REVERT JUMPDEST PUSH2 0x947 PUSH2 0x16E7 JUMP JUMPDEST JUMP JUMPDEST PUSH0 PUSH1 0x1 PUSH1 0x1 PUSH1 0xA0 SHL SUB DUP3 AND PUSH2 0x99B JUMPI PUSH1 0x40 MLOAD PUSH3 0x461BCD PUSH1 0xE5 SHL DUP2 MSTORE PUSH1 0x20 PUSH1 0x4 DUP3 ADD MSTORE PUSH1 0x18 PUSH1 0x24 DUP3 ADD MSTORE PUSH24 0x496E76616C69642070726F706F73616C2061646472657373 PUSH1 0x40 SHL PUSH1 0x44 DUP3 ADD MSTORE PUSH1 0x64 ADD PUSH2 0x936 JUMP JUMPDEST PUSH2 0x73D PUSH32 0xB0AAFE805B29EA5E57CDF96E1F39C2FF0E6EDD978CC45F739C43F08208C90D6E DUP4 PUSH2 0xB63 JUMP JUMPDEST PUSH1 0x60 PUSH2 0x9CF PUSH2 0x1739 JUMP JUMPDEST PUSH6 0xFFFFFFFFFFFF AND PUSH2 0x9DF PUSH2 0xB8D JUMP JUMPDEST PUSH6 0xFFFFFFFFFFFF AND EQ PUSH2 0xA05 JUMPI PUSH1 0x40 MLOAD PUSH4 0x1BFC1C5 PUSH1 0xE6 SHL DUP2 MSTORE PUSH1 0x4 ADD PUSH1 0x40 MLOAD DUP1 SWAP2 SUB SWAP1 REVERT JUMPDEST POP PUSH1 0x40 DUP1 MLOAD DUP1 DUP3 ADD SWAP1 SWAP2 MSTORE PUSH1 0x1D DUP2 MSTORE PUSH32 0x6D6F64653D626C6F636B6E756D6265722666726F6D3D64656661756C74000000 PUSH1 0x20 DUP3 ADD MSTORE SWAP1 JUMP JUMPDEST CALLER PUSH2 0xA48 DUP2 DUP4 PUSH2 0x1743 JUMP JUMPDEST POP POP JUMP JUMPDEST PUSH0 PUSH2 0x73D DUP3 PUSH2 0x17B4 JUMP JUMPDEST PUSH2 0xA5E PUSH2 0x17D5 JUMP JUMPDEST PUSH2 0x947 PUSH0 PUSH2 0x1802 JUMP JUMPDEST PUSH0 PUSH2 0x73D DUP3 PUSH2 0x1853 JUMP JUMPDEST PUSH1 0x10 SLOAD PUSH3 0x10000 SWAP1 DIV PUSH1 0xFF AND PUSH2 0xA9A JUMPI PUSH1 0x40 MLOAD PUSH4 0x4BEB0E8D PUSH1 0xE1 SHL DUP2 MSTORE PUSH1 0x4 ADD PUSH1 0x40 MLOAD DUP1 SWAP2 SUB SWAP1 REVERT JUMPDEST PUSH2 0xAA2 PUSH2 0x1870 JUMP JUMPDEST PUSH1 0x5 SLOAD PUSH1 0xFF AND ISZERO PUSH2 0xAF5 JUMPI PUSH1 0x40 MLOAD PUSH3 0x461BCD PUSH1 0xE5 SHL DUP2 MSTORE PUSH1 0x20 PUSH1 0x4 DUP3 ADD MSTORE PUSH1 0x1B PUSH1 0x24 DUP3 ADD MSTORE PUSH32 0x436F6E747261637420697320616C7265616479207061757365642E0000000000 PUSH1 0x44 DUP3 ADD MSTORE PUSH1 0x64 ADD PUSH2 0x936 JUMP JUMPDEST PUSH2 0x947 PUSH2 0x1894 JUMP JUMPDEST PUSH0 PUSH1 0x60 DUP1 PUSH0 PUSH0 PUSH0 PUSH1 0x60 PUSH2 0xB0E PUSH2 0x18D1 JUMP JUMPDEST PUSH2 0xB16 PUSH2 0x18FE JUMP JUMPDEST PUSH1 0x40 DUP1 MLOAD PUSH0 DUP1 DUP3 MSTORE PUSH1 0x20 DUP3 ADD SWAP1 SWAP3 MSTORE PUSH1 0xF PUSH1 0xF8 SHL SWAP12 SWAP4 SWAP11 POP SWAP2 SWAP9 POP CHAINID SWAP8 POP ADDRESS SWAP7 POP SWAP5 POP SWAP3 POP SWAP1 POP JUMP JUMPDEST PUSH0 PUSH2 0xB54 PUSH2 0xB4C DUP4 PUSH2 0x15C6 JUMP JUMPDEST PUSH1 0xD SWAP1 PUSH2 0x1614 JUMP JUMPDEST PUSH1 0x1 PUSH1 0x1 PUSH1 0xD0 SHL SUB AND SWAP3 SWAP2 POP POP JUMP JUMPDEST PUSH0 SWAP2 DUP3 MSTORE PUSH1 0xE PUSH1 0x20 SWAP1 DUP2 MSTORE PUSH1 0x40 DUP1 DUP5 KECCAK256 PUSH1 0x1 PUSH1 0x1 PUSH1 0xA0 SHL SUB SWAP4 SWAP1 SWAP4 AND DUP5 MSTORE SWAP2 SWAP1 MSTORE SWAP1 KECCAK256 SLOAD PUSH1 0xFF AND SWAP1 JUMP JUMPDEST PUSH0 PUSH2 0x840 PUSH2 0x1739 JUMP JUMPDEST PUSH1 0x60 PUSH1 0x4 DUP1 SLOAD PUSH2 0x752 SWAP1 PUSH2 0x2989 JUMP JUMPDEST PUSH1 0xF SLOAD PUSH2 0x100 SWAP1 DIV PUSH1 0x1 PUSH1 0x1 PUSH1 0xA0 SHL SUB AND ISZERO PUSH2 0xC03 JUMPI PUSH1 0x40 MLOAD PUSH3 0x461BCD PUSH1 0xE5 SHL DUP2 MSTORE PUSH1 0x20 PUSH1 0x4 DUP3 ADD MSTORE PUSH1 0x17 PUSH1 0x24 DUP3 ADD MSTORE PUSH32 0x44414F206164647265737320616C726561647920736574000000000000000000 PUSH1 0x44 DUP3 ADD MSTORE PUSH1 0x64 ADD PUSH2 0x936 JUMP JUMPDEST PUSH1 0x1 PUSH1 0x1 PUSH1 0xA0 SHL SUB DUP2 AND PUSH2 0xC4F JUMPI PUSH1 0x40 MLOAD PUSH3 0x461BCD PUSH1 0xE5 SHL DUP2 MSTORE PUSH1 0x20 PUSH1 0x4 DUP3 ADD MSTORE PUSH1 0x13 PUSH1 0x24 DUP3 ADD MSTORE PUSH19 0x496E76616C69642044414F2061646472657373 PUSH1 0x68 SHL PUSH1 0x44 DUP3 ADD MSTORE PUSH1 0x64 ADD PUSH2 0x936 JUMP JUMPDEST PUSH1 0xF DUP1 SLOAD PUSH2 0x100 PUSH1 0x1 PUSH1 0xA8 SHL SUB NOT AND PUSH2 0x100 PUSH1 0x1 PUSH1 0x1 PUSH1 0xA0 SHL SUB DUP5 AND SWAP1 DUP2 MUL SWAP2 SWAP1 SWAP2 OR SWAP1 SWAP2 SSTORE PUSH0 SWAP1 DUP2 MSTORE PUSH1 0x11 PUSH1 0x20 MSTORE PUSH1 0x40 SWAP1 KECCAK256 DUP1 SLOAD PUSH1 0xFF NOT AND PUSH1 0x1 OR SWAP1 SSTORE PUSH2 0xCB7 PUSH32 0x262C70CB68844873654DC54487B634CB00850C1E13C785CD0D96A2B89B829472 DUP3 PUSH2 0x13A1 JUMP JUMPDEST POP PUSH2 0xCE2 PUSH32 0xB7CD08E7968C8EB3CCEEE719DC902B03FF20EF36607309C7B72F07CDB4DBCD3D DUP3 PUSH2 0x13A1 JUMP JUMPDEST POP PUSH2 0xA48 PUSH0 DUP3 PUSH2 0x13A1 JUMP JUMPDEST PUSH1 0x1 PUSH1 0x1 PUSH1 0xA0 SHL SUB DUP2 AND PUSH0 SWAP1 DUP2 MSTORE PUSH1 0xC PUSH1 0x20 MSTORE PUSH1 0x40 DUP2 KECCAK256 PUSH2 0xB54 SWAP1 PUSH2 0x192B JUMP JUMPDEST CALLER PUSH0 DUP2 DUP2 MSTORE PUSH1 0x11 PUSH1 0x20 MSTORE PUSH1 0x40 SWAP1 KECCAK256 SLOAD PUSH1 0xFF AND PUSH2 0xD3C JUMPI PUSH1 0x40 MLOAD PUSH4 0x8018E00F PUSH1 0xE0 SHL DUP2 MSTORE PUSH1 0x4 ADD PUSH1 0x40 MLOAD DUP1 SWAP2 SUB SWAP1 REVERT JUMPDEST PUSH1 0x1 PUSH1 0x1 PUSH1 0xA0 SHL SUB DUP4 AND PUSH2 0xD8D JUMPI PUSH1 0x40 MLOAD PUSH3 0x461BCD PUSH1 0xE5 SHL DUP2 MSTORE PUSH1 0x20 PUSH1 0x4 DUP3 ADD MSTORE PUSH1 0x18 PUSH1 0x24 DUP3 ADD MSTORE PUSH24 0x496E76616C69642070726F706F73616C2061646472657373 PUSH1 0x40 SHL PUSH1 0x44 DUP3 ADD MSTORE PUSH1 0x64 ADD PUSH2 0x936 JUMP JUMPDEST DUP2 PUSH0 SUB PUSH2 0xDEB JUMPI PUSH2 0xDBE PUSH32 0xB0AAFE805B29EA5E57CDF96E1F39C2FF0E6EDD978CC45F739C43F08208C90D6E DUP5 PUSH2 0x13A1 JUMP JUMPDEST POP PUSH2 0xDE9 PUSH32 0x262C70CB68844873654DC54487B634CB00850C1E13C785CD0D96A2B89B829472 DUP5 PUSH2 0x13A1 JUMP JUMPDEST POP JUMPDEST DUP2 PUSH1 0x5 SUB PUSH2 0x878 JUMPI PUSH2 0xE1D PUSH32 0xB0AAFE805B29EA5E57CDF96E1F39C2FF0E6EDD978CC45F739C43F08208C90D6E DUP5 PUSH2 0x13A1 JUMP JUMPDEST POP PUSH2 0x831 PUSH32 0xB7CD08E7968C8EB3CCEEE719DC902B03FF20EF36607309C7B72F07CDB4DBCD3D DUP5 PUSH2 0x13A1 JUMP JUMPDEST PUSH1 0x10 SLOAD PUSH0 SWAP1 PUSH5 0x100000000 SWAP1 DIV PUSH1 0xFF AND PUSH2 0xE75 JUMPI PUSH1 0x40 MLOAD PUSH4 0x34BC2A91 PUSH1 0xE0 SHL DUP2 MSTORE PUSH1 0x4 ADD PUSH1 0x40 MLOAD DUP1 SWAP2 SUB SWAP1 REVERT JUMPDEST PUSH2 0xE7D PUSH2 0x1962 JUMP JUMPDEST PUSH2 0xE85 PUSH2 0x1870 JUMP JUMPDEST PUSH2 0xE90 CALLER DUP5 DUP5 PUSH2 0x133A JUMP JUMPDEST POP PUSH1 0x1 PUSH2 0x73D PUSH1 0x1 PUSH1 0x6 SSTORE JUMP JUMPDEST PUSH1 0x10 SLOAD PUSH2 0x100 SWAP1 DIV PUSH1 0xFF AND PUSH2 0xEC5 JUMPI PUSH1 0x40 MLOAD PUSH4 0xF5CD3CBB PUSH1 0xE0 SHL DUP2 MSTORE PUSH1 0x4 ADD PUSH1 0x40 MLOAD DUP1 SWAP2 SUB SWAP1 REVERT JUMPDEST PUSH2 0xECD PUSH2 0x1962 JUMP JUMPDEST PUSH2 0xED5 PUSH2 0x1870 JUMP JUMPDEST PUSH1 0x1 PUSH1 0x1 PUSH1 0xA0 SHL SUB DUP3 AND PUSH2 0xEFC JUMPI PUSH1 0x40 MLOAD PUSH4 0xE720ED0D PUSH1 0xE0 SHL DUP2 MSTORE PUSH1 0x4 ADD PUSH1 0x40 MLOAD DUP1 SWAP2 SUB SWAP1 REVERT JUMPDEST PUSH2 0xF26 PUSH32 0xB7CD08E7968C8EB3CCEEE719DC902B03FF20EF36607309C7B72F07CDB4DBCD3D CALLER PUSH2 0xB63 JUMP JUMPDEST DUP1 PUSH2 0xF35 JUMPI POP PUSH2 0xF35 CALLER PUSH2 0x949 JUMP JUMPDEST PUSH2 0xF52 JUMPI PUSH1 0x40 MLOAD PUSH4 0x6F2E121D PUSH1 0xE0 SHL DUP2 MSTORE PUSH1 0x4 ADD PUSH1 0x40 MLOAD DUP1 SWAP2 SUB SWAP1 REVERT JUMPDEST PUSH2 0xF5C DUP3 DUP3 PUSH2 0x198C JUMP JUMPDEST PUSH2 0xA48 PUSH1 0x1 PUSH1 0x6 SSTORE JUMP JUMPDEST DUP4 TIMESTAMP GT ISZERO PUSH2 0xF8A JUMPI PUSH1 0x40 MLOAD PUSH4 0x2341D787 PUSH1 0xE1 SHL DUP2 MSTORE PUSH1 0x4 DUP2 ADD DUP6 SWAP1 MSTORE PUSH1 0x24 ADD PUSH2 0x936 JUMP JUMPDEST PUSH1 0x40 DUP1 MLOAD PUSH32 0xE48329057BFD03D55E49B547132E39CFFD9C1820AD7B9D4C5307691425D15ADF PUSH1 0x20 DUP3 ADD MSTORE PUSH1 0x1 PUSH1 0x1 PUSH1 0xA0 SHL SUB DUP9 AND SWAP2 DUP2 ADD SWAP2 SWAP1 SWAP2 MSTORE PUSH1 0x60 DUP2 ADD DUP7 SWAP1 MSTORE PUSH1 0x80 DUP2 ADD DUP6 SWAP1 MSTORE PUSH0 SWAP1 PUSH2 0x1003 SWAP1 PUSH2 0xFFB SWAP1 PUSH1 0xA0 ADD PUSH1 0x40 MLOAD PUSH1 0x20 DUP2 DUP4 SUB SUB DUP2 MSTORE SWAP1 PUSH1 0x40 MSTORE DUP1 MLOAD SWAP1 PUSH1 0x20 ADD KECCAK256 PUSH2 0x19C0 JUMP JUMPDEST DUP6 DUP6 DUP6 PUSH2 0x19EC JUMP JUMPDEST SWAP1 POP PUSH2 0x100F DUP2 DUP8 PUSH2 0x1A18 JUMP JUMPDEST PUSH2 0x1019 DUP2 DUP9 PUSH2 0x1743 JUMP JUMPDEST POP POP POP POP POP POP POP JUMP JUMPDEST DUP4 TIMESTAMP GT ISZERO PUSH2 0x1046 JUMPI PUSH1 0x40 MLOAD PUSH4 0x313C8981 PUSH1 0xE1 SHL DUP2 MSTORE PUSH1 0x4 DUP2 ADD DUP6 SWAP1 MSTORE PUSH1 0x24 ADD PUSH2 0x936 JUMP JUMPDEST PUSH0 PUSH32 0x6E71EDAE12B1B97F4D1F60370FEF10105FA2FAAE0126114A169C64845D6126C9 DUP9 DUP9 DUP9 PUSH2 0x1091 DUP13 PUSH1 0x1 PUSH1 0x1 PUSH1 0xA0 SHL SUB AND PUSH0 SWAP1 DUP2 MSTORE PUSH1 0xA PUSH1 0x20 MSTORE PUSH1 0x40 SWAP1 KECCAK256 DUP1 SLOAD PUSH1 0x1 DUP2 ADD SWAP1 SWAP2 SSTORE SWAP1 JUMP JUMPDEST PUSH1 0x40 DUP1 MLOAD PUSH1 0x20 DUP2 ADD SWAP7 SWAP1 SWAP7 MSTORE PUSH1 0x1 PUSH1 0x1 PUSH1 0xA0 SHL SUB SWAP5 DUP6 AND SWAP1 DUP7 ADD MSTORE SWAP3 SWAP1 SWAP2 AND PUSH1 0x60 DUP5 ADD MSTORE PUSH1 0x80 DUP4 ADD MSTORE PUSH1 0xA0 DUP3 ADD MSTORE PUSH1 0xC0 DUP2 ADD DUP7 SWAP1 MSTORE PUSH1 0xE0 ADD PUSH1 0x40 MLOAD PUSH1 0x20 DUP2 DUP4 SUB SUB DUP2 MSTORE SWAP1 PUSH1 0x40 MSTORE DUP1 MLOAD SWAP1 PUSH1 0x20 ADD KECCAK256 SWAP1 POP PUSH0 PUSH2 0x10EB DUP3 PUSH2 0x19C0 JUMP JUMPDEST SWAP1 POP PUSH0 PUSH2 0x10FA DUP3 DUP8 DUP8 DUP8 PUSH2 0x19EC JUMP JUMPDEST SWAP1 POP DUP10 PUSH1 0x1 PUSH1 0x1 PUSH1 0xA0 SHL SUB AND DUP2 PUSH1 0x1 PUSH1 0x1 PUSH1 0xA0 SHL SUB AND EQ PUSH2 0x1141 JUMPI PUSH1 0x40 MLOAD PUSH4 0x25C00723 PUSH1 0xE1 SHL DUP2 MSTORE PUSH1 0x1 PUSH1 0x1 PUSH1 0xA0 SHL SUB DUP1 DUP4 AND PUSH1 0x4 DUP4 ADD MSTORE DUP12 AND PUSH1 0x24 DUP3 ADD MSTORE PUSH1 0x44 ADD PUSH2 0x936 JUMP JUMPDEST PUSH2 0x114C DUP11 DUP11 DUP11 PUSH2 0x12B7 JUMP JUMPDEST POP POP POP POP POP POP POP POP POP POP JUMP JUMPDEST PUSH0 DUP3 DUP2 MSTORE PUSH1 0xE PUSH1 0x20 MSTORE PUSH1 0x40 SWAP1 KECCAK256 PUSH1 0x1 ADD SLOAD PUSH2 0x1172 DUP2 PUSH2 0x1397 JUMP JUMPDEST PUSH2 0x831 DUP4 DUP4 PUSH2 0x155B JUMP JUMPDEST PUSH2 0x1184 PUSH2 0x1962 JUMP JUMPDEST PUSH2 0x118C PUSH2 0x1870 JUMP JUMPDEST PUSH1 0x10 SLOAD PUSH1 0xFF AND PUSH2 0x11AF JUMPI PUSH1 0x40 MLOAD PUSH4 0x2203AEBF PUSH1 0xE2 SHL DUP2 MSTORE PUSH1 0x4 ADD PUSH1 0x40 MLOAD DUP1 SWAP2 SUB SWAP1 REVERT JUMPDEST PUSH1 0x1 PUSH1 0x1 PUSH1 0xA0 SHL SUB DUP3 AND PUSH2 0x11D6 JUMPI PUSH1 0x40 MLOAD PUSH4 0xE720ED0D PUSH1 0xE0 SHL DUP2 MSTORE PUSH1 0x4 ADD PUSH1 0x40 MLOAD DUP1 SWAP2 SUB SWAP1 REVERT JUMPDEST PUSH0 DUP2 GT PUSH2 0x11F6 JUMPI PUSH1 0x40 MLOAD PUSH4 0x82E6A83 PUSH1 0xE3 SHL DUP2 MSTORE PUSH1 0x4 ADD PUSH1 0x40 MLOAD DUP1 SWAP2 SUB SWAP1 REVERT JUMPDEST PUSH2 0x1220 PUSH32 0x262C70CB68844873654DC54487B634CB00850C1E13C785CD0D96A2B89B829472 CALLER PUSH2 0xB63 JUMP JUMPDEST DUP1 PUSH2 0x122F JUMPI POP PUSH2 0x122F CALLER PUSH2 0x949 JUMP JUMPDEST PUSH2 0x124C JUMPI PUSH1 0x40 MLOAD PUSH4 0x6F2E121D PUSH1 0xE0 SHL DUP2 MSTORE PUSH1 0x4 ADD PUSH1 0x40 MLOAD DUP1 SWAP2 SUB SWAP1 REVERT JUMPDEST PUSH2 0xF5C DUP3 DUP3 PUSH2 0x1A6A JUMP JUMPDEST PUSH1 0x40 DUP1 MLOAD DUP1 DUP3 ADD SWAP1 SWAP2 MSTORE PUSH0 DUP1 DUP3 MSTORE PUSH1 0x20 DUP3 ADD MSTORE PUSH2 0x1273 DUP4 DUP4 PUSH2 0x1A9E JUMP JUMPDEST SWAP4 SWAP3 POP POP POP JUMP JUMPDEST PUSH2 0x1282 PUSH2 0x17D5 JUMP JUMPDEST PUSH1 0x1 PUSH1 0x1 PUSH1 0xA0 SHL SUB DUP2 AND PUSH2 0x12AB JUMPI PUSH1 0x40 MLOAD PUSH4 0x1E4FBDF7 PUSH1 0xE0 SHL DUP2 MSTORE PUSH0 PUSH1 0x4 DUP3 ADD MSTORE PUSH1 0x24 ADD PUSH2 0x936 JUMP JUMPDEST PUSH2 0x12B4 DUP2 PUSH2 0x1802 JUMP JUMPDEST POP JUMP JUMPDEST PUSH2 0x878 DUP4 DUP4 DUP4 PUSH1 0x1 PUSH2 0x1AD2 JUMP JUMPDEST PUSH1 0x1 PUSH1 0x1 PUSH1 0xA0 SHL SUB DUP4 DUP2 AND PUSH0 SWAP1 DUP2 MSTORE PUSH1 0x1 PUSH1 0x20 SWAP1 DUP2 MSTORE PUSH1 0x40 DUP1 DUP4 KECCAK256 SWAP4 DUP7 AND DUP4 MSTORE SWAP3 SWAP1 MSTORE KECCAK256 SLOAD PUSH0 NOT DUP2 LT ISZERO PUSH2 0x831 JUMPI DUP2 DUP2 LT ISZERO PUSH2 0x132C JUMPI PUSH1 0x40 MLOAD PUSH4 0x7DC7A0D9 PUSH1 0xE1 SHL DUP2 MSTORE PUSH1 0x1 PUSH1 0x1 PUSH1 0xA0 SHL SUB DUP5 AND PUSH1 0x4 DUP3 ADD MSTORE PUSH1 0x24 DUP2 ADD DUP3 SWAP1 MSTORE PUSH1 0x44 DUP2 ADD DUP4 SWAP1 MSTORE PUSH1 0x64 ADD PUSH2 0x936 JUMP JUMPDEST PUSH2 0x831 DUP5 DUP5 DUP5 DUP5 SUB PUSH0 PUSH2 0x1AD2 JUMP JUMPDEST PUSH1 0x1 PUSH1 0x1 PUSH1 0xA0 SHL SUB DUP4 AND PUSH2 0x1363 JUMPI PUSH1 0x40 MLOAD PUSH4 0x4B637E8F PUSH1 0xE1 SHL DUP2 MSTORE PUSH0 PUSH1 0x4 DUP3 ADD MSTORE PUSH1 0x24 ADD PUSH2 0x936 JUMP JUMPDEST PUSH1 0x1 PUSH1 0x1 PUSH1 0xA0 SHL SUB DUP3 AND PUSH2 0x138C JUMPI PUSH1 0x40 MLOAD PUSH4 0xEC442F05 PUSH1 0xE0 SHL DUP2 MSTORE PUSH0 PUSH1 0x4 DUP3 ADD MSTORE PUSH1 0x24 ADD PUSH2 0x936 JUMP JUMPDEST PUSH2 0x878 DUP4 DUP4 DUP4 PUSH2 0x1BA4 JUMP JUMPDEST PUSH2 0x12B4 DUP2 CALLER PUSH2 0x1BB7 JUMP JUMPDEST PUSH0 PUSH2 0x13AC DUP4 DUP4 PUSH2 0xB63 JUMP JUMPDEST PUSH2 0x142B JUMPI PUSH0 DUP4 DUP2 MSTORE PUSH1 0xE PUSH1 0x20 SWAP1 DUP2 MSTORE PUSH1 0x40 DUP1 DUP4 KECCAK256 PUSH1 0x1 PUSH1 0x1 PUSH1 0xA0 SHL SUB DUP7 AND DUP5 MSTORE SWAP1 SWAP2 MSTORE SWAP1 KECCAK256 DUP1 SLOAD PUSH1 0xFF NOT AND PUSH1 0x1 OR SWAP1 SSTORE PUSH2 0x13E3 CALLER SWAP1 JUMP JUMPDEST PUSH1 0x1 PUSH1 0x1 PUSH1 0xA0 SHL SUB AND DUP3 PUSH1 0x1 PUSH1 0x1 PUSH1 0xA0 SHL SUB AND DUP5 PUSH32 0x2F8788117E7EFF1D82E926EC794901D17C78024A50270940304540A733656F0D PUSH1 0x40 MLOAD PUSH1 0x40 MLOAD DUP1 SWAP2 SUB SWAP1 LOG4 POP PUSH1 0x1 PUSH2 0x73D JUMP JUMPDEST POP PUSH0 PUSH2 0x73D JUMP JUMPDEST PUSH0 ADDRESS PUSH1 0x1 PUSH1 0x1 PUSH1 0xA0 SHL SUB PUSH32 0x0 AND EQ DUP1 ISZERO PUSH2 0x148A JUMPI POP PUSH32 0x0 CHAINID EQ JUMPDEST ISZERO PUSH2 0x14B4 JUMPI POP PUSH32 0x0 SWAP1 JUMP JUMPDEST PUSH2 0x840 PUSH1 0x40 DUP1 MLOAD PUSH32 0x8B73C3C69BB8FE3D512ECC4CF759CC79239F7B179B0FFACAA9A75D522B39400F PUSH1 0x20 DUP3 ADD MSTORE PUSH32 0x0 SWAP2 DUP2 ADD SWAP2 SWAP1 SWAP2 MSTORE PUSH32 0x0 PUSH1 0x60 DUP3 ADD MSTORE CHAINID PUSH1 0x80 DUP3 ADD MSTORE ADDRESS PUSH1 0xA0 DUP3 ADD MSTORE PUSH0 SWAP1 PUSH1 0xC0 ADD PUSH1 0x40 MLOAD PUSH1 0x20 DUP2 DUP4 SUB SUB DUP2 MSTORE SWAP1 PUSH1 0x40 MSTORE DUP1 MLOAD SWAP1 PUSH1 0x20 ADD KECCAK256 SWAP1 POP SWAP1 JUMP JUMPDEST PUSH0 PUSH2 0x1566 DUP4 DUP4 PUSH2 0xB63 JUMP JUMPDEST ISZERO PUSH2 0x142B JUMPI PUSH0 DUP4 DUP2 MSTORE PUSH1 0xE PUSH1 0x20 SWAP1 DUP2 MSTORE PUSH1 0x40 DUP1 DUP4 KECCAK256 PUSH1 0x1 PUSH1 0x1 PUSH1 0xA0 SHL SUB DUP7 AND DUP1 DUP6 MSTORE SWAP3 MSTORE DUP1 DUP4 KECCAK256 DUP1 SLOAD PUSH1 0xFF NOT AND SWAP1 SSTORE MLOAD CALLER SWAP3 DUP7 SWAP2 PUSH32 0xF6391F5C32D9C69D2A47EA670B442974B53935D1EDC7FD64EB21E047A839171B SWAP2 SWAP1 LOG4 POP PUSH1 0x1 PUSH2 0x73D JUMP JUMPDEST PUSH0 PUSH0 PUSH2 0x15D0 PUSH2 0xB8D JUMP JUMPDEST SWAP1 POP DUP1 PUSH6 0xFFFFFFFFFFFF AND DUP4 LT PUSH2 0x160B JUMPI PUSH1 0x40 MLOAD PUSH4 0x7669FC0F PUSH1 0xE1 SHL DUP2 MSTORE PUSH1 0x4 DUP2 ADD DUP5 SWAP1 MSTORE PUSH6 0xFFFFFFFFFFFF DUP3 AND PUSH1 0x24 DUP3 ADD MSTORE PUSH1 0x44 ADD PUSH2 0x936 JUMP JUMPDEST PUSH2 0x1273 DUP4 PUSH2 0x1BF0 JUMP JUMPDEST DUP2 SLOAD PUSH0 SWAP1 DUP2 DUP2 PUSH1 0x5 DUP2 GT ISZERO PUSH2 0x1670 JUMPI PUSH0 PUSH2 0x162D DUP5 PUSH2 0x1C26 JUMP JUMPDEST PUSH2 0x1637 SWAP1 DUP6 PUSH2 0x29D5 JUMP JUMPDEST PUSH0 DUP9 DUP2 MSTORE PUSH1 0x20 SWAP1 KECCAK256 SWAP1 SWAP2 POP DUP2 ADD SLOAD PUSH6 0xFFFFFFFFFFFF SWAP1 DUP2 AND SWAP1 DUP8 AND LT ISZERO PUSH2 0x1660 JUMPI DUP1 SWAP2 POP PUSH2 0x166E JUMP JUMPDEST PUSH2 0x166B DUP2 PUSH1 0x1 PUSH2 0x29E8 JUMP JUMPDEST SWAP3 POP JUMPDEST POP JUMPDEST PUSH0 PUSH2 0x167D DUP8 DUP8 DUP6 DUP6 PUSH2 0x1D7E JUMP JUMPDEST SWAP1 POP DUP1 ISZERO PUSH2 0x16B7 JUMPI PUSH2 0x16A1 DUP8 PUSH2 0x1694 PUSH1 0x1 DUP5 PUSH2 0x29D5 JUMP JUMPDEST PUSH0 SWAP2 DUP3 MSTORE PUSH1 0x20 SWAP1 SWAP2 KECCAK256 ADD SWAP1 JUMP JUMPDEST SLOAD PUSH1 0x1 PUSH1 0x30 SHL SWAP1 DIV PUSH1 0x1 PUSH1 0x1 PUSH1 0xD0 SHL SUB AND PUSH2 0x16B9 JUMP JUMPDEST PUSH0 JUMPDEST SWAP8 SWAP7 POP POP POP POP POP POP POP JUMP JUMPDEST PUSH1 0x5 SLOAD PUSH1 0xFF AND PUSH2 0x947 JUMPI PUSH1 0x40 MLOAD PUSH4 0x8DFC202B PUSH1 0xE0 SHL DUP2 MSTORE PUSH1 0x4 ADD PUSH1 0x40 MLOAD DUP1 SWAP2 SUB SWAP1 REVERT JUMPDEST PUSH2 0x16EF PUSH2 0x16C4 JUMP JUMPDEST PUSH1 0x5 DUP1 SLOAD PUSH1 0xFF NOT AND SWAP1 SSTORE PUSH32 0x5DB9EE0A495BF2E6FF9C91A7834C1BA4FDD244A5E8AA4E537BD38AEAE4B073AA CALLER JUMPDEST PUSH1 0x40 MLOAD PUSH1 0x1 PUSH1 0x1 PUSH1 0xA0 SHL SUB SWAP1 SWAP2 AND DUP2 MSTORE PUSH1 0x20 ADD PUSH1 0x40 MLOAD DUP1 SWAP2 SUB SWAP1 LOG1 JUMP JUMPDEST PUSH0 PUSH2 0x840 NUMBER PUSH2 0x1BF0 JUMP JUMPDEST PUSH1 0x1 PUSH1 0x1 PUSH1 0xA0 SHL SUB DUP3 DUP2 AND PUSH0 DUP2 DUP2 MSTORE PUSH1 0xB PUSH1 0x20 MSTORE PUSH1 0x40 DUP1 DUP3 KECCAK256 DUP1 SLOAD DUP7 DUP7 AND PUSH1 0x1 PUSH1 0x1 PUSH1 0xA0 SHL SUB NOT DUP3 AND DUP2 OR SWAP1 SWAP3 SSTORE SWAP2 MLOAD SWAP2 SWAP1 SWAP5 AND SWAP4 SWAP3 DUP5 SWAP3 SWAP1 SWAP2 PUSH32 0x3134E8A2E6D97E929A7E54011EA5485D7D196DD5F0BA4D4EF95803E8E3FC257F SWAP2 SWAP1 LOG4 PUSH2 0x878 DUP2 DUP4 PUSH2 0x17AF DUP7 PUSH2 0x1DDD JUMP JUMPDEST PUSH2 0x1DFA JUMP JUMPDEST PUSH1 0x1 PUSH1 0x1 PUSH1 0xA0 SHL SUB DUP2 AND PUSH0 SWAP1 DUP2 MSTORE PUSH1 0xC PUSH1 0x20 MSTORE PUSH1 0x40 DUP2 KECCAK256 SLOAD PUSH2 0x73D SWAP1 PUSH2 0x1F63 JUMP JUMPDEST PUSH1 0x7 SLOAD PUSH1 0x1 PUSH1 0x1 PUSH1 0xA0 SHL SUB AND CALLER EQ PUSH2 0x947 JUMPI PUSH1 0x40 MLOAD PUSH4 0x118CDAA7 PUSH1 0xE0 SHL DUP2 MSTORE CALLER PUSH1 0x4 DUP3 ADD MSTORE PUSH1 0x24 ADD PUSH2 0x936 JUMP JUMPDEST PUSH1 0x7 DUP1 SLOAD PUSH1 0x1 PUSH1 0x1 PUSH1 0xA0 SHL SUB DUP4 DUP2 AND PUSH1 0x1 PUSH1 0x1 PUSH1 0xA0 SHL SUB NOT DUP4 AND DUP2 OR SWAP1 SWAP4 SSTORE PUSH1 0x40 MLOAD SWAP2 AND SWAP2 SWAP1 DUP3 SWAP1 PUSH32 0x8BE0079C531659141344CD1FD0A4F28419497F9722A3DAAFE3B4186F6B6457E0 SWAP1 PUSH0 SWAP1 LOG3 POP POP JUMP JUMPDEST PUSH1 0x1 PUSH1 0x1 PUSH1 0xA0 SHL SUB DUP2 AND PUSH0 SWAP1 DUP2 MSTORE PUSH1 0xA PUSH1 0x20 MSTORE PUSH1 0x40 DUP2 KECCAK256 SLOAD PUSH2 0x73D JUMP JUMPDEST PUSH1 0x5 SLOAD PUSH1 0xFF AND ISZERO PUSH2 0x947 JUMPI PUSH1 0x40 MLOAD PUSH4 0xD93C0665 PUSH1 0xE0 SHL DUP2 MSTORE PUSH1 0x4 ADD PUSH1 0x40 MLOAD DUP1 SWAP2 SUB SWAP1 REVERT JUMPDEST PUSH2 0x189C PUSH2 0x1870 JUMP JUMPDEST PUSH1 0x5 DUP1 SLOAD PUSH1 0xFF NOT AND PUSH1 0x1 OR SWAP1 SSTORE PUSH32 0x62E78CEA01BEE320CD4E420270B5EA74000D11B0C9F74754EBDBFC544B05A258 PUSH2 0x171C CALLER SWAP1 JUMP JUMPDEST PUSH1 0x60 PUSH2 0x840 PUSH32 0x0 PUSH1 0x8 PUSH2 0x1F93 JUMP JUMPDEST PUSH1 0x60 PUSH2 0x840 PUSH32 0x0 PUSH1 0x9 PUSH2 0x1F93 JUMP JUMPDEST DUP1 SLOAD PUSH0 SWAP1 DUP1 ISZERO PUSH2 0x195A JUMPI PUSH2 0x1944 DUP4 PUSH2 0x1694 PUSH1 0x1 DUP5 PUSH2 0x29D5 JUMP JUMPDEST SLOAD PUSH1 0x1 PUSH1 0x30 SHL SWAP1 DIV PUSH1 0x1 PUSH1 0x1 PUSH1 0xD0 SHL SUB AND PUSH2 0x1273 JUMP JUMPDEST PUSH0 SWAP4 SWAP3 POP POP POP JUMP JUMPDEST PUSH1 0x2 PUSH1 0x6 SLOAD SUB PUSH2 0x1985 JUMPI PUSH1 0x40 MLOAD PUSH4 0x3EE5AEB5 PUSH1 0xE0 SHL DUP2 MSTORE PUSH1 0x4 ADD PUSH1 0x40 MLOAD DUP1 SWAP2 SUB SWAP1 REVERT JUMPDEST PUSH1 0x2 PUSH1 0x6 SSTORE JUMP JUMPDEST PUSH1 0x1 PUSH1 0x1 PUSH1 0xA0 SHL SUB DUP3 AND PUSH2 0x19B5 JUMPI PUSH1 0x40 MLOAD PUSH4 0x4B637E8F PUSH1 0xE1 SHL DUP2 MSTORE PUSH0 PUSH1 0x4 DUP3 ADD MSTORE PUSH1 0x24 ADD PUSH2 0x936 JUMP JUMPDEST PUSH2 0xA48 DUP3 PUSH0 DUP4 PUSH2 0x1BA4 JUMP JUMPDEST PUSH0 PUSH2 0x73D PUSH2 0x19CC PUSH2 0x1432 JUMP JUMPDEST DUP4 PUSH1 0x40 MLOAD PUSH2 0x1901 PUSH1 0xF0 SHL DUP2 MSTORE PUSH1 0x2 DUP2 ADD SWAP3 SWAP1 SWAP3 MSTORE PUSH1 0x22 DUP3 ADD MSTORE PUSH1 0x42 SWAP1 KECCAK256 SWAP1 JUMP JUMPDEST PUSH0 PUSH0 PUSH0 PUSH0 PUSH2 0x19FC DUP9 DUP9 DUP9 DUP9 PUSH2 0x203C JUMP JUMPDEST SWAP3 POP SWAP3 POP SWAP3 POP PUSH2 0x1A0C DUP3 DUP3 PUSH2 0x2104 JUMP JUMPDEST POP SWAP1 SWAP7 SWAP6 POP POP POP POP POP POP JUMP JUMPDEST PUSH1 0x1 PUSH1 0x1 PUSH1 0xA0 SHL SUB DUP3 AND PUSH0 SWAP1 DUP2 MSTORE PUSH1 0xA PUSH1 0x20 MSTORE PUSH1 0x40 SWAP1 KECCAK256 DUP1 SLOAD PUSH1 0x1 DUP2 ADD SWAP1 SWAP2 SSTORE DUP2 DUP2 EQ PUSH2 0x878 JUMPI PUSH1 0x40 MLOAD PUSH4 0x1D4B623 PUSH1 0xE6 SHL DUP2 MSTORE PUSH1 0x1 PUSH1 0x1 PUSH1 0xA0 SHL SUB DUP5 AND PUSH1 0x4 DUP3 ADD MSTORE PUSH1 0x24 DUP2 ADD DUP3 SWAP1 MSTORE PUSH1 0x44 ADD PUSH2 0x936 JUMP JUMPDEST PUSH1 0x1 PUSH1 0x1 PUSH1 0xA0 SHL SUB DUP3 AND PUSH2 0x1A93 JUMPI PUSH1 0x40 MLOAD PUSH4 0xEC442F05 PUSH1 0xE0 SHL DUP2 MSTORE PUSH0 PUSH1 0x4 DUP3 ADD MSTORE PUSH1 0x24 ADD PUSH2 0x936 JUMP JUMPDEST PUSH2 0xA48 PUSH0 DUP4 DUP4 PUSH2 0x1BA4 JUMP JUMPDEST PUSH1 0x40 DUP1 MLOAD DUP1 DUP3 ADD SWAP1 SWAP2 MSTORE PUSH0 DUP1 DUP3 MSTORE PUSH1 0x20 DUP3 ADD MSTORE PUSH1 0x1 PUSH1 0x1 PUSH1 0xA0 SHL SUB DUP4 AND PUSH0 SWAP1 DUP2 MSTORE PUSH1 0xC PUSH1 0x20 MSTORE PUSH1 0x40 SWAP1 KECCAK256 PUSH2 0x1273 SWAP1 DUP4 PUSH2 0x21BC JUMP JUMPDEST PUSH1 0x1 PUSH1 0x1 PUSH1 0xA0 SHL SUB DUP5 AND PUSH2 0x1AFB JUMPI PUSH1 0x40 MLOAD PUSH4 0xE602DF05 PUSH1 0xE0 SHL DUP2 MSTORE PUSH0 PUSH1 0x4 DUP3 ADD MSTORE PUSH1 0x24 ADD PUSH2 0x936 JUMP JUMPDEST PUSH1 0x1 PUSH1 0x1 PUSH1 0xA0 SHL SUB DUP4 AND PUSH2 0x1B24 JUMPI PUSH1 0x40 MLOAD PUSH4 0x4A1406B1 PUSH1 0xE1 SHL DUP2 MSTORE PUSH0 PUSH1 0x4 DUP3 ADD MSTORE PUSH1 0x24 ADD PUSH2 0x936 JUMP JUMPDEST PUSH1 0x1 PUSH1 0x1 PUSH1 0xA0 SHL SUB DUP1 DUP6 AND PUSH0 SWAP1 DUP2 MSTORE PUSH1 0x1 PUSH1 0x20 SWAP1 DUP2 MSTORE PUSH1 0x40 DUP1 DUP4 KECCAK256 SWAP4 DUP8 AND DUP4 MSTORE SWAP3 SWAP1 MSTORE KECCAK256 DUP3 SWAP1 SSTORE DUP1 ISZERO PUSH2 0x831 JUMPI DUP3 PUSH1 0x1 PUSH1 0x1 PUSH1 0xA0 SHL SUB AND DUP5 PUSH1 0x1 PUSH1 0x1 PUSH1 0xA0 SHL SUB AND PUSH32 0x8C5BE1E5EBEC7D5BD14F71427D1E84F3DD0314C0F7B2291E5B200AC8C7C3B925 DUP5 PUSH1 0x40 MLOAD PUSH2 0x1B96 SWAP2 DUP2 MSTORE PUSH1 0x20 ADD SWAP1 JUMP JUMPDEST PUSH1 0x40 MLOAD DUP1 SWAP2 SUB SWAP1 LOG3 POP POP POP POP JUMP JUMPDEST PUSH2 0x1BAC PUSH2 0x1870 JUMP JUMPDEST PUSH2 0x878 DUP4 DUP4 DUP4 PUSH2 0x2229 JUMP JUMPDEST PUSH2 0x1BC1 DUP3 DUP3 PUSH2 0xB63 JUMP JUMPDEST PUSH2 0xA48 JUMPI PUSH1 0x40 MLOAD PUSH4 0xE2517D3F PUSH1 0xE0 SHL DUP2 MSTORE PUSH1 0x1 PUSH1 0x1 PUSH1 0xA0 SHL SUB DUP3 AND PUSH1 0x4 DUP3 ADD MSTORE PUSH1 0x24 DUP2 ADD DUP4 SWAP1 MSTORE PUSH1 0x44 ADD PUSH2 0x936 JUMP JUMPDEST PUSH0 PUSH6 0xFFFFFFFFFFFF DUP3 GT ISZERO PUSH2 0x1C22 JUMPI PUSH1 0x40 MLOAD PUSH4 0x6DFCC65 PUSH1 0xE4 SHL DUP2 MSTORE PUSH1 0x30 PUSH1 0x4 DUP3 ADD MSTORE PUSH1 0x24 DUP2 ADD DUP4 SWAP1 MSTORE PUSH1 0x44 ADD PUSH2 0x936 JUMP JUMPDEST POP SWAP1 JUMP JUMPDEST PUSH0 PUSH1 0x1 DUP3 GT PUSH2 0x1C33 JUMPI POP SWAP1 JUMP JUMPDEST DUP2 PUSH1 0x1 PUSH1 0x1 PUSH1 0x80 SHL DUP3 LT PUSH2 0x1C4C JUMPI PUSH1 0x80 SWAP2 SWAP1 SWAP2 SHR SWAP1 PUSH1 0x40 SHL JUMPDEST PUSH9 0x10000000000000000 DUP3 LT PUSH2 0x1C67 JUMPI PUSH1 0x40 SWAP2 SWAP1 SWAP2 SHR SWAP1 PUSH1 0x20 SHL JUMPDEST PUSH5 0x100000000 DUP3 LT PUSH2 0x1C7E JUMPI PUSH1 0x20 SWAP2 SWAP1 SWAP2 SHR SWAP1 PUSH1 0x10 SHL JUMPDEST PUSH3 0x10000 DUP3 LT PUSH2 0x1C93 JUMPI PUSH1 0x10 SWAP2 SWAP1 SWAP2 SHR SWAP1 PUSH1 0x8 SHL JUMPDEST PUSH2 0x100 DUP3 LT PUSH2 0x1CA7 JUMPI PUSH1 0x8 SWAP2 SWAP1 SWAP2 SHR SWAP1 PUSH1 0x4 SHL JUMPDEST PUSH1 0x10 DUP3 LT PUSH2 0x1CBA JUMPI PUSH1 0x4 SWAP2 SWAP1 SWAP2 SHR SWAP1 PUSH1 0x2 SHL JUMPDEST PUSH1 0x4 DUP3 LT PUSH2 0x1CC6 JUMPI PUSH1 0x1 SHL JUMPDEST PUSH1 0x3 MUL PUSH1 0x1 SWAP1 DUP2 SHR SWAP1 DUP2 DUP6 DUP2 PUSH2 0x1CDE JUMPI PUSH2 0x1CDE PUSH2 0x29FB JUMP JUMPDEST DIV DUP3 ADD SWAP1 SHR SWAP1 POP PUSH1 0x1 DUP2 DUP6 DUP2 PUSH2 0x1CF6 JUMPI PUSH2 0x1CF6 PUSH2 0x29FB JUMP JUMPDEST DIV DUP3 ADD SWAP1 SHR SWAP1 POP PUSH1 0x1 DUP2 DUP6 DUP2 PUSH2 0x1D0E JUMPI PUSH2 0x1D0E PUSH2 0x29FB JUMP JUMPDEST DIV DUP3 ADD SWAP1 SHR SWAP1 POP PUSH1 0x1 DUP2 DUP6 DUP2 PUSH2 0x1D26 JUMPI PUSH2 0x1D26 PUSH2 0x29FB JUMP JUMPDEST DIV DUP3 ADD SWAP1 SHR SWAP1 POP PUSH1 0x1 DUP2 DUP6 DUP2 PUSH2 0x1D3E JUMPI PUSH2 0x1D3E PUSH2 0x29FB JUMP JUMPDEST DIV DUP3 ADD SWAP1 SHR SWAP1 POP PUSH1 0x1 DUP2 DUP6 DUP2 PUSH2 0x1D56 JUMPI PUSH2 0x1D56 PUSH2 0x29FB JUMP JUMPDEST DIV DUP3 ADD SWAP1 SHR SWAP1 POP PUSH2 0x1D75 DUP2 DUP6 DUP2 PUSH2 0x1D6F JUMPI PUSH2 0x1D6F PUSH2 0x29FB JUMP JUMPDEST DIV DUP3 GT SWAP1 JUMP JUMPDEST SWAP1 SUB SWAP4 SWAP3 POP POP POP JUMP JUMPDEST PUSH0 JUMPDEST DUP2 DUP4 LT ISZERO PUSH2 0x1DD5 JUMPI PUSH0 PUSH2 0x1D93 DUP5 DUP5 PUSH2 0x228F JUMP JUMPDEST PUSH0 DUP8 DUP2 MSTORE PUSH1 0x20 SWAP1 KECCAK256 SWAP1 SWAP2 POP PUSH6 0xFFFFFFFFFFFF DUP7 AND SWAP1 DUP3 ADD SLOAD PUSH6 0xFFFFFFFFFFFF AND GT ISZERO PUSH2 0x1DC1 JUMPI DUP1 SWAP3 POP PUSH2 0x1DCF JUMP JUMPDEST PUSH2 0x1DCC DUP2 PUSH1 0x1 PUSH2 0x29E8 JUMP JUMPDEST SWAP4 POP JUMPDEST POP PUSH2 0x1D80 JUMP JUMPDEST POP SWAP4 SWAP3 POP POP POP JUMP JUMPDEST PUSH1 0x1 PUSH1 0x1 PUSH1 0xA0 SHL SUB DUP2 AND PUSH0 SWAP1 DUP2 MSTORE PUSH1 0x20 DUP2 SWAP1 MSTORE PUSH1 0x40 DUP2 KECCAK256 SLOAD PUSH2 0x73D JUMP JUMPDEST DUP2 PUSH1 0x1 PUSH1 0x1 PUSH1 0xA0 SHL SUB AND DUP4 PUSH1 0x1 PUSH1 0x1 PUSH1 0xA0 SHL SUB AND EQ ISZERO DUP1 ISZERO PUSH2 0x1E1B JUMPI POP PUSH0 DUP2 GT JUMPDEST ISZERO PUSH2 0x878 JUMPI PUSH1 0x1 PUSH1 0x1 PUSH1 0xA0 SHL SUB DUP4 AND ISZERO PUSH2 0x1EC2 JUMPI PUSH1 0x1 PUSH1 0x1 PUSH1 0xA0 SHL SUB DUP4 AND PUSH0 SWAP1 DUP2 MSTORE PUSH1 0xC PUSH1 0x20 MSTORE PUSH1 0x40 DUP2 KECCAK256 DUP2 SWAP1 PUSH2 0x1E5D SWAP1 PUSH2 0x22A9 PUSH2 0x1E58 DUP7 PUSH2 0x22B4 JUMP JUMPDEST PUSH2 0x22E7 JUMP JUMPDEST PUSH1 0x1 PUSH1 0x1 PUSH1 0xD0 SHL SUB AND SWAP2 POP PUSH1 0x1 PUSH1 0x1 PUSH1 0xD0 SHL SUB AND SWAP2 POP DUP5 PUSH1 0x1 PUSH1 0x1 PUSH1 0xA0 SHL SUB AND PUSH32 0xDEC2BACDD2F05B59DE34DA9B523DFF8BE42E5E38E818C82FDB0BAE774387A724 DUP4 DUP4 PUSH1 0x40 MLOAD PUSH2 0x1EB7 SWAP3 SWAP2 SWAP1 SWAP2 DUP3 MSTORE PUSH1 0x20 DUP3 ADD MSTORE PUSH1 0x40 ADD SWAP1 JUMP JUMPDEST PUSH1 0x40 MLOAD DUP1 SWAP2 SUB SWAP1 LOG2 POP POP JUMPDEST PUSH1 0x1 PUSH1 0x1 PUSH1 0xA0 SHL SUB DUP3 AND ISZERO PUSH2 0x878 JUMPI PUSH1 0x1 PUSH1 0x1 PUSH1 0xA0 SHL SUB DUP3 AND PUSH0 SWAP1 DUP2 MSTORE PUSH1 0xC PUSH1 0x20 MSTORE PUSH1 0x40 DUP2 KECCAK256 DUP2 SWAP1 PUSH2 0x1EFA SWAP1 PUSH2 0x231F PUSH2 0x1E58 DUP7 PUSH2 0x22B4 JUMP JUMPDEST PUSH1 0x1 PUSH1 0x1 PUSH1 0xD0 SHL SUB AND SWAP2 POP PUSH1 0x1 PUSH1 0x1 PUSH1 0xD0 SHL SUB AND SWAP2 POP DUP4 PUSH1 0x1 PUSH1 0x1 PUSH1 0xA0 SHL SUB AND PUSH32 0xDEC2BACDD2F05B59DE34DA9B523DFF8BE42E5E38E818C82FDB0BAE774387A724 DUP4 DUP4 PUSH1 0x40 MLOAD PUSH2 0x1F54 SWAP3 SWAP2 SWAP1 SWAP2 DUP3 MSTORE PUSH1 0x20 DUP3 ADD MSTORE PUSH1 0x40 ADD SWAP1 JUMP JUMPDEST PUSH1 0x40 MLOAD DUP1 SWAP2 SUB SWAP1 LOG2 POP POP POP POP POP JUMP JUMPDEST PUSH0 PUSH4 0xFFFFFFFF DUP3 GT ISZERO PUSH2 0x1C22 JUMPI PUSH1 0x40 MLOAD PUSH4 0x6DFCC65 PUSH1 0xE4 SHL DUP2 MSTORE PUSH1 0x20 PUSH1 0x4 DUP3 ADD MSTORE PUSH1 0x24 DUP2 ADD DUP4 SWAP1 MSTORE PUSH1 0x44 ADD PUSH2 0x936 JUMP JUMPDEST PUSH1 0x60 PUSH1 0xFF DUP4 EQ PUSH2 0x1FAD JUMPI PUSH2 0x1FA6 DUP4 PUSH2 0x232A JUMP JUMPDEST SWAP1 POP PUSH2 0x73D JUMP JUMPDEST DUP2 DUP1 SLOAD PUSH2 0x1FB9 SWAP1 PUSH2 0x2989 JUMP JUMPDEST DUP1 PUSH1 0x1F ADD PUSH1 0x20 DUP1 SWAP2 DIV MUL PUSH1 0x20 ADD PUSH1 0x40 MLOAD SWAP1 DUP2 ADD PUSH1 0x40 MSTORE DUP1 SWAP3 SWAP2 SWAP1 DUP2 DUP2 MSTORE PUSH1 0x20 ADD DUP3 DUP1 SLOAD PUSH2 0x1FE5 SWAP1 PUSH2 0x2989 JUMP JUMPDEST DUP1 ISZERO PUSH2 0x2030 JUMPI DUP1 PUSH1 0x1F LT PUSH2 0x2007 JUMPI PUSH2 0x100 DUP1 DUP4 SLOAD DIV MUL DUP4 MSTORE SWAP2 PUSH1 0x20 ADD SWAP2 PUSH2 0x2030 JUMP JUMPDEST DUP3 ADD SWAP2 SWAP1 PUSH0 MSTORE PUSH1 0x20 PUSH0 KECCAK256 SWAP1 JUMPDEST DUP2 SLOAD DUP2 MSTORE SWAP1 PUSH1 0x1 ADD SWAP1 PUSH1 0x20 ADD DUP1 DUP4 GT PUSH2 0x2013 JUMPI DUP3 SWAP1 SUB PUSH1 0x1F AND DUP3 ADD SWAP2 JUMPDEST POP POP POP POP POP SWAP1 POP PUSH2 0x73D JUMP JUMPDEST PUSH0 DUP1 DUP1 PUSH32 0x7FFFFFFFFFFFFFFFFFFFFFFFFFFFFFFF5D576E7357A4501DDFE92F46681B20A0 DUP5 GT ISZERO PUSH2 0x2075 JUMPI POP PUSH0 SWAP2 POP PUSH1 0x3 SWAP1 POP DUP3 PUSH2 0x20FA JUMP JUMPDEST PUSH1 0x40 DUP1 MLOAD PUSH0 DUP1 DUP3 MSTORE PUSH1 0x20 DUP3 ADD DUP1 DUP5 MSTORE DUP11 SWAP1 MSTORE PUSH1 0xFF DUP10 AND SWAP3 DUP3 ADD SWAP3 SWAP1 SWAP3 MSTORE PUSH1 0x60 DUP2 ADD DUP8 SWAP1 MSTORE PUSH1 0x80 DUP2 ADD DUP7 SWAP1 MSTORE PUSH1 0x1 SWAP1 PUSH1 0xA0 ADD PUSH1 0x20 PUSH1 0x40 MLOAD PUSH1 0x20 DUP2 SUB SWAP1 DUP1 DUP5 SUB SWAP1 DUP6 GAS STATICCALL ISZERO DUP1 ISZERO PUSH2 0x20C6 JUMPI RETURNDATASIZE PUSH0 PUSH0 RETURNDATACOPY RETURNDATASIZE PUSH0 REVERT JUMPDEST POP POP PUSH1 0x40 MLOAD PUSH1 0x1F NOT ADD MLOAD SWAP2 POP POP PUSH1 0x1 PUSH1 0x1 PUSH1 0xA0 SHL SUB DUP2 AND PUSH2 0x20F1 JUMPI POP PUSH0 SWAP3 POP PUSH1 0x1 SWAP2 POP DUP3 SWAP1 POP PUSH2 0x20FA JUMP JUMPDEST SWAP3 POP PUSH0 SWAP2 POP DUP2 SWAP1 POP JUMPDEST SWAP5 POP SWAP5 POP SWAP5 SWAP2 POP POP JUMP JUMPDEST PUSH0 DUP3 PUSH1 0x3 DUP2 GT ISZERO PUSH2 0x2117 JUMPI PUSH2 0x2117 PUSH2 0x2A0F JUMP JUMPDEST SUB PUSH2 0x2120 JUMPI POP POP JUMP JUMPDEST PUSH1 0x1 DUP3 PUSH1 0x3 DUP2 GT ISZERO PUSH2 0x2134 JUMPI PUSH2 0x2134 PUSH2 0x2A0F JUMP JUMPDEST SUB PUSH2 0x2152 JUMPI PUSH1 0x40 MLOAD PUSH4 0xF645EEDF PUSH1 0xE0 SHL DUP2 MSTORE PUSH1 0x4 ADD PUSH1 0x40 MLOAD DUP1 SWAP2 SUB SWAP1 REVERT JUMPDEST PUSH1 0x2 DUP3 PUSH1 0x3 DUP2 GT ISZERO PUSH2 0x2166 JUMPI PUSH2 0x2166 PUSH2 0x2A0F JUMP JUMPDEST SUB PUSH2 0x2187 JUMPI PUSH1 0x40 MLOAD PUSH4 0xFCE698F7 PUSH1 0xE0 SHL DUP2 MSTORE PUSH1 0x4 DUP2 ADD DUP3 SWAP1 MSTORE PUSH1 0x24 ADD PUSH2 0x936 JUMP JUMPDEST PUSH1 0x3 DUP3 PUSH1 0x3 DUP2 GT ISZERO PUSH2 0x219B JUMPI PUSH2 0x219B PUSH2 0x2A0F JUMP JUMPDEST SUB PUSH2 0xA48 JUMPI PUSH1 0x40 MLOAD PUSH4 0x35E2F383 PUSH1 0xE2 SHL DUP2 MSTORE PUSH1 0x4 DUP2 ADD DUP3 SWAP1 MSTORE PUSH1 0x24 ADD PUSH2 0x936 JUMP JUMPDEST PUSH1 0x40 DUP1 MLOAD DUP1 DUP3 ADD SWAP1 SWAP2 MSTORE PUSH0 DUP1 DUP3 MSTORE PUSH1 0x20 DUP3 ADD MSTORE DUP3 PUSH0 ADD DUP3 PUSH4 0xFFFFFFFF AND DUP2 SLOAD DUP2 LT PUSH2 0x21E9 JUMPI PUSH2 0x21E9 PUSH2 0x2A23 JUMP JUMPDEST PUSH0 SWAP2 DUP3 MSTORE PUSH1 0x20 SWAP2 DUP3 SWAP1 KECCAK256 PUSH1 0x40 DUP1 MLOAD DUP1 DUP3 ADD SWAP1 SWAP2 MSTORE SWAP2 ADD SLOAD PUSH6 0xFFFFFFFFFFFF DUP2 AND DUP3 MSTORE PUSH1 0x1 PUSH1 0x30 SHL SWAP1 DIV PUSH1 0x1 PUSH1 0x1 PUSH1 0xD0 SHL SUB AND SWAP2 DUP2 ADD SWAP2 SWAP1 SWAP2 MSTORE SWAP4 SWAP3 POP POP POP JUMP JUMPDEST PUSH2 0x2234 DUP4 DUP4 DUP4 PUSH2 0x2367 JUMP JUMPDEST PUSH1 0x1 PUSH1 0x1 PUSH1 0xA0 SHL SUB DUP4 AND PUSH2 0x2284 JUMPI PUSH0 PUSH2 0x224C PUSH1 0x2 SLOAD SWAP1 JUMP JUMPDEST SWAP1 POP PUSH1 0x1 PUSH1 0x1 PUSH1 0xD0 SHL SUB DUP1 DUP3 GT ISZERO PUSH2 0x2281 JUMPI PUSH1 0x40 MLOAD PUSH4 0xE58AE93 PUSH1 0xE1 SHL DUP2 MSTORE PUSH1 0x4 DUP2 ADD DUP4 SWAP1 MSTORE PUSH1 0x24 DUP2 ADD DUP3 SWAP1 MSTORE PUSH1 0x44 ADD PUSH2 0x936 JUMP JUMPDEST POP POP JUMPDEST PUSH2 0x878 DUP4 DUP4 DUP4 PUSH2 0x248D JUMP JUMPDEST PUSH0 PUSH2 0x229D PUSH1 0x2 DUP5 DUP5 XOR PUSH2 0x2A37 JUMP JUMPDEST PUSH2 0x1273 SWAP1 DUP5 DUP5 AND PUSH2 0x29E8 JUMP JUMPDEST PUSH0 PUSH2 0x1273 DUP3 DUP5 PUSH2 0x2A56 JUMP JUMPDEST PUSH0 PUSH1 0x1 PUSH1 0x1 PUSH1 0xD0 SHL SUB DUP3 GT ISZERO PUSH2 0x1C22 JUMPI PUSH1 0x40 MLOAD PUSH4 0x6DFCC65 PUSH1 0xE4 SHL DUP2 MSTORE PUSH1 0xD0 PUSH1 0x4 DUP3 ADD MSTORE PUSH1 0x24 DUP2 ADD DUP4 SWAP1 MSTORE PUSH1 0x44 ADD PUSH2 0x936 JUMP JUMPDEST PUSH0 PUSH0 PUSH2 0x2312 PUSH2 0x22F4 PUSH2 0xB8D JUMP JUMPDEST PUSH2 0x230A PUSH2 0x2300 DUP9 PUSH2 0x192B JUMP JUMPDEST DUP7 DUP9 PUSH4 0xFFFFFFFF AND JUMP JUMPDEST DUP8 SWAP2 SWAP1 PUSH2 0x2502 JUMP JUMPDEST SWAP2 POP SWAP2 POP JUMPDEST SWAP4 POP SWAP4 SWAP2 POP POP JUMP JUMPDEST PUSH0 PUSH2 0x1273 DUP3 DUP5 PUSH2 0x2A75 JUMP JUMPDEST PUSH1 0x60 PUSH0 PUSH2 0x2336 DUP4 PUSH2 0x250F JUMP JUMPDEST PUSH1 0x40 DUP1 MLOAD PUSH1 0x20 DUP1 DUP3 MSTORE DUP2 DUP4 ADD SWAP1 SWAP3 MSTORE SWAP2 SWAP3 POP PUSH0 SWAP2 SWAP1 PUSH1 0x20 DUP3 ADD DUP2 DUP1 CALLDATASIZE DUP4 CALLDATACOPY POP POP POP SWAP2 DUP3 MSTORE POP PUSH1 0x20 DUP2 ADD SWAP3 SWAP1 SWAP3 MSTORE POP SWAP1 JUMP JUMPDEST PUSH1 0x1 PUSH1 0x1 PUSH1 0xA0 SHL SUB DUP4 AND PUSH2 0x2391 JUMPI DUP1 PUSH1 0x2 PUSH0 DUP3 DUP3 SLOAD PUSH2 0x2386 SWAP2 SWAP1 PUSH2 0x29E8 JUMP JUMPDEST SWAP1 SWAP2 SSTORE POP PUSH2 0x2401 SWAP1 POP JUMP JUMPDEST PUSH1 0x1 PUSH1 0x1 PUSH1 0xA0 SHL SUB DUP4 AND PUSH0 SWAP1 DUP2 MSTORE PUSH1 0x20 DUP2 SWAP1 MSTORE PUSH1 0x40 SWAP1 KECCAK256 SLOAD DUP2 DUP2 LT ISZERO PUSH2 0x23E3 JUMPI PUSH1 0x40 MLOAD PUSH4 0x391434E3 PUSH1 0xE2 SHL DUP2 MSTORE PUSH1 0x1 PUSH1 0x1 PUSH1 0xA0 SHL SUB DUP6 AND PUSH1 0x4 DUP3 ADD MSTORE PUSH1 0x24 DUP2 ADD DUP3 SWAP1 MSTORE PUSH1 0x44 DUP2 ADD DUP4 SWAP1 MSTORE PUSH1 0x64 ADD PUSH2 0x936 JUMP JUMPDEST PUSH1 0x1 PUSH1 0x1 PUSH1 0xA0 SHL SUB DUP5 AND PUSH0 SWAP1 DUP2 MSTORE PUSH1 0x20 DUP2 SWAP1 MSTORE PUSH1 0x40 SWAP1 KECCAK256 SWAP1 DUP3 SWAP1 SUB SWAP1 SSTORE JUMPDEST PUSH1 0x1 PUSH1 0x1 PUSH1 0xA0 SHL SUB DUP3 AND PUSH2 0x241D JUMPI PUSH1 0x2 DUP1 SLOAD DUP3 SWAP1 SUB SWAP1 SSTORE PUSH2 0x243B JUMP JUMPDEST PUSH1 0x1 PUSH1 0x1 PUSH1 0xA0 SHL SUB DUP3 AND PUSH0 SWAP1 DUP2 MSTORE PUSH1 0x20 DUP2 SWAP1 MSTORE PUSH1 0x40 SWAP1 KECCAK256 DUP1 SLOAD DUP3 ADD SWAP1 SSTORE JUMPDEST DUP2 PUSH1 0x1 PUSH1 0x1 PUSH1 0xA0 SHL SUB AND DUP4 PUSH1 0x1 PUSH1 0x1 PUSH1 0xA0 SHL SUB AND PUSH32 0xDDF252AD1BE2C89B69C2B068FC378DAA952BA7F163C4A11628F55A4DF523B3EF DUP4 PUSH1 0x40 MLOAD PUSH2 0x2480 SWAP2 DUP2 MSTORE PUSH1 0x20 ADD SWAP1 JUMP JUMPDEST PUSH1 0x40 MLOAD DUP1 SWAP2 SUB SWAP1 LOG3 POP POP POP JUMP JUMPDEST PUSH1 0x1 PUSH1 0x1 PUSH1 0xA0 SHL SUB DUP4 AND PUSH2 0x24AF JUMPI PUSH2 0x24AC PUSH1 0xD PUSH2 0x231F PUSH2 0x1E58 DUP5 PUSH2 0x22B4 JUMP JUMPDEST POP POP JUMPDEST PUSH1 0x1 PUSH1 0x1 PUSH1 0xA0 SHL SUB DUP3 AND PUSH2 0x24D1 JUMPI PUSH2 0x24CE PUSH1 0xD PUSH2 0x22A9 PUSH2 0x1E58 DUP5 PUSH2 0x22B4 JUMP JUMPDEST POP POP JUMPDEST PUSH1 0x1 PUSH1 0x1 PUSH1 0xA0 SHL SUB DUP4 DUP2 AND PUSH0 SWAP1 DUP2 MSTORE PUSH1 0xB PUSH1 0x20 MSTORE PUSH1 0x40 DUP1 DUP3 KECCAK256 SLOAD DUP6 DUP5 AND DUP4 MSTORE SWAP2 KECCAK256 SLOAD PUSH2 0x878 SWAP3 SWAP2 DUP3 AND SWAP2 AND DUP4 PUSH2 0x1DFA JUMP JUMPDEST PUSH0 DUP1 PUSH2 0x2312 DUP6 DUP6 DUP6 PUSH2 0x2536 JUMP JUMPDEST PUSH0 PUSH1 0xFF DUP3 AND PUSH1 0x1F DUP2 GT ISZERO PUSH2 0x73D JUMPI PUSH1 0x40 MLOAD PUSH4 0x2CD44AC3 PUSH1 0xE2 SHL DUP2 MSTORE PUSH1 0x4 ADD PUSH1 0x40 MLOAD DUP1 SWAP2 SUB SWAP1 REVERT JUMPDEST DUP3 SLOAD PUSH0 SWAP1 DUP2 SWAP1 DUP1 ISZERO PUSH2 0x262C JUMPI PUSH0 PUSH2 0x2552 DUP8 PUSH2 0x1694 PUSH1 0x1 DUP6 PUSH2 0x29D5 JUMP JUMPDEST DUP1 SLOAD SWAP1 SWAP2 POP PUSH6 0xFFFFFFFFFFFF DUP1 DUP3 AND SWAP2 PUSH1 0x1 PUSH1 0x30 SHL SWAP1 DIV PUSH1 0x1 PUSH1 0x1 PUSH1 0xD0 SHL SUB AND SWAP1 DUP9 AND DUP3 GT ISZERO PUSH2 0x2595 JUMPI PUSH1 0x40 MLOAD PUSH4 0x2520601D PUSH1 0xE0 SHL DUP2 MSTORE PUSH1 0x4 ADD PUSH1 0x40 MLOAD DUP1 SWAP2 SUB SWAP1 REVERT JUMPDEST DUP8 PUSH6 0xFFFFFFFFFFFF AND DUP3 PUSH6 0xFFFFFFFFFFFF AND SUB PUSH2 0x25CE JUMPI DUP3 SLOAD PUSH6 0xFFFFFFFFFFFF AND PUSH1 0x1 PUSH1 0x30 SHL PUSH1 0x1 PUSH1 0x1 PUSH1 0xD0 SHL SUB DUP10 AND MUL OR DUP4 SSTORE PUSH2 0x261E JUMP JUMPDEST PUSH1 0x40 DUP1 MLOAD DUP1 DUP3 ADD SWAP1 SWAP2 MSTORE PUSH6 0xFFFFFFFFFFFF DUP1 DUP11 AND DUP3 MSTORE PUSH1 0x1 PUSH1 0x1 PUSH1 0xD0 SHL SUB DUP1 DUP11 AND PUSH1 0x20 DUP1 DUP6 ADD SWAP2 DUP3 MSTORE DUP14 SLOAD PUSH1 0x1 DUP2 ADD DUP16 SSTORE PUSH0 DUP16 DUP2 MSTORE SWAP2 SWAP1 SWAP2 KECCAK256 SWAP5 MLOAD SWAP2 MLOAD SWAP1 SWAP3 AND PUSH1 0x1 PUSH1 0x30 SHL MUL SWAP3 AND SWAP2 SWAP1 SWAP2 OR SWAP2 ADD SSTORE JUMPDEST SWAP5 POP DUP6 SWAP4 POP PUSH2 0x2317 SWAP3 POP POP POP JUMP JUMPDEST POP POP PUSH1 0x40 DUP1 MLOAD DUP1 DUP3 ADD SWAP1 SWAP2 MSTORE PUSH6 0xFFFFFFFFFFFF DUP1 DUP6 AND DUP3 MSTORE PUSH1 0x1 PUSH1 0x1 PUSH1 0xD0 SHL SUB DUP1 DUP6 AND PUSH1 0x20 DUP1 DUP6 ADD SWAP2 DUP3 MSTORE DUP9 SLOAD PUSH1 0x1 DUP2 ADD DUP11 SSTORE PUSH0 DUP11 DUP2 MSTORE SWAP2 DUP3 KECCAK256 SWAP6 MLOAD SWAP3 MLOAD SWAP1 SWAP4 AND PUSH1 0x1 PUSH1 0x30 SHL MUL SWAP2 SWAP1 SWAP4 AND OR SWAP3 ADD SWAP2 SWAP1 SWAP2 SSTORE SWAP1 POP DUP2 PUSH2 0x2317 JUMP JUMPDEST PUSH0 PUSH1 0x20 DUP3 DUP5 SUB SLT ISZERO PUSH2 0x2696 JUMPI PUSH0 PUSH0 REVERT JUMPDEST DUP2 CALLDATALOAD PUSH1 0x1 PUSH1 0x1 PUSH1 0xE0 SHL SUB NOT DUP2 AND DUP2 EQ PUSH2 0x1273 JUMPI PUSH0 PUSH0 REVERT JUMPDEST PUSH0 DUP2 MLOAD DUP1 DUP5 MSTORE DUP1 PUSH1 0x20 DUP5 ADD PUSH1 0x20 DUP7 ADD MCOPY PUSH0 PUSH1 0x20 DUP3 DUP7 ADD ADD MSTORE PUSH1 0x20 PUSH1 0x1F NOT PUSH1 0x1F DUP4 ADD AND DUP6 ADD ADD SWAP2 POP POP SWAP3 SWAP2 POP POP JUMP JUMPDEST PUSH1 0x20 DUP2 MSTORE PUSH0 PUSH2 0x1273 PUSH1 0x20 DUP4 ADD DUP5 PUSH2 0x26AD JUMP JUMPDEST DUP1 CALLDATALOAD PUSH1 0x1 PUSH1 0x1 PUSH1 0xA0 SHL SUB DUP2 AND DUP2 EQ PUSH2 0x2703 JUMPI PUSH0 PUSH0 REVERT JUMPDEST SWAP2 SWAP1 POP JUMP JUMPDEST PUSH0 PUSH0 PUSH1 0x40 DUP4 DUP6 SUB SLT ISZERO PUSH2 0x2719 JUMPI PUSH0 PUSH0 REVERT JUMPDEST PUSH2 0x2722 DUP4 PUSH2 0x26ED JUMP JUMPDEST SWAP5 PUSH1 0x20 SWAP4 SWAP1 SWAP4 ADD CALLDATALOAD SWAP4 POP POP POP JUMP JUMPDEST PUSH0 PUSH0 PUSH0 PUSH1 0x60 DUP5 DUP7 SUB SLT ISZERO PUSH2 0x2742 JUMPI PUSH0 PUSH0 REVERT JUMPDEST PUSH2 0x274B DUP5 PUSH2 0x26ED JUMP JUMPDEST SWAP3 POP PUSH2 0x2759 PUSH1 0x20 DUP6 ADD PUSH2 0x26ED JUMP JUMPDEST SWAP3 SWAP6 SWAP3 SWAP5 POP POP POP PUSH1 0x40 SWAP2 SWAP1 SWAP2 ADD CALLDATALOAD SWAP1 JUMP JUMPDEST PUSH0 PUSH1 0x20 DUP3 DUP5 SUB SLT ISZERO PUSH2 0x277A JUMPI PUSH0 PUSH0 REVERT JUMPDEST POP CALLDATALOAD SWAP2 SWAP1 POP JUMP JUMPDEST PUSH0 PUSH0 PUSH1 0x40 DUP4 DUP6 SUB SLT ISZERO PUSH2 0x2792 JUMPI PUSH0 PUSH0 REVERT JUMPDEST DUP3 CALLDATALOAD SWAP2 POP PUSH2 0x27A2 PUSH1 0x20 DUP5 ADD PUSH2 0x26ED JUMP JUMPDEST SWAP1 POP SWAP3 POP SWAP3 SWAP1 POP JUMP JUMPDEST PUSH0 PUSH1 0x20 DUP3 DUP5 SUB SLT ISZERO PUSH2 0x27BB JUMPI PUSH0 PUSH0 REVERT JUMPDEST PUSH2 0x1273 DUP3 PUSH2 0x26ED JUMP JUMPDEST PUSH1 0xFF PUSH1 0xF8 SHL DUP9 AND DUP2 MSTORE PUSH1 0xE0 PUSH1 0x20 DUP3 ADD MSTORE PUSH0 PUSH2 0x27E2 PUSH1 0xE0 DUP4 ADD DUP10 PUSH2 0x26AD JUMP JUMPDEST DUP3 DUP2 SUB PUSH1 0x40 DUP5 ADD MSTORE PUSH2 0x27F4 DUP2 DUP10 PUSH2 0x26AD JUMP JUMPDEST PUSH1 0x60 DUP5 ADD DUP9 SWAP1 MSTORE PUSH1 0x1 PUSH1 0x1 PUSH1 0xA0 SHL SUB DUP8 AND PUSH1 0x80 DUP6 ADD MSTORE PUSH1 0xA0 DUP5 ADD DUP7 SWAP1 MSTORE DUP4 DUP2 SUB PUSH1 0xC0 DUP6 ADD MSTORE DUP5 MLOAD DUP1 DUP3 MSTORE PUSH1 0x20 DUP1 DUP8 ADD SWAP4 POP SWAP1 SWAP2 ADD SWAP1 PUSH0 JUMPDEST DUP2 DUP2 LT ISZERO PUSH2 0x2849 JUMPI DUP4 MLOAD DUP4 MSTORE PUSH1 0x20 SWAP4 DUP5 ADD SWAP4 SWAP1 SWAP3 ADD SWAP2 PUSH1 0x1 ADD PUSH2 0x282B JUMP JUMPDEST POP SWAP1 SWAP12 SWAP11 POP POP POP POP POP POP POP POP POP POP POP JUMP JUMPDEST DUP1 CALLDATALOAD PUSH1 0xFF DUP2 AND DUP2 EQ PUSH2 0x2703 JUMPI PUSH0 PUSH0 REVERT JUMPDEST PUSH0 PUSH0 PUSH0 PUSH0 PUSH0 PUSH0 PUSH1 0xC0 DUP8 DUP10 SUB SLT ISZERO PUSH2 0x287F JUMPI PUSH0 PUSH0 REVERT JUMPDEST PUSH2 0x2888 DUP8 PUSH2 0x26ED JUMP JUMPDEST SWAP6 POP PUSH1 0x20 DUP8 ADD CALLDATALOAD SWAP5 POP PUSH1 0x40 DUP8 ADD CALLDATALOAD SWAP4 POP PUSH2 0x28A4 PUSH1 0x60 DUP9 ADD PUSH2 0x285A JUMP JUMPDEST SWAP6 SWAP9 SWAP5 SWAP8 POP SWAP3 SWAP6 PUSH1 0x80 DUP2 ADD CALLDATALOAD SWAP5 PUSH1 0xA0 SWAP1 SWAP2 ADD CALLDATALOAD SWAP4 POP SWAP2 POP POP JUMP JUMPDEST PUSH0 PUSH0 PUSH0 PUSH0 PUSH0 PUSH0 PUSH0 PUSH1 0xE0 DUP9 DUP11 SUB SLT ISZERO PUSH2 0x28D4 JUMPI PUSH0 PUSH0 REVERT JUMPDEST PUSH2 0x28DD DUP9 PUSH2 0x26ED JUMP JUMPDEST SWAP7 POP PUSH2 0x28EB PUSH1 0x20 DUP10 ADD PUSH2 0x26ED JUMP JUMPDEST SWAP6 POP PUSH1 0x40 DUP9 ADD CALLDATALOAD SWAP5 POP PUSH1 0x60 DUP9 ADD CALLDATALOAD SWAP4 POP PUSH2 0x2907 PUSH1 0x80 DUP10 ADD PUSH2 0x285A JUMP JUMPDEST SWAP7 SWAP10 SWAP6 SWAP9 POP SWAP4 SWAP7 SWAP3 SWAP6 SWAP5 PUSH1 0xA0 DUP5 ADD CALLDATALOAD SWAP5 POP PUSH1 0xC0 SWAP1 SWAP4 ADD CALLDATALOAD SWAP3 SWAP2 POP POP JUMP JUMPDEST PUSH0 PUSH0 PUSH1 0x40 DUP4 DUP6 SUB SLT ISZERO PUSH2 0x2935 JUMPI PUSH0 PUSH0 REVERT JUMPDEST PUSH2 0x293E DUP4 PUSH2 0x26ED JUMP JUMPDEST SWAP2 POP PUSH2 0x27A2 PUSH1 0x20 DUP5 ADD PUSH2 0x26ED JUMP JUMPDEST PUSH0 PUSH0 PUSH1 0x40 DUP4 DUP6 SUB SLT ISZERO PUSH2 0x295D JUMPI PUSH0 PUSH0 REVERT JUMPDEST PUSH2 0x2966 DUP4 PUSH2 0x26ED JUMP JUMPDEST SWAP2 POP PUSH1 0x20 DUP4 ADD CALLDATALOAD PUSH4 0xFFFFFFFF DUP2 AND DUP2 EQ PUSH2 0x297E JUMPI PUSH0 PUSH0 REVERT JUMPDEST DUP1 SWAP2 POP POP SWAP3 POP SWAP3 SWAP1 POP JUMP JUMPDEST PUSH1 0x1 DUP2 DUP2 SHR SWAP1 DUP3 AND DUP1 PUSH2 0x299D JUMPI PUSH1 0x7F DUP3 AND SWAP2 POP JUMPDEST PUSH1 0x20 DUP3 LT DUP2 SUB PUSH2 0x29BB JUMPI PUSH4 0x4E487B71 PUSH1 0xE0 SHL PUSH0 MSTORE PUSH1 0x22 PUSH1 0x4 MSTORE PUSH1 0x24 PUSH0 REVERT JUMPDEST POP SWAP2 SWAP1 POP JUMP JUMPDEST PUSH4 0x4E487B71 PUSH1 0xE0 SHL PUSH0 MSTORE PUSH1 0x11 PUSH1 0x4 MSTORE PUSH1 0x24 PUSH0 REVERT JUMPDEST DUP2 DUP2 SUB DUP2 DUP2 GT ISZERO PUSH2 0x73D JUMPI PUSH2 0x73D PUSH2 0x29C1 JUMP JUMPDEST DUP1 DUP3 ADD DUP1 DUP3 GT ISZERO PUSH2 0x73D JUMPI PUSH2 0x73D PUSH2 0x29C1 JUMP JUMPDEST PUSH4 0x4E487B71 PUSH1 0xE0 SHL PUSH0 MSTORE PUSH1 0x12 PUSH1 0x4 MSTORE PUSH1 0x24 PUSH0 REVERT JUMPDEST PUSH4 0x4E487B71 PUSH1 0xE0 SHL PUSH0 MSTORE PUSH1 0x21 PUSH1 0x4 MSTORE PUSH1 0x24 PUSH0 REVERT JUMPDEST PUSH4 0x4E487B71 PUSH1 0xE0 SHL PUSH0 MSTORE PUSH1 0x32 PUSH1 0x4 MSTORE PUSH1 0x24 PUSH0 REVERT JUMPDEST PUSH0 DUP3 PUSH2 0x2A51 JUMPI PUSH4 0x4E487B71 PUSH1 0xE0 SHL PUSH0 MSTORE PUSH1 0x12 PUSH1 0x4 MSTORE PUSH1 0x24 PUSH0 REVERT JUMPDEST POP DIV SWAP1 JUMP JUMPDEST PUSH1 0x1 PUSH1 0x1 PUSH1 0xD0 SHL SUB DUP3 DUP2 AND DUP3 DUP3 AND SUB SWAP1 DUP2 GT ISZERO PUSH2 0x73D JUMPI PUSH2 0x73D PUSH2 0x29C1 JUMP JUMPDEST PUSH1 0x1 PUSH1 0x1 PUSH1 0xD0 SHL SUB DUP2 DUP2 AND DUP4 DUP3 AND ADD SWAP1 DUP2 GT ISZERO PUSH2 0x73D JUMPI PUSH2 0x73D PUSH2 0x29C1 JUMP INVALID LOG2 PUSH5 0x6970667358 0x22 SLT KECCAK256 OR POP 0xCA SWAP14 EOFCREATE 0xA7 RETURNDATASIZE DATALOADN 0x9BB7 0x2E JUMP RETURNCONTRACT 0xA8 PUSH0 PUSH3 0x229B05 STOP CALLVALUE 0xCA 0xB8 EOFCREATE 0x89 EXTCALL DELEGATECALL PUSH14 0xD88B793C64736F6C634300081D00 CALLER "
		},
		"gasEstimates": {
			"creation": {
				"codeDepositCost": "2190800",
				"executionCost": "infinite",
				"totalCost": "infinite"
			},
			"external": {
				"CLOCK_MODE()": "infinite",
				"DEFAULT_ADMIN_ROLE()": "238",
				"DOMAIN_SEPARATOR()": "infinite",
				"actions()": "2692",
				"allowance(address,address)": "infinite",
				"approve(address,uint256)": "24787",
				"balanceOf(address)": "2692",
				"burnSupply(address,uint256)": "infinite",
				"checkpoints(address,uint32)": "infinite",
				"clock()": "infinite",
				"daoAddress()": "2482",
				"decimals()": "2400",
				"delegate(address)": "infinite",
				"delegateBySig(address,uint256,uint256,uint8,bytes32,bytes32)": "infinite",
				"delegates(address)": "2631",
				"eip712Domain()": "infinite",
				"getPastTotalSupply(uint256)": "infinite",
				"getPastVotes(address,uint256)": "infinite",
				"getRoleAdmin(bytes32)": "2509",
				"getVotes(address)": "infinite",
				"grantRole(bytes32,address)": "infinite",
				"hasRole(bytes32,address)": "2717",
				"isDaoAddress(address)": "2651",
				"isFreshGovernanceToken()": "2366",
				"isProposal(address)": "2673",
				"isProposalRole(address)": "2792",
				"mintSupply(address,uint256)": "infinite",
				"name()": "infinite",
				"nonces(address)": "infinite",
				"numCheckpoints(address)": "infinite",
				"owner()": "2464",
				"pause()": "infinite",
				"paused()": "2403",
				"permit(address,address,uint256,uint256,uint8,bytes32,bytes32)": "infinite",
				"renounceOwnership()": "infinite",
				"renounceRole(bytes32,address)": "29179",
				"revokeRole(bytes32,address)": "infinite",
				"setDAOAddress(address)": "infinite",
				"setProposalRole(address,uint256)": "infinite",
				"supportsInterface(bytes4)": "470",
				"symbol()": "infinite",
				"totalSupply()": "2393",
				"transfer(address,uint256)": "infinite",
				"transferFrom(address,address,uint256)": "infinite",
				"transferOwnership(address)": "28465",
				"unpause()": "infinite"
			},
			"internal": {
				"_getVotingUnits(address)": "2229",
				"_update(address,address,uint256)": "infinite",
				"initializeFeatures(struct GovernanceToken.smartContractActions memory)": "infinite"
			}
		},
		"methodIdentifiers": {
			"CLOCK_MODE()": "4bf5d7e9",
			"DEFAULT_ADMIN_ROLE()": "a217fddf",
			"DOMAIN_SEPARATOR()": "3644e515",
			"actions()": "f99e36bc",
			"allowance(address,address)": "dd62ed3e",
			"approve(address,uint256)": "095ea7b3",
			"balanceOf(address)": "70a08231",
			"burnSupply(address,uint256)": "aecf8a6d",
			"checkpoints(address,uint32)": "f1127ed8",
			"clock()": "91ddadf4",
			"daoAddress()": "2131c68c",
			"decimals()": "313ce567",
			"delegate(address)": "5c19a95c",
			"delegateBySig(address,uint256,uint256,uint8,bytes32,bytes32)": "c3cda520",
			"delegates(address)": "587cde1e",
			"eip712Domain()": "84b0196e",
			"getPastTotalSupply(uint256)": "8e539e8c",
			"getPastVotes(address,uint256)": "3a46b1a8",
			"getRoleAdmin(bytes32)": "248a9ca3",
			"getVotes(address)": "9ab24eb0",
			"grantRole(bytes32,address)": "2f2ff15d",
			"hasRole(bytes32,address)": "91d14854",
			"isDaoAddress(address)": "4dca738b",
			"isFreshGovernanceToken()": "521f87cf",
			"isProposal(address)": "52050003",
			"isProposalRole(address)": "4ac5b7a8",
			"mintSupply(address,uint256)": "e742806a",
			"name()": "06fdde03",
			"nonces(address)": "7ecebe00",
			"numCheckpoints(address)": "6fcfff45",
			"owner()": "8da5cb5b",
			"pause()": "8456cb59",
			"paused()": "5c975abb",
			"permit(address,address,uint256,uint256,uint8,bytes32,bytes32)": "d505accf",
			"renounceOwnership()": "715018a6",
			"renounceRole(bytes32,address)": "36568abe",
			"revokeRole(bytes32,address)": "d547741f",
			"setDAOAddress(address)": "965afa89",
			"setProposalRole(address,uint256)": "a2bfad4c",
			"supportsInterface(bytes4)": "01ffc9a7",
			"symbol()": "95d89b41",
			"totalSupply()": "18160ddd",
			"transfer(address,uint256)": "a9059cbb",
			"transferFrom(address,address,uint256)": "23b872dd",
			"transferOwnership(address)": "f2fde38b",
			"unpause()": "3f4ba83a"
		}
	},
	"abi": [
		{
			"inputs": [
				{
					"internalType": "string",
					"name": "name",
					"type": "string"
				},
				{
					"internalType": "string",
					"name": "symbol",
					"type": "string"
				},
				{
					"internalType": "address",
					"name": "councilAddress",
					"type": "address"
				},
				{
					"internalType": "uint8",
					"name": "decimals_",
					"type": "uint8"
				},
				{
					"components": [
						{
							"internalType": "bool",
							"name": "canMint",
							"type": "bool"
						},
						{
							"internalType": "bool",
							"name": "canBurn",
							"type": "bool"
						},
						{
							"internalType": "bool",
							"name": "canPause",
							"type": "bool"
						},
						{
							"internalType": "bool",
							"name": "canStake",
							"type": "bool"
						},
						{
							"internalType": "bool",
							"name": "canTransfer",
							"type": "bool"
						},
						{
							"internalType": "bool",
							"name": "canChangeOwner",
							"type": "bool"
						}
					],
					"internalType": "struct GovernanceToken.smartContractActions",
					"name": "_actions",
					"type": "tuple"
				}
			],
			"stateMutability": "nonpayable",
			"type": "constructor"
		},
		{
			"inputs": [],
			"name": "AccessControlBadConfirmation",
			"type": "error"
		},
		{
			"inputs": [
				{
					"internalType": "address",
					"name": "account",
					"type": "address"
				},
				{
					"internalType": "bytes32",
					"name": "neededRole",
					"type": "bytes32"
				}
			],
			"name": "AccessControlUnauthorizedAccount",
			"type": "error"
		},
		{
			"inputs": [],
			"name": "CheckpointUnorderedInsertion",
			"type": "error"
		},
		{
			"inputs": [],
			"name": "ECDSAInvalidSignature",
			"type": "error"
		},
		{
			"inputs": [
				{
					"internalType": "uint256",
					"name": "length",
					"type": "uint256"
				}
			],
			"name": "ECDSAInvalidSignatureLength",
			"type": "error"
		},
		{
			"inputs": [
				{
					"internalType": "bytes32",
					"name": "s",
					"type": "bytes32"
				}
			],
			"name": "ECDSAInvalidSignatureS",
			"type": "error"
		},
		{
			"inputs": [
				{
					"internalType": "uint256",
					"name": "increasedSupply",
					"type": "uint256"
				},
				{
					"internalType": "uint256",
					"name": "cap",
					"type": "uint256"
				}
			],
			"name": "ERC20ExceededSafeSupply",
			"type": "error"
		},
		{
			"inputs": [
				{
					"internalType": "address",
					"name": "spender",
					"type": "address"
				},
				{
					"internalType": "uint256",
					"name": "allowance",
					"type": "uint256"
				},
				{
					"internalType": "uint256",
					"name": "needed",
					"type": "uint256"
				}
			],
			"name": "ERC20InsufficientAllowance",
			"type": "error"
		},
		{
			"inputs": [
				{
					"internalType": "address",
					"name": "sender",
					"type": "address"
				},
				{
					"internalType": "uint256",
					"name": "balance",
					"type": "uint256"
				},
				{
					"internalType": "uint256",
					"name": "needed",
					"type": "uint256"
				}
			],
			"name": "ERC20InsufficientBalance",
			"type": "error"
		},
		{
			"inputs": [
				{
					"internalType": "address",
					"name": "approver",
					"type": "address"
				}
			],
			"name": "ERC20InvalidApprover",
			"type": "error"
		},
		{
			"inputs": [
				{
					"internalType": "address",
					"name": "receiver",
					"type": "address"
				}
			],
			"name": "ERC20InvalidReceiver",
			"type": "error"
		},
		{
			"inputs": [
				{
					"internalType": "address",
					"name": "sender",
					"type": "address"
				}
			],
			"name": "ERC20InvalidSender",
			"type": "error"
		},
		{
			"inputs": [
				{
					"internalType": "address",
					"name": "spender",
					"type": "address"
				}
			],
			"name": "ERC20InvalidSpender",
			"type": "error"
		},
		{
			"inputs": [
				{
					"internalType": "uint256",
					"name": "deadline",
					"type": "uint256"
				}
			],
			"name": "ERC2612ExpiredSignature",
			"type": "error"
		},
		{
			"inputs": [
				{
					"internalType": "address",
					"name": "signer",
					"type": "address"
				},
				{
					"internalType": "address",
					"name": "owner",
					"type": "address"
				}
			],
			"name": "ERC2612InvalidSigner",
			"type": "error"
		},
		{
			"inputs": [
				{
					"internalType": "uint256",
					"name": "timepoint",
					"type": "uint256"
				},
				{
					"internalType": "uint48",
					"name": "clock",
					"type": "uint48"
				}
			],
			"name": "ERC5805FutureLookup",
			"type": "error"
		},
		{
			"inputs": [],
			"name": "ERC6372InconsistentClock",
			"type": "error"
		},
		{
			"inputs": [],
			"name": "EnforcedPause",
			"type": "error"
		},
		{
			"inputs": [],
			"name": "ExpectedPause",
			"type": "error"
		},
		{
			"inputs": [],
			"name": "GovernanceERC20BurnNotEnabled",
			"type": "error"
		},
		{
			"inputs": [],
			"name": "GovernanceERC20ChangeOwnerNotEnabled",
			"type": "error"
		},
		{
			"inputs": [],
			"name": "GovernanceERC20IdNotFound",
			"type": "error"
		},
		{
			"inputs": [],
			"name": "GovernanceERC20InsufficientBalance",
			"type": "error"
		},
		{
			"inputs": [],
			"name": "GovernanceERC20MintNotEnabled",
			"type": "error"
		},
		{
			"inputs": [],
			"name": "GovernanceERC20NotADaoInteraction",
			"type": "error"
		},
		{
			"inputs": [],
			"name": "GovernanceERC20PauseNotEnabled",
			"type": "error"
		},
		{
			"inputs": [],
			"name": "GovernanceERC20StakeNotEnabled",
			"type": "error"
		},
		{
			"inputs": [],
			"name": "GovernanceERC20TransferNotEnabled",
			"type": "error"
		},
		{
			"inputs": [],
			"name": "GovernanceERC20ZeroAddressFound",
			"type": "error"
		},
		{
			"inputs": [],
			"name": "GovernanceERC20ZeroAmount",
			"type": "error"
		},
		{
			"inputs": [],
			"name": "GovernanceERC20unAuthorizedRole",
			"type": "error"
		},
		{
			"inputs": [
				{
					"internalType": "address",
					"name": "account",
					"type": "address"
				},
				{
					"internalType": "uint256",
					"name": "currentNonce",
					"type": "uint256"
				}
			],
			"name": "InvalidAccountNonce",
			"type": "error"
		},
		{
			"inputs": [],
			"name": "InvalidShortString",
			"type": "error"
		},
		{
			"inputs": [
				{
					"internalType": "address",
					"name": "owner",
					"type": "address"
				}
			],
			"name": "OwnableInvalidOwner",
			"type": "error"
		},
		{
			"inputs": [
				{
					"internalType": "address",
					"name": "account",
					"type": "address"
				}
			],
			"name": "OwnableUnauthorizedAccount",
			"type": "error"
		},
		{
			"inputs": [],
			"name": "ReentrancyGuardReentrantCall",
			"type": "error"
		},
		{
			"inputs": [
				{
					"internalType": "uint8",
					"name": "bits",
					"type": "uint8"
				},
				{
					"internalType": "uint256",
					"name": "value",
					"type": "uint256"
				}
			],
			"name": "SafeCastOverflowedUintDowncast",
			"type": "error"
		},
		{
			"inputs": [
				{
					"internalType": "string",
					"name": "str",
					"type": "string"
				}
			],
			"name": "StringTooLong",
			"type": "error"
		},
		{
			"inputs": [
				{
					"internalType": "uint256",
					"name": "expiry",
					"type": "uint256"
				}
			],
			"name": "VotesExpiredSignature",
			"type": "error"
		},
		{
			"anonymous": false,
			"inputs": [
				{
					"indexed": true,
					"internalType": "address",
					"name": "owner",
					"type": "address"
				},
				{
					"indexed": true,
					"internalType": "address",
					"name": "spender",
					"type": "address"
				},
				{
					"indexed": false,
					"internalType": "uint256",
					"name": "value",
					"type": "uint256"
				}
			],
			"name": "Approval",
			"type": "event"
		},
		{
			"anonymous": false,
			"inputs": [
				{
					"indexed": true,
					"internalType": "address",
					"name": "delegator",
					"type": "address"
				},
				{
					"indexed": true,
					"internalType": "address",
					"name": "fromDelegate",
					"type": "address"
				},
				{
					"indexed": true,
					"internalType": "address",
					"name": "toDelegate",
					"type": "address"
				}
			],
			"name": "DelegateChanged",
			"type": "event"
		},
		{
			"anonymous": false,
			"inputs": [
				{
					"indexed": true,
					"internalType": "address",
					"name": "delegate",
					"type": "address"
				},
				{
					"indexed": false,
					"internalType": "uint256",
					"name": "previousVotes",
					"type": "uint256"
				},
				{
					"indexed": false,
					"internalType": "uint256",
					"name": "newVotes",
					"type": "uint256"
				}
			],
			"name": "DelegateVotesChanged",
			"type": "event"
		},
		{
			"anonymous": false,
			"inputs": [],
			"name": "EIP712DomainChanged",
			"type": "event"
		},
		{
			"anonymous": false,
			"inputs": [
				{
					"indexed": true,
					"internalType": "address",
					"name": "previousOwner",
					"type": "address"
				},
				{
					"indexed": true,
					"internalType": "address",
					"name": "newOwner",
					"type": "address"
				}
			],
			"name": "OwnershipTransferred",
			"type": "event"
		},
		{
			"anonymous": false,
			"inputs": [
				{
					"indexed": false,
					"internalType": "address",
					"name": "account",
					"type": "address"
				}
			],
			"name": "Paused",
			"type": "event"
		},
		{
			"anonymous": false,
			"inputs": [
				{
					"indexed": true,
					"internalType": "bytes32",
					"name": "role",
					"type": "bytes32"
				},
				{
					"indexed": true,
					"internalType": "bytes32",
					"name": "previousAdminRole",
					"type": "bytes32"
				},
				{
					"indexed": true,
					"internalType": "bytes32",
					"name": "newAdminRole",
					"type": "bytes32"
				}
			],
			"name": "RoleAdminChanged",
			"type": "event"
		},
		{
			"anonymous": false,
			"inputs": [
				{
					"indexed": true,
					"internalType": "bytes32",
					"name": "role",
					"type": "bytes32"
				},
				{
					"indexed": true,
					"internalType": "address",
					"name": "account",
					"type": "address"
				},
				{
					"indexed": true,
					"internalType": "address",
					"name": "sender",
					"type": "address"
				}
			],
			"name": "RoleGranted",
			"type": "event"
		},
		{
			"anonymous": false,
			"inputs": [
				{
					"indexed": true,
					"internalType": "bytes32",
					"name": "role",
					"type": "bytes32"
				},
				{
					"indexed": true,
					"internalType": "address",
					"name": "account",
					"type": "address"
				},
				{
					"indexed": true,
					"internalType": "address",
					"name": "sender",
					"type": "address"
				}
			],
			"name": "RoleRevoked",
			"type": "event"
		},
		{
			"anonymous": false,
			"inputs": [
				{
					"indexed": true,
					"internalType": "address",
					"name": "from",
					"type": "address"
				},
				{
					"indexed": true,
					"internalType": "address",
					"name": "to",
					"type": "address"
				},
				{
					"indexed": false,
					"internalType": "uint256",
					"name": "value",
					"type": "uint256"
				}
			],
			"name": "Transfer",
			"type": "event"
		},
		{
			"anonymous": false,
			"inputs": [
				{
					"indexed": false,
					"internalType": "address",
					"name": "account",
					"type": "address"
				}
			],
			"name": "Unpaused",
			"type": "event"
		},
		{
			"inputs": [],
			"name": "CLOCK_MODE",
			"outputs": [
				{
					"internalType": "string",
					"name": "",
					"type": "string"
				}
			],
			"stateMutability": "view",
			"type": "function"
		},
		{
			"inputs": [],
			"name": "DEFAULT_ADMIN_ROLE",
			"outputs": [
				{
					"internalType": "bytes32",
					"name": "",
					"type": "bytes32"
				}
			],
			"stateMutability": "view",
			"type": "function"
		},
		{
			"inputs": [],
			"name": "DOMAIN_SEPARATOR",
			"outputs": [
				{
					"internalType": "bytes32",
					"name": "",
					"type": "bytes32"
				}
			],
			"stateMutability": "view",
			"type": "function"
		},
		{
			"inputs": [],
			"name": "actions",
			"outputs": [
				{
					"internalType": "bool",
					"name": "canMint",
					"type": "bool"
				},
				{
					"internalType": "bool",
					"name": "canBurn",
					"type": "bool"
				},
				{
					"internalType": "bool",
					"name": "canPause",
					"type": "bool"
				},
				{
					"internalType": "bool",
					"name": "canStake",
					"type": "bool"
				},
				{
					"internalType": "bool",
					"name": "canTransfer",
					"type": "bool"
				},
				{
					"internalType": "bool",
					"name": "canChangeOwner",
					"type": "bool"
				}
			],
			"stateMutability": "view",
			"type": "function"
		},
		{
			"inputs": [
				{
					"internalType": "address",
					"name": "owner",
					"type": "address"
				},
				{
					"internalType": "address",
					"name": "spender",
					"type": "address"
				}
			],
			"name": "allowance",
			"outputs": [
				{
					"internalType": "uint256",
					"name": "",
					"type": "uint256"
				}
			],
			"stateMutability": "view",
			"type": "function"
		},
		{
			"inputs": [
				{
					"internalType": "address",
					"name": "spender",
					"type": "address"
				},
				{
					"internalType": "uint256",
					"name": "value",
					"type": "uint256"
				}
			],
			"name": "approve",
			"outputs": [
				{
					"internalType": "bool",
					"name": "",
					"type": "bool"
				}
			],
			"stateMutability": "nonpayable",
			"type": "function"
		},
		{
			"inputs": [
				{
					"internalType": "address",
					"name": "account",
					"type": "address"
				}
			],
			"name": "balanceOf",
			"outputs": [
				{
					"internalType": "uint256",
					"name": "",
					"type": "uint256"
				}
			],
			"stateMutability": "view",
			"type": "function"
		},
		{
			"inputs": [
				{
					"internalType": "address",
					"name": "from",
					"type": "address"
				},
				{
					"internalType": "uint256",
					"name": "_amount",
					"type": "uint256"
				}
			],
			"name": "burnSupply",
			"outputs": [],
			"stateMutability": "nonpayable",
			"type": "function"
		},
		{
			"inputs": [
				{
					"internalType": "address",
					"name": "account",
					"type": "address"
				},
				{
					"internalType": "uint32",
					"name": "pos",
					"type": "uint32"
				}
			],
			"name": "checkpoints",
			"outputs": [
				{
					"components": [
						{
							"internalType": "uint48",
							"name": "_key",
							"type": "uint48"
						},
						{
							"internalType": "uint208",
							"name": "_value",
							"type": "uint208"
						}
					],
					"internalType": "struct Checkpoints.Checkpoint208",
					"name": "",
					"type": "tuple"
				}
			],
			"stateMutability": "view",
			"type": "function"
		},
		{
			"inputs": [],
			"name": "clock",
			"outputs": [
				{
					"internalType": "uint48",
					"name": "",
					"type": "uint48"
				}
			],
			"stateMutability": "view",
			"type": "function"
		},
		{
			"inputs": [],
			"name": "daoAddress",
			"outputs": [
				{
					"internalType": "address",
					"name": "",
					"type": "address"
				}
			],
			"stateMutability": "view",
			"type": "function"
		},
		{
			"inputs": [],
			"name": "decimals",
			"outputs": [
				{
					"internalType": "uint8",
					"name": "",
					"type": "uint8"
				}
			],
			"stateMutability": "view",
			"type": "function"
		},
		{
			"inputs": [
				{
					"internalType": "address",
					"name": "delegatee",
					"type": "address"
				}
			],
			"name": "delegate",
			"outputs": [],
			"stateMutability": "nonpayable",
			"type": "function"
		},
		{
			"inputs": [
				{
					"internalType": "address",
					"name": "delegatee",
					"type": "address"
				},
				{
					"internalType": "uint256",
					"name": "nonce",
					"type": "uint256"
				},
				{
					"internalType": "uint256",
					"name": "expiry",
					"type": "uint256"
				},
				{
					"internalType": "uint8",
					"name": "v",
					"type": "uint8"
				},
				{
					"internalType": "bytes32",
					"name": "r",
					"type": "bytes32"
				},
				{
					"internalType": "bytes32",
					"name": "s",
					"type": "bytes32"
				}
			],
			"name": "delegateBySig",
			"outputs": [],
			"stateMutability": "nonpayable",
			"type": "function"
		},
		{
			"inputs": [
				{
					"internalType": "address",
					"name": "account",
					"type": "address"
				}
			],
			"name": "delegates",
			"outputs": [
				{
					"internalType": "address",
					"name": "",
					"type": "address"
				}
			],
			"stateMutability": "view",
			"type": "function"
		},
		{
			"inputs": [],
			"name": "eip712Domain",
			"outputs": [
				{
					"internalType": "bytes1",
					"name": "fields",
					"type": "bytes1"
				},
				{
					"internalType": "string",
					"name": "name",
					"type": "string"
				},
				{
					"internalType": "string",
					"name": "version",
					"type": "string"
				},
				{
					"internalType": "uint256",
					"name": "chainId",
					"type": "uint256"
				},
				{
					"internalType": "address",
					"name": "verifyingContract",
					"type": "address"
				},
				{
					"internalType": "bytes32",
					"name": "salt",
					"type": "bytes32"
				},
				{
					"internalType": "uint256[]",
					"name": "extensions",
					"type": "uint256[]"
				}
			],
			"stateMutability": "view",
			"type": "function"
		},
		{
			"inputs": [
				{
					"internalType": "uint256",
					"name": "timepoint",
					"type": "uint256"
				}
			],
			"name": "getPastTotalSupply",
			"outputs": [
				{
					"internalType": "uint256",
					"name": "",
					"type": "uint256"
				}
			],
			"stateMutability": "view",
			"type": "function"
		},
		{
			"inputs": [
				{
					"internalType": "address",
					"name": "account",
					"type": "address"
				},
				{
					"internalType": "uint256",
					"name": "timepoint",
					"type": "uint256"
				}
			],
			"name": "getPastVotes",
			"outputs": [
				{
					"internalType": "uint256",
					"name": "",
					"type": "uint256"
				}
			],
			"stateMutability": "view",
			"type": "function"
		},
		{
			"inputs": [
				{
					"internalType": "bytes32",
					"name": "role",
					"type": "bytes32"
				}
			],
			"name": "getRoleAdmin",
			"outputs": [
				{
					"internalType": "bytes32",
					"name": "",
					"type": "bytes32"
				}
			],
			"stateMutability": "view",
			"type": "function"
		},
		{
			"inputs": [
				{
					"internalType": "address",
					"name": "account",
					"type": "address"
				}
			],
			"name": "getVotes",
			"outputs": [
				{
					"internalType": "uint256",
					"name": "",
					"type": "uint256"
				}
			],
			"stateMutability": "view",
			"type": "function"
		},
		{
			"inputs": [
				{
					"internalType": "bytes32",
					"name": "role",
					"type": "bytes32"
				},
				{
					"internalType": "address",
					"name": "account",
					"type": "address"
				}
			],
			"name": "grantRole",
			"outputs": [],
			"stateMutability": "nonpayable",
			"type": "function"
		},
		{
			"inputs": [
				{
					"internalType": "bytes32",
					"name": "role",
					"type": "bytes32"
				},
				{
					"internalType": "address",
					"name": "account",
					"type": "address"
				}
			],
			"name": "hasRole",
			"outputs": [
				{
					"internalType": "bool",
					"name": "",
					"type": "bool"
				}
			],
			"stateMutability": "view",
			"type": "function"
		},
		{
			"inputs": [
				{
					"internalType": "address",
					"name": "",
					"type": "address"
				}
			],
			"name": "isDaoAddress",
			"outputs": [
				{
					"internalType": "bool",
					"name": "",
					"type": "bool"
				}
			],
			"stateMutability": "view",
			"type": "function"
		},
		{
			"inputs": [],
			"name": "isFreshGovernanceToken",
			"outputs": [
				{
					"internalType": "bool",
					"name": "",
					"type": "bool"
				}
			],
			"stateMutability": "view",
			"type": "function"
		},
		{
			"inputs": [
				{
					"internalType": "address",
					"name": "",
					"type": "address"
				}
			],
			"name": "isProposal",
			"outputs": [
				{
					"internalType": "bool",
					"name": "",
					"type": "bool"
				}
			],
			"stateMutability": "view",
			"type": "function"
		},
		{
			"inputs": [
				{
					"internalType": "address",
					"name": "proposal",
					"type": "address"
				}
			],
			"name": "isProposalRole",
			"outputs": [
				{
					"internalType": "bool",
					"name": "",
					"type": "bool"
				}
			],
			"stateMutability": "view",
			"type": "function"
		},
		{
			"inputs": [
				{
					"internalType": "address",
					"name": "to",
					"type": "address"
				},
				{
					"internalType": "uint256",
					"name": "_amount",
					"type": "uint256"
				}
			],
			"name": "mintSupply",
			"outputs": [],
			"stateMutability": "nonpayable",
			"type": "function"
		},
		{
			"inputs": [],
			"name": "name",
			"outputs": [
				{
					"internalType": "string",
					"name": "",
					"type": "string"
				}
			],
			"stateMutability": "view",
			"type": "function"
		},
		{
			"inputs": [
				{
					"internalType": "address",
					"name": "owner",
					"type": "address"
				}
			],
			"name": "nonces",
			"outputs": [
				{
					"internalType": "uint256",
					"name": "",
					"type": "uint256"
				}
			],
			"stateMutability": "view",
			"type": "function"
		},
		{
			"inputs": [
				{
					"internalType": "address",
					"name": "account",
					"type": "address"
				}
			],
			"name": "numCheckpoints",
			"outputs": [
				{
					"internalType": "uint32",
					"name": "",
					"type": "uint32"
				}
			],
			"stateMutability": "view",
			"type": "function"
		},
		{
			"inputs": [],
			"name": "owner",
			"outputs": [
				{
					"internalType": "address",
					"name": "",
					"type": "address"
				}
			],
			"stateMutability": "view",
			"type": "function"
		},
		{
			"inputs": [],
			"name": "pause",
			"outputs": [],
			"stateMutability": "nonpayable",
			"type": "function"
		},
		{
			"inputs": [],
			"name": "paused",
			"outputs": [
				{
					"internalType": "bool",
					"name": "",
					"type": "bool"
				}
			],
			"stateMutability": "view",
			"type": "function"
		},
		{
			"inputs": [
				{
					"internalType": "address",
					"name": "owner",
					"type": "address"
				},
				{
					"internalType": "address",
					"name": "spender",
					"type": "address"
				},
				{
					"internalType": "uint256",
					"name": "value",
					"type": "uint256"
				},
				{
					"internalType": "uint256",
					"name": "deadline",
					"type": "uint256"
				},
				{
					"internalType": "uint8",
					"name": "v",
					"type": "uint8"
				},
				{
					"internalType": "bytes32",
					"name": "r",
					"type": "bytes32"
				},
				{
					"internalType": "bytes32",
					"name": "s",
					"type": "bytes32"
				}
			],
			"name": "permit",
			"outputs": [],
			"stateMutability": "nonpayable",
			"type": "function"
		},
		{
			"inputs": [],
			"name": "renounceOwnership",
			"outputs": [],
			"stateMutability": "nonpayable",
			"type": "function"
		},
		{
			"inputs": [
				{
					"internalType": "bytes32",
					"name": "role",
					"type": "bytes32"
				},
				{
					"internalType": "address",
					"name": "callerConfirmation",
					"type": "address"
				}
			],
			"name": "renounceRole",
			"outputs": [],
			"stateMutability": "nonpayable",
			"type": "function"
		},
		{
			"inputs": [
				{
					"internalType": "bytes32",
					"name": "role",
					"type": "bytes32"
				},
				{
					"internalType": "address",
					"name": "account",
					"type": "address"
				}
			],
			"name": "revokeRole",
			"outputs": [],
			"stateMutability": "nonpayable",
			"type": "function"
		},
		{
			"inputs": [
				{
					"internalType": "address",
					"name": "_daoAddress",
					"type": "address"
				}
			],
			"name": "setDAOAddress",
			"outputs": [],
			"stateMutability": "nonpayable",
			"type": "function"
		},
		{
			"inputs": [
				{
					"internalType": "address",
					"name": "proposal",
					"type": "address"
				},
				{
					"internalType": "uint256",
					"name": "actionId",
					"type": "uint256"
				}
			],
			"name": "setProposalRole",
			"outputs": [],
			"stateMutability": "nonpayable",
			"type": "function"
		},
		{
			"inputs": [
				{
					"internalType": "bytes4",
					"name": "interfaceId",
					"type": "bytes4"
				}
			],
			"name": "supportsInterface",
			"outputs": [
				{
					"internalType": "bool",
					"name": "",
					"type": "bool"
				}
			],
			"stateMutability": "view",
			"type": "function"
		},
		{
			"inputs": [],
			"name": "symbol",
			"outputs": [
				{
					"internalType": "string",
					"name": "",
					"type": "string"
				}
			],
			"stateMutability": "view",
			"type": "function"
		},
		{
			"inputs": [],
			"name": "totalSupply",
			"outputs": [
				{
					"internalType": "uint256",
					"name": "",
					"type": "uint256"
				}
			],
			"stateMutability": "view",
			"type": "function"
		},
		{
			"inputs": [
				{
					"internalType": "address",
					"name": "recipient",
					"type": "address"
				},
				{
					"internalType": "uint256",
					"name": "amount",
					"type": "uint256"
				}
			],
			"name": "transfer",
			"outputs": [
				{
					"internalType": "bool",
					"name": "",
					"type": "bool"
				}
			],
			"stateMutability": "nonpayable",
			"type": "function"
		},
		{
			"inputs": [
				{
					"internalType": "address",
					"name": "from",
					"type": "address"
				},
				{
					"internalType": "address",
					"name": "to",
					"type": "address"
				},
				{
					"internalType": "uint256",
					"name": "value",
					"type": "uint256"
				}
			],
			"name": "transferFrom",
			"outputs": [
				{
					"internalType": "bool",
					"name": "",
					"type": "bool"
				}
			],
			"stateMutability": "nonpayable",
			"type": "function"
		},
		{
			"inputs": [
				{
					"internalType": "address",
					"name": "newOwner",
					"type": "address"
				}
			],
			"name": "transferOwnership",
			"outputs": [],
			"stateMutability": "nonpayable",
			"type": "function"
		},
		{
			"inputs": [],
			"name": "unpause",
			"outputs": [],
			"stateMutability": "nonpayable",
			"type": "function"
		}
	]
}