{
	"data": {
		"bytecode": {
			"linkReferences": {},
			"object": "608060405234801561000f575f5ffd5b50604051611e98380380611e9883398101604081905261002e916109b7565b5f80546001600160a01b0319166001600160a01b038b8116918217909255600a8054600160201b600160c01b031916640100000000928302179081905560408051637cb6d70560e11b81529051929091049092169163f96dae0a9160048083019260209291908290030181865afa1580156100ab573d5f5f3e3d5ffd5b505050506040513d601f19601f820116820180604052508101906100cf9190610aa1565b600280546001600160a01b03199081166001600160a01b0393841617909155600180549091168a8316179055600c889055600a5460408051632cabd63360e11b815281515f94859464010000000090041692635957ac6692600480820193918290030181865afa158015610145573d5f5f3e3d5ffd5b505050506040513d601f19601f820116820180604052508101906101699190610acb565b600a5460405163fe436c5360e01b81526001600160a01b038e8116600483015293955091935064010000000090049091169063fe436c5390602401602060405180830381865afa1580156101bf573d5f5f3e3d5ffd5b505050506040513d601f19601f820116820180604052508101906101e39190610af5565b6102005760405163be24598360e01b815260040160405180910390fd5b811561022f5761020f8a6104b0565b81111561022f57604051631aa7cc5f60e21b815260040160405180910390fd5b600361023b8982610b8c565b5060046102488882610b8c565b506008805463ffffffff191663ffffffff881690811790915561026c908690610c5a565b6008805463ffffffff60201b191664010000000063ffffffff939093168302179055600a54604051636d3c826160e11b81529190046001600160a01b03169063da7904c2906102c59030908e908d908a90600401610c7c565b5f604051808303815f87803b1580156102dc575f5ffd5b505af11580156102ee573d5f5f3e3d5ffd5b505050505f5f5f5f5f600a60049054906101000a90046001600160a01b03166001600160a01b03166362354e036040518163ffffffff1660e01b815260040160a060405180830381865afa158015610348573d5f5f3e3d5ffd5b505050506040513d601f19601f8201168201806040525081019061036c9190610cd9565b6008805463ffffffff8516600955600a805463ffff00001916620100008615150263ff0000001916176301000000851515021790556801000000000000000061ffff60481b19909116690100000000000000000060ff8981169190910260ff60501b1916919091176a0100000000000000000000918816919091021760ff60401b19161790559398509196509450925090505f5b88518160ff16101561049a57600b898260ff168151811061042357610423610d3a565b6020908102919091018101518254600180820185555f94855293839020825160039092020180546001600160a01b0319166001600160a01b039092169190911781559181015192820192909255604082015160028201906104849082610b8c565b505050808061049290610d4e565b915050610400565b5050505050505050505050505050505050610d96565b5f600a60049054906101000a90046001600160a01b03166001600160a01b031663a3dac6ae6040518163ffffffff1660e01b8152600401602060405180830381865afa158015610502573d5f5f3e3d5ffd5b505050506040513d601f19601f820116820180604052508101906105269190610af5565b1561053357506001919050565b600254604051632c3e6f0f60e11b81526001600160a01b038481166004830152909116905f90829063587cde1e90602401602060405180830381865afa15801561057f573d5f5f3e3d5ffd5b505050506040513d601f19601f820116820180604052508101906105a39190610aa1565b6001600160a01b031603610692576040516309ab24eb60e41b81526001600160a01b038481166004830152821690639ab24eb090602401602060405180830381865afa1580156105f5573d5f5f3e3d5ffd5b505050506040513d601f19601f820116820180604052508101906106199190610d6c565b6040516370a0823160e01b81526001600160a01b0385811660048301528316906370a0823190602401602060405180830381865afa15801561065d573d5f5f3e3d5ffd5b505050506040513d601f19601f820116820180604052508101906106819190610d6c565b61068b9190610d83565b9392505050565b604051632c3e6f0f60e11b81526001600160a01b0380851660048301819052919083169063587cde1e90602401602060405180830381865afa1580156106da573d5f5f3e3d5ffd5b505050506040513d601f19601f820116820180604052508101906106fe9190610aa1565b6001600160a01b031603610774576040516309ab24eb60e41b81526001600160a01b038481166004830152821690639ab24eb090602401602060405180830381865afa158015610750573d5f5f3e3d5ffd5b505050506040513d601f19601f8201168201806040525081019061068b9190610d6c565b505f92915050565b505b919050565b6001600160a01b0381168114610797575f5ffd5b50565b805161077e81610783565b634e487b7160e01b5f52604160045260245ffd5b604051606081016001600160401b03811182821017156107db576107db6107a5565b60405290565b604051601f8201601f191681016001600160401b0381118282101715610809576108096107a5565b604052919050565b5f806001600160401b0384111561082a5761082a6107a5565b50601f8301601f191660200161083f816107e1565b915050828152838383011115610853575f5ffd5b8282602083015e5f602084830101529392505050565b5f82601f830112610878575f5ffd5b61068b83835160208501610811565b805163ffffffff8116811461077e575f5ffd5b805160ff8116811461077e575f5ffd5b5f82601f8301126108b9575f5ffd5b81516001600160401b038111156108d2576108d26107a5565b8060051b6108e2602082016107e1565b918252602081850181019290810190868411156108fd575f5ffd5b6020860192505b838310156109ad5782516001600160401b03811115610921575f5ffd5b86016060818903601f19011215610936575f5ffd5b61093e6107b9565b602082015161094c81610783565b81526040820151602082015260608201516001600160401b03811115610970575f5ffd5b60208184010192505088601f830112610987575f5ffd5b61099689835160208501610811565b604082015283525060209283019290910190610904565b9695505050505050565b5f5f5f5f5f5f5f5f5f6101208a8c0312156109d0575f5ffd5b6109d98a61079a565b98506109e760208b0161079a565b60408b015160608c015191995097506001600160401b03811115610a09575f5ffd5b610a158c828d01610869565b60808c015190975090506001600160401b03811115610a32575f5ffd5b610a3e8c828d01610869565b955050610a4d60a08b01610887565b9350610a5b60c08b01610887565b9250610a6960e08b0161089a565b6101008b01519092506001600160401b03811115610a85575f5ffd5b610a918c828d016108aa565b9150509295985092959850929598565b5f60208284031215610ab1575f5ffd5b815161068b81610783565b8051801515811461077e575f5ffd5b5f5f60408385031215610adc575f5ffd5b610ae583610abc565b6020939093015192949293505050565b5f60208284031215610b05575f5ffd5b61068b82610abc565b600181811c90821680610b2257607f821691505b60208210810361077c57634e487b7160e01b5f52602260045260245ffd5b601f821115610b8757805f5260205f20601f840160051c81016020851015610b655750805b601f840160051c820191505b81811015610b84575f8155600101610b71565b50505b505050565b81516001600160401b03811115610ba557610ba56107a5565b610bb981610bb38454610b0e565b84610b40565b6020601f821160018114610beb575f8315610bd45750848201515b5f19600385901b1c1916600184901b178455610b84565b5f84815260208120601f198516915b82811015610c1a5787850151825560209485019460019092019101610bfa565b5084821015610c3757868401515f19600387901b60f8161c191681555b50505050600190811b01905550565b634e487b7160e01b5f52601160045260245ffd5b63ffffffff8181168382160190811115610c7657610c76610c46565b92915050565b60018060a01b038516815260018060a01b0384166020820152608060408201525f8351806080840152806020860160a085015e5f60a0828501015260a0601f19601f83011684010191505060ff8316606083015295945050505050565b5f5f5f5f5f60a08688031215610ced575f5ffd5b610cf68661089a565b9450610d046020870161089a565b9350610d1260408701610887565b9250610d2060608701610abc565b9150610d2e60808701610abc565b90509295509295909350565b634e487b7160e01b5f52603260045260245ffd5b5f60ff821660ff8103610d6357610d63610c46565b60010192915050565b5f60208284031215610d7c575f5ffd5b5051919050565b80820180821115610c7657610c76610c46565b6110f580610da35f395ff3fe608060405234801561000f575f5ffd5b506004361061016d575f3560e01c80634162169f116100d9578063b3f98adc11610093578063e1f8c0371161006e578063e1f8c03714610354578063e504575214610367578063e987194f1461036f578063fb286c6514610383575f5ffd5b8063b3f98adc14610325578063b42165d014610338578063b5b47f421461034b575f5ffd5b80634162169f146102a9578063537aeca1146102c357806360f8abb9146102cc57806378e97925146102e05780637e7b1d42146102f057806383240f8314610303575f5ffd5b8063200d2ed21161012a578063200d2ed2146102195780632131c68c1461023f5780633197cbb61461025157806331a38c891461027d578063343055451461028a578063373058b81461029f575f5ffd5b806303ff90f61461017157806305074f111461018d57806309eef43e146101b15780630be48894146101d35780630ebbc1b8146101dc57806319d40b0814610207575b5f5ffd5b61017a600c5481565b6040519081526020015b60405180910390f35b600a546101a1906301000000900460ff1681565b6040519015158152602001610184565b6101a16101bf366004610eee565b600d6020525f908152604090205460ff1681565b61017a60075481565b6001546101ef906001600160a01b031681565b6040516001600160a01b039091168152602001610184565b600a546101a190610100900460ff1681565b60085461022d90600160401b900460ff1681565b60405160ff9091168152602001610184565b5f546101ef906001600160a01b031681565b60085461026890600160201b900463ffffffff1681565b60405163ffffffff9091168152602001610184565b600a546101a19060ff1681565b61029261038c565b6040516101849190610f37565b6102a7610418565b005b600a546101ef90600160201b90046001600160a01b031681565b61017a60095481565b60085461022d90600160481b900460ff1681565b6008546102689063ffffffff1681565b600a546101a19062010000900460ff1681565b610316610311366004610f49565b6106d7565b60405161018493929190610f60565b6102a7610333366004610f8f565b61079c565b6002546101ef906001600160a01b031681565b61017a60065481565b61017a610362366004610eee565b610bfb565b610292610ecd565b60085461022d90600160501b900460ff1681565b61017a60055481565b6004805461039990610faf565b80601f01602080910402602001604051908101604052809291908181526020018280546103c590610faf565b80156104105780601f106103e757610100808354040283529160200191610410565b820191905f5260205f20905b8154815290600101906020018083116103f357829003601f168201915b505050505081565b600a5460405163fe436c5360e01b8152336004820152600160201b9091046001600160a01b03169063fe436c5390602401602060405180830381865afa158015610464573d5f5f3e3d5ffd5b505050506040513d601f19601f820116820180604052508101906104889190610fe1565b6104a55760405163be24598360e01b815260040160405180910390fd5b600a5460ff16156104c9576040516351618d5360e01b815260040160405180910390fd5b600a54610100900460ff166104f15760405163cc6633c560e01b815260040160405180910390fd5b600a5462010000900460ff16806105175750600854600160201b900463ffffffff164210155b156106d557600a805460ff19166001179055600880546803000000000000000060ff60401b199091161790555f5b600b548110156106d3575f600b828154811061056357610563611000565b905f5260205f2090600302016040518060600160405290815f82015f9054906101000a90046001600160a01b03166001600160a01b03166001600160a01b03168152602001600182015481526020016002820180546105c190610faf565b80601f01602080910402602001604051908101604052809291908181526020018280546105ed90610faf565b80156106385780601f1061060f57610100808354040283529160200191610638565b820191905f5260205f20905b81548152906001019060200180831161061b57829003601f168201915b50505050508152505090505f815f01516001600160a01b0316826020015183604001516040516106689190611014565b5f6040518083038185875af1925050503d805f81146106a2576040519150601f19603f3d011682016040523d82523d5f602084013e6106a7565b606091505b50509050806106c9576040516304760c3960e51b815260040160405180910390fd5b5050600101610545565b505b565b600b81815481106106e6575f80fd5b5f9182526020909120600390910201805460018201546002830180546001600160a01b03909316945090929161071b90610faf565b80601f016020809104026020016040519081016040528092919081815260200182805461074790610faf565b80156107925780601f1061076957610100808354040283529160200191610792565b820191905f5260205f20905b81548152906001019060200180831161077557829003601f168201915b5050505050905083565b600a5460405163fe436c5360e01b8152336004820152600160201b9091046001600160a01b03169063fe436c5390602401602060405180830381865afa1580156107e8573d5f5f3e3d5ffd5b505050506040513d601f19601f8201168201806040525081019061080c9190610fe1565b6108295760405163be24598360e01b815260040160405180910390fd5b600854600160401b900460ff1661085357604051631104bc2760e21b815260040160405180910390fd5b600a5460ff1615610877576040516351618d5360e01b815260040160405180910390fd5b335f908152600d602052604090205460ff16156108a757604051637c9a1cf960e01b815260040160405180910390fd5b60085463ffffffff164210156108d057604051636f312cbd60e01b815260040160405180910390fd5b600854600160201b900463ffffffff1642111561090057604051637a19ed0560e01b815260040160405180910390fd5b5f61090a33610bfb565b90505f811161092c57604051631aa7cc5f60e21b815260040160405180910390fd5b8160ff16600103610953578060055f828254610948919061103e565b909155506109d19050565b8160ff1660020361096f578060065f828254610948919061103e565b8160ff1660030361098b578060075f828254610948919061103e565b60408051631c7efab360e21b81526004810191909152600b60448201526a31206f722032206f72203360a81b606482015260ff8316602482015260840160405180910390fd5b335f908152600d6020908152604091829020805460ff19166001179055600a5482516351ed635760e11b81529251600160201b9091046001600160a01b03169263a3dac6ae9260048281019391928290030181865afa158015610a36573d5f5f3e3d5ffd5b505050506040513d601f19601f82011682018060405250810190610a5a9190610fe1565b15610aa157600c5460055410610a9257600a805461ff00191661010017905560088054600160411b60ff60401b199091161790555050565b600a805461ff00191690555050565b600254604080516318160ddd60e01b815290515f926001600160a01b0316916318160ddd9160048083019260209291908290030181865afa158015610ae8573d5f5f3e3d5ffd5b505050506040513d601f19601f82011682018060405250810190610b0c9190611057565b90505f8111610b2e5760405163c16f3a9360e01b815260040160405180910390fd5b5f600754600654600554610b42919061103e565b610b4c919061103e565b90505f82610b5b83606461106e565b610b659190611085565b90505f826005546064610b78919061106e565b610b829190611085565b600854909150600160501b900460ff168110801590610bad5750600854600160481b900460ff168210155b15610be757600654600554600a805461ff00191692909111610100029190911790556008805460ff60401b1916600160411b179055610bf3565b600a805461ff00191690555b505050505050565b5f600a60049054906101000a90046001600160a01b03166001600160a01b031663a3dac6ae6040518163ffffffff1660e01b8152600401602060405180830381865afa158015610c4d573d5f5f3e3d5ffd5b505050506040513d601f19601f82011682018060405250810190610c719190610fe1565b15610c7e57506001919050565b600254604051632c3e6f0f60e11b81526001600160a01b038481166004830152909116905f90829063587cde1e90602401602060405180830381865afa158015610cca573d5f5f3e3d5ffd5b505050506040513d601f19601f82011682018060405250810190610cee91906110a4565b6001600160a01b031603610ddd576040516309ab24eb60e41b81526001600160a01b038481166004830152821690639ab24eb090602401602060405180830381865afa158015610d40573d5f5f3e3d5ffd5b505050506040513d601f19601f82011682018060405250810190610d649190611057565b6040516370a0823160e01b81526001600160a01b0385811660048301528316906370a0823190602401602060405180830381865afa158015610da8573d5f5f3e3d5ffd5b505050506040513d601f19601f82011682018060405250810190610dcc9190611057565b610dd6919061103e565b9392505050565b604051632c3e6f0f60e11b81526001600160a01b0380851660048301819052919083169063587cde1e90602401602060405180830381865afa158015610e25573d5f5f3e3d5ffd5b505050506040513d601f19601f82011682018060405250810190610e4991906110a4565b6001600160a01b031603610ebf576040516309ab24eb60e41b81526001600160a01b038481166004830152821690639ab24eb090602401602060405180830381865afa158015610e9b573d5f5f3e3d5ffd5b505050506040513d601f19601f82011682018060405250810190610dd69190611057565b505f92915050565b50919050565b6003805461039990610faf565b6001600160a01b03811681146106d3575f5ffd5b5f60208284031215610efe575f5ffd5b8135610dd681610eda565b5f81518084528060208401602086015e5f602082860101526020601f19601f83011685010191505092915050565b602081525f610dd66020830184610f09565b5f60208284031215610f59575f5ffd5b5035919050565b60018060a01b0384168152826020820152606060408201525f610f866060830184610f09565b95945050505050565b5f60208284031215610f9f575f5ffd5b813560ff81168114610dd6575f5ffd5b600181811c90821680610fc357607f821691505b602082108103610ec757634e487b7160e01b5f52602260045260245ffd5b5f60208284031215610ff1575f5ffd5b81518015158114610dd6575f5ffd5b634e487b7160e01b5f52603260045260245ffd5b5f82518060208501845e5f920191825250919050565b634e487b7160e01b5f52601160045260245ffd5b808201808211156110515761105161102a565b92915050565b5f60208284031215611067575f5ffd5b5051919050565b80820281158282048414176110515761105161102a565b5f8261109f57634e487b7160e01b5f52601260045260245ffd5b500490565b5f602082840312156110b4575f5ffd5b8151610dd681610eda56fea26469706673582212200ebb72dad37dbc06e74853df7b77c4309879e762a4f7c8ff1e8c193985a8054c64736f6c634300081d0033",
			"opcodes": "PUSH1 0x80 PUSH1 0x40 MSTORE CALLVALUE DUP1 ISZERO PUSH2 0xF JUMPI PUSH0 PUSH0 REVERT JUMPDEST POP PUSH1 0x40 MLOAD PUSH2 0x1E98 CODESIZE SUB DUP1 PUSH2 0x1E98 DUP4 CODECOPY DUP2 ADD PUSH1 0x40 DUP2 SWAP1 MSTORE PUSH2 0x2E SWAP2 PUSH2 0x9B7 JUMP JUMPDEST PUSH0 DUP1 SLOAD PUSH1 0x1 PUSH1 0x1 PUSH1 0xA0 SHL SUB NOT AND PUSH1 0x1 PUSH1 0x1 PUSH1 0xA0 SHL SUB DUP12 DUP2 AND SWAP2 DUP3 OR SWAP1 SWAP3 SSTORE PUSH1 0xA DUP1 SLOAD PUSH1 0x1 PUSH1 0x20 SHL PUSH1 0x1 PUSH1 0xC0 SHL SUB NOT AND PUSH5 0x100000000 SWAP3 DUP4 MUL OR SWAP1 DUP2 SWAP1 SSTORE PUSH1 0x40 DUP1 MLOAD PUSH4 0x7CB6D705 PUSH1 0xE1 SHL DUP2 MSTORE SWAP1 MLOAD SWAP3 SWAP1 SWAP2 DIV SWAP1 SWAP3 AND SWAP2 PUSH4 0xF96DAE0A SWAP2 PUSH1 0x4 DUP1 DUP4 ADD SWAP3 PUSH1 0x20 SWAP3 SWAP2 SWAP1 DUP3 SWAP1 SUB ADD DUP2 DUP7 GAS STATICCALL ISZERO DUP1 ISZERO PUSH2 0xAB JUMPI RETURNDATASIZE PUSH0 PUSH0 RETURNDATACOPY RETURNDATASIZE PUSH0 REVERT JUMPDEST POP POP POP POP PUSH1 0x40 MLOAD RETURNDATASIZE PUSH1 0x1F NOT PUSH1 0x1F DUP3 ADD AND DUP3 ADD DUP1 PUSH1 0x40 MSTORE POP DUP2 ADD SWAP1 PUSH2 0xCF SWAP2 SWAP1 PUSH2 0xAA1 JUMP JUMPDEST PUSH1 0x2 DUP1 SLOAD PUSH1 0x1 PUSH1 0x1 PUSH1 0xA0 SHL SUB NOT SWAP1 DUP2 AND PUSH1 0x1 PUSH1 0x1 PUSH1 0xA0 SHL SUB SWAP4 DUP5 AND OR SWAP1 SWAP2 SSTORE PUSH1 0x1 DUP1 SLOAD SWAP1 SWAP2 AND DUP11 DUP4 AND OR SWAP1 SSTORE PUSH1 0xC DUP9 SWAP1 SSTORE PUSH1 0xA SLOAD PUSH1 0x40 DUP1 MLOAD PUSH4 0x2CABD633 PUSH1 0xE1 SHL DUP2 MSTORE DUP2 MLOAD PUSH0 SWAP5 DUP6 SWAP5 PUSH5 0x100000000 SWAP1 DIV AND SWAP3 PUSH4 0x5957AC66 SWAP3 PUSH1 0x4 DUP1 DUP3 ADD SWAP4 SWAP2 DUP3 SWAP1 SUB ADD DUP2 DUP7 GAS STATICCALL ISZERO DUP1 ISZERO PUSH2 0x145 JUMPI RETURNDATASIZE PUSH0 PUSH0 RETURNDATACOPY RETURNDATASIZE PUSH0 REVERT JUMPDEST POP POP POP POP PUSH1 0x40 MLOAD RETURNDATASIZE PUSH1 0x1F NOT PUSH1 0x1F DUP3 ADD AND DUP3 ADD DUP1 PUSH1 0x40 MSTORE POP DUP2 ADD SWAP1 PUSH2 0x169 SWAP2 SWAP1 PUSH2 0xACB JUMP JUMPDEST PUSH1 0xA SLOAD PUSH1 0x40 MLOAD PUSH4 0xFE436C53 PUSH1 0xE0 SHL DUP2 MSTORE PUSH1 0x1 PUSH1 0x1 PUSH1 0xA0 SHL SUB DUP15 DUP2 AND PUSH1 0x4 DUP4 ADD MSTORE SWAP4 SWAP6 POP SWAP2 SWAP4 POP PUSH5 0x100000000 SWAP1 DIV SWAP1 SWAP2 AND SWAP1 PUSH4 0xFE436C53 SWAP1 PUSH1 0x24 ADD PUSH1 0x20 PUSH1 0x40 MLOAD DUP1 DUP4 SUB DUP2 DUP7 GAS STATICCALL ISZERO DUP1 ISZERO PUSH2 0x1BF JUMPI RETURNDATASIZE PUSH0 PUSH0 RETURNDATACOPY RETURNDATASIZE PUSH0 REVERT JUMPDEST POP POP POP POP PUSH1 0x40 MLOAD RETURNDATASIZE PUSH1 0x1F NOT PUSH1 0x1F DUP3 ADD AND DUP3 ADD DUP1 PUSH1 0x40 MSTORE POP DUP2 ADD SWAP1 PUSH2 0x1E3 SWAP2 SWAP1 PUSH2 0xAF5 JUMP JUMPDEST PUSH2 0x200 JUMPI PUSH1 0x40 MLOAD PUSH4 0xBE245983 PUSH1 0xE0 SHL DUP2 MSTORE PUSH1 0x4 ADD PUSH1 0x40 MLOAD DUP1 SWAP2 SUB SWAP1 REVERT JUMPDEST DUP2 ISZERO PUSH2 0x22F JUMPI PUSH2 0x20F DUP11 PUSH2 0x4B0 JUMP JUMPDEST DUP2 GT ISZERO PUSH2 0x22F JUMPI PUSH1 0x40 MLOAD PUSH4 0x1AA7CC5F PUSH1 0xE2 SHL DUP2 MSTORE PUSH1 0x4 ADD PUSH1 0x40 MLOAD DUP1 SWAP2 SUB SWAP1 REVERT JUMPDEST PUSH1 0x3 PUSH2 0x23B DUP10 DUP3 PUSH2 0xB8C JUMP JUMPDEST POP PUSH1 0x4 PUSH2 0x248 DUP9 DUP3 PUSH2 0xB8C JUMP JUMPDEST POP PUSH1 0x8 DUP1 SLOAD PUSH4 0xFFFFFFFF NOT AND PUSH4 0xFFFFFFFF DUP9 AND SWAP1 DUP2 OR SWAP1 SWAP2 SSTORE PUSH2 0x26C SWAP1 DUP7 SWAP1 PUSH2 0xC5A JUMP JUMPDEST PUSH1 0x8 DUP1 SLOAD PUSH4 0xFFFFFFFF PUSH1 0x20 SHL NOT AND PUSH5 0x100000000 PUSH4 0xFFFFFFFF SWAP4 SWAP1 SWAP4 AND DUP4 MUL OR SWAP1 SSTORE PUSH1 0xA SLOAD PUSH1 0x40 MLOAD PUSH4 0x6D3C8261 PUSH1 0xE1 SHL DUP2 MSTORE SWAP2 SWAP1 DIV PUSH1 0x1 PUSH1 0x1 PUSH1 0xA0 SHL SUB AND SWAP1 PUSH4 0xDA7904C2 SWAP1 PUSH2 0x2C5 SWAP1 ADDRESS SWAP1 DUP15 SWAP1 DUP14 SWAP1 DUP11 SWAP1 PUSH1 0x4 ADD PUSH2 0xC7C JUMP JUMPDEST PUSH0 PUSH1 0x40 MLOAD DUP1 DUP4 SUB DUP2 PUSH0 DUP8 DUP1 EXTCODESIZE ISZERO DUP1 ISZERO PUSH2 0x2DC JUMPI PUSH0 PUSH0 REVERT JUMPDEST POP GAS CALL ISZERO DUP1 ISZERO PUSH2 0x2EE JUMPI RETURNDATASIZE PUSH0 PUSH0 RETURNDATACOPY RETURNDATASIZE PUSH0 REVERT JUMPDEST POP POP POP POP PUSH0 PUSH0 PUSH0 PUSH0 PUSH0 PUSH1 0xA PUSH1 0x4 SWAP1 SLOAD SWAP1 PUSH2 0x100 EXP SWAP1 DIV PUSH1 0x1 PUSH1 0x1 PUSH1 0xA0 SHL SUB AND PUSH1 0x1 PUSH1 0x1 PUSH1 0xA0 SHL SUB AND PUSH4 0x62354E03 PUSH1 0x40 MLOAD DUP2 PUSH4 0xFFFFFFFF AND PUSH1 0xE0 SHL DUP2 MSTORE PUSH1 0x4 ADD PUSH1 0xA0 PUSH1 0x40 MLOAD DUP1 DUP4 SUB DUP2 DUP7 GAS STATICCALL ISZERO DUP1 ISZERO PUSH2 0x348 JUMPI RETURNDATASIZE PUSH0 PUSH0 RETURNDATACOPY RETURNDATASIZE PUSH0 REVERT JUMPDEST POP POP POP POP PUSH1 0x40 MLOAD RETURNDATASIZE PUSH1 0x1F NOT PUSH1 0x1F DUP3 ADD AND DUP3 ADD DUP1 PUSH1 0x40 MSTORE POP DUP2 ADD SWAP1 PUSH2 0x36C SWAP2 SWAP1 PUSH2 0xCD9 JUMP JUMPDEST PUSH1 0x8 DUP1 SLOAD PUSH4 0xFFFFFFFF DUP6 AND PUSH1 0x9 SSTORE PUSH1 0xA DUP1 SLOAD PUSH4 0xFFFF0000 NOT AND PUSH3 0x10000 DUP7 ISZERO ISZERO MUL PUSH4 0xFF000000 NOT AND OR PUSH4 0x1000000 DUP6 ISZERO ISZERO MUL OR SWAP1 SSTORE PUSH9 0x10000000000000000 PUSH2 0xFFFF PUSH1 0x48 SHL NOT SWAP1 SWAP2 AND PUSH10 0x1000000000000000000 PUSH1 0xFF DUP10 DUP2 AND SWAP2 SWAP1 SWAP2 MUL PUSH1 0xFF PUSH1 0x50 SHL NOT AND SWAP2 SWAP1 SWAP2 OR PUSH11 0x100000000000000000000 SWAP2 DUP9 AND SWAP2 SWAP1 SWAP2 MUL OR PUSH1 0xFF PUSH1 0x40 SHL NOT AND OR SWAP1 SSTORE SWAP4 SWAP9 POP SWAP2 SWAP7 POP SWAP5 POP SWAP3 POP SWAP1 POP PUSH0 JUMPDEST DUP9 MLOAD DUP2 PUSH1 0xFF AND LT ISZERO PUSH2 0x49A JUMPI PUSH1 0xB DUP10 DUP3 PUSH1 0xFF AND DUP2 MLOAD DUP2 LT PUSH2 0x423 JUMPI PUSH2 0x423 PUSH2 0xD3A JUMP JUMPDEST PUSH1 0x20 SWAP1 DUP2 MUL SWAP2 SWAP1 SWAP2 ADD DUP2 ADD MLOAD DUP3 SLOAD PUSH1 0x1 DUP1 DUP3 ADD DUP6 SSTORE PUSH0 SWAP5 DUP6 MSTORE SWAP4 DUP4 SWAP1 KECCAK256 DUP3 MLOAD PUSH1 0x3 SWAP1 SWAP3 MUL ADD DUP1 SLOAD PUSH1 0x1 PUSH1 0x1 PUSH1 0xA0 SHL SUB NOT AND PUSH1 0x1 PUSH1 0x1 PUSH1 0xA0 SHL SUB SWAP1 SWAP3 AND SWAP2 SWAP1 SWAP2 OR DUP2 SSTORE SWAP2 DUP2 ADD MLOAD SWAP3 DUP3 ADD SWAP3 SWAP1 SWAP3 SSTORE PUSH1 0x40 DUP3 ADD MLOAD PUSH1 0x2 DUP3 ADD SWAP1 PUSH2 0x484 SWAP1 DUP3 PUSH2 0xB8C JUMP JUMPDEST POP POP POP DUP1 DUP1 PUSH2 0x492 SWAP1 PUSH2 0xD4E JUMP JUMPDEST SWAP2 POP POP PUSH2 0x400 JUMP JUMPDEST POP POP POP POP POP POP POP POP POP POP POP POP POP POP POP POP POP PUSH2 0xD96 JUMP JUMPDEST PUSH0 PUSH1 0xA PUSH1 0x4 SWAP1 SLOAD SWAP1 PUSH2 0x100 EXP SWAP1 DIV PUSH1 0x1 PUSH1 0x1 PUSH1 0xA0 SHL SUB AND PUSH1 0x1 PUSH1 0x1 PUSH1 0xA0 SHL SUB AND PUSH4 0xA3DAC6AE PUSH1 0x40 MLOAD DUP2 PUSH4 0xFFFFFFFF AND PUSH1 0xE0 SHL DUP2 MSTORE PUSH1 0x4 ADD PUSH1 0x20 PUSH1 0x40 MLOAD DUP1 DUP4 SUB DUP2 DUP7 GAS STATICCALL ISZERO DUP1 ISZERO PUSH2 0x502 JUMPI RETURNDATASIZE PUSH0 PUSH0 RETURNDATACOPY RETURNDATASIZE PUSH0 REVERT JUMPDEST POP POP POP POP PUSH1 0x40 MLOAD RETURNDATASIZE PUSH1 0x1F NOT PUSH1 0x1F DUP3 ADD AND DUP3 ADD DUP1 PUSH1 0x40 MSTORE POP DUP2 ADD SWAP1 PUSH2 0x526 SWAP2 SWAP1 PUSH2 0xAF5 JUMP JUMPDEST ISZERO PUSH2 0x533 JUMPI POP PUSH1 0x1 SWAP2 SWAP1 POP JUMP JUMPDEST PUSH1 0x2 SLOAD PUSH1 0x40 MLOAD PUSH4 0x2C3E6F0F PUSH1 0xE1 SHL DUP2 MSTORE PUSH1 0x1 PUSH1 0x1 PUSH1 0xA0 SHL SUB DUP5 DUP2 AND PUSH1 0x4 DUP4 ADD MSTORE SWAP1 SWAP2 AND SWAP1 PUSH0 SWAP1 DUP3 SWAP1 PUSH4 0x587CDE1E SWAP1 PUSH1 0x24 ADD PUSH1 0x20 PUSH1 0x40 MLOAD DUP1 DUP4 SUB DUP2 DUP7 GAS STATICCALL ISZERO DUP1 ISZERO PUSH2 0x57F JUMPI RETURNDATASIZE PUSH0 PUSH0 RETURNDATACOPY RETURNDATASIZE PUSH0 REVERT JUMPDEST POP POP POP POP PUSH1 0x40 MLOAD RETURNDATASIZE PUSH1 0x1F NOT PUSH1 0x1F DUP3 ADD AND DUP3 ADD DUP1 PUSH1 0x40 MSTORE POP DUP2 ADD SWAP1 PUSH2 0x5A3 SWAP2 SWAP1 PUSH2 0xAA1 JUMP JUMPDEST PUSH1 0x1 PUSH1 0x1 PUSH1 0xA0 SHL SUB AND SUB PUSH2 0x692 JUMPI PUSH1 0x40 MLOAD PUSH4 0x9AB24EB PUSH1 0xE4 SHL DUP2 MSTORE PUSH1 0x1 PUSH1 0x1 PUSH1 0xA0 SHL SUB DUP5 DUP2 AND PUSH1 0x4 DUP4 ADD MSTORE DUP3 AND SWAP1 PUSH4 0x9AB24EB0 SWAP1 PUSH1 0x24 ADD PUSH1 0x20 PUSH1 0x40 MLOAD DUP1 DUP4 SUB DUP2 DUP7 GAS STATICCALL ISZERO DUP1 ISZERO PUSH2 0x5F5 JUMPI RETURNDATASIZE PUSH0 PUSH0 RETURNDATACOPY RETURNDATASIZE PUSH0 REVERT JUMPDEST POP POP POP POP PUSH1 0x40 MLOAD RETURNDATASIZE PUSH1 0x1F NOT PUSH1 0x1F DUP3 ADD AND DUP3 ADD DUP1 PUSH1 0x40 MSTORE POP DUP2 ADD SWAP1 PUSH2 0x619 SWAP2 SWAP1 PUSH2 0xD6C JUMP JUMPDEST PUSH1 0x40 MLOAD PUSH4 0x70A08231 PUSH1 0xE0 SHL DUP2 MSTORE PUSH1 0x1 PUSH1 0x1 PUSH1 0xA0 SHL SUB DUP6 DUP2 AND PUSH1 0x4 DUP4 ADD MSTORE DUP4 AND SWAP1 PUSH4 0x70A08231 SWAP1 PUSH1 0x24 ADD PUSH1 0x20 PUSH1 0x40 MLOAD DUP1 DUP4 SUB DUP2 DUP7 GAS STATICCALL ISZERO DUP1 ISZERO PUSH2 0x65D JUMPI RETURNDATASIZE PUSH0 PUSH0 RETURNDATACOPY RETURNDATASIZE PUSH0 REVERT JUMPDEST POP POP POP POP PUSH1 0x40 MLOAD RETURNDATASIZE PUSH1 0x1F NOT PUSH1 0x1F DUP3 ADD AND DUP3 ADD DUP1 PUSH1 0x40 MSTORE POP DUP2 ADD SWAP1 PUSH2 0x681 SWAP2 SWAP1 PUSH2 0xD6C JUMP JUMPDEST PUSH2 0x68B SWAP2 SWAP1 PUSH2 0xD83 JUMP JUMPDEST SWAP4 SWAP3 POP POP POP JUMP JUMPDEST PUSH1 0x40 MLOAD PUSH4 0x2C3E6F0F PUSH1 0xE1 SHL DUP2 MSTORE PUSH1 0x1 PUSH1 0x1 PUSH1 0xA0 SHL SUB DUP1 DUP6 AND PUSH1 0x4 DUP4 ADD DUP2 SWAP1 MSTORE SWAP2 SWAP1 DUP4 AND SWAP1 PUSH4 0x587CDE1E SWAP1 PUSH1 0x24 ADD PUSH1 0x20 PUSH1 0x40 MLOAD DUP1 DUP4 SUB DUP2 DUP7 GAS STATICCALL ISZERO DUP1 ISZERO PUSH2 0x6DA JUMPI RETURNDATASIZE PUSH0 PUSH0 RETURNDATACOPY RETURNDATASIZE PUSH0 REVERT JUMPDEST POP POP POP POP PUSH1 0x40 MLOAD RETURNDATASIZE PUSH1 0x1F NOT PUSH1 0x1F DUP3 ADD AND DUP3 ADD DUP1 PUSH1 0x40 MSTORE POP DUP2 ADD SWAP1 PUSH2 0x6FE SWAP2 SWAP1 PUSH2 0xAA1 JUMP JUMPDEST PUSH1 0x1 PUSH1 0x1 PUSH1 0xA0 SHL SUB AND SUB PUSH2 0x774 JUMPI PUSH1 0x40 MLOAD PUSH4 0x9AB24EB PUSH1 0xE4 SHL DUP2 MSTORE PUSH1 0x1 PUSH1 0x1 PUSH1 0xA0 SHL SUB DUP5 DUP2 AND PUSH1 0x4 DUP4 ADD MSTORE DUP3 AND SWAP1 PUSH4 0x9AB24EB0 SWAP1 PUSH1 0x24 ADD PUSH1 0x20 PUSH1 0x40 MLOAD DUP1 DUP4 SUB DUP2 DUP7 GAS STATICCALL ISZERO DUP1 ISZERO PUSH2 0x750 JUMPI RETURNDATASIZE PUSH0 PUSH0 RETURNDATACOPY RETURNDATASIZE PUSH0 REVERT JUMPDEST POP POP POP POP PUSH1 0x40 MLOAD RETURNDATASIZE PUSH1 0x1F NOT PUSH1 0x1F DUP3 ADD AND DUP3 ADD DUP1 PUSH1 0x40 MSTORE POP DUP2 ADD SWAP1 PUSH2 0x68B SWAP2 SWAP1 PUSH2 0xD6C JUMP JUMPDEST POP PUSH0 SWAP3 SWAP2 POP POP JUMP JUMPDEST POP JUMPDEST SWAP2 SWAP1 POP JUMP JUMPDEST PUSH1 0x1 PUSH1 0x1 PUSH1 0xA0 SHL SUB DUP2 AND DUP2 EQ PUSH2 0x797 JUMPI PUSH0 PUSH0 REVERT JUMPDEST POP JUMP JUMPDEST DUP1 MLOAD PUSH2 0x77E DUP2 PUSH2 0x783 JUMP JUMPDEST PUSH4 0x4E487B71 PUSH1 0xE0 SHL PUSH0 MSTORE PUSH1 0x41 PUSH1 0x4 MSTORE PUSH1 0x24 PUSH0 REVERT JUMPDEST PUSH1 0x40 MLOAD PUSH1 0x60 DUP2 ADD PUSH1 0x1 PUSH1 0x1 PUSH1 0x40 SHL SUB DUP2 GT DUP3 DUP3 LT OR ISZERO PUSH2 0x7DB JUMPI PUSH2 0x7DB PUSH2 0x7A5 JUMP JUMPDEST PUSH1 0x40 MSTORE SWAP1 JUMP JUMPDEST PUSH1 0x40 MLOAD PUSH1 0x1F DUP3 ADD PUSH1 0x1F NOT AND DUP2 ADD PUSH1 0x1 PUSH1 0x1 PUSH1 0x40 SHL SUB DUP2 GT DUP3 DUP3 LT OR ISZERO PUSH2 0x809 JUMPI PUSH2 0x809 PUSH2 0x7A5 JUMP JUMPDEST PUSH1 0x40 MSTORE SWAP2 SWAP1 POP JUMP JUMPDEST PUSH0 DUP1 PUSH1 0x1 PUSH1 0x1 PUSH1 0x40 SHL SUB DUP5 GT ISZERO PUSH2 0x82A JUMPI PUSH2 0x82A PUSH2 0x7A5 JUMP JUMPDEST POP PUSH1 0x1F DUP4 ADD PUSH1 0x1F NOT AND PUSH1 0x20 ADD PUSH2 0x83F DUP2 PUSH2 0x7E1 JUMP JUMPDEST SWAP2 POP POP DUP3 DUP2 MSTORE DUP4 DUP4 DUP4 ADD GT ISZERO PUSH2 0x853 JUMPI PUSH0 PUSH0 REVERT JUMPDEST DUP3 DUP3 PUSH1 0x20 DUP4 ADD MCOPY PUSH0 PUSH1 0x20 DUP5 DUP4 ADD ADD MSTORE SWAP4 SWAP3 POP POP POP JUMP JUMPDEST PUSH0 DUP3 PUSH1 0x1F DUP4 ADD SLT PUSH2 0x878 JUMPI PUSH0 PUSH0 REVERT JUMPDEST PUSH2 0x68B DUP4 DUP4 MLOAD PUSH1 0x20 DUP6 ADD PUSH2 0x811 JUMP JUMPDEST DUP1 MLOAD PUSH4 0xFFFFFFFF DUP2 AND DUP2 EQ PUSH2 0x77E JUMPI PUSH0 PUSH0 REVERT JUMPDEST DUP1 MLOAD PUSH1 0xFF DUP2 AND DUP2 EQ PUSH2 0x77E JUMPI PUSH0 PUSH0 REVERT JUMPDEST PUSH0 DUP3 PUSH1 0x1F DUP4 ADD SLT PUSH2 0x8B9 JUMPI PUSH0 PUSH0 REVERT JUMPDEST DUP2 MLOAD PUSH1 0x1 PUSH1 0x1 PUSH1 0x40 SHL SUB DUP2 GT ISZERO PUSH2 0x8D2 JUMPI PUSH2 0x8D2 PUSH2 0x7A5 JUMP JUMPDEST DUP1 PUSH1 0x5 SHL PUSH2 0x8E2 PUSH1 0x20 DUP3 ADD PUSH2 0x7E1 JUMP JUMPDEST SWAP2 DUP3 MSTORE PUSH1 0x20 DUP2 DUP6 ADD DUP2 ADD SWAP3 SWAP1 DUP2 ADD SWAP1 DUP7 DUP5 GT ISZERO PUSH2 0x8FD JUMPI PUSH0 PUSH0 REVERT JUMPDEST PUSH1 0x20 DUP7 ADD SWAP3 POP JUMPDEST DUP4 DUP4 LT ISZERO PUSH2 0x9AD JUMPI DUP3 MLOAD PUSH1 0x1 PUSH1 0x1 PUSH1 0x40 SHL SUB DUP2 GT ISZERO PUSH2 0x921 JUMPI PUSH0 PUSH0 REVERT JUMPDEST DUP7 ADD PUSH1 0x60 DUP2 DUP10 SUB PUSH1 0x1F NOT ADD SLT ISZERO PUSH2 0x936 JUMPI PUSH0 PUSH0 REVERT JUMPDEST PUSH2 0x93E PUSH2 0x7B9 JUMP JUMPDEST PUSH1 0x20 DUP3 ADD MLOAD PUSH2 0x94C DUP2 PUSH2 0x783 JUMP JUMPDEST DUP2 MSTORE PUSH1 0x40 DUP3 ADD MLOAD PUSH1 0x20 DUP3 ADD MSTORE PUSH1 0x60 DUP3 ADD MLOAD PUSH1 0x1 PUSH1 0x1 PUSH1 0x40 SHL SUB DUP2 GT ISZERO PUSH2 0x970 JUMPI PUSH0 PUSH0 REVERT JUMPDEST PUSH1 0x20 DUP2 DUP5 ADD ADD SWAP3 POP POP DUP9 PUSH1 0x1F DUP4 ADD SLT PUSH2 0x987 JUMPI PUSH0 PUSH0 REVERT JUMPDEST PUSH2 0x996 DUP10 DUP4 MLOAD PUSH1 0x20 DUP6 ADD PUSH2 0x811 JUMP JUMPDEST PUSH1 0x40 DUP3 ADD MSTORE DUP4 MSTORE POP PUSH1 0x20 SWAP3 DUP4 ADD SWAP3 SWAP1 SWAP2 ADD SWAP1 PUSH2 0x904 JUMP JUMPDEST SWAP7 SWAP6 POP POP POP POP POP POP JUMP JUMPDEST PUSH0 PUSH0 PUSH0 PUSH0 PUSH0 PUSH0 PUSH0 PUSH0 PUSH0 PUSH2 0x120 DUP11 DUP13 SUB SLT ISZERO PUSH2 0x9D0 JUMPI PUSH0 PUSH0 REVERT JUMPDEST PUSH2 0x9D9 DUP11 PUSH2 0x79A JUMP JUMPDEST SWAP9 POP PUSH2 0x9E7 PUSH1 0x20 DUP12 ADD PUSH2 0x79A JUMP JUMPDEST PUSH1 0x40 DUP12 ADD MLOAD PUSH1 0x60 DUP13 ADD MLOAD SWAP2 SWAP10 POP SWAP8 POP PUSH1 0x1 PUSH1 0x1 PUSH1 0x40 SHL SUB DUP2 GT ISZERO PUSH2 0xA09 JUMPI PUSH0 PUSH0 REVERT JUMPDEST PUSH2 0xA15 DUP13 DUP3 DUP14 ADD PUSH2 0x869 JUMP JUMPDEST PUSH1 0x80 DUP13 ADD MLOAD SWAP1 SWAP8 POP SWAP1 POP PUSH1 0x1 PUSH1 0x1 PUSH1 0x40 SHL SUB DUP2 GT ISZERO PUSH2 0xA32 JUMPI PUSH0 PUSH0 REVERT JUMPDEST PUSH2 0xA3E DUP13 DUP3 DUP14 ADD PUSH2 0x869 JUMP JUMPDEST SWAP6 POP POP PUSH2 0xA4D PUSH1 0xA0 DUP12 ADD PUSH2 0x887 JUMP JUMPDEST SWAP4 POP PUSH2 0xA5B PUSH1 0xC0 DUP12 ADD PUSH2 0x887 JUMP JUMPDEST SWAP3 POP PUSH2 0xA69 PUSH1 0xE0 DUP12 ADD PUSH2 0x89A JUMP JUMPDEST PUSH2 0x100 DUP12 ADD MLOAD SWAP1 SWAP3 POP PUSH1 0x1 PUSH1 0x1 PUSH1 0x40 SHL SUB DUP2 GT ISZERO PUSH2 0xA85 JUMPI PUSH0 PUSH0 REVERT JUMPDEST PUSH2 0xA91 DUP13 DUP3 DUP14 ADD PUSH2 0x8AA JUMP JUMPDEST SWAP2 POP POP SWAP3 SWAP6 SWAP9 POP SWAP3 SWAP6 SWAP9 POP SWAP3 SWAP6 SWAP9 JUMP JUMPDEST PUSH0 PUSH1 0x20 DUP3 DUP5 SUB SLT ISZERO PUSH2 0xAB1 JUMPI PUSH0 PUSH0 REVERT JUMPDEST DUP2 MLOAD PUSH2 0x68B DUP2 PUSH2 0x783 JUMP JUMPDEST DUP1 MLOAD DUP1 ISZERO ISZERO DUP2 EQ PUSH2 0x77E JUMPI PUSH0 PUSH0 REVERT JUMPDEST PUSH0 PUSH0 PUSH1 0x40 DUP4 DUP6 SUB SLT ISZERO PUSH2 0xADC JUMPI PUSH0 PUSH0 REVERT JUMPDEST PUSH2 0xAE5 DUP4 PUSH2 0xABC JUMP JUMPDEST PUSH1 0x20 SWAP4 SWAP1 SWAP4 ADD MLOAD SWAP3 SWAP5 SWAP3 SWAP4 POP POP POP JUMP JUMPDEST PUSH0 PUSH1 0x20 DUP3 DUP5 SUB SLT ISZERO PUSH2 0xB05 JUMPI PUSH0 PUSH0 REVERT JUMPDEST PUSH2 0x68B DUP3 PUSH2 0xABC JUMP JUMPDEST PUSH1 0x1 DUP2 DUP2 SHR SWAP1 DUP3 AND DUP1 PUSH2 0xB22 JUMPI PUSH1 0x7F DUP3 AND SWAP2 POP JUMPDEST PUSH1 0x20 DUP3 LT DUP2 SUB PUSH2 0x77C JUMPI PUSH4 0x4E487B71 PUSH1 0xE0 SHL PUSH0 MSTORE PUSH1 0x22 PUSH1 0x4 MSTORE PUSH1 0x24 PUSH0 REVERT JUMPDEST PUSH1 0x1F DUP3 GT ISZERO PUSH2 0xB87 JUMPI DUP1 PUSH0 MSTORE PUSH1 0x20 PUSH0 KECCAK256 PUSH1 0x1F DUP5 ADD PUSH1 0x5 SHR DUP2 ADD PUSH1 0x20 DUP6 LT ISZERO PUSH2 0xB65 JUMPI POP DUP1 JUMPDEST PUSH1 0x1F DUP5 ADD PUSH1 0x5 SHR DUP3 ADD SWAP2 POP JUMPDEST DUP2 DUP2 LT ISZERO PUSH2 0xB84 JUMPI PUSH0 DUP2 SSTORE PUSH1 0x1 ADD PUSH2 0xB71 JUMP JUMPDEST POP POP JUMPDEST POP POP POP JUMP JUMPDEST DUP2 MLOAD PUSH1 0x1 PUSH1 0x1 PUSH1 0x40 SHL SUB DUP2 GT ISZERO PUSH2 0xBA5 JUMPI PUSH2 0xBA5 PUSH2 0x7A5 JUMP JUMPDEST PUSH2 0xBB9 DUP2 PUSH2 0xBB3 DUP5 SLOAD PUSH2 0xB0E JUMP JUMPDEST DUP5 PUSH2 0xB40 JUMP JUMPDEST PUSH1 0x20 PUSH1 0x1F DUP3 GT PUSH1 0x1 DUP2 EQ PUSH2 0xBEB JUMPI PUSH0 DUP4 ISZERO PUSH2 0xBD4 JUMPI POP DUP5 DUP3 ADD MLOAD JUMPDEST PUSH0 NOT PUSH1 0x3 DUP6 SWAP1 SHL SHR NOT AND PUSH1 0x1 DUP5 SWAP1 SHL OR DUP5 SSTORE PUSH2 0xB84 JUMP JUMPDEST PUSH0 DUP5 DUP2 MSTORE PUSH1 0x20 DUP2 KECCAK256 PUSH1 0x1F NOT DUP6 AND SWAP2 JUMPDEST DUP3 DUP2 LT ISZERO PUSH2 0xC1A JUMPI DUP8 DUP6 ADD MLOAD DUP3 SSTORE PUSH1 0x20 SWAP5 DUP6 ADD SWAP5 PUSH1 0x1 SWAP1 SWAP3 ADD SWAP2 ADD PUSH2 0xBFA JUMP JUMPDEST POP DUP5 DUP3 LT ISZERO PUSH2 0xC37 JUMPI DUP7 DUP5 ADD MLOAD PUSH0 NOT PUSH1 0x3 DUP8 SWAP1 SHL PUSH1 0xF8 AND SHR NOT AND DUP2 SSTORE JUMPDEST POP POP POP POP PUSH1 0x1 SWAP1 DUP2 SHL ADD SWAP1 SSTORE POP JUMP JUMPDEST PUSH4 0x4E487B71 PUSH1 0xE0 SHL PUSH0 MSTORE PUSH1 0x11 PUSH1 0x4 MSTORE PUSH1 0x24 PUSH0 REVERT JUMPDEST PUSH4 0xFFFFFFFF DUP2 DUP2 AND DUP4 DUP3 AND ADD SWAP1 DUP2 GT ISZERO PUSH2 0xC76 JUMPI PUSH2 0xC76 PUSH2 0xC46 JUMP JUMPDEST SWAP3 SWAP2 POP POP JUMP JUMPDEST PUSH1 0x1 DUP1 PUSH1 0xA0 SHL SUB DUP6 AND DUP2 MSTORE PUSH1 0x1 DUP1 PUSH1 0xA0 SHL SUB DUP5 AND PUSH1 0x20 DUP3 ADD MSTORE PUSH1 0x80 PUSH1 0x40 DUP3 ADD MSTORE PUSH0 DUP4 MLOAD DUP1 PUSH1 0x80 DUP5 ADD MSTORE DUP1 PUSH1 0x20 DUP7 ADD PUSH1 0xA0 DUP6 ADD MCOPY PUSH0 PUSH1 0xA0 DUP3 DUP6 ADD ADD MSTORE PUSH1 0xA0 PUSH1 0x1F NOT PUSH1 0x1F DUP4 ADD AND DUP5 ADD ADD SWAP2 POP POP PUSH1 0xFF DUP4 AND PUSH1 0x60 DUP4 ADD MSTORE SWAP6 SWAP5 POP POP POP POP POP JUMP JUMPDEST PUSH0 PUSH0 PUSH0 PUSH0 PUSH0 PUSH1 0xA0 DUP7 DUP9 SUB SLT ISZERO PUSH2 0xCED JUMPI PUSH0 PUSH0 REVERT JUMPDEST PUSH2 0xCF6 DUP7 PUSH2 0x89A JUMP JUMPDEST SWAP5 POP PUSH2 0xD04 PUSH1 0x20 DUP8 ADD PUSH2 0x89A JUMP JUMPDEST SWAP4 POP PUSH2 0xD12 PUSH1 0x40 DUP8 ADD PUSH2 0x887 JUMP JUMPDEST SWAP3 POP PUSH2 0xD20 PUSH1 0x60 DUP8 ADD PUSH2 0xABC JUMP JUMPDEST SWAP2 POP PUSH2 0xD2E PUSH1 0x80 DUP8 ADD PUSH2 0xABC JUMP JUMPDEST SWAP1 POP SWAP3 SWAP6 POP SWAP3 SWAP6 SWAP1 SWAP4 POP JUMP JUMPDEST PUSH4 0x4E487B71 PUSH1 0xE0 SHL PUSH0 MSTORE PUSH1 0x32 PUSH1 0x4 MSTORE PUSH1 0x24 PUSH0 REVERT JUMPDEST PUSH0 PUSH1 0xFF DUP3 AND PUSH1 0xFF DUP2 SUB PUSH2 0xD63 JUMPI PUSH2 0xD63 PUSH2 0xC46 JUMP JUMPDEST PUSH1 0x1 ADD SWAP3 SWAP2 POP POP JUMP JUMPDEST PUSH0 PUSH1 0x20 DUP3 DUP5 SUB SLT ISZERO PUSH2 0xD7C JUMPI PUSH0 PUSH0 REVERT JUMPDEST POP MLOAD SWAP2 SWAP1 POP JUMP JUMPDEST DUP1 DUP3 ADD DUP1 DUP3 GT ISZERO PUSH2 0xC76 JUMPI PUSH2 0xC76 PUSH2 0xC46 JUMP JUMPDEST PUSH2 0x10F5 DUP1 PUSH2 0xDA3 PUSH0 CODECOPY PUSH0 RETURN INVALID PUSH1 0x80 PUSH1 0x40 MSTORE CALLVALUE DUP1 ISZERO PUSH2 0xF JUMPI PUSH0 PUSH0 REVERT JUMPDEST POP PUSH1 0x4 CALLDATASIZE LT PUSH2 0x16D JUMPI PUSH0 CALLDATALOAD PUSH1 0xE0 SHR DUP1 PUSH4 0x4162169F GT PUSH2 0xD9 JUMPI DUP1 PUSH4 0xB3F98ADC GT PUSH2 0x93 JUMPI DUP1 PUSH4 0xE1F8C037 GT PUSH2 0x6E JUMPI DUP1 PUSH4 0xE1F8C037 EQ PUSH2 0x354 JUMPI DUP1 PUSH4 0xE5045752 EQ PUSH2 0x367 JUMPI DUP1 PUSH4 0xE987194F EQ PUSH2 0x36F JUMPI DUP1 PUSH4 0xFB286C65 EQ PUSH2 0x383 JUMPI PUSH0 PUSH0 REVERT JUMPDEST DUP1 PUSH4 0xB3F98ADC EQ PUSH2 0x325 JUMPI DUP1 PUSH4 0xB42165D0 EQ PUSH2 0x338 JUMPI DUP1 PUSH4 0xB5B47F42 EQ PUSH2 0x34B JUMPI PUSH0 PUSH0 REVERT JUMPDEST DUP1 PUSH4 0x4162169F EQ PUSH2 0x2A9 JUMPI DUP1 PUSH4 0x537AECA1 EQ PUSH2 0x2C3 JUMPI DUP1 PUSH4 0x60F8ABB9 EQ PUSH2 0x2CC JUMPI DUP1 PUSH4 0x78E97925 EQ PUSH2 0x2E0 JUMPI DUP1 PUSH4 0x7E7B1D42 EQ PUSH2 0x2F0 JUMPI DUP1 PUSH4 0x83240F83 EQ PUSH2 0x303 JUMPI PUSH0 PUSH0 REVERT JUMPDEST DUP1 PUSH4 0x200D2ED2 GT PUSH2 0x12A JUMPI DUP1 PUSH4 0x200D2ED2 EQ PUSH2 0x219 JUMPI DUP1 PUSH4 0x2131C68C EQ PUSH2 0x23F JUMPI DUP1 PUSH4 0x3197CBB6 EQ PUSH2 0x251 JUMPI DUP1 PUSH4 0x31A38C89 EQ PUSH2 0x27D JUMPI DUP1 PUSH4 0x34305545 EQ PUSH2 0x28A JUMPI DUP1 PUSH4 0x373058B8 EQ PUSH2 0x29F JUMPI PUSH0 PUSH0 REVERT JUMPDEST DUP1 PUSH4 0x3FF90F6 EQ PUSH2 0x171 JUMPI DUP1 PUSH4 0x5074F11 EQ PUSH2 0x18D JUMPI DUP1 PUSH4 0x9EEF43E EQ PUSH2 0x1B1 JUMPI DUP1 PUSH4 0xBE48894 EQ PUSH2 0x1D3 JUMPI DUP1 PUSH4 0xEBBC1B8 EQ PUSH2 0x1DC JUMPI DUP1 PUSH4 0x19D40B08 EQ PUSH2 0x207 JUMPI JUMPDEST PUSH0 PUSH0 REVERT JUMPDEST PUSH2 0x17A PUSH1 0xC SLOAD DUP2 JUMP JUMPDEST PUSH1 0x40 MLOAD SWAP1 DUP2 MSTORE PUSH1 0x20 ADD JUMPDEST PUSH1 0x40 MLOAD DUP1 SWAP2 SUB SWAP1 RETURN JUMPDEST PUSH1 0xA SLOAD PUSH2 0x1A1 SWAP1 PUSH4 0x1000000 SWAP1 DIV PUSH1 0xFF AND DUP2 JUMP JUMPDEST PUSH1 0x40 MLOAD SWAP1 ISZERO ISZERO DUP2 MSTORE PUSH1 0x20 ADD PUSH2 0x184 JUMP JUMPDEST PUSH2 0x1A1 PUSH2 0x1BF CALLDATASIZE PUSH1 0x4 PUSH2 0xEEE JUMP JUMPDEST PUSH1 0xD PUSH1 0x20 MSTORE PUSH0 SWAP1 DUP2 MSTORE PUSH1 0x40 SWAP1 KECCAK256 SLOAD PUSH1 0xFF AND DUP2 JUMP JUMPDEST PUSH2 0x17A PUSH1 0x7 SLOAD DUP2 JUMP JUMPDEST PUSH1 0x1 SLOAD PUSH2 0x1EF SWAP1 PUSH1 0x1 PUSH1 0x1 PUSH1 0xA0 SHL SUB AND DUP2 JUMP JUMPDEST PUSH1 0x40 MLOAD PUSH1 0x1 PUSH1 0x1 PUSH1 0xA0 SHL SUB SWAP1 SWAP2 AND DUP2 MSTORE PUSH1 0x20 ADD PUSH2 0x184 JUMP JUMPDEST PUSH1 0xA SLOAD PUSH2 0x1A1 SWAP1 PUSH2 0x100 SWAP1 DIV PUSH1 0xFF AND DUP2 JUMP JUMPDEST PUSH1 0x8 SLOAD PUSH2 0x22D SWAP1 PUSH1 0x1 PUSH1 0x40 SHL SWAP1 DIV PUSH1 0xFF AND DUP2 JUMP JUMPDEST PUSH1 0x40 MLOAD PUSH1 0xFF SWAP1 SWAP2 AND DUP2 MSTORE PUSH1 0x20 ADD PUSH2 0x184 JUMP JUMPDEST PUSH0 SLOAD PUSH2 0x1EF SWAP1 PUSH1 0x1 PUSH1 0x1 PUSH1 0xA0 SHL SUB AND DUP2 JUMP JUMPDEST PUSH1 0x8 SLOAD PUSH2 0x268 SWAP1 PUSH1 0x1 PUSH1 0x20 SHL SWAP1 DIV PUSH4 0xFFFFFFFF AND DUP2 JUMP JUMPDEST PUSH1 0x40 MLOAD PUSH4 0xFFFFFFFF SWAP1 SWAP2 AND DUP2 MSTORE PUSH1 0x20 ADD PUSH2 0x184 JUMP JUMPDEST PUSH1 0xA SLOAD PUSH2 0x1A1 SWAP1 PUSH1 0xFF AND DUP2 JUMP JUMPDEST PUSH2 0x292 PUSH2 0x38C JUMP JUMPDEST PUSH1 0x40 MLOAD PUSH2 0x184 SWAP2 SWAP1 PUSH2 0xF37 JUMP JUMPDEST PUSH2 0x2A7 PUSH2 0x418 JUMP JUMPDEST STOP JUMPDEST PUSH1 0xA SLOAD PUSH2 0x1EF SWAP1 PUSH1 0x1 PUSH1 0x20 SHL SWAP1 DIV PUSH1 0x1 PUSH1 0x1 PUSH1 0xA0 SHL SUB AND DUP2 JUMP JUMPDEST PUSH2 0x17A PUSH1 0x9 SLOAD DUP2 JUMP JUMPDEST PUSH1 0x8 SLOAD PUSH2 0x22D SWAP1 PUSH1 0x1 PUSH1 0x48 SHL SWAP1 DIV PUSH1 0xFF AND DUP2 JUMP JUMPDEST PUSH1 0x8 SLOAD PUSH2 0x268 SWAP1 PUSH4 0xFFFFFFFF AND DUP2 JUMP JUMPDEST PUSH1 0xA SLOAD PUSH2 0x1A1 SWAP1 PUSH3 0x10000 SWAP1 DIV PUSH1 0xFF AND DUP2 JUMP JUMPDEST PUSH2 0x316 PUSH2 0x311 CALLDATASIZE PUSH1 0x4 PUSH2 0xF49 JUMP JUMPDEST PUSH2 0x6D7 JUMP JUMPDEST PUSH1 0x40 MLOAD PUSH2 0x184 SWAP4 SWAP3 SWAP2 SWAP1 PUSH2 0xF60 JUMP JUMPDEST PUSH2 0x2A7 PUSH2 0x333 CALLDATASIZE PUSH1 0x4 PUSH2 0xF8F JUMP JUMPDEST PUSH2 0x79C JUMP JUMPDEST PUSH1 0x2 SLOAD PUSH2 0x1EF SWAP1 PUSH1 0x1 PUSH1 0x1 PUSH1 0xA0 SHL SUB AND DUP2 JUMP JUMPDEST PUSH2 0x17A PUSH1 0x6 SLOAD DUP2 JUMP JUMPDEST PUSH2 0x17A PUSH2 0x362 CALLDATASIZE PUSH1 0x4 PUSH2 0xEEE JUMP JUMPDEST PUSH2 0xBFB JUMP JUMPDEST PUSH2 0x292 PUSH2 0xECD JUMP JUMPDEST PUSH1 0x8 SLOAD PUSH2 0x22D SWAP1 PUSH1 0x1 PUSH1 0x50 SHL SWAP1 DIV PUSH1 0xFF AND DUP2 JUMP JUMPDEST PUSH2 0x17A PUSH1 0x5 SLOAD DUP2 JUMP JUMPDEST PUSH1 0x4 DUP1 SLOAD PUSH2 0x399 SWAP1 PUSH2 0xFAF JUMP JUMPDEST DUP1 PUSH1 0x1F ADD PUSH1 0x20 DUP1 SWAP2 DIV MUL PUSH1 0x20 ADD PUSH1 0x40 MLOAD SWAP1 DUP2 ADD PUSH1 0x40 MSTORE DUP1 SWAP3 SWAP2 SWAP1 DUP2 DUP2 MSTORE PUSH1 0x20 ADD DUP3 DUP1 SLOAD PUSH2 0x3C5 SWAP1 PUSH2 0xFAF JUMP JUMPDEST DUP1 ISZERO PUSH2 0x410 JUMPI DUP1 PUSH1 0x1F LT PUSH2 0x3E7 JUMPI PUSH2 0x100 DUP1 DUP4 SLOAD DIV MUL DUP4 MSTORE SWAP2 PUSH1 0x20 ADD SWAP2 PUSH2 0x410 JUMP JUMPDEST DUP3 ADD SWAP2 SWAP1 PUSH0 MSTORE PUSH1 0x20 PUSH0 KECCAK256 SWAP1 JUMPDEST DUP2 SLOAD DUP2 MSTORE SWAP1 PUSH1 0x1 ADD SWAP1 PUSH1 0x20 ADD DUP1 DUP4 GT PUSH2 0x3F3 JUMPI DUP3 SWAP1 SUB PUSH1 0x1F AND DUP3 ADD SWAP2 JUMPDEST POP POP POP POP POP DUP2 JUMP JUMPDEST PUSH1 0xA SLOAD PUSH1 0x40 MLOAD PUSH4 0xFE436C53 PUSH1 0xE0 SHL DUP2 MSTORE CALLER PUSH1 0x4 DUP3 ADD MSTORE PUSH1 0x1 PUSH1 0x20 SHL SWAP1 SWAP2 DIV PUSH1 0x1 PUSH1 0x1 PUSH1 0xA0 SHL SUB AND SWAP1 PUSH4 0xFE436C53 SWAP1 PUSH1 0x24 ADD PUSH1 0x20 PUSH1 0x40 MLOAD DUP1 DUP4 SUB DUP2 DUP7 GAS STATICCALL ISZERO DUP1 ISZERO PUSH2 0x464 JUMPI RETURNDATASIZE PUSH0 PUSH0 RETURNDATACOPY RETURNDATASIZE PUSH0 REVERT JUMPDEST POP POP POP POP PUSH1 0x40 MLOAD RETURNDATASIZE PUSH1 0x1F NOT PUSH1 0x1F DUP3 ADD AND DUP3 ADD DUP1 PUSH1 0x40 MSTORE POP DUP2 ADD SWAP1 PUSH2 0x488 SWAP2 SWAP1 PUSH2 0xFE1 JUMP JUMPDEST PUSH2 0x4A5 JUMPI PUSH1 0x40 MLOAD PUSH4 0xBE245983 PUSH1 0xE0 SHL DUP2 MSTORE PUSH1 0x4 ADD PUSH1 0x40 MLOAD DUP1 SWAP2 SUB SWAP1 REVERT JUMPDEST PUSH1 0xA SLOAD PUSH1 0xFF AND ISZERO PUSH2 0x4C9 JUMPI PUSH1 0x40 MLOAD PUSH4 0x51618D53 PUSH1 0xE0 SHL DUP2 MSTORE PUSH1 0x4 ADD PUSH1 0x40 MLOAD DUP1 SWAP2 SUB SWAP1 REVERT JUMPDEST PUSH1 0xA SLOAD PUSH2 0x100 SWAP1 DIV PUSH1 0xFF AND PUSH2 0x4F1 JUMPI PUSH1 0x40 MLOAD PUSH4 0xCC6633C5 PUSH1 0xE0 SHL DUP2 MSTORE PUSH1 0x4 ADD PUSH1 0x40 MLOAD DUP1 SWAP2 SUB SWAP1 REVERT JUMPDEST PUSH1 0xA SLOAD PUSH3 0x10000 SWAP1 DIV PUSH1 0xFF AND DUP1 PUSH2 0x517 JUMPI POP PUSH1 0x8 SLOAD PUSH1 0x1 PUSH1 0x20 SHL SWAP1 DIV PUSH4 0xFFFFFFFF AND TIMESTAMP LT ISZERO JUMPDEST ISZERO PUSH2 0x6D5 JUMPI PUSH1 0xA DUP1 SLOAD PUSH1 0xFF NOT AND PUSH1 0x1 OR SWAP1 SSTORE PUSH1 0x8 DUP1 SLOAD PUSH9 0x30000000000000000 PUSH1 0xFF PUSH1 0x40 SHL NOT SWAP1 SWAP2 AND OR SWAP1 SSTORE PUSH0 JUMPDEST PUSH1 0xB SLOAD DUP2 LT ISZERO PUSH2 0x6D3 JUMPI PUSH0 PUSH1 0xB DUP3 DUP2 SLOAD DUP2 LT PUSH2 0x563 JUMPI PUSH2 0x563 PUSH2 0x1000 JUMP JUMPDEST SWAP1 PUSH0 MSTORE PUSH1 0x20 PUSH0 KECCAK256 SWAP1 PUSH1 0x3 MUL ADD PUSH1 0x40 MLOAD DUP1 PUSH1 0x60 ADD PUSH1 0x40 MSTORE SWAP1 DUP2 PUSH0 DUP3 ADD PUSH0 SWAP1 SLOAD SWAP1 PUSH2 0x100 EXP SWAP1 DIV PUSH1 0x1 PUSH1 0x1 PUSH1 0xA0 SHL SUB AND PUSH1 0x1 PUSH1 0x1 PUSH1 0xA0 SHL SUB AND PUSH1 0x1 PUSH1 0x1 PUSH1 0xA0 SHL SUB AND DUP2 MSTORE PUSH1 0x20 ADD PUSH1 0x1 DUP3 ADD SLOAD DUP2 MSTORE PUSH1 0x20 ADD PUSH1 0x2 DUP3 ADD DUP1 SLOAD PUSH2 0x5C1 SWAP1 PUSH2 0xFAF JUMP JUMPDEST DUP1 PUSH1 0x1F ADD PUSH1 0x20 DUP1 SWAP2 DIV MUL PUSH1 0x20 ADD PUSH1 0x40 MLOAD SWAP1 DUP2 ADD PUSH1 0x40 MSTORE DUP1 SWAP3 SWAP2 SWAP1 DUP2 DUP2 MSTORE PUSH1 0x20 ADD DUP3 DUP1 SLOAD PUSH2 0x5ED SWAP1 PUSH2 0xFAF JUMP JUMPDEST DUP1 ISZERO PUSH2 0x638 JUMPI DUP1 PUSH1 0x1F LT PUSH2 0x60F JUMPI PUSH2 0x100 DUP1 DUP4 SLOAD DIV MUL DUP4 MSTORE SWAP2 PUSH1 0x20 ADD SWAP2 PUSH2 0x638 JUMP JUMPDEST DUP3 ADD SWAP2 SWAP1 PUSH0 MSTORE PUSH1 0x20 PUSH0 KECCAK256 SWAP1 JUMPDEST DUP2 SLOAD DUP2 MSTORE SWAP1 PUSH1 0x1 ADD SWAP1 PUSH1 0x20 ADD DUP1 DUP4 GT PUSH2 0x61B JUMPI DUP3 SWAP1 SUB PUSH1 0x1F AND DUP3 ADD SWAP2 JUMPDEST POP POP POP POP POP DUP2 MSTORE POP POP SWAP1 POP PUSH0 DUP2 PUSH0 ADD MLOAD PUSH1 0x1 PUSH1 0x1 PUSH1 0xA0 SHL SUB AND DUP3 PUSH1 0x20 ADD MLOAD DUP4 PUSH1 0x40 ADD MLOAD PUSH1 0x40 MLOAD PUSH2 0x668 SWAP2 SWAP1 PUSH2 0x1014 JUMP JUMPDEST PUSH0 PUSH1 0x40 MLOAD DUP1 DUP4 SUB DUP2 DUP6 DUP8 GAS CALL SWAP3 POP POP POP RETURNDATASIZE DUP1 PUSH0 DUP2 EQ PUSH2 0x6A2 JUMPI PUSH1 0x40 MLOAD SWAP2 POP PUSH1 0x1F NOT PUSH1 0x3F RETURNDATASIZE ADD AND DUP3 ADD PUSH1 0x40 MSTORE RETURNDATASIZE DUP3 MSTORE RETURNDATASIZE PUSH0 PUSH1 0x20 DUP5 ADD RETURNDATACOPY PUSH2 0x6A7 JUMP JUMPDEST PUSH1 0x60 SWAP2 POP JUMPDEST POP POP SWAP1 POP DUP1 PUSH2 0x6C9 JUMPI PUSH1 0x40 MLOAD PUSH4 0x4760C39 PUSH1 0xE5 SHL DUP2 MSTORE PUSH1 0x4 ADD PUSH1 0x40 MLOAD DUP1 SWAP2 SUB SWAP1 REVERT JUMPDEST POP POP PUSH1 0x1 ADD PUSH2 0x545 JUMP JUMPDEST POP JUMPDEST JUMP JUMPDEST PUSH1 0xB DUP2 DUP2 SLOAD DUP2 LT PUSH2 0x6E6 JUMPI PUSH0 DUP1 REVERT JUMPDEST PUSH0 SWAP2 DUP3 MSTORE PUSH1 0x20 SWAP1 SWAP2 KECCAK256 PUSH1 0x3 SWAP1 SWAP2 MUL ADD DUP1 SLOAD PUSH1 0x1 DUP3 ADD SLOAD PUSH1 0x2 DUP4 ADD DUP1 SLOAD PUSH1 0x1 PUSH1 0x1 PUSH1 0xA0 SHL SUB SWAP1 SWAP4 AND SWAP5 POP SWAP1 SWAP3 SWAP2 PUSH2 0x71B SWAP1 PUSH2 0xFAF JUMP JUMPDEST DUP1 PUSH1 0x1F ADD PUSH1 0x20 DUP1 SWAP2 DIV MUL PUSH1 0x20 ADD PUSH1 0x40 MLOAD SWAP1 DUP2 ADD PUSH1 0x40 MSTORE DUP1 SWAP3 SWAP2 SWAP1 DUP2 DUP2 MSTORE PUSH1 0x20 ADD DUP3 DUP1 SLOAD PUSH2 0x747 SWAP1 PUSH2 0xFAF JUMP JUMPDEST DUP1 ISZERO PUSH2 0x792 JUMPI DUP1 PUSH1 0x1F LT PUSH2 0x769 JUMPI PUSH2 0x100 DUP1 DUP4 SLOAD DIV MUL DUP4 MSTORE SWAP2 PUSH1 0x20 ADD SWAP2 PUSH2 0x792 JUMP JUMPDEST DUP3 ADD SWAP2 SWAP1 PUSH0 MSTORE PUSH1 0x20 PUSH0 KECCAK256 SWAP1 JUMPDEST DUP2 SLOAD DUP2 MSTORE SWAP1 PUSH1 0x1 ADD SWAP1 PUSH1 0x20 ADD DUP1 DUP4 GT PUSH2 0x775 JUMPI DUP3 SWAP1 SUB PUSH1 0x1F AND DUP3 ADD SWAP2 JUMPDEST POP POP POP POP POP SWAP1 POP DUP4 JUMP JUMPDEST PUSH1 0xA SLOAD PUSH1 0x40 MLOAD PUSH4 0xFE436C53 PUSH1 0xE0 SHL DUP2 MSTORE CALLER PUSH1 0x4 DUP3 ADD MSTORE PUSH1 0x1 PUSH1 0x20 SHL SWAP1 SWAP2 DIV PUSH1 0x1 PUSH1 0x1 PUSH1 0xA0 SHL SUB AND SWAP1 PUSH4 0xFE436C53 SWAP1 PUSH1 0x24 ADD PUSH1 0x20 PUSH1 0x40 MLOAD DUP1 DUP4 SUB DUP2 DUP7 GAS STATICCALL ISZERO DUP1 ISZERO PUSH2 0x7E8 JUMPI RETURNDATASIZE PUSH0 PUSH0 RETURNDATACOPY RETURNDATASIZE PUSH0 REVERT JUMPDEST POP POP POP POP PUSH1 0x40 MLOAD RETURNDATASIZE PUSH1 0x1F NOT PUSH1 0x1F DUP3 ADD AND DUP3 ADD DUP1 PUSH1 0x40 MSTORE POP DUP2 ADD SWAP1 PUSH2 0x80C SWAP2 SWAP1 PUSH2 0xFE1 JUMP JUMPDEST PUSH2 0x829 JUMPI PUSH1 0x40 MLOAD PUSH4 0xBE245983 PUSH1 0xE0 SHL DUP2 MSTORE PUSH1 0x4 ADD PUSH1 0x40 MLOAD DUP1 SWAP2 SUB SWAP1 REVERT JUMPDEST PUSH1 0x8 SLOAD PUSH1 0x1 PUSH1 0x40 SHL SWAP1 DIV PUSH1 0xFF AND PUSH2 0x853 JUMPI PUSH1 0x40 MLOAD PUSH4 0x1104BC27 PUSH1 0xE2 SHL DUP2 MSTORE PUSH1 0x4 ADD PUSH1 0x40 MLOAD DUP1 SWAP2 SUB SWAP1 REVERT JUMPDEST PUSH1 0xA SLOAD PUSH1 0xFF AND ISZERO PUSH2 0x877 JUMPI PUSH1 0x40 MLOAD PUSH4 0x51618D53 PUSH1 0xE0 SHL DUP2 MSTORE PUSH1 0x4 ADD PUSH1 0x40 MLOAD DUP1 SWAP2 SUB SWAP1 REVERT JUMPDEST CALLER PUSH0 SWAP1 DUP2 MSTORE PUSH1 0xD PUSH1 0x20 MSTORE PUSH1 0x40 SWAP1 KECCAK256 SLOAD PUSH1 0xFF AND ISZERO PUSH2 0x8A7 JUMPI PUSH1 0x40 MLOAD PUSH4 0x7C9A1CF9 PUSH1 0xE0 SHL DUP2 MSTORE PUSH1 0x4 ADD PUSH1 0x40 MLOAD DUP1 SWAP2 SUB SWAP1 REVERT JUMPDEST PUSH1 0x8 SLOAD PUSH4 0xFFFFFFFF AND TIMESTAMP LT ISZERO PUSH2 0x8D0 JUMPI PUSH1 0x40 MLOAD PUSH4 0x6F312CBD PUSH1 0xE0 SHL DUP2 MSTORE PUSH1 0x4 ADD PUSH1 0x40 MLOAD DUP1 SWAP2 SUB SWAP1 REVERT JUMPDEST PUSH1 0x8 SLOAD PUSH1 0x1 PUSH1 0x20 SHL SWAP1 DIV PUSH4 0xFFFFFFFF AND TIMESTAMP GT ISZERO PUSH2 0x900 JUMPI PUSH1 0x40 MLOAD PUSH4 0x7A19ED05 PUSH1 0xE0 SHL DUP2 MSTORE PUSH1 0x4 ADD PUSH1 0x40 MLOAD DUP1 SWAP2 SUB SWAP1 REVERT JUMPDEST PUSH0 PUSH2 0x90A CALLER PUSH2 0xBFB JUMP JUMPDEST SWAP1 POP PUSH0 DUP2 GT PUSH2 0x92C JUMPI PUSH1 0x40 MLOAD PUSH4 0x1AA7CC5F PUSH1 0xE2 SHL DUP2 MSTORE PUSH1 0x4 ADD PUSH1 0x40 MLOAD DUP1 SWAP2 SUB SWAP1 REVERT JUMPDEST DUP2 PUSH1 0xFF AND PUSH1 0x1 SUB PUSH2 0x953 JUMPI DUP1 PUSH1 0x5 PUSH0 DUP3 DUP3 SLOAD PUSH2 0x948 SWAP2 SWAP1 PUSH2 0x103E JUMP JUMPDEST SWAP1 SWAP2 SSTORE POP PUSH2 0x9D1 SWAP1 POP JUMP JUMPDEST DUP2 PUSH1 0xFF AND PUSH1 0x2 SUB PUSH2 0x96F JUMPI DUP1 PUSH1 0x6 PUSH0 DUP3 DUP3 SLOAD PUSH2 0x948 SWAP2 SWAP1 PUSH2 0x103E JUMP JUMPDEST DUP2 PUSH1 0xFF AND PUSH1 0x3 SUB PUSH2 0x98B JUMPI DUP1 PUSH1 0x7 PUSH0 DUP3 DUP3 SLOAD PUSH2 0x948 SWAP2 SWAP1 PUSH2 0x103E JUMP JUMPDEST PUSH1 0x40 DUP1 MLOAD PUSH4 0x1C7EFAB3 PUSH1 0xE2 SHL DUP2 MSTORE PUSH1 0x4 DUP2 ADD SWAP2 SWAP1 SWAP2 MSTORE PUSH1 0xB PUSH1 0x44 DUP3 ADD MSTORE PUSH11 0x31206F722032206F722033 PUSH1 0xA8 SHL PUSH1 0x64 DUP3 ADD MSTORE PUSH1 0xFF DUP4 AND PUSH1 0x24 DUP3 ADD MSTORE PUSH1 0x84 ADD PUSH1 0x40 MLOAD DUP1 SWAP2 SUB SWAP1 REVERT JUMPDEST CALLER PUSH0 SWAP1 DUP2 MSTORE PUSH1 0xD PUSH1 0x20 SWAP1 DUP2 MSTORE PUSH1 0x40 SWAP2 DUP3 SWAP1 KECCAK256 DUP1 SLOAD PUSH1 0xFF NOT AND PUSH1 0x1 OR SWAP1 SSTORE PUSH1 0xA SLOAD DUP3 MLOAD PUSH4 0x51ED6357 PUSH1 0xE1 SHL DUP2 MSTORE SWAP3 MLOAD PUSH1 0x1 PUSH1 0x20 SHL SWAP1 SWAP2 DIV PUSH1 0x1 PUSH1 0x1 PUSH1 0xA0 SHL SUB AND SWAP3 PUSH4 0xA3DAC6AE SWAP3 PUSH1 0x4 DUP3 DUP2 ADD SWAP4 SWAP2 SWAP3 DUP3 SWAP1 SUB ADD DUP2 DUP7 GAS STATICCALL ISZERO DUP1 ISZERO PUSH2 0xA36 JUMPI RETURNDATASIZE PUSH0 PUSH0 RETURNDATACOPY RETURNDATASIZE PUSH0 REVERT JUMPDEST POP POP POP POP PUSH1 0x40 MLOAD RETURNDATASIZE PUSH1 0x1F NOT PUSH1 0x1F DUP3 ADD AND DUP3 ADD DUP1 PUSH1 0x40 MSTORE POP DUP2 ADD SWAP1 PUSH2 0xA5A SWAP2 SWAP1 PUSH2 0xFE1 JUMP JUMPDEST ISZERO PUSH2 0xAA1 JUMPI PUSH1 0xC SLOAD PUSH1 0x5 SLOAD LT PUSH2 0xA92 JUMPI PUSH1 0xA DUP1 SLOAD PUSH2 0xFF00 NOT AND PUSH2 0x100 OR SWAP1 SSTORE PUSH1 0x8 DUP1 SLOAD PUSH1 0x1 PUSH1 0x41 SHL PUSH1 0xFF PUSH1 0x40 SHL NOT SWAP1 SWAP2 AND OR SWAP1 SSTORE POP POP JUMP JUMPDEST PUSH1 0xA DUP1 SLOAD PUSH2 0xFF00 NOT AND SWAP1 SSTORE POP POP JUMP JUMPDEST PUSH1 0x2 SLOAD PUSH1 0x40 DUP1 MLOAD PUSH4 0x18160DDD PUSH1 0xE0 SHL DUP2 MSTORE SWAP1 MLOAD PUSH0 SWAP3 PUSH1 0x1 PUSH1 0x1 PUSH1 0xA0 SHL SUB AND SWAP2 PUSH4 0x18160DDD SWAP2 PUSH1 0x4 DUP1 DUP4 ADD SWAP3 PUSH1 0x20 SWAP3 SWAP2 SWAP1 DUP3 SWAP1 SUB ADD DUP2 DUP7 GAS STATICCALL ISZERO DUP1 ISZERO PUSH2 0xAE8 JUMPI RETURNDATASIZE PUSH0 PUSH0 RETURNDATACOPY RETURNDATASIZE PUSH0 REVERT JUMPDEST POP POP POP POP PUSH1 0x40 MLOAD RETURNDATASIZE PUSH1 0x1F NOT PUSH1 0x1F DUP3 ADD AND DUP3 ADD DUP1 PUSH1 0x40 MSTORE POP DUP2 ADD SWAP1 PUSH2 0xB0C SWAP2 SWAP1 PUSH2 0x1057 JUMP JUMPDEST SWAP1 POP PUSH0 DUP2 GT PUSH2 0xB2E JUMPI PUSH1 0x40 MLOAD PUSH4 0xC16F3A93 PUSH1 0xE0 SHL DUP2 MSTORE PUSH1 0x4 ADD PUSH1 0x40 MLOAD DUP1 SWAP2 SUB SWAP1 REVERT JUMPDEST PUSH0 PUSH1 0x7 SLOAD PUSH1 0x6 SLOAD PUSH1 0x5 SLOAD PUSH2 0xB42 SWAP2 SWAP1 PUSH2 0x103E JUMP JUMPDEST PUSH2 0xB4C SWAP2 SWAP1 PUSH2 0x103E JUMP JUMPDEST SWAP1 POP PUSH0 DUP3 PUSH2 0xB5B DUP4 PUSH1 0x64 PUSH2 0x106E JUMP JUMPDEST PUSH2 0xB65 SWAP2 SWAP1 PUSH2 0x1085 JUMP JUMPDEST SWAP1 POP PUSH0 DUP3 PUSH1 0x5 SLOAD PUSH1 0x64 PUSH2 0xB78 SWAP2 SWAP1 PUSH2 0x106E JUMP JUMPDEST PUSH2 0xB82 SWAP2 SWAP1 PUSH2 0x1085 JUMP JUMPDEST PUSH1 0x8 SLOAD SWAP1 SWAP2 POP PUSH1 0x1 PUSH1 0x50 SHL SWAP1 DIV PUSH1 0xFF AND DUP2 LT DUP1 ISZERO SWAP1 PUSH2 0xBAD JUMPI POP PUSH1 0x8 SLOAD PUSH1 0x1 PUSH1 0x48 SHL SWAP1 DIV PUSH1 0xFF AND DUP3 LT ISZERO JUMPDEST ISZERO PUSH2 0xBE7 JUMPI PUSH1 0x6 SLOAD PUSH1 0x5 SLOAD PUSH1 0xA DUP1 SLOAD PUSH2 0xFF00 NOT AND SWAP3 SWAP1 SWAP2 GT PUSH2 0x100 MUL SWAP2 SWAP1 SWAP2 OR SWAP1 SSTORE PUSH1 0x8 DUP1 SLOAD PUSH1 0xFF PUSH1 0x40 SHL NOT AND PUSH1 0x1 PUSH1 0x41 SHL OR SWAP1 SSTORE PUSH2 0xBF3 JUMP JUMPDEST PUSH1 0xA DUP1 SLOAD PUSH2 0xFF00 NOT AND SWAP1 SSTORE JUMPDEST POP POP POP POP POP POP JUMP JUMPDEST PUSH0 PUSH1 0xA PUSH1 0x4 SWAP1 SLOAD SWAP1 PUSH2 0x100 EXP SWAP1 DIV PUSH1 0x1 PUSH1 0x1 PUSH1 0xA0 SHL SUB AND PUSH1 0x1 PUSH1 0x1 PUSH1 0xA0 SHL SUB AND PUSH4 0xA3DAC6AE PUSH1 0x40 MLOAD DUP2 PUSH4 0xFFFFFFFF AND PUSH1 0xE0 SHL DUP2 MSTORE PUSH1 0x4 ADD PUSH1 0x20 PUSH1 0x40 MLOAD DUP1 DUP4 SUB DUP2 DUP7 GAS STATICCALL ISZERO DUP1 ISZERO PUSH2 0xC4D JUMPI RETURNDATASIZE PUSH0 PUSH0 RETURNDATACOPY RETURNDATASIZE PUSH0 REVERT JUMPDEST POP POP POP POP PUSH1 0x40 MLOAD RETURNDATASIZE PUSH1 0x1F NOT PUSH1 0x1F DUP3 ADD AND DUP3 ADD DUP1 PUSH1 0x40 MSTORE POP DUP2 ADD SWAP1 PUSH2 0xC71 SWAP2 SWAP1 PUSH2 0xFE1 JUMP JUMPDEST ISZERO PUSH2 0xC7E JUMPI POP PUSH1 0x1 SWAP2 SWAP1 POP JUMP JUMPDEST PUSH1 0x2 SLOAD PUSH1 0x40 MLOAD PUSH4 0x2C3E6F0F PUSH1 0xE1 SHL DUP2 MSTORE PUSH1 0x1 PUSH1 0x1 PUSH1 0xA0 SHL SUB DUP5 DUP2 AND PUSH1 0x4 DUP4 ADD MSTORE SWAP1 SWAP2 AND SWAP1 PUSH0 SWAP1 DUP3 SWAP1 PUSH4 0x587CDE1E SWAP1 PUSH1 0x24 ADD PUSH1 0x20 PUSH1 0x40 MLOAD DUP1 DUP4 SUB DUP2 DUP7 GAS STATICCALL ISZERO DUP1 ISZERO PUSH2 0xCCA JUMPI RETURNDATASIZE PUSH0 PUSH0 RETURNDATACOPY RETURNDATASIZE PUSH0 REVERT JUMPDEST POP POP POP POP PUSH1 0x40 MLOAD RETURNDATASIZE PUSH1 0x1F NOT PUSH1 0x1F DUP3 ADD AND DUP3 ADD DUP1 PUSH1 0x40 MSTORE POP DUP2 ADD SWAP1 PUSH2 0xCEE SWAP2 SWAP1 PUSH2 0x10A4 JUMP JUMPDEST PUSH1 0x1 PUSH1 0x1 PUSH1 0xA0 SHL SUB AND SUB PUSH2 0xDDD JUMPI PUSH1 0x40 MLOAD PUSH4 0x9AB24EB PUSH1 0xE4 SHL DUP2 MSTORE PUSH1 0x1 PUSH1 0x1 PUSH1 0xA0 SHL SUB DUP5 DUP2 AND PUSH1 0x4 DUP4 ADD MSTORE DUP3 AND SWAP1 PUSH4 0x9AB24EB0 SWAP1 PUSH1 0x24 ADD PUSH1 0x20 PUSH1 0x40 MLOAD DUP1 DUP4 SUB DUP2 DUP7 GAS STATICCALL ISZERO DUP1 ISZERO PUSH2 0xD40 JUMPI RETURNDATASIZE PUSH0 PUSH0 RETURNDATACOPY RETURNDATASIZE PUSH0 REVERT JUMPDEST POP POP POP POP PUSH1 0x40 MLOAD RETURNDATASIZE PUSH1 0x1F NOT PUSH1 0x1F DUP3 ADD AND DUP3 ADD DUP1 PUSH1 0x40 MSTORE POP DUP2 ADD SWAP1 PUSH2 0xD64 SWAP2 SWAP1 PUSH2 0x1057 JUMP JUMPDEST PUSH1 0x40 MLOAD PUSH4 0x70A08231 PUSH1 0xE0 SHL DUP2 MSTORE PUSH1 0x1 PUSH1 0x1 PUSH1 0xA0 SHL SUB DUP6 DUP2 AND PUSH1 0x4 DUP4 ADD MSTORE DUP4 AND SWAP1 PUSH4 0x70A08231 SWAP1 PUSH1 0x24 ADD PUSH1 0x20 PUSH1 0x40 MLOAD DUP1 DUP4 SUB DUP2 DUP7 GAS STATICCALL ISZERO DUP1 ISZERO PUSH2 0xDA8 JUMPI RETURNDATASIZE PUSH0 PUSH0 RETURNDATACOPY RETURNDATASIZE PUSH0 REVERT JUMPDEST POP POP POP POP PUSH1 0x40 MLOAD RETURNDATASIZE PUSH1 0x1F NOT PUSH1 0x1F DUP3 ADD AND DUP3 ADD DUP1 PUSH1 0x40 MSTORE POP DUP2 ADD SWAP1 PUSH2 0xDCC SWAP2 SWAP1 PUSH2 0x1057 JUMP JUMPDEST PUSH2 0xDD6 SWAP2 SWAP1 PUSH2 0x103E JUMP JUMPDEST SWAP4 SWAP3 POP POP POP JUMP JUMPDEST PUSH1 0x40 MLOAD PUSH4 0x2C3E6F0F PUSH1 0xE1 SHL DUP2 MSTORE PUSH1 0x1 PUSH1 0x1 PUSH1 0xA0 SHL SUB DUP1 DUP6 AND PUSH1 0x4 DUP4 ADD DUP2 SWAP1 MSTORE SWAP2 SWAP1 DUP4 AND SWAP1 PUSH4 0x587CDE1E SWAP1 PUSH1 0x24 ADD PUSH1 0x20 PUSH1 0x40 MLOAD DUP1 DUP4 SUB DUP2 DUP7 GAS STATICCALL ISZERO DUP1 ISZERO PUSH2 0xE25 JUMPI RETURNDATASIZE PUSH0 PUSH0 RETURNDATACOPY RETURNDATASIZE PUSH0 REVERT JUMPDEST POP POP POP POP PUSH1 0x40 MLOAD RETURNDATASIZE PUSH1 0x1F NOT PUSH1 0x1F DUP3 ADD AND DUP3 ADD DUP1 PUSH1 0x40 MSTORE POP DUP2 ADD SWAP1 PUSH2 0xE49 SWAP2 SWAP1 PUSH2 0x10A4 JUMP JUMPDEST PUSH1 0x1 PUSH1 0x1 PUSH1 0xA0 SHL SUB AND SUB PUSH2 0xEBF JUMPI PUSH1 0x40 MLOAD PUSH4 0x9AB24EB PUSH1 0xE4 SHL DUP2 MSTORE PUSH1 0x1 PUSH1 0x1 PUSH1 0xA0 SHL SUB DUP5 DUP2 AND PUSH1 0x4 DUP4 ADD MSTORE DUP3 AND SWAP1 PUSH4 0x9AB24EB0 SWAP1 PUSH1 0x24 ADD PUSH1 0x20 PUSH1 0x40 MLOAD DUP1 DUP4 SUB DUP2 DUP7 GAS STATICCALL ISZERO DUP1 ISZERO PUSH2 0xE9B JUMPI RETURNDATASIZE PUSH0 PUSH0 RETURNDATACOPY RETURNDATASIZE PUSH0 REVERT JUMPDEST POP POP POP POP PUSH1 0x40 MLOAD RETURNDATASIZE PUSH1 0x1F NOT PUSH1 0x1F DUP3 ADD AND DUP3 ADD DUP1 PUSH1 0x40 MSTORE POP DUP2 ADD SWAP1 PUSH2 0xDD6 SWAP2 SWAP1 PUSH2 0x1057 JUMP JUMPDEST POP PUSH0 SWAP3 SWAP2 POP POP JUMP JUMPDEST POP SWAP2 SWAP1 POP JUMP JUMPDEST PUSH1 0x3 DUP1 SLOAD PUSH2 0x399 SWAP1 PUSH2 0xFAF JUMP JUMPDEST PUSH1 0x1 PUSH1 0x1 PUSH1 0xA0 SHL SUB DUP2 AND DUP2 EQ PUSH2 0x6D3 JUMPI PUSH0 PUSH0 REVERT JUMPDEST PUSH0 PUSH1 0x20 DUP3 DUP5 SUB SLT ISZERO PUSH2 0xEFE JUMPI PUSH0 PUSH0 REVERT JUMPDEST DUP2 CALLDATALOAD PUSH2 0xDD6 DUP2 PUSH2 0xEDA JUMP JUMPDEST PUSH0 DUP2 MLOAD DUP1 DUP5 MSTORE DUP1 PUSH1 0x20 DUP5 ADD PUSH1 0x20 DUP7 ADD MCOPY PUSH0 PUSH1 0x20 DUP3 DUP7 ADD ADD MSTORE PUSH1 0x20 PUSH1 0x1F NOT PUSH1 0x1F DUP4 ADD AND DUP6 ADD ADD SWAP2 POP POP SWAP3 SWAP2 POP POP JUMP JUMPDEST PUSH1 0x20 DUP2 MSTORE PUSH0 PUSH2 0xDD6 PUSH1 0x20 DUP4 ADD DUP5 PUSH2 0xF09 JUMP JUMPDEST PUSH0 PUSH1 0x20 DUP3 DUP5 SUB SLT ISZERO PUSH2 0xF59 JUMPI PUSH0 PUSH0 REVERT JUMPDEST POP CALLDATALOAD SWAP2 SWAP1 POP JUMP JUMPDEST PUSH1 0x1 DUP1 PUSH1 0xA0 SHL SUB DUP5 AND DUP2 MSTORE DUP3 PUSH1 0x20 DUP3 ADD MSTORE PUSH1 0x60 PUSH1 0x40 DUP3 ADD MSTORE PUSH0 PUSH2 0xF86 PUSH1 0x60 DUP4 ADD DUP5 PUSH2 0xF09 JUMP JUMPDEST SWAP6 SWAP5 POP POP POP POP POP JUMP JUMPDEST PUSH0 PUSH1 0x20 DUP3 DUP5 SUB SLT ISZERO PUSH2 0xF9F JUMPI PUSH0 PUSH0 REVERT JUMPDEST DUP2 CALLDATALOAD PUSH1 0xFF DUP2 AND DUP2 EQ PUSH2 0xDD6 JUMPI PUSH0 PUSH0 REVERT JUMPDEST PUSH1 0x1 DUP2 DUP2 SHR SWAP1 DUP3 AND DUP1 PUSH2 0xFC3 JUMPI PUSH1 0x7F DUP3 AND SWAP2 POP JUMPDEST PUSH1 0x20 DUP3 LT DUP2 SUB PUSH2 0xEC7 JUMPI PUSH4 0x4E487B71 PUSH1 0xE0 SHL PUSH0 MSTORE PUSH1 0x22 PUSH1 0x4 MSTORE PUSH1 0x24 PUSH0 REVERT JUMPDEST PUSH0 PUSH1 0x20 DUP3 DUP5 SUB SLT ISZERO PUSH2 0xFF1 JUMPI PUSH0 PUSH0 REVERT JUMPDEST DUP2 MLOAD DUP1 ISZERO ISZERO DUP2 EQ PUSH2 0xDD6 JUMPI PUSH0 PUSH0 REVERT JUMPDEST PUSH4 0x4E487B71 PUSH1 0xE0 SHL PUSH0 MSTORE PUSH1 0x32 PUSH1 0x4 MSTORE PUSH1 0x24 PUSH0 REVERT JUMPDEST PUSH0 DUP3 MLOAD DUP1 PUSH1 0x20 DUP6 ADD DUP5 MCOPY PUSH0 SWAP3 ADD SWAP2 DUP3 MSTORE POP SWAP2 SWAP1 POP JUMP JUMPDEST PUSH4 0x4E487B71 PUSH1 0xE0 SHL PUSH0 MSTORE PUSH1 0x11 PUSH1 0x4 MSTORE PUSH1 0x24 PUSH0 REVERT JUMPDEST DUP1 DUP3 ADD DUP1 DUP3 GT ISZERO PUSH2 0x1051 JUMPI PUSH2 0x1051 PUSH2 0x102A JUMP JUMPDEST SWAP3 SWAP2 POP POP JUMP JUMPDEST PUSH0 PUSH1 0x20 DUP3 DUP5 SUB SLT ISZERO PUSH2 0x1067 JUMPI PUSH0 PUSH0 REVERT JUMPDEST POP MLOAD SWAP2 SWAP1 POP JUMP JUMPDEST DUP1 DUP3 MUL DUP2 ISZERO DUP3 DUP3 DIV DUP5 EQ OR PUSH2 0x1051 JUMPI PUSH2 0x1051 PUSH2 0x102A JUMP JUMPDEST PUSH0 DUP3 PUSH2 0x109F JUMPI PUSH4 0x4E487B71 PUSH1 0xE0 SHL PUSH0 MSTORE PUSH1 0x12 PUSH1 0x4 MSTORE PUSH1 0x24 PUSH0 REVERT JUMPDEST POP DIV SWAP1 JUMP JUMPDEST PUSH0 PUSH1 0x20 DUP3 DUP5 SUB SLT ISZERO PUSH2 0x10B4 JUMPI PUSH0 PUSH0 REVERT JUMPDEST DUP2 MLOAD PUSH2 0xDD6 DUP2 PUSH2 0xEDA JUMP INVALID LOG2 PUSH5 0x6970667358 0x22 SLT KECCAK256 0xE 0xBB PUSH19 0xDAD37DBC06E74853DF7B77C4309879E762A4F7 0xC8 SELFDESTRUCT 0x1E DUP13 NOT CODECOPY DUP6 0xA8 SDIV 0x4C PUSH5 0x736F6C6343 STOP ADDMOD SAR STOP CALLER "
		},
		"gasEstimates": {
			"creation": {
				"codeDepositCost": "868200",
				"executionCost": "infinite",
				"totalCost": "infinite"
			},
			"external": {
				"_getVotingUnits(address)": "infinite",
				"abstainVotes()": "2373",
				"actions(uint256)": "infinite",
				"approved()": "2454",
				"canVoteChange()": "2366",
				"dao()": "2376",
				"daoAddress()": "2380",
				"earlyExecution()": "2431",
				"endTime()": "2396",
				"executeProposal()": "infinite",
				"executed()": "2398",
				"governanceTokenAddress()": "2403",
				"hasVoted(address)": "2591",
				"minApproval()": "2307",
				"minimumDurationForProposal()": "2328",
				"minimumParticipationPercentage()": "2396",
				"noVotes()": "2372",
				"proposalDescription()": "infinite",
				"proposalTitle()": "infinite",
				"proposerAddress()": "2448",
				"startTime()": "2401",
				"status()": "2352",
				"supportThresholdPercentage()": "2417",
				"vote(uint8)": "infinite",
				"yesVotes()": "2393"
			}
		},
		"methodIdentifiers": {
			"_getVotingUnits(address)": "e1f8c037",
			"abstainVotes()": "0be48894",
			"actions(uint256)": "83240f83",
			"approved()": "19d40b08",
			"canVoteChange()": "05074f11",
			"dao()": "4162169f",
			"daoAddress()": "2131c68c",
			"earlyExecution()": "7e7b1d42",
			"endTime()": "3197cbb6",
			"executeProposal()": "373058b8",
			"executed()": "31a38c89",
			"governanceTokenAddress()": "b42165d0",
			"hasVoted(address)": "09eef43e",
			"minApproval()": "03ff90f6",
			"minimumDurationForProposal()": "537aeca1",
			"minimumParticipationPercentage()": "60f8abb9",
			"noVotes()": "b5b47f42",
			"proposalDescription()": "34305545",
			"proposalTitle()": "e5045752",
			"proposerAddress()": "0ebbc1b8",
			"startTime()": "78e97925",
			"status()": "200d2ed2",
			"supportThresholdPercentage()": "e987194f",
			"vote(uint8)": "b3f98adc",
			"yesVotes()": "fb286c65"
		}
	},
	"abi": [
		{
			"inputs": [
				{
					"internalType": "address",
					"name": "_daoAddress",
					"type": "address"
				},
				{
					"internalType": "address",
					"name": "_proposerAddress",
					"type": "address"
				},
				{
					"internalType": "uint256",
					"name": "_minApproval",
					"type": "uint256"
				},
				{
					"internalType": "string",
					"name": "_title",
					"type": "string"
				},
				{
					"internalType": "string",
					"name": "_description",
					"type": "string"
				},
				{
					"internalType": "uint32",
					"name": "_startTime",
					"type": "uint32"
				},
				{
					"internalType": "uint32",
					"name": "_duration",
					"type": "uint32"
				},
				{
					"internalType": "uint8",
					"name": "actionId",
					"type": "uint8"
				},
				{
					"components": [
						{
							"internalType": "address",
							"name": "to",
							"type": "address"
						},
						{
							"internalType": "uint256",
							"name": "value",
							"type": "uint256"
						},
						{
							"internalType": "bytes",
							"name": "data",
							"type": "bytes"
						}
					],
					"internalType": "struct IProposal.Action[]",
					"name": "_actions",
					"type": "tuple[]"
				}
			],
			"stateMutability": "nonpayable",
			"type": "constructor"
		},
		{
			"inputs": [],
			"name": "ActionExecutionFailed",
			"type": "error"
		},
		{
			"inputs": [],
			"name": "AlreadyVoted",
			"type": "error"
		},
		{
			"inputs": [],
			"name": "InsufficientPower",
			"type": "error"
		},
		{
			"inputs": [
				{
					"internalType": "string",
					"name": "expected",
					"type": "string"
				},
				{
					"internalType": "uint256",
					"name": "actual",
					"type": "uint256"
				}
			],
			"name": "InvalidVoteType",
			"type": "error"
		},
		{
			"inputs": [],
			"name": "NotStarted",
			"type": "error"
		},
		{
			"inputs": [],
			"name": "ProposalAlreadyExecuted",
			"type": "error"
		},
		{
			"inputs": [],
			"name": "ProposalNotApproved",
			"type": "error"
		},
		{
			"inputs": [],
			"name": "ProposalNotExist",
			"type": "error"
		},
		{
			"inputs": [],
			"name": "UnAuthorized",
			"type": "error"
		},
		{
			"inputs": [],
			"name": "VotingEnded",
			"type": "error"
		},
		{
			"inputs": [],
			"name": "ZeroSupply",
			"type": "error"
		},
		{
			"inputs": [
				{
					"internalType": "address",
					"name": "account",
					"type": "address"
				}
			],
			"name": "_getVotingUnits",
			"outputs": [
				{
					"internalType": "uint256",
					"name": "",
					"type": "uint256"
				}
			],
			"stateMutability": "view",
			"type": "function"
		},
		{
			"inputs": [],
			"name": "abstainVotes",
			"outputs": [
				{
					"internalType": "uint256",
					"name": "",
					"type": "uint256"
				}
			],
			"stateMutability": "view",
			"type": "function"
		},
		{
			"inputs": [
				{
					"internalType": "uint256",
					"name": "",
					"type": "uint256"
				}
			],
			"name": "actions",
			"outputs": [
				{
					"internalType": "address",
					"name": "to",
					"type": "address"
				},
				{
					"internalType": "uint256",
					"name": "value",
					"type": "uint256"
				},
				{
					"internalType": "bytes",
					"name": "data",
					"type": "bytes"
				}
			],
			"stateMutability": "view",
			"type": "function"
		},
		{
			"inputs": [],
			"name": "approved",
			"outputs": [
				{
					"internalType": "bool",
					"name": "",
					"type": "bool"
				}
			],
			"stateMutability": "view",
			"type": "function"
		},
		{
			"inputs": [],
			"name": "canVoteChange",
			"outputs": [
				{
					"internalType": "bool",
					"name": "",
					"type": "bool"
				}
			],
			"stateMutability": "view",
			"type": "function"
		},
		{
			"inputs": [],
			"name": "dao",
			"outputs": [
				{
					"internalType": "contract DAO",
					"name": "",
					"type": "address"
				}
			],
			"stateMutability": "view",
			"type": "function"
		},
		{
			"inputs": [],
			"name": "daoAddress",
			"outputs": [
				{
					"internalType": "address",
					"name": "",
					"type": "address"
				}
			],
			"stateMutability": "view",
			"type": "function"
		},
		{
			"inputs": [],
			"name": "earlyExecution",
			"outputs": [
				{
					"internalType": "bool",
					"name": "",
					"type": "bool"
				}
			],
			"stateMutability": "view",
			"type": "function"
		},
		{
			"inputs": [],
			"name": "endTime",
			"outputs": [
				{
					"internalType": "uint32",
					"name": "",
					"type": "uint32"
				}
			],
			"stateMutability": "view",
			"type": "function"
		},
		{
			"inputs": [],
			"name": "executeProposal",
			"outputs": [],
			"stateMutability": "nonpayable",
			"type": "function"
		},
		{
			"inputs": [],
			"name": "executed",
			"outputs": [
				{
					"internalType": "bool",
					"name": "",
					"type": "bool"
				}
			],
			"stateMutability": "view",
			"type": "function"
		},
		{
			"inputs": [],
			"name": "governanceTokenAddress",
			"outputs": [
				{
					"internalType": "address",
					"name": "",
					"type": "address"
				}
			],
			"stateMutability": "view",
			"type": "function"
		},
		{
			"inputs": [
				{
					"internalType": "address",
					"name": "",
					"type": "address"
				}
			],
			"name": "hasVoted",
			"outputs": [
				{
					"internalType": "bool",
					"name": "",
					"type": "bool"
				}
			],
			"stateMutability": "view",
			"type": "function"
		},
		{
			"inputs": [],
			"name": "minApproval",
			"outputs": [
				{
					"internalType": "uint256",
					"name": "",
					"type": "uint256"
				}
			],
			"stateMutability": "view",
			"type": "function"
		},
		{
			"inputs": [],
			"name": "minimumDurationForProposal",
			"outputs": [
				{
					"internalType": "uint256",
					"name": "",
					"type": "uint256"
				}
			],
			"stateMutability": "view",
			"type": "function"
		},
		{
			"inputs": [],
			"name": "minimumParticipationPercentage",
			"outputs": [
				{
					"internalType": "uint8",
					"name": "",
					"type": "uint8"
				}
			],
			"stateMutability": "view",
			"type": "function"
		},
		{
			"inputs": [],
			"name": "noVotes",
			"outputs": [
				{
					"internalType": "uint256",
					"name": "",
					"type": "uint256"
				}
			],
			"stateMutability": "view",
			"type": "function"
		},
		{
			"inputs": [],
			"name": "proposalDescription",
			"outputs": [
				{
					"internalType": "string",
					"name": "",
					"type": "string"
				}
			],
			"stateMutability": "view",
			"type": "function"
		},
		{
			"inputs": [],
			"name": "proposalTitle",
			"outputs": [
				{
					"internalType": "string",
					"name": "",
					"type": "string"
				}
			],
			"stateMutability": "view",
			"type": "function"
		},
		{
			"inputs": [],
			"name": "proposerAddress",
			"outputs": [
				{
					"internalType": "address",
					"name": "",
					"type": "address"
				}
			],
			"stateMutability": "view",
			"type": "function"
		},
		{
			"inputs": [],
			"name": "startTime",
			"outputs": [
				{
					"internalType": "uint32",
					"name": "",
					"type": "uint32"
				}
			],
			"stateMutability": "view",
			"type": "function"
		},
		{
			"inputs": [],
			"name": "status",
			"outputs": [
				{
					"internalType": "uint8",
					"name": "",
					"type": "uint8"
				}
			],
			"stateMutability": "view",
			"type": "function"
		},
		{
			"inputs": [],
			"name": "supportThresholdPercentage",
			"outputs": [
				{
					"internalType": "uint8",
					"name": "",
					"type": "uint8"
				}
			],
			"stateMutability": "view",
			"type": "function"
		},
		{
			"inputs": [
				{
					"internalType": "uint8",
					"name": "_voteOption",
					"type": "uint8"
				}
			],
			"name": "vote",
			"outputs": [],
			"stateMutability": "nonpayable",
			"type": "function"
		},
		{
			"inputs": [],
			"name": "yesVotes",
			"outputs": [
				{
					"internalType": "uint256",
					"name": "",
					"type": "uint256"
				}
			],
			"stateMutability": "view",
			"type": "function"
		}
	]
}